{
	"contracts/StartStopUpdateExample.sol": {
		"StartStopUpdateExample": {
			"abi": [
				{
					"inputs": [],
					"stateMutability": "nonpayable",
					"type": "constructor"
				},
				{
					"inputs": [
						{
							"internalType": "address payable",
							"name": "_to",
							"type": "address"
						}
					],
					"name": "destroySmartContract",
					"outputs": [],
					"stateMutability": "nonpayable",
					"type": "function"
				},
				{
					"inputs": [],
					"name": "owner",
					"outputs": [
						{
							"internalType": "address payable",
							"name": "",
							"type": "address"
						}
					],
					"stateMutability": "view",
					"type": "function"
				},
				{
					"inputs": [],
					"name": "paused",
					"outputs": [
						{
							"internalType": "bool",
							"name": "",
							"type": "bool"
						}
					],
					"stateMutability": "view",
					"type": "function"
				},
				{
					"inputs": [],
					"name": "sendMoney",
					"outputs": [],
					"stateMutability": "payable",
					"type": "function"
				},
				{
					"inputs": [
						{
							"internalType": "bool",
							"name": "_paused",
							"type": "bool"
						}
					],
					"name": "setPaused",
					"outputs": [],
					"stateMutability": "nonpayable",
					"type": "function"
				},
				{
					"inputs": [
						{
							"internalType": "address payable",
							"name": "_to",
							"type": "address"
						}
					],
					"name": "withdrawAllMoney",
					"outputs": [],
					"stateMutability": "nonpayable",
					"type": "function"
				}
			],
			"devdoc": {
				"kind": "dev",
				"methods": {},
				"version": 1
			},
			"evm": {
				"assembly": "    /* \"contracts/StartStopUpdateExample.sol\":111:868  contract StartStopUpdateExample {... */\n  mstore(0x40, 0x80)\n    /* \"contracts/StartStopUpdateExample.sol\":212:272  constructor() {... */\n  callvalue\n  dup1\n  iszero\n  tag_1\n  jumpi\n  0x00\n  dup1\n  revert\ntag_1:\n  pop\n    /* \"contracts/StartStopUpdateExample.sol\":253:263  msg.sender */\n  caller\n    /* \"contracts/StartStopUpdateExample.sol\":237:242  owner */\n  0x00\n  dup1\n    /* \"contracts/StartStopUpdateExample.sol\":237:264  owner = payable(msg.sender) */\n  0x0100\n  exp\n  dup2\n  sload\n  dup2\n  0xffffffffffffffffffffffffffffffffffffffff\n  mul\n  not\n  and\n  swap1\n  dup4\n  0xffffffffffffffffffffffffffffffffffffffff\n  and\n  mul\n  or\n  swap1\n  sstore\n  pop\n    /* \"contracts/StartStopUpdateExample.sol\":111:868  contract StartStopUpdateExample {... */\n  dataSize(sub_0)\n  dup1\n  dataOffset(sub_0)\n  0x00\n  codecopy\n  0x00\n  return\nstop\n\nsub_0: assembly {\n        /* \"contracts/StartStopUpdateExample.sol\":111:868  contract StartStopUpdateExample {... */\n      mstore(0x40, 0x80)\n      jumpi(tag_1, lt(calldatasize, 0x04))\n      shr(0xe0, calldataload(0x00))\n      dup1\n      0x0adec93c\n      eq\n      tag_2\n      jumpi\n      dup1\n      0x16c38b3c\n      eq\n      tag_3\n      jumpi\n      dup1\n      0x39df43ff\n      eq\n      tag_4\n      jumpi\n      dup1\n      0x5c975abb\n      eq\n      tag_5\n      jumpi\n      dup1\n      0x8da5cb5b\n      eq\n      tag_6\n      jumpi\n      dup1\n      0xcbedbf5a\n      eq\n      tag_7\n      jumpi\n    tag_1:\n      0x00\n      dup1\n      revert\n        /* \"contracts/StartStopUpdateExample.sol\":473:699  function withdrawAllMoney(address payable _to) public {... */\n    tag_2:\n      callvalue\n      dup1\n      iszero\n      tag_8\n      jumpi\n      0x00\n      dup1\n      revert\n    tag_8:\n      pop\n      tag_9\n      0x04\n      dup1\n      calldatasize\n      sub\n      dup2\n      add\n      swap1\n      tag_10\n      swap2\n      swap1\n      tag_11\n      jump\t// in\n    tag_10:\n      tag_12\n      jump\t// in\n    tag_9:\n      stop\n        /* \"contracts/StartStopUpdateExample.sol\":326:465  function setPaused(bool _paused) public {... */\n    tag_3:\n      callvalue\n      dup1\n      iszero\n      tag_13\n      jumpi\n      0x00\n      dup1\n      revert\n    tag_13:\n      pop\n      tag_14\n      0x04\n      dup1\n      calldatasize\n      sub\n      dup2\n      add\n      swap1\n      tag_15\n      swap2\n      swap1\n      tag_16\n      jump\t// in\n    tag_15:\n      tag_17\n      jump\t// in\n    tag_14:\n      stop\n        /* \"contracts/StartStopUpdateExample.sol\":707:865  function destroySmartContract(address payable _to) public {... */\n    tag_4:\n      callvalue\n      dup1\n      iszero\n      tag_18\n      jumpi\n      0x00\n      dup1\n      revert\n    tag_18:\n      pop\n      tag_19\n      0x04\n      dup1\n      calldatasize\n      sub\n      dup2\n      add\n      swap1\n      tag_20\n      swap2\n      swap1\n      tag_11\n      jump\t// in\n    tag_20:\n      tag_21\n      jump\t// in\n    tag_19:\n      stop\n        /* \"contracts/StartStopUpdateExample.sol\":185:203  bool public paused */\n    tag_5:\n      callvalue\n      dup1\n      iszero\n      tag_22\n      jumpi\n      0x00\n      dup1\n      revert\n    tag_22:\n      pop\n      tag_23\n      tag_24\n      jump\t// in\n    tag_23:\n      mload(0x40)\n      tag_25\n      swap2\n      swap1\n      tag_26\n      jump\t// in\n    tag_25:\n      mload(0x40)\n      dup1\n      swap2\n      sub\n      swap1\n      return\n        /* \"contracts/StartStopUpdateExample.sol\":150:178  address payable public owner */\n    tag_6:\n      callvalue\n      dup1\n      iszero\n      tag_27\n      jumpi\n      0x00\n      dup1\n      revert\n    tag_27:\n      pop\n      tag_28\n      tag_29\n      jump\t// in\n    tag_28:\n      mload(0x40)\n      tag_30\n      swap2\n      swap1\n      tag_31\n      jump\t// in\n    tag_30:\n      mload(0x40)\n      dup1\n      swap2\n      sub\n      swap1\n      return\n        /* \"contracts/StartStopUpdateExample.sol\":280:318  function sendMoney() payable public {} */\n    tag_7:\n      tag_32\n      tag_33\n      jump\t// in\n    tag_32:\n      stop\n        /* \"contracts/StartStopUpdateExample.sol\":473:699  function withdrawAllMoney(address payable _to) public {... */\n    tag_12:\n        /* \"contracts/StartStopUpdateExample.sol\":555:565  msg.sender */\n      caller\n        /* \"contracts/StartStopUpdateExample.sol\":546:565  owner == msg.sender */\n      0xffffffffffffffffffffffffffffffffffffffff\n      and\n        /* \"contracts/StartStopUpdateExample.sol\":546:551  owner */\n      0x00\n      dup1\n      sload\n      swap1\n      0x0100\n      exp\n      swap1\n      div\n      0xffffffffffffffffffffffffffffffffffffffff\n      and\n        /* \"contracts/StartStopUpdateExample.sol\":546:565  owner == msg.sender */\n      0xffffffffffffffffffffffffffffffffffffffff\n      and\n      eq\n        /* \"contracts/StartStopUpdateExample.sol\":538:591  require(owner == msg.sender, \"You are not the owner\") */\n      tag_35\n      jumpi\n      mload(0x40)\n      0x08c379a000000000000000000000000000000000000000000000000000000000\n      dup2\n      mstore\n      0x04\n      add\n      tag_36\n      swap1\n      tag_37\n      jump\t// in\n    tag_36:\n      mload(0x40)\n      dup1\n      swap2\n      sub\n      swap1\n      revert\n    tag_35:\n        /* \"contracts/StartStopUpdateExample.sol\":620:625  false */\n      0x00\n        /* \"contracts/StartStopUpdateExample.sol\":610:625  paused == false */\n      iszero\n      iszero\n        /* \"contracts/StartStopUpdateExample.sol\":610:616  paused */\n      0x00\n      0x14\n      swap1\n      sload\n      swap1\n      0x0100\n      exp\n      swap1\n      div\n      0xff\n      and\n        /* \"contracts/StartStopUpdateExample.sol\":610:625  paused == false */\n      iszero\n      iszero\n      eq\n        /* \"contracts/StartStopUpdateExample.sol\":602:645  require(paused == false, \"Contract paused\") */\n      tag_38\n      jumpi\n      mload(0x40)\n      0x08c379a000000000000000000000000000000000000000000000000000000000\n      dup2\n      mstore\n      0x04\n      add\n      tag_39\n      swap1\n      tag_40\n      jump\t// in\n    tag_39:\n      mload(0x40)\n      dup1\n      swap2\n      sub\n      swap1\n      revert\n    tag_38:\n        /* \"contracts/StartStopUpdateExample.sol\":656:659  _to */\n      dup1\n        /* \"contracts/StartStopUpdateExample.sol\":656:668  _to.transfer */\n      0xffffffffffffffffffffffffffffffffffffffff\n      and\n        /* \"contracts/StartStopUpdateExample.sol\":656:691  _to.transfer(address(this).balance) */\n      0x08fc\n        /* \"contracts/StartStopUpdateExample.sol\":669:690  address(this).balance */\n      selfbalance\n        /* \"contracts/StartStopUpdateExample.sol\":656:691  _to.transfer(address(this).balance) */\n      swap1\n      dup2\n      iszero\n      mul\n      swap1\n      mload(0x40)\n      0x00\n      mload(0x40)\n      dup1\n      dup4\n      sub\n      dup2\n      dup6\n      dup9\n      dup9\n      call\n      swap4\n      pop\n      pop\n      pop\n      pop\n      iszero\n      dup1\n      iszero\n      tag_42\n      jumpi\n      returndatasize\n      0x00\n      dup1\n      returndatacopy\n      revert(0x00, returndatasize)\n    tag_42:\n      pop\n        /* \"contracts/StartStopUpdateExample.sol\":473:699  function withdrawAllMoney(address payable _to) public {... */\n      pop\n      jump\t// out\n        /* \"contracts/StartStopUpdateExample.sol\":326:465  function setPaused(bool _paused) public {... */\n    tag_17:\n        /* \"contracts/StartStopUpdateExample.sol\":394:404  msg.sender */\n      caller\n        /* \"contracts/StartStopUpdateExample.sol\":385:404  owner == msg.sender */\n      0xffffffffffffffffffffffffffffffffffffffff\n      and\n        /* \"contracts/StartStopUpdateExample.sol\":385:390  owner */\n      0x00\n      dup1\n      sload\n      swap1\n      0x0100\n      exp\n      swap1\n      div\n      0xffffffffffffffffffffffffffffffffffffffff\n      and\n        /* \"contracts/StartStopUpdateExample.sol\":385:404  owner == msg.sender */\n      0xffffffffffffffffffffffffffffffffffffffff\n      and\n      eq\n        /* \"contracts/StartStopUpdateExample.sol\":377:430  require(owner == msg.sender, \"You are not the owner\") */\n      tag_44\n      jumpi\n      mload(0x40)\n      0x08c379a000000000000000000000000000000000000000000000000000000000\n      dup2\n      mstore\n      0x04\n      add\n      tag_45\n      swap1\n      tag_37\n      jump\t// in\n    tag_45:\n      mload(0x40)\n      dup1\n      swap2\n      sub\n      swap1\n      revert\n    tag_44:\n        /* \"contracts/StartStopUpdateExample.sol\":450:457  _paused */\n      dup1\n        /* \"contracts/StartStopUpdateExample.sol\":441:447  paused */\n      0x00\n      0x14\n        /* \"contracts/StartStopUpdateExample.sol\":441:457  paused = _paused */\n      0x0100\n      exp\n      dup2\n      sload\n      dup2\n      0xff\n      mul\n      not\n      and\n      swap1\n      dup4\n      iszero\n      iszero\n      mul\n      or\n      swap1\n      sstore\n      pop\n        /* \"contracts/StartStopUpdateExample.sol\":326:465  function setPaused(bool _paused) public {... */\n      pop\n      jump\t// out\n        /* \"contracts/StartStopUpdateExample.sol\":707:865  function destroySmartContract(address payable _to) public {... */\n    tag_21:\n        /* \"contracts/StartStopUpdateExample.sol\":798:803  owner */\n      0x00\n      dup1\n      sload\n      swap1\n      0x0100\n      exp\n      swap1\n      div\n      0xffffffffffffffffffffffffffffffffffffffff\n      and\n        /* \"contracts/StartStopUpdateExample.sol\":784:803  msg.sender == owner */\n      0xffffffffffffffffffffffffffffffffffffffff\n      and\n        /* \"contracts/StartStopUpdateExample.sol\":784:794  msg.sender */\n      caller\n        /* \"contracts/StartStopUpdateExample.sol\":784:803  msg.sender == owner */\n      0xffffffffffffffffffffffffffffffffffffffff\n      and\n      eq\n        /* \"contracts/StartStopUpdateExample.sol\":776:829  require(msg.sender == owner, \"You are not the owner\") */\n      tag_47\n      jumpi\n      mload(0x40)\n      0x08c379a000000000000000000000000000000000000000000000000000000000\n      dup2\n      mstore\n      0x04\n      add\n      tag_48\n      swap1\n      tag_37\n      jump\t// in\n    tag_48:\n      mload(0x40)\n      dup1\n      swap2\n      sub\n      swap1\n      revert\n    tag_47:\n        /* \"contracts/StartStopUpdateExample.sol\":853:856  _to */\n      dup1\n        /* \"contracts/StartStopUpdateExample.sol\":840:857  selfdestruct(_to) */\n      0xffffffffffffffffffffffffffffffffffffffff\n      and\n      selfdestruct\n        /* \"contracts/StartStopUpdateExample.sol\":185:203  bool public paused */\n    tag_24:\n      0x00\n      0x14\n      swap1\n      sload\n      swap1\n      0x0100\n      exp\n      swap1\n      div\n      0xff\n      and\n      dup2\n      jump\t// out\n        /* \"contracts/StartStopUpdateExample.sol\":150:178  address payable public owner */\n    tag_29:\n      0x00\n      dup1\n      sload\n      swap1\n      0x0100\n      exp\n      swap1\n      div\n      0xffffffffffffffffffffffffffffffffffffffff\n      and\n      dup2\n      jump\t// out\n        /* \"contracts/StartStopUpdateExample.sol\":280:318  function sendMoney() payable public {} */\n    tag_33:\n      jump\t// out\n        /* \"#utility.yul\":88:205   */\n    tag_51:\n        /* \"#utility.yul\":197:198   */\n      0x00\n        /* \"#utility.yul\":194:195   */\n      dup1\n        /* \"#utility.yul\":187:199   */\n      revert\n        /* \"#utility.yul\":334:460   */\n    tag_53:\n        /* \"#utility.yul\":371:378   */\n      0x00\n        /* \"#utility.yul\":411:453   */\n      0xffffffffffffffffffffffffffffffffffffffff\n        /* \"#utility.yul\":404:409   */\n      dup3\n        /* \"#utility.yul\":400:454   */\n      and\n        /* \"#utility.yul\":389:454   */\n      swap1\n      pop\n        /* \"#utility.yul\":334:460   */\n      swap2\n      swap1\n      pop\n      jump\t// out\n        /* \"#utility.yul\":466:570   */\n    tag_54:\n        /* \"#utility.yul\":511:518   */\n      0x00\n        /* \"#utility.yul\":540:564   */\n      tag_73\n        /* \"#utility.yul\":558:563   */\n      dup3\n        /* \"#utility.yul\":540:564   */\n      tag_53\n      jump\t// in\n    tag_73:\n        /* \"#utility.yul\":529:564   */\n      swap1\n      pop\n        /* \"#utility.yul\":466:570   */\n      swap2\n      swap1\n      pop\n      jump\t// out\n        /* \"#utility.yul\":576:714   */\n    tag_55:\n        /* \"#utility.yul\":657:689   */\n      tag_75\n        /* \"#utility.yul\":683:688   */\n      dup2\n        /* \"#utility.yul\":657:689   */\n      tag_54\n      jump\t// in\n    tag_75:\n        /* \"#utility.yul\":650:655   */\n      dup2\n        /* \"#utility.yul\":647:690   */\n      eq\n        /* \"#utility.yul\":637:708   */\n      tag_76\n      jumpi\n        /* \"#utility.yul\":704:705   */\n      0x00\n        /* \"#utility.yul\":701:702   */\n      dup1\n        /* \"#utility.yul\":694:706   */\n      revert\n        /* \"#utility.yul\":637:708   */\n    tag_76:\n        /* \"#utility.yul\":576:714   */\n      pop\n      jump\t// out\n        /* \"#utility.yul\":720:875   */\n    tag_56:\n        /* \"#utility.yul\":774:779   */\n      0x00\n        /* \"#utility.yul\":812:818   */\n      dup2\n        /* \"#utility.yul\":799:819   */\n      calldataload\n        /* \"#utility.yul\":790:819   */\n      swap1\n      pop\n        /* \"#utility.yul\":828:869   */\n      tag_78\n        /* \"#utility.yul\":863:868   */\n      dup2\n        /* \"#utility.yul\":828:869   */\n      tag_55\n      jump\t// in\n    tag_78:\n        /* \"#utility.yul\":720:875   */\n      swap3\n      swap2\n      pop\n      pop\n      jump\t// out\n        /* \"#utility.yul\":881:1226   */\n    tag_11:\n        /* \"#utility.yul\":948:954   */\n      0x00\n        /* \"#utility.yul\":997:999   */\n      0x20\n        /* \"#utility.yul\":985:994   */\n      dup3\n        /* \"#utility.yul\":976:983   */\n      dup5\n        /* \"#utility.yul\":972:995   */\n      sub\n        /* \"#utility.yul\":968:1000   */\n      slt\n        /* \"#utility.yul\":965:1084   */\n      iszero\n      tag_80\n      jumpi\n        /* \"#utility.yul\":1003:1082   */\n      tag_81\n      tag_51\n      jump\t// in\n    tag_81:\n        /* \"#utility.yul\":965:1084   */\n    tag_80:\n        /* \"#utility.yul\":1123:1124   */\n      0x00\n        /* \"#utility.yul\":1148:1209   */\n      tag_82\n        /* \"#utility.yul\":1201:1208   */\n      dup5\n        /* \"#utility.yul\":1192:1198   */\n      dup3\n        /* \"#utility.yul\":1181:1190   */\n      dup6\n        /* \"#utility.yul\":1177:1199   */\n      add\n        /* \"#utility.yul\":1148:1209   */\n      tag_56\n      jump\t// in\n    tag_82:\n        /* \"#utility.yul\":1138:1209   */\n      swap2\n      pop\n        /* \"#utility.yul\":1094:1219   */\n      pop\n        /* \"#utility.yul\":881:1226   */\n      swap3\n      swap2\n      pop\n      pop\n      jump\t// out\n        /* \"#utility.yul\":1232:1322   */\n    tag_57:\n        /* \"#utility.yul\":1266:1273   */\n      0x00\n        /* \"#utility.yul\":1309:1314   */\n      dup2\n        /* \"#utility.yul\":1302:1315   */\n      iszero\n        /* \"#utility.yul\":1295:1316   */\n      iszero\n        /* \"#utility.yul\":1284:1316   */\n      swap1\n      pop\n        /* \"#utility.yul\":1232:1322   */\n      swap2\n      swap1\n      pop\n      jump\t// out\n        /* \"#utility.yul\":1328:1444   */\n    tag_58:\n        /* \"#utility.yul\":1398:1419   */\n      tag_85\n        /* \"#utility.yul\":1413:1418   */\n      dup2\n        /* \"#utility.yul\":1398:1419   */\n      tag_57\n      jump\t// in\n    tag_85:\n        /* \"#utility.yul\":1391:1396   */\n      dup2\n        /* \"#utility.yul\":1388:1420   */\n      eq\n        /* \"#utility.yul\":1378:1438   */\n      tag_86\n      jumpi\n        /* \"#utility.yul\":1434:1435   */\n      0x00\n        /* \"#utility.yul\":1431:1432   */\n      dup1\n        /* \"#utility.yul\":1424:1436   */\n      revert\n        /* \"#utility.yul\":1378:1438   */\n    tag_86:\n        /* \"#utility.yul\":1328:1444   */\n      pop\n      jump\t// out\n        /* \"#utility.yul\":1450:1583   */\n    tag_59:\n        /* \"#utility.yul\":1493:1498   */\n      0x00\n        /* \"#utility.yul\":1531:1537   */\n      dup2\n        /* \"#utility.yul\":1518:1538   */\n      calldataload\n        /* \"#utility.yul\":1509:1538   */\n      swap1\n      pop\n        /* \"#utility.yul\":1547:1577   */\n      tag_88\n        /* \"#utility.yul\":1571:1576   */\n      dup2\n        /* \"#utility.yul\":1547:1577   */\n      tag_58\n      jump\t// in\n    tag_88:\n        /* \"#utility.yul\":1450:1583   */\n      swap3\n      swap2\n      pop\n      pop\n      jump\t// out\n        /* \"#utility.yul\":1589:1912   */\n    tag_16:\n        /* \"#utility.yul\":1645:1651   */\n      0x00\n        /* \"#utility.yul\":1694:1696   */\n      0x20\n        /* \"#utility.yul\":1682:1691   */\n      dup3\n        /* \"#utility.yul\":1673:1680   */\n      dup5\n        /* \"#utility.yul\":1669:1692   */\n      sub\n        /* \"#utility.yul\":1665:1697   */\n      slt\n        /* \"#utility.yul\":1662:1781   */\n      iszero\n      tag_90\n      jumpi\n        /* \"#utility.yul\":1700:1779   */\n      tag_91\n      tag_51\n      jump\t// in\n    tag_91:\n        /* \"#utility.yul\":1662:1781   */\n    tag_90:\n        /* \"#utility.yul\":1820:1821   */\n      0x00\n        /* \"#utility.yul\":1845:1895   */\n      tag_92\n        /* \"#utility.yul\":1887:1894   */\n      dup5\n        /* \"#utility.yul\":1878:1884   */\n      dup3\n        /* \"#utility.yul\":1867:1876   */\n      dup6\n        /* \"#utility.yul\":1863:1885   */\n      add\n        /* \"#utility.yul\":1845:1895   */\n      tag_59\n      jump\t// in\n    tag_92:\n        /* \"#utility.yul\":1835:1895   */\n      swap2\n      pop\n        /* \"#utility.yul\":1791:1905   */\n      pop\n        /* \"#utility.yul\":1589:1912   */\n      swap3\n      swap2\n      pop\n      pop\n      jump\t// out\n        /* \"#utility.yul\":1918:2027   */\n    tag_60:\n        /* \"#utility.yul\":1999:2020   */\n      tag_94\n        /* \"#utility.yul\":2014:2019   */\n      dup2\n        /* \"#utility.yul\":1999:2020   */\n      tag_57\n      jump\t// in\n    tag_94:\n        /* \"#utility.yul\":1994:1997   */\n      dup3\n        /* \"#utility.yul\":1987:2021   */\n      mstore\n        /* \"#utility.yul\":1918:2027   */\n      pop\n      pop\n      jump\t// out\n        /* \"#utility.yul\":2033:2243   */\n    tag_26:\n        /* \"#utility.yul\":2120:2124   */\n      0x00\n        /* \"#utility.yul\":2158:2160   */\n      0x20\n        /* \"#utility.yul\":2147:2156   */\n      dup3\n        /* \"#utility.yul\":2143:2161   */\n      add\n        /* \"#utility.yul\":2135:2161   */\n      swap1\n      pop\n        /* \"#utility.yul\":2171:2236   */\n      tag_96\n        /* \"#utility.yul\":2233:2234   */\n      0x00\n        /* \"#utility.yul\":2222:2231   */\n      dup4\n        /* \"#utility.yul\":2218:2235   */\n      add\n        /* \"#utility.yul\":2209:2215   */\n      dup5\n        /* \"#utility.yul\":2171:2236   */\n      tag_60\n      jump\t// in\n    tag_96:\n        /* \"#utility.yul\":2033:2243   */\n      swap3\n      swap2\n      pop\n      pop\n      jump\t// out\n        /* \"#utility.yul\":2249:2391   */\n    tag_61:\n        /* \"#utility.yul\":2352:2384   */\n      tag_98\n        /* \"#utility.yul\":2378:2383   */\n      dup2\n        /* \"#utility.yul\":2352:2384   */\n      tag_54\n      jump\t// in\n    tag_98:\n        /* \"#utility.yul\":2347:2350   */\n      dup3\n        /* \"#utility.yul\":2340:2385   */\n      mstore\n        /* \"#utility.yul\":2249:2391   */\n      pop\n      pop\n      jump\t// out\n        /* \"#utility.yul\":2397:2651   */\n    tag_31:\n        /* \"#utility.yul\":2506:2510   */\n      0x00\n        /* \"#utility.yul\":2544:2546   */\n      0x20\n        /* \"#utility.yul\":2533:2542   */\n      dup3\n        /* \"#utility.yul\":2529:2547   */\n      add\n        /* \"#utility.yul\":2521:2547   */\n      swap1\n      pop\n        /* \"#utility.yul\":2557:2644   */\n      tag_100\n        /* \"#utility.yul\":2641:2642   */\n      0x00\n        /* \"#utility.yul\":2630:2639   */\n      dup4\n        /* \"#utility.yul\":2626:2643   */\n      add\n        /* \"#utility.yul\":2617:2623   */\n      dup5\n        /* \"#utility.yul\":2557:2644   */\n      tag_61\n      jump\t// in\n    tag_100:\n        /* \"#utility.yul\":2397:2651   */\n      swap3\n      swap2\n      pop\n      pop\n      jump\t// out\n        /* \"#utility.yul\":2657:2826   */\n    tag_62:\n        /* \"#utility.yul\":2741:2752   */\n      0x00\n        /* \"#utility.yul\":2775:2781   */\n      dup3\n        /* \"#utility.yul\":2770:2773   */\n      dup3\n        /* \"#utility.yul\":2763:2782   */\n      mstore\n        /* \"#utility.yul\":2815:2819   */\n      0x20\n        /* \"#utility.yul\":2810:2813   */\n      dup3\n        /* \"#utility.yul\":2806:2820   */\n      add\n        /* \"#utility.yul\":2791:2820   */\n      swap1\n      pop\n        /* \"#utility.yul\":2657:2826   */\n      swap3\n      swap2\n      pop\n      pop\n      jump\t// out\n        /* \"#utility.yul\":2832:3003   */\n    tag_63:\n        /* \"#utility.yul\":2972:2995   */\n      0x596f7520617265206e6f7420746865206f776e65720000000000000000000000\n        /* \"#utility.yul\":2968:2969   */\n      0x00\n        /* \"#utility.yul\":2960:2966   */\n      dup3\n        /* \"#utility.yul\":2956:2970   */\n      add\n        /* \"#utility.yul\":2949:2996   */\n      mstore\n        /* \"#utility.yul\":2832:3003   */\n      pop\n      jump\t// out\n        /* \"#utility.yul\":3009:3375   */\n    tag_64:\n        /* \"#utility.yul\":3151:3154   */\n      0x00\n        /* \"#utility.yul\":3172:3239   */\n      tag_104\n        /* \"#utility.yul\":3236:3238   */\n      0x15\n        /* \"#utility.yul\":3231:3234   */\n      dup4\n        /* \"#utility.yul\":3172:3239   */\n      tag_62\n      jump\t// in\n    tag_104:\n        /* \"#utility.yul\":3165:3239   */\n      swap2\n      pop\n        /* \"#utility.yul\":3248:3341   */\n      tag_105\n        /* \"#utility.yul\":3337:3340   */\n      dup3\n        /* \"#utility.yul\":3248:3341   */\n      tag_63\n      jump\t// in\n    tag_105:\n        /* \"#utility.yul\":3366:3368   */\n      0x20\n        /* \"#utility.yul\":3361:3364   */\n      dup3\n        /* \"#utility.yul\":3357:3369   */\n      add\n        /* \"#utility.yul\":3350:3369   */\n      swap1\n      pop\n        /* \"#utility.yul\":3009:3375   */\n      swap2\n      swap1\n      pop\n      jump\t// out\n        /* \"#utility.yul\":3381:3800   */\n    tag_37:\n        /* \"#utility.yul\":3547:3551   */\n      0x00\n        /* \"#utility.yul\":3585:3587   */\n      0x20\n        /* \"#utility.yul\":3574:3583   */\n      dup3\n        /* \"#utility.yul\":3570:3588   */\n      add\n        /* \"#utility.yul\":3562:3588   */\n      swap1\n      pop\n        /* \"#utility.yul\":3634:3643   */\n      dup2\n        /* \"#utility.yul\":3628:3632   */\n      dup2\n        /* \"#utility.yul\":3624:3644   */\n      sub\n        /* \"#utility.yul\":3620:3621   */\n      0x00\n        /* \"#utility.yul\":3609:3618   */\n      dup4\n        /* \"#utility.yul\":3605:3622   */\n      add\n        /* \"#utility.yul\":3598:3645   */\n      mstore\n        /* \"#utility.yul\":3662:3793   */\n      tag_107\n        /* \"#utility.yul\":3788:3792   */\n      dup2\n        /* \"#utility.yul\":3662:3793   */\n      tag_64\n      jump\t// in\n    tag_107:\n        /* \"#utility.yul\":3654:3793   */\n      swap1\n      pop\n        /* \"#utility.yul\":3381:3800   */\n      swap2\n      swap1\n      pop\n      jump\t// out\n        /* \"#utility.yul\":3806:3971   */\n    tag_65:\n        /* \"#utility.yul\":3946:3963   */\n      0x436f6e7472616374207061757365640000000000000000000000000000000000\n        /* \"#utility.yul\":3942:3943   */\n      0x00\n        /* \"#utility.yul\":3934:3940   */\n      dup3\n        /* \"#utility.yul\":3930:3944   */\n      add\n        /* \"#utility.yul\":3923:3964   */\n      mstore\n        /* \"#utility.yul\":3806:3971   */\n      pop\n      jump\t// out\n        /* \"#utility.yul\":3977:4343   */\n    tag_66:\n        /* \"#utility.yul\":4119:4122   */\n      0x00\n        /* \"#utility.yul\":4140:4207   */\n      tag_110\n        /* \"#utility.yul\":4204:4206   */\n      0x0f\n        /* \"#utility.yul\":4199:4202   */\n      dup4\n        /* \"#utility.yul\":4140:4207   */\n      tag_62\n      jump\t// in\n    tag_110:\n        /* \"#utility.yul\":4133:4207   */\n      swap2\n      pop\n        /* \"#utility.yul\":4216:4309   */\n      tag_111\n        /* \"#utility.yul\":4305:4308   */\n      dup3\n        /* \"#utility.yul\":4216:4309   */\n      tag_65\n      jump\t// in\n    tag_111:\n        /* \"#utility.yul\":4334:4336   */\n      0x20\n        /* \"#utility.yul\":4329:4332   */\n      dup3\n        /* \"#utility.yul\":4325:4337   */\n      add\n        /* \"#utility.yul\":4318:4337   */\n      swap1\n      pop\n        /* \"#utility.yul\":3977:4343   */\n      swap2\n      swap1\n      pop\n      jump\t// out\n        /* \"#utility.yul\":4349:4768   */\n    tag_40:\n        /* \"#utility.yul\":4515:4519   */\n      0x00\n        /* \"#utility.yul\":4553:4555   */\n      0x20\n        /* \"#utility.yul\":4542:4551   */\n      dup3\n        /* \"#utility.yul\":4538:4556   */\n      add\n        /* \"#utility.yul\":4530:4556   */\n      swap1\n      pop\n        /* \"#utility.yul\":4602:4611   */\n      dup2\n        /* \"#utility.yul\":4596:4600   */\n      dup2\n        /* \"#utility.yul\":4592:4612   */\n      sub\n        /* \"#utility.yul\":4588:4589   */\n      0x00\n        /* \"#utility.yul\":4577:4586   */\n      dup4\n        /* \"#utility.yul\":4573:4590   */\n      add\n        /* \"#utility.yul\":4566:4613   */\n      mstore\n        /* \"#utility.yul\":4630:4761   */\n      tag_113\n        /* \"#utility.yul\":4756:4760   */\n      dup2\n        /* \"#utility.yul\":4630:4761   */\n      tag_66\n      jump\t// in\n    tag_113:\n        /* \"#utility.yul\":4622:4761   */\n      swap1\n      pop\n        /* \"#utility.yul\":4349:4768   */\n      swap2\n      swap1\n      pop\n      jump\t// out\n\n    auxdata: 0xa2646970667358221220798a48656e323ef38a0f4bd87789e0d91e5393326587bdba82966f3feb02c15264736f6c634300081a0033\n}\n",
				"bytecode": {
					"linkReferences": {},
					"object": "6080604052348015600e575f80fd5b50335f806101000a81548173ffffffffffffffffffffffffffffffffffffffff021916908373ffffffffffffffffffffffffffffffffffffffff16021790555061062b8061005b5f395ff3fe608060405260043610610054575f3560e01c80630adec93c1461005857806316c38b3c1461008057806339df43ff146100a85780635c975abb146100d05780638da5cb5b146100fa578063cbedbf5a14610124575b5f80fd5b348015610063575f80fd5b5061007e6004803603810190610079919061043a565b61012e565b005b34801561008b575f80fd5b506100a660048036038101906100a1919061049a565b610256565b005b3480156100b3575f80fd5b506100ce60048036038101906100c9919061043a565b6102ff565b005b3480156100db575f80fd5b506100e46103a5565b6040516100f191906104d4565b60405180910390f35b348015610105575f80fd5b5061010e6103b7565b60405161011b91906104fc565b60405180910390f35b61012c6103da565b005b3373ffffffffffffffffffffffffffffffffffffffff165f8054906101000a900473ffffffffffffffffffffffffffffffffffffffff1673ffffffffffffffffffffffffffffffffffffffff16146101bb576040517f08c379a00000000000000000000000000000000000000000000000000000000081526004016101b29061056f565b60405180910390fd5b5f15155f60149054906101000a900460ff1615151461020f576040517f08c379a0000000000000000000000000000000000000000000000000000000008152600401610206906105d7565b60405180910390fd5b8073ffffffffffffffffffffffffffffffffffffffff166108fc4790811502906040515f60405180830381858888f19350505050158015610252573d5f803e3d5ffd5b5050565b3373ffffffffffffffffffffffffffffffffffffffff165f8054906101000a900473ffffffffffffffffffffffffffffffffffffffff1673ffffffffffffffffffffffffffffffffffffffff16146102e3576040517f08c379a00000000000000000000000000000000000000000000000000000000081526004016102da9061056f565b60405180910390fd5b805f60146101000a81548160ff02191690831515021790555050565b5f8054906101000a900473ffffffffffffffffffffffffffffffffffffffff1673ffffffffffffffffffffffffffffffffffffffff163373ffffffffffffffffffffffffffffffffffffffff161461038c576040517f08c379a00000000000000000000000000000000000000000000000000000000081526004016103839061056f565b60405180910390fd5b8073ffffffffffffffffffffffffffffffffffffffff16ff5b5f60149054906101000a900460ff1681565b5f8054906101000a900473ffffffffffffffffffffffffffffffffffffffff1681565b565b5f80fd5b5f73ffffffffffffffffffffffffffffffffffffffff82169050919050565b5f610409826103e0565b9050919050565b610419816103ff565b8114610423575f80fd5b50565b5f8135905061043481610410565b92915050565b5f6020828403121561044f5761044e6103dc565b5b5f61045c84828501610426565b91505092915050565b5f8115159050919050565b61047981610465565b8114610483575f80fd5b50565b5f8135905061049481610470565b92915050565b5f602082840312156104af576104ae6103dc565b5b5f6104bc84828501610486565b91505092915050565b6104ce81610465565b82525050565b5f6020820190506104e75f8301846104c5565b92915050565b6104f6816103ff565b82525050565b5f60208201905061050f5f8301846104ed565b92915050565b5f82825260208201905092915050565b7f596f7520617265206e6f7420746865206f776e657200000000000000000000005f82015250565b5f610559601583610515565b915061056482610525565b602082019050919050565b5f6020820190508181035f8301526105868161054d565b9050919050565b7f436f6e74726163742070617573656400000000000000000000000000000000005f82015250565b5f6105c1600f83610515565b91506105cc8261058d565b602082019050919050565b5f6020820190508181035f8301526105ee816105b5565b905091905056fea2646970667358221220798a48656e323ef38a0f4bd87789e0d91e5393326587bdba82966f3feb02c15264736f6c634300081a0033",
					"opcodes": "PUSH1 0x80 PUSH1 0x40 MSTORE CALLVALUE DUP1 ISZERO PUSH1 0xE JUMPI PUSH0 DUP1 REVERT JUMPDEST POP CALLER PUSH0 DUP1 PUSH2 0x100 EXP DUP2 SLOAD DUP2 PUSH20 0xFFFFFFFFFFFFFFFFFFFFFFFFFFFFFFFFFFFFFFFF MUL NOT AND SWAP1 DUP4 PUSH20 0xFFFFFFFFFFFFFFFFFFFFFFFFFFFFFFFFFFFFFFFF AND MUL OR SWAP1 SSTORE POP PUSH2 0x62B DUP1 PUSH2 0x5B PUSH0 CODECOPY PUSH0 RETURN INVALID PUSH1 0x80 PUSH1 0x40 MSTORE PUSH1 0x4 CALLDATASIZE LT PUSH2 0x54 JUMPI PUSH0 CALLDATALOAD PUSH1 0xE0 SHR DUP1 PUSH4 0xADEC93C EQ PUSH2 0x58 JUMPI DUP1 PUSH4 0x16C38B3C EQ PUSH2 0x80 JUMPI DUP1 PUSH4 0x39DF43FF EQ PUSH2 0xA8 JUMPI DUP1 PUSH4 0x5C975ABB EQ PUSH2 0xD0 JUMPI DUP1 PUSH4 0x8DA5CB5B EQ PUSH2 0xFA JUMPI DUP1 PUSH4 0xCBEDBF5A EQ PUSH2 0x124 JUMPI JUMPDEST PUSH0 DUP1 REVERT JUMPDEST CALLVALUE DUP1 ISZERO PUSH2 0x63 JUMPI PUSH0 DUP1 REVERT JUMPDEST POP PUSH2 0x7E PUSH1 0x4 DUP1 CALLDATASIZE SUB DUP2 ADD SWAP1 PUSH2 0x79 SWAP2 SWAP1 PUSH2 0x43A JUMP JUMPDEST PUSH2 0x12E JUMP JUMPDEST STOP JUMPDEST CALLVALUE DUP1 ISZERO PUSH2 0x8B JUMPI PUSH0 DUP1 REVERT JUMPDEST POP PUSH2 0xA6 PUSH1 0x4 DUP1 CALLDATASIZE SUB DUP2 ADD SWAP1 PUSH2 0xA1 SWAP2 SWAP1 PUSH2 0x49A JUMP JUMPDEST PUSH2 0x256 JUMP JUMPDEST STOP JUMPDEST CALLVALUE DUP1 ISZERO PUSH2 0xB3 JUMPI PUSH0 DUP1 REVERT JUMPDEST POP PUSH2 0xCE PUSH1 0x4 DUP1 CALLDATASIZE SUB DUP2 ADD SWAP1 PUSH2 0xC9 SWAP2 SWAP1 PUSH2 0x43A JUMP JUMPDEST PUSH2 0x2FF JUMP JUMPDEST STOP JUMPDEST CALLVALUE DUP1 ISZERO PUSH2 0xDB JUMPI PUSH0 DUP1 REVERT JUMPDEST POP PUSH2 0xE4 PUSH2 0x3A5 JUMP JUMPDEST PUSH1 0x40 MLOAD PUSH2 0xF1 SWAP2 SWAP1 PUSH2 0x4D4 JUMP JUMPDEST PUSH1 0x40 MLOAD DUP1 SWAP2 SUB SWAP1 RETURN JUMPDEST CALLVALUE DUP1 ISZERO PUSH2 0x105 JUMPI PUSH0 DUP1 REVERT JUMPDEST POP PUSH2 0x10E PUSH2 0x3B7 JUMP JUMPDEST PUSH1 0x40 MLOAD PUSH2 0x11B SWAP2 SWAP1 PUSH2 0x4FC JUMP JUMPDEST PUSH1 0x40 MLOAD DUP1 SWAP2 SUB SWAP1 RETURN JUMPDEST PUSH2 0x12C PUSH2 0x3DA JUMP JUMPDEST STOP JUMPDEST CALLER PUSH20 0xFFFFFFFFFFFFFFFFFFFFFFFFFFFFFFFFFFFFFFFF AND PUSH0 DUP1 SLOAD SWAP1 PUSH2 0x100 EXP SWAP1 DIV PUSH20 0xFFFFFFFFFFFFFFFFFFFFFFFFFFFFFFFFFFFFFFFF AND PUSH20 0xFFFFFFFFFFFFFFFFFFFFFFFFFFFFFFFFFFFFFFFF AND EQ PUSH2 0x1BB JUMPI PUSH1 0x40 MLOAD PUSH32 0x8C379A000000000000000000000000000000000000000000000000000000000 DUP2 MSTORE PUSH1 0x4 ADD PUSH2 0x1B2 SWAP1 PUSH2 0x56F JUMP JUMPDEST PUSH1 0x40 MLOAD DUP1 SWAP2 SUB SWAP1 REVERT JUMPDEST PUSH0 ISZERO ISZERO PUSH0 PUSH1 0x14 SWAP1 SLOAD SWAP1 PUSH2 0x100 EXP SWAP1 DIV PUSH1 0xFF AND ISZERO ISZERO EQ PUSH2 0x20F JUMPI PUSH1 0x40 MLOAD PUSH32 0x8C379A000000000000000000000000000000000000000000000000000000000 DUP2 MSTORE PUSH1 0x4 ADD PUSH2 0x206 SWAP1 PUSH2 0x5D7 JUMP JUMPDEST PUSH1 0x40 MLOAD DUP1 SWAP2 SUB SWAP1 REVERT JUMPDEST DUP1 PUSH20 0xFFFFFFFFFFFFFFFFFFFFFFFFFFFFFFFFFFFFFFFF AND PUSH2 0x8FC SELFBALANCE SWAP1 DUP2 ISZERO MUL SWAP1 PUSH1 0x40 MLOAD PUSH0 PUSH1 0x40 MLOAD DUP1 DUP4 SUB DUP2 DUP6 DUP9 DUP9 CALL SWAP4 POP POP POP POP ISZERO DUP1 ISZERO PUSH2 0x252 JUMPI RETURNDATASIZE PUSH0 DUP1 RETURNDATACOPY RETURNDATASIZE PUSH0 REVERT JUMPDEST POP POP JUMP JUMPDEST CALLER PUSH20 0xFFFFFFFFFFFFFFFFFFFFFFFFFFFFFFFFFFFFFFFF AND PUSH0 DUP1 SLOAD SWAP1 PUSH2 0x100 EXP SWAP1 DIV PUSH20 0xFFFFFFFFFFFFFFFFFFFFFFFFFFFFFFFFFFFFFFFF AND PUSH20 0xFFFFFFFFFFFFFFFFFFFFFFFFFFFFFFFFFFFFFFFF AND EQ PUSH2 0x2E3 JUMPI PUSH1 0x40 MLOAD PUSH32 0x8C379A000000000000000000000000000000000000000000000000000000000 DUP2 MSTORE PUSH1 0x4 ADD PUSH2 0x2DA SWAP1 PUSH2 0x56F JUMP JUMPDEST PUSH1 0x40 MLOAD DUP1 SWAP2 SUB SWAP1 REVERT JUMPDEST DUP1 PUSH0 PUSH1 0x14 PUSH2 0x100 EXP DUP2 SLOAD DUP2 PUSH1 0xFF MUL NOT AND SWAP1 DUP4 ISZERO ISZERO MUL OR SWAP1 SSTORE POP POP JUMP JUMPDEST PUSH0 DUP1 SLOAD SWAP1 PUSH2 0x100 EXP SWAP1 DIV PUSH20 0xFFFFFFFFFFFFFFFFFFFFFFFFFFFFFFFFFFFFFFFF AND PUSH20 0xFFFFFFFFFFFFFFFFFFFFFFFFFFFFFFFFFFFFFFFF AND CALLER PUSH20 0xFFFFFFFFFFFFFFFFFFFFFFFFFFFFFFFFFFFFFFFF AND EQ PUSH2 0x38C JUMPI PUSH1 0x40 MLOAD PUSH32 0x8C379A000000000000000000000000000000000000000000000000000000000 DUP2 MSTORE PUSH1 0x4 ADD PUSH2 0x383 SWAP1 PUSH2 0x56F JUMP JUMPDEST PUSH1 0x40 MLOAD DUP1 SWAP2 SUB SWAP1 REVERT JUMPDEST DUP1 PUSH20 0xFFFFFFFFFFFFFFFFFFFFFFFFFFFFFFFFFFFFFFFF AND SELFDESTRUCT JUMPDEST PUSH0 PUSH1 0x14 SWAP1 SLOAD SWAP1 PUSH2 0x100 EXP SWAP1 DIV PUSH1 0xFF AND DUP2 JUMP JUMPDEST PUSH0 DUP1 SLOAD SWAP1 PUSH2 0x100 EXP SWAP1 DIV PUSH20 0xFFFFFFFFFFFFFFFFFFFFFFFFFFFFFFFFFFFFFFFF AND DUP2 JUMP JUMPDEST JUMP JUMPDEST PUSH0 DUP1 REVERT JUMPDEST PUSH0 PUSH20 0xFFFFFFFFFFFFFFFFFFFFFFFFFFFFFFFFFFFFFFFF DUP3 AND SWAP1 POP SWAP2 SWAP1 POP JUMP JUMPDEST PUSH0 PUSH2 0x409 DUP3 PUSH2 0x3E0 JUMP JUMPDEST SWAP1 POP SWAP2 SWAP1 POP JUMP JUMPDEST PUSH2 0x419 DUP2 PUSH2 0x3FF JUMP JUMPDEST DUP2 EQ PUSH2 0x423 JUMPI PUSH0 DUP1 REVERT JUMPDEST POP JUMP JUMPDEST PUSH0 DUP2 CALLDATALOAD SWAP1 POP PUSH2 0x434 DUP2 PUSH2 0x410 JUMP JUMPDEST SWAP3 SWAP2 POP POP JUMP JUMPDEST PUSH0 PUSH1 0x20 DUP3 DUP5 SUB SLT ISZERO PUSH2 0x44F JUMPI PUSH2 0x44E PUSH2 0x3DC JUMP JUMPDEST JUMPDEST PUSH0 PUSH2 0x45C DUP5 DUP3 DUP6 ADD PUSH2 0x426 JUMP JUMPDEST SWAP2 POP POP SWAP3 SWAP2 POP POP JUMP JUMPDEST PUSH0 DUP2 ISZERO ISZERO SWAP1 POP SWAP2 SWAP1 POP JUMP JUMPDEST PUSH2 0x479 DUP2 PUSH2 0x465 JUMP JUMPDEST DUP2 EQ PUSH2 0x483 JUMPI PUSH0 DUP1 REVERT JUMPDEST POP JUMP JUMPDEST PUSH0 DUP2 CALLDATALOAD SWAP1 POP PUSH2 0x494 DUP2 PUSH2 0x470 JUMP JUMPDEST SWAP3 SWAP2 POP POP JUMP JUMPDEST PUSH0 PUSH1 0x20 DUP3 DUP5 SUB SLT ISZERO PUSH2 0x4AF JUMPI PUSH2 0x4AE PUSH2 0x3DC JUMP JUMPDEST JUMPDEST PUSH0 PUSH2 0x4BC DUP5 DUP3 DUP6 ADD PUSH2 0x486 JUMP JUMPDEST SWAP2 POP POP SWAP3 SWAP2 POP POP JUMP JUMPDEST PUSH2 0x4CE DUP2 PUSH2 0x465 JUMP JUMPDEST DUP3 MSTORE POP POP JUMP JUMPDEST PUSH0 PUSH1 0x20 DUP3 ADD SWAP1 POP PUSH2 0x4E7 PUSH0 DUP4 ADD DUP5 PUSH2 0x4C5 JUMP JUMPDEST SWAP3 SWAP2 POP POP JUMP JUMPDEST PUSH2 0x4F6 DUP2 PUSH2 0x3FF JUMP JUMPDEST DUP3 MSTORE POP POP JUMP JUMPDEST PUSH0 PUSH1 0x20 DUP3 ADD SWAP1 POP PUSH2 0x50F PUSH0 DUP4 ADD DUP5 PUSH2 0x4ED JUMP JUMPDEST SWAP3 SWAP2 POP POP JUMP JUMPDEST PUSH0 DUP3 DUP3 MSTORE PUSH1 0x20 DUP3 ADD SWAP1 POP SWAP3 SWAP2 POP POP JUMP JUMPDEST PUSH32 0x596F7520617265206E6F7420746865206F776E65720000000000000000000000 PUSH0 DUP3 ADD MSTORE POP JUMP JUMPDEST PUSH0 PUSH2 0x559 PUSH1 0x15 DUP4 PUSH2 0x515 JUMP JUMPDEST SWAP2 POP PUSH2 0x564 DUP3 PUSH2 0x525 JUMP JUMPDEST PUSH1 0x20 DUP3 ADD SWAP1 POP SWAP2 SWAP1 POP JUMP JUMPDEST PUSH0 PUSH1 0x20 DUP3 ADD SWAP1 POP DUP2 DUP2 SUB PUSH0 DUP4 ADD MSTORE PUSH2 0x586 DUP2 PUSH2 0x54D JUMP JUMPDEST SWAP1 POP SWAP2 SWAP1 POP JUMP JUMPDEST PUSH32 0x436F6E7472616374207061757365640000000000000000000000000000000000 PUSH0 DUP3 ADD MSTORE POP JUMP JUMPDEST PUSH0 PUSH2 0x5C1 PUSH1 0xF DUP4 PUSH2 0x515 JUMP JUMPDEST SWAP2 POP PUSH2 0x5CC DUP3 PUSH2 0x58D JUMP JUMPDEST PUSH1 0x20 DUP3 ADD SWAP1 POP SWAP2 SWAP1 POP JUMP JUMPDEST PUSH0 PUSH1 0x20 DUP3 ADD SWAP1 POP DUP2 DUP2 SUB PUSH0 DUP4 ADD MSTORE PUSH2 0x5EE DUP2 PUSH2 0x5B5 JUMP JUMPDEST SWAP1 POP SWAP2 SWAP1 POP JUMP INVALID LOG2 PUSH5 0x6970667358 0x22 SLT KECCAK256 PUSH26 0x8A48656E323EF38A0F4BD87789E0D91E5393326587BDBA82966F EXTCODEHASH 0xEB MUL 0xC1 MSTORE PUSH5 0x736F6C6343 STOP ADDMOD BYTE STOP CALLER "
				},
				"gasEstimates": {
					"creation": {
						"codeDepositCost": "315800",
						"executionCost": "24618",
						"totalCost": "340418"
					},
					"external": {
						"destroySmartContract(address)": "30235",
						"owner()": "2571",
						"paused()": "2560",
						"sendMoney()": "207",
						"setPaused(bool)": "26889",
						"withdrawAllMoney(address)": "infinite"
					}
				},
				"methodIdentifiers": {
					"destroySmartContract(address)": "39df43ff",
					"owner()": "8da5cb5b",
					"paused()": "5c975abb",
					"sendMoney()": "cbedbf5a",
					"setPaused(bool)": "16c38b3c",
					"withdrawAllMoney(address)": "0adec93c"
				}
			},
			"storageLayout": {
				"storage": [
					{
						"astId": 3,
						"contract": "contracts/StartStopUpdateExample.sol:StartStopUpdateExample",
						"label": "owner",
						"offset": 0,
						"slot": "0",
						"type": "t_address_payable"
					},
					{
						"astId": 5,
						"contract": "contracts/StartStopUpdateExample.sol:StartStopUpdateExample",
						"label": "paused",
						"offset": 20,
						"slot": "0",
						"type": "t_bool"
					}
				],
				"types": {
					"t_address_payable": {
						"encoding": "inplace",
						"label": "address payable",
						"numberOfBytes": "20"
					},
					"t_bool": {
						"encoding": "inplace",
						"label": "bool",
						"numberOfBytes": "1"
					}
				}
			},
			"userdoc": {
				"kind": "user",
				"methods": {},
				"version": 1
			}
		}
	}
}