{
	"contracts/StoreCustomers.sol": {
		"StoreCustomers": {
			"abi": [
				{
					"inputs": [
						{
							"components": [
								{
									"internalType": "string",
									"name": "name",
									"type": "string"
								},
								{
									"internalType": "uint8",
									"name": "age",
									"type": "uint8"
								}
							],
							"internalType": "struct StoreCustomers.Customer",
							"name": "newCustomer",
							"type": "tuple"
						}
					],
					"name": "addCustomer",
					"outputs": [],
					"stateMutability": "nonpayable",
					"type": "function"
				},
				{
					"inputs": [
						{
							"internalType": "uint32",
							"name": "",
							"type": "uint32"
						}
					],
					"name": "customers",
					"outputs": [
						{
							"internalType": "string",
							"name": "name",
							"type": "string"
						},
						{
							"internalType": "uint8",
							"name": "age",
							"type": "uint8"
						}
					],
					"stateMutability": "view",
					"type": "function"
				}
			],
			"devdoc": {
				"kind": "dev",
				"methods": {},
				"version": 1
			},
			"evm": {
				"assembly": "    /* \"contracts/StoreCustomers.sol\":111:499  contract StoreCustomers {... */\n  mstore(0x40, 0x80)\n    /* \"contracts/StoreCustomers.sol\":234:235  0 */\n  0x00\n    /* \"contracts/StoreCustomers.sol\":218:235  uint32 nextId = 0 */\n  dup1\n  exp(0x0100, 0x00)\n  dup2\n  sload\n  dup2\n  0xffffffff\n  mul\n  not\n  and\n  swap1\n  dup4\n  0xffffffff\n  and\n  mul\n  or\n  swap1\n  sstore\n  pop\n    /* \"contracts/StoreCustomers.sol\":111:499  contract StoreCustomers {... */\n  callvalue\n  dup1\n  iszero\n  tag_1\n  jumpi\n  0x00\n  dup1\n  revert\ntag_1:\n  pop\n  dataSize(sub_0)\n  dup1\n  dataOffset(sub_0)\n  0x00\n  codecopy\n  0x00\n  return\nstop\n\nsub_0: assembly {\n        /* \"contracts/StoreCustomers.sol\":111:499  contract StoreCustomers {... */\n      mstore(0x40, 0x80)\n      callvalue\n      dup1\n      iszero\n      tag_1\n      jumpi\n      0x00\n      dup1\n      revert\n    tag_1:\n      pop\n      jumpi(tag_2, lt(calldatasize, 0x04))\n      shr(0xe0, calldataload(0x00))\n      dup1\n      0xcf7a4639\n      eq\n      tag_3\n      jumpi\n      dup1\n      0xd39e50e1\n      eq\n      tag_4\n      jumpi\n    tag_2:\n      0x00\n      dup1\n      revert\n        /* \"contracts/StoreCustomers.sol\":384:496  function addCustomer(Customer memory newCustomer) public {... */\n    tag_3:\n      tag_5\n      0x04\n      dup1\n      calldatasize\n      sub\n      dup2\n      add\n      swap1\n      tag_6\n      swap2\n      swap1\n      tag_7\n      jump\t// in\n    tag_6:\n      tag_8\n      jump\t// in\n    tag_5:\n      stop\n        /* \"contracts/StoreCustomers.sol\":244:288  mapping(uint32 => Customer) public customers */\n    tag_4:\n      tag_9\n      0x04\n      dup1\n      calldatasize\n      sub\n      dup2\n      add\n      swap1\n      tag_10\n      swap2\n      swap1\n      tag_11\n      jump\t// in\n    tag_10:\n      tag_12\n      jump\t// in\n    tag_9:\n      mload(0x40)\n      tag_13\n      swap3\n      swap2\n      swap1\n      tag_14\n      jump\t// in\n    tag_13:\n      mload(0x40)\n      dup1\n      swap2\n      sub\n      swap1\n      return\n        /* \"contracts/StoreCustomers.sol\":384:496  function addCustomer(Customer memory newCustomer) public {... */\n    tag_8:\n        /* \"contracts/StoreCustomers.sol\":477:488  newCustomer */\n      dup1\n        /* \"contracts/StoreCustomers.sol\":452:461  customers */\n      0x01\n        /* \"contracts/StoreCustomers.sol\":452:474  customers[getNextId()] */\n      0x00\n        /* \"contracts/StoreCustomers.sol\":462:473  getNextId() */\n      tag_16\n        /* \"contracts/StoreCustomers.sol\":462:471  getNextId */\n      tag_17\n        /* \"contracts/StoreCustomers.sol\":462:473  getNextId() */\n      jump\t// in\n    tag_16:\n        /* \"contracts/StoreCustomers.sol\":452:474  customers[getNextId()] */\n      0xffffffff\n      and\n      0xffffffff\n      and\n      dup2\n      mstore\n      0x20\n      add\n      swap1\n      dup2\n      mstore\n      0x20\n      add\n      0x00\n      keccak256\n        /* \"contracts/StoreCustomers.sol\":452:488  customers[getNextId()] = newCustomer */\n      0x00\n      dup3\n      add\n      mload\n      dup2\n      0x00\n      add\n      swap1\n      dup2\n      tag_18\n      swap2\n      swap1\n      tag_19\n      jump\t// in\n    tag_18:\n      pop\n      0x20\n      dup3\n      add\n      mload\n      dup2\n      0x01\n      add\n      exp(0x0100, 0x00)\n      dup2\n      sload\n      dup2\n      0xff\n      mul\n      not\n      and\n      swap1\n      dup4\n      0xff\n      and\n      mul\n      or\n      swap1\n      sstore\n      pop\n      swap1\n      pop\n      pop\n        /* \"contracts/StoreCustomers.sol\":384:496  function addCustomer(Customer memory newCustomer) public {... */\n      pop\n      jump\t// out\n        /* \"contracts/StoreCustomers.sol\":244:288  mapping(uint32 => Customer) public customers */\n    tag_12:\n      mstore(0x20, 0x01)\n      dup1\n      0x00\n      mstore\n      keccak256(0x00, 0x40)\n      0x00\n      swap2\n      pop\n      swap1\n      pop\n      dup1\n      0x00\n      add\n      dup1\n      sload\n      tag_20\n      swap1\n      tag_21\n      jump\t// in\n    tag_20:\n      dup1\n      0x1f\n      add\n      0x20\n      dup1\n      swap2\n      div\n      mul\n      0x20\n      add\n      mload(0x40)\n      swap1\n      dup2\n      add\n      0x40\n      mstore\n      dup1\n      swap3\n      swap2\n      swap1\n      dup2\n      dup2\n      mstore\n      0x20\n      add\n      dup3\n      dup1\n      sload\n      tag_22\n      swap1\n      tag_21\n      jump\t// in\n    tag_22:\n      dup1\n      iszero\n      tag_23\n      jumpi\n      dup1\n      0x1f\n      lt\n      tag_24\n      jumpi\n      0x0100\n      dup1\n      dup4\n      sload\n      div\n      mul\n      dup4\n      mstore\n      swap2\n      0x20\n      add\n      swap2\n      jump(tag_23)\n    tag_24:\n      dup3\n      add\n      swap2\n      swap1\n      0x00\n      mstore\n      keccak256(0x00, 0x20)\n      swap1\n    tag_25:\n      dup2\n      sload\n      dup2\n      mstore\n      swap1\n      0x01\n      add\n      swap1\n      0x20\n      add\n      dup1\n      dup4\n      gt\n      tag_25\n      jumpi\n      dup3\n      swap1\n      sub\n      0x1f\n      and\n      dup3\n      add\n      swap2\n    tag_23:\n      pop\n      pop\n      pop\n      pop\n      pop\n      swap1\n      dup1\n      0x01\n      add\n      0x00\n      swap1\n      sload\n      swap1\n      0x0100\n      exp\n      swap1\n      div\n      0xff\n      and\n      swap1\n      pop\n      dup3\n      jump\t// out\n        /* \"contracts/StoreCustomers.sol\":297:376  function getNextId() private returns(uint32) {... */\n    tag_17:\n        /* \"contracts/StoreCustomers.sol\":334:340  uint32 */\n      0x00\n        /* \"contracts/StoreCustomers.sol\":362:368  nextId */\n      dup1\n      0x00\n        /* \"contracts/StoreCustomers.sol\":360:368  ++nextId */\n      dup2\n      dup2\n      swap1\n      sload\n      swap1\n      0x0100\n      exp\n      swap1\n      div\n      0xffffffff\n      and\n      tag_27\n      swap1\n      tag_28\n      jump\t// in\n    tag_27:\n      swap2\n      swap1\n      0x0100\n      exp\n      dup2\n      sload\n      dup2\n      0xffffffff\n      mul\n      not\n      and\n      swap1\n      dup4\n      0xffffffff\n      and\n      mul\n      or\n      swap1\n      sstore\n        /* \"contracts/StoreCustomers.sol\":353:368  return ++nextId */\n      swap1\n      pop\n        /* \"contracts/StoreCustomers.sol\":297:376  function getNextId() private returns(uint32) {... */\n      swap1\n      jump\t// out\n        /* \"#utility.yul\":7:82   */\n    tag_29:\n        /* \"#utility.yul\":40:46   */\n      0x00\n        /* \"#utility.yul\":73:75   */\n      0x40\n        /* \"#utility.yul\":67:76   */\n      mload\n        /* \"#utility.yul\":57:76   */\n      swap1\n      pop\n        /* \"#utility.yul\":7:82   */\n      swap1\n      jump\t// out\n        /* \"#utility.yul\":88:205   */\n    tag_30:\n        /* \"#utility.yul\":197:198   */\n      0x00\n        /* \"#utility.yul\":194:195   */\n      dup1\n        /* \"#utility.yul\":187:199   */\n      revert\n        /* \"#utility.yul\":211:328   */\n    tag_31:\n        /* \"#utility.yul\":320:321   */\n      0x00\n        /* \"#utility.yul\":317:318   */\n      dup1\n        /* \"#utility.yul\":310:322   */\n      revert\n        /* \"#utility.yul\":334:451   */\n    tag_32:\n        /* \"#utility.yul\":443:444   */\n      0x00\n        /* \"#utility.yul\":440:441   */\n      dup1\n        /* \"#utility.yul\":433:445   */\n      revert\n        /* \"#utility.yul\":457:559   */\n    tag_33:\n        /* \"#utility.yul\":498:504   */\n      0x00\n        /* \"#utility.yul\":549:551   */\n      0x1f\n        /* \"#utility.yul\":545:552   */\n      not\n        /* \"#utility.yul\":540:542   */\n      0x1f\n        /* \"#utility.yul\":533:538   */\n      dup4\n        /* \"#utility.yul\":529:543   */\n      add\n        /* \"#utility.yul\":525:553   */\n      and\n        /* \"#utility.yul\":515:553   */\n      swap1\n      pop\n        /* \"#utility.yul\":457:559   */\n      swap2\n      swap1\n      pop\n      jump\t// out\n        /* \"#utility.yul\":565:745   */\n    tag_34:\n        /* \"#utility.yul\":613:690   */\n      0x4e487b7100000000000000000000000000000000000000000000000000000000\n        /* \"#utility.yul\":610:611   */\n      0x00\n        /* \"#utility.yul\":603:691   */\n      mstore\n        /* \"#utility.yul\":710:714   */\n      0x41\n        /* \"#utility.yul\":707:708   */\n      0x04\n        /* \"#utility.yul\":700:715   */\n      mstore\n        /* \"#utility.yul\":734:738   */\n      0x24\n        /* \"#utility.yul\":731:732   */\n      0x00\n        /* \"#utility.yul\":724:739   */\n      revert\n        /* \"#utility.yul\":751:1032   */\n    tag_35:\n        /* \"#utility.yul\":834:861   */\n      tag_82\n        /* \"#utility.yul\":856:860   */\n      dup3\n        /* \"#utility.yul\":834:861   */\n      tag_33\n      jump\t// in\n    tag_82:\n        /* \"#utility.yul\":826:832   */\n      dup2\n        /* \"#utility.yul\":822:862   */\n      add\n        /* \"#utility.yul\":964:970   */\n      dup2\n        /* \"#utility.yul\":952:962   */\n      dup2\n        /* \"#utility.yul\":949:971   */\n      lt\n        /* \"#utility.yul\":928:946   */\n      0xffffffffffffffff\n        /* \"#utility.yul\":916:926   */\n      dup3\n        /* \"#utility.yul\":913:947   */\n      gt\n        /* \"#utility.yul\":910:972   */\n      or\n        /* \"#utility.yul\":907:995   */\n      iszero\n      tag_83\n      jumpi\n        /* \"#utility.yul\":975:993   */\n      tag_84\n      tag_34\n      jump\t// in\n    tag_84:\n        /* \"#utility.yul\":907:995   */\n    tag_83:\n        /* \"#utility.yul\":1015:1025   */\n      dup1\n        /* \"#utility.yul\":1011:1013   */\n      0x40\n        /* \"#utility.yul\":1004:1026   */\n      mstore\n        /* \"#utility.yul\":794:1032   */\n      pop\n        /* \"#utility.yul\":751:1032   */\n      pop\n      pop\n      jump\t// out\n        /* \"#utility.yul\":1038:1167   */\n    tag_36:\n        /* \"#utility.yul\":1072:1078   */\n      0x00\n        /* \"#utility.yul\":1099:1119   */\n      tag_86\n      tag_29\n      jump\t// in\n    tag_86:\n        /* \"#utility.yul\":1089:1119   */\n      swap1\n      pop\n        /* \"#utility.yul\":1128:1161   */\n      tag_87\n        /* \"#utility.yul\":1156:1160   */\n      dup3\n        /* \"#utility.yul\":1148:1154   */\n      dup3\n        /* \"#utility.yul\":1128:1161   */\n      tag_35\n      jump\t// in\n    tag_87:\n        /* \"#utility.yul\":1038:1167   */\n      swap2\n      swap1\n      pop\n      jump\t// out\n        /* \"#utility.yul\":1173:1290   */\n    tag_37:\n        /* \"#utility.yul\":1282:1283   */\n      0x00\n        /* \"#utility.yul\":1279:1280   */\n      dup1\n        /* \"#utility.yul\":1272:1284   */\n      revert\n        /* \"#utility.yul\":1296:1413   */\n    tag_38:\n        /* \"#utility.yul\":1405:1406   */\n      0x00\n        /* \"#utility.yul\":1402:1403   */\n      dup1\n        /* \"#utility.yul\":1395:1407   */\n      revert\n        /* \"#utility.yul\":1419:1536   */\n    tag_39:\n        /* \"#utility.yul\":1528:1529   */\n      0x00\n        /* \"#utility.yul\":1525:1526   */\n      dup1\n        /* \"#utility.yul\":1518:1530   */\n      revert\n        /* \"#utility.yul\":1542:1850   */\n    tag_40:\n        /* \"#utility.yul\":1604:1608   */\n      0x00\n        /* \"#utility.yul\":1694:1712   */\n      0xffffffffffffffff\n        /* \"#utility.yul\":1686:1692   */\n      dup3\n        /* \"#utility.yul\":1683:1713   */\n      gt\n        /* \"#utility.yul\":1680:1736   */\n      iszero\n      tag_92\n      jumpi\n        /* \"#utility.yul\":1716:1734   */\n      tag_93\n      tag_34\n      jump\t// in\n    tag_93:\n        /* \"#utility.yul\":1680:1736   */\n    tag_92:\n        /* \"#utility.yul\":1754:1783   */\n      tag_94\n        /* \"#utility.yul\":1776:1782   */\n      dup3\n        /* \"#utility.yul\":1754:1783   */\n      tag_33\n      jump\t// in\n    tag_94:\n        /* \"#utility.yul\":1746:1783   */\n      swap1\n      pop\n        /* \"#utility.yul\":1838:1842   */\n      0x20\n        /* \"#utility.yul\":1832:1836   */\n      dup2\n        /* \"#utility.yul\":1828:1843   */\n      add\n        /* \"#utility.yul\":1820:1843   */\n      swap1\n      pop\n        /* \"#utility.yul\":1542:1850   */\n      swap2\n      swap1\n      pop\n      jump\t// out\n        /* \"#utility.yul\":1856:2004   */\n    tag_41:\n        /* \"#utility.yul\":1954:1960   */\n      dup3\n        /* \"#utility.yul\":1949:1952   */\n      dup2\n        /* \"#utility.yul\":1944:1947   */\n      dup4\n        /* \"#utility.yul\":1931:1961   */\n      calldatacopy\n        /* \"#utility.yul\":1995:1996   */\n      0x00\n        /* \"#utility.yul\":1986:1992   */\n      dup4\n        /* \"#utility.yul\":1981:1984   */\n      dup4\n        /* \"#utility.yul\":1977:1993   */\n      add\n        /* \"#utility.yul\":1970:1997   */\n      mstore\n        /* \"#utility.yul\":1856:2004   */\n      pop\n      pop\n      pop\n      jump\t// out\n        /* \"#utility.yul\":2010:2435   */\n    tag_42:\n        /* \"#utility.yul\":2088:2093   */\n      0x00\n        /* \"#utility.yul\":2113:2179   */\n      tag_97\n        /* \"#utility.yul\":2129:2178   */\n      tag_98\n        /* \"#utility.yul\":2171:2177   */\n      dup5\n        /* \"#utility.yul\":2129:2178   */\n      tag_40\n      jump\t// in\n    tag_98:\n        /* \"#utility.yul\":2113:2179   */\n      tag_36\n      jump\t// in\n    tag_97:\n        /* \"#utility.yul\":2104:2179   */\n      swap1\n      pop\n        /* \"#utility.yul\":2202:2208   */\n      dup3\n        /* \"#utility.yul\":2195:2200   */\n      dup2\n        /* \"#utility.yul\":2188:2209   */\n      mstore\n        /* \"#utility.yul\":2240:2244   */\n      0x20\n        /* \"#utility.yul\":2233:2238   */\n      dup2\n        /* \"#utility.yul\":2229:2245   */\n      add\n        /* \"#utility.yul\":2278:2281   */\n      dup5\n        /* \"#utility.yul\":2269:2275   */\n      dup5\n        /* \"#utility.yul\":2264:2267   */\n      dup5\n        /* \"#utility.yul\":2260:2276   */\n      add\n        /* \"#utility.yul\":2257:2282   */\n      gt\n        /* \"#utility.yul\":2254:2366   */\n      iszero\n      tag_99\n      jumpi\n        /* \"#utility.yul\":2285:2364   */\n      tag_100\n      tag_39\n      jump\t// in\n    tag_100:\n        /* \"#utility.yul\":2254:2366   */\n    tag_99:\n        /* \"#utility.yul\":2375:2429   */\n      tag_101\n        /* \"#utility.yul\":2422:2428   */\n      dup5\n        /* \"#utility.yul\":2417:2420   */\n      dup3\n        /* \"#utility.yul\":2412:2415   */\n      dup6\n        /* \"#utility.yul\":2375:2429   */\n      tag_41\n      jump\t// in\n    tag_101:\n        /* \"#utility.yul\":2094:2435   */\n      pop\n        /* \"#utility.yul\":2010:2435   */\n      swap4\n      swap3\n      pop\n      pop\n      pop\n      jump\t// out\n        /* \"#utility.yul\":2455:2795   */\n    tag_43:\n        /* \"#utility.yul\":2511:2516   */\n      0x00\n        /* \"#utility.yul\":2560:2563   */\n      dup3\n        /* \"#utility.yul\":2553:2557   */\n      0x1f\n        /* \"#utility.yul\":2545:2551   */\n      dup4\n        /* \"#utility.yul\":2541:2558   */\n      add\n        /* \"#utility.yul\":2537:2564   */\n      slt\n        /* \"#utility.yul\":2527:2649   */\n      tag_103\n      jumpi\n        /* \"#utility.yul\":2568:2647   */\n      tag_104\n      tag_38\n      jump\t// in\n    tag_104:\n        /* \"#utility.yul\":2527:2649   */\n    tag_103:\n        /* \"#utility.yul\":2685:2691   */\n      dup2\n        /* \"#utility.yul\":2672:2692   */\n      calldataload\n        /* \"#utility.yul\":2710:2789   */\n      tag_105\n        /* \"#utility.yul\":2785:2788   */\n      dup5\n        /* \"#utility.yul\":2777:2783   */\n      dup3\n        /* \"#utility.yul\":2770:2774   */\n      0x20\n        /* \"#utility.yul\":2762:2768   */\n      dup7\n        /* \"#utility.yul\":2758:2775   */\n      add\n        /* \"#utility.yul\":2710:2789   */\n      tag_42\n      jump\t// in\n    tag_105:\n        /* \"#utility.yul\":2701:2789   */\n      swap2\n      pop\n        /* \"#utility.yul\":2517:2795   */\n      pop\n        /* \"#utility.yul\":2455:2795   */\n      swap3\n      swap2\n      pop\n      pop\n      jump\t// out\n        /* \"#utility.yul\":2801:2887   */\n    tag_44:\n        /* \"#utility.yul\":2836:2843   */\n      0x00\n        /* \"#utility.yul\":2876:2880   */\n      0xff\n        /* \"#utility.yul\":2869:2874   */\n      dup3\n        /* \"#utility.yul\":2865:2881   */\n      and\n        /* \"#utility.yul\":2854:2881   */\n      swap1\n      pop\n        /* \"#utility.yul\":2801:2887   */\n      swap2\n      swap1\n      pop\n      jump\t// out\n        /* \"#utility.yul\":2893:3011   */\n    tag_45:\n        /* \"#utility.yul\":2964:2986   */\n      tag_108\n        /* \"#utility.yul\":2980:2985   */\n      dup2\n        /* \"#utility.yul\":2964:2986   */\n      tag_44\n      jump\t// in\n    tag_108:\n        /* \"#utility.yul\":2957:2962   */\n      dup2\n        /* \"#utility.yul\":2954:2987   */\n      eq\n        /* \"#utility.yul\":2944:3005   */\n      tag_109\n      jumpi\n        /* \"#utility.yul\":3001:3002   */\n      0x00\n        /* \"#utility.yul\":2998:2999   */\n      dup1\n        /* \"#utility.yul\":2991:3003   */\n      revert\n        /* \"#utility.yul\":2944:3005   */\n    tag_109:\n        /* \"#utility.yul\":2893:3011   */\n      pop\n      jump\t// out\n        /* \"#utility.yul\":3017:3152   */\n    tag_46:\n        /* \"#utility.yul\":3061:3066   */\n      0x00\n        /* \"#utility.yul\":3099:3105   */\n      dup2\n        /* \"#utility.yul\":3086:3106   */\n      calldataload\n        /* \"#utility.yul\":3077:3106   */\n      swap1\n      pop\n        /* \"#utility.yul\":3115:3146   */\n      tag_111\n        /* \"#utility.yul\":3140:3145   */\n      dup2\n        /* \"#utility.yul\":3115:3146   */\n      tag_45\n      jump\t// in\n    tag_111:\n        /* \"#utility.yul\":3017:3152   */\n      swap3\n      swap2\n      pop\n      pop\n      jump\t// out\n        /* \"#utility.yul\":3196:3935   */\n    tag_47:\n        /* \"#utility.yul\":3268:3273   */\n      0x00\n        /* \"#utility.yul\":3312:3316   */\n      0x40\n        /* \"#utility.yul\":3300:3309   */\n      dup3\n        /* \"#utility.yul\":3295:3298   */\n      dup5\n        /* \"#utility.yul\":3291:3310   */\n      sub\n        /* \"#utility.yul\":3287:3317   */\n      slt\n        /* \"#utility.yul\":3284:3401   */\n      iszero\n      tag_113\n      jumpi\n        /* \"#utility.yul\":3320:3399   */\n      tag_114\n      tag_32\n      jump\t// in\n    tag_114:\n        /* \"#utility.yul\":3284:3401   */\n    tag_113:\n        /* \"#utility.yul\":3419:3440   */\n      tag_115\n        /* \"#utility.yul\":3435:3439   */\n      0x40\n        /* \"#utility.yul\":3419:3440   */\n      tag_36\n      jump\t// in\n    tag_115:\n        /* \"#utility.yul\":3410:3440   */\n      swap1\n      pop\n        /* \"#utility.yul\":3527:3528   */\n      0x00\n        /* \"#utility.yul\":3516:3525   */\n      dup3\n        /* \"#utility.yul\":3512:3529   */\n      add\n        /* \"#utility.yul\":3499:3530   */\n      calldataload\n        /* \"#utility.yul\":3557:3575   */\n      0xffffffffffffffff\n        /* \"#utility.yul\":3549:3555   */\n      dup2\n        /* \"#utility.yul\":3546:3576   */\n      gt\n        /* \"#utility.yul\":3543:3660   */\n      iszero\n      tag_116\n      jumpi\n        /* \"#utility.yul\":3579:3658   */\n      tag_117\n      tag_37\n      jump\t// in\n    tag_117:\n        /* \"#utility.yul\":3543:3660   */\n    tag_116:\n        /* \"#utility.yul\":3699:3758   */\n      tag_118\n        /* \"#utility.yul\":3754:3757   */\n      dup5\n        /* \"#utility.yul\":3745:3751   */\n      dup3\n        /* \"#utility.yul\":3734:3743   */\n      dup6\n        /* \"#utility.yul\":3730:3752   */\n      add\n        /* \"#utility.yul\":3699:3758   */\n      tag_43\n      jump\t// in\n    tag_118:\n        /* \"#utility.yul\":3692:3696   */\n      0x00\n        /* \"#utility.yul\":3685:3690   */\n      dup4\n        /* \"#utility.yul\":3681:3697   */\n      add\n        /* \"#utility.yul\":3674:3759   */\n      mstore\n        /* \"#utility.yul\":3450:3770   */\n      pop\n        /* \"#utility.yul\":3828:3830   */\n      0x20\n        /* \"#utility.yul\":3869:3916   */\n      tag_119\n        /* \"#utility.yul\":3912:3915   */\n      dup5\n        /* \"#utility.yul\":3903:3909   */\n      dup3\n        /* \"#utility.yul\":3892:3901   */\n      dup6\n        /* \"#utility.yul\":3888:3910   */\n      add\n        /* \"#utility.yul\":3869:3916   */\n      tag_46\n      jump\t// in\n    tag_119:\n        /* \"#utility.yul\":3862:3866   */\n      0x20\n        /* \"#utility.yul\":3855:3860   */\n      dup4\n        /* \"#utility.yul\":3851:3867   */\n      add\n        /* \"#utility.yul\":3844:3917   */\n      mstore\n        /* \"#utility.yul\":3780:3928   */\n      pop\n        /* \"#utility.yul\":3196:3935   */\n      swap3\n      swap2\n      pop\n      pop\n      jump\t// out\n        /* \"#utility.yul\":3941:4476   */\n    tag_7:\n        /* \"#utility.yul\":4023:4029   */\n      0x00\n        /* \"#utility.yul\":4072:4074   */\n      0x20\n        /* \"#utility.yul\":4060:4069   */\n      dup3\n        /* \"#utility.yul\":4051:4058   */\n      dup5\n        /* \"#utility.yul\":4047:4070   */\n      sub\n        /* \"#utility.yul\":4043:4075   */\n      slt\n        /* \"#utility.yul\":4040:4159   */\n      iszero\n      tag_121\n      jumpi\n        /* \"#utility.yul\":4078:4157   */\n      tag_122\n      tag_30\n      jump\t// in\n    tag_122:\n        /* \"#utility.yul\":4040:4159   */\n    tag_121:\n        /* \"#utility.yul\":4226:4227   */\n      0x00\n        /* \"#utility.yul\":4215:4224   */\n      dup3\n        /* \"#utility.yul\":4211:4228   */\n      add\n        /* \"#utility.yul\":4198:4229   */\n      calldataload\n        /* \"#utility.yul\":4256:4274   */\n      0xffffffffffffffff\n        /* \"#utility.yul\":4248:4254   */\n      dup2\n        /* \"#utility.yul\":4245:4275   */\n      gt\n        /* \"#utility.yul\":4242:4359   */\n      iszero\n      tag_123\n      jumpi\n        /* \"#utility.yul\":4278:4357   */\n      tag_124\n      tag_31\n      jump\t// in\n    tag_124:\n        /* \"#utility.yul\":4242:4359   */\n    tag_123:\n        /* \"#utility.yul\":4383:4459   */\n      tag_125\n        /* \"#utility.yul\":4451:4458   */\n      dup5\n        /* \"#utility.yul\":4442:4448   */\n      dup3\n        /* \"#utility.yul\":4431:4440   */\n      dup6\n        /* \"#utility.yul\":4427:4449   */\n      add\n        /* \"#utility.yul\":4383:4459   */\n      tag_47\n      jump\t// in\n    tag_125:\n        /* \"#utility.yul\":4373:4459   */\n      swap2\n      pop\n        /* \"#utility.yul\":4169:4469   */\n      pop\n        /* \"#utility.yul\":3941:4476   */\n      swap3\n      swap2\n      pop\n      pop\n      jump\t// out\n        /* \"#utility.yul\":4482:4575   */\n    tag_48:\n        /* \"#utility.yul\":4518:4525   */\n      0x00\n        /* \"#utility.yul\":4558:4568   */\n      0xffffffff\n        /* \"#utility.yul\":4551:4556   */\n      dup3\n        /* \"#utility.yul\":4547:4569   */\n      and\n        /* \"#utility.yul\":4536:4569   */\n      swap1\n      pop\n        /* \"#utility.yul\":4482:4575   */\n      swap2\n      swap1\n      pop\n      jump\t// out\n        /* \"#utility.yul\":4581:4701   */\n    tag_49:\n        /* \"#utility.yul\":4653:4676   */\n      tag_128\n        /* \"#utility.yul\":4670:4675   */\n      dup2\n        /* \"#utility.yul\":4653:4676   */\n      tag_48\n      jump\t// in\n    tag_128:\n        /* \"#utility.yul\":4646:4651   */\n      dup2\n        /* \"#utility.yul\":4643:4677   */\n      eq\n        /* \"#utility.yul\":4633:4695   */\n      tag_129\n      jumpi\n        /* \"#utility.yul\":4691:4692   */\n      0x00\n        /* \"#utility.yul\":4688:4689   */\n      dup1\n        /* \"#utility.yul\":4681:4693   */\n      revert\n        /* \"#utility.yul\":4633:4695   */\n    tag_129:\n        /* \"#utility.yul\":4581:4701   */\n      pop\n      jump\t// out\n        /* \"#utility.yul\":4707:4844   */\n    tag_50:\n        /* \"#utility.yul\":4752:4757   */\n      0x00\n        /* \"#utility.yul\":4790:4796   */\n      dup2\n        /* \"#utility.yul\":4777:4797   */\n      calldataload\n        /* \"#utility.yul\":4768:4797   */\n      swap1\n      pop\n        /* \"#utility.yul\":4806:4838   */\n      tag_131\n        /* \"#utility.yul\":4832:4837   */\n      dup2\n        /* \"#utility.yul\":4806:4838   */\n      tag_49\n      jump\t// in\n    tag_131:\n        /* \"#utility.yul\":4707:4844   */\n      swap3\n      swap2\n      pop\n      pop\n      jump\t// out\n        /* \"#utility.yul\":4850:5177   */\n    tag_11:\n        /* \"#utility.yul\":4908:4914   */\n      0x00\n        /* \"#utility.yul\":4957:4959   */\n      0x20\n        /* \"#utility.yul\":4945:4954   */\n      dup3\n        /* \"#utility.yul\":4936:4943   */\n      dup5\n        /* \"#utility.yul\":4932:4955   */\n      sub\n        /* \"#utility.yul\":4928:4960   */\n      slt\n        /* \"#utility.yul\":4925:5044   */\n      iszero\n      tag_133\n      jumpi\n        /* \"#utility.yul\":4963:5042   */\n      tag_134\n      tag_30\n      jump\t// in\n    tag_134:\n        /* \"#utility.yul\":4925:5044   */\n    tag_133:\n        /* \"#utility.yul\":5083:5084   */\n      0x00\n        /* \"#utility.yul\":5108:5160   */\n      tag_135\n        /* \"#utility.yul\":5152:5159   */\n      dup5\n        /* \"#utility.yul\":5143:5149   */\n      dup3\n        /* \"#utility.yul\":5132:5141   */\n      dup6\n        /* \"#utility.yul\":5128:5150   */\n      add\n        /* \"#utility.yul\":5108:5160   */\n      tag_50\n      jump\t// in\n    tag_135:\n        /* \"#utility.yul\":5098:5160   */\n      swap2\n      pop\n        /* \"#utility.yul\":5054:5170   */\n      pop\n        /* \"#utility.yul\":4850:5177   */\n      swap3\n      swap2\n      pop\n      pop\n      jump\t// out\n        /* \"#utility.yul\":5183:5282   */\n    tag_51:\n        /* \"#utility.yul\":5235:5241   */\n      0x00\n        /* \"#utility.yul\":5269:5274   */\n      dup2\n        /* \"#utility.yul\":5263:5275   */\n      mload\n        /* \"#utility.yul\":5253:5275   */\n      swap1\n      pop\n        /* \"#utility.yul\":5183:5282   */\n      swap2\n      swap1\n      pop\n      jump\t// out\n        /* \"#utility.yul\":5288:5457   */\n    tag_52:\n        /* \"#utility.yul\":5372:5383   */\n      0x00\n        /* \"#utility.yul\":5406:5412   */\n      dup3\n        /* \"#utility.yul\":5401:5404   */\n      dup3\n        /* \"#utility.yul\":5394:5413   */\n      mstore\n        /* \"#utility.yul\":5446:5450   */\n      0x20\n        /* \"#utility.yul\":5441:5444   */\n      dup3\n        /* \"#utility.yul\":5437:5451   */\n      add\n        /* \"#utility.yul\":5422:5451   */\n      swap1\n      pop\n        /* \"#utility.yul\":5288:5457   */\n      swap3\n      swap2\n      pop\n      pop\n      jump\t// out\n        /* \"#utility.yul\":5463:5602   */\n    tag_53:\n        /* \"#utility.yul\":5552:5558   */\n      dup3\n        /* \"#utility.yul\":5547:5550   */\n      dup2\n        /* \"#utility.yul\":5542:5545   */\n      dup4\n        /* \"#utility.yul\":5536:5559   */\n      mcopy\n        /* \"#utility.yul\":5593:5594   */\n      0x00\n        /* \"#utility.yul\":5584:5590   */\n      dup4\n        /* \"#utility.yul\":5579:5582   */\n      dup4\n        /* \"#utility.yul\":5575:5591   */\n      add\n        /* \"#utility.yul\":5568:5595   */\n      mstore\n        /* \"#utility.yul\":5463:5602   */\n      pop\n      pop\n      pop\n      jump\t// out\n        /* \"#utility.yul\":5608:5985   */\n    tag_54:\n        /* \"#utility.yul\":5696:5699   */\n      0x00\n        /* \"#utility.yul\":5724:5763   */\n      tag_140\n        /* \"#utility.yul\":5757:5762   */\n      dup3\n        /* \"#utility.yul\":5724:5763   */\n      tag_51\n      jump\t// in\n    tag_140:\n        /* \"#utility.yul\":5779:5850   */\n      tag_141\n        /* \"#utility.yul\":5843:5849   */\n      dup2\n        /* \"#utility.yul\":5838:5841   */\n      dup6\n        /* \"#utility.yul\":5779:5850   */\n      tag_52\n      jump\t// in\n    tag_141:\n        /* \"#utility.yul\":5772:5850   */\n      swap4\n      pop\n        /* \"#utility.yul\":5859:5924   */\n      tag_142\n        /* \"#utility.yul\":5917:5923   */\n      dup2\n        /* \"#utility.yul\":5912:5915   */\n      dup6\n        /* \"#utility.yul\":5905:5909   */\n      0x20\n        /* \"#utility.yul\":5898:5903   */\n      dup7\n        /* \"#utility.yul\":5894:5910   */\n      add\n        /* \"#utility.yul\":5859:5924   */\n      tag_53\n      jump\t// in\n    tag_142:\n        /* \"#utility.yul\":5949:5978   */\n      tag_143\n        /* \"#utility.yul\":5971:5977   */\n      dup2\n        /* \"#utility.yul\":5949:5978   */\n      tag_33\n      jump\t// in\n    tag_143:\n        /* \"#utility.yul\":5944:5947   */\n      dup5\n        /* \"#utility.yul\":5940:5979   */\n      add\n        /* \"#utility.yul\":5933:5979   */\n      swap2\n      pop\n        /* \"#utility.yul\":5700:5985   */\n      pop\n        /* \"#utility.yul\":5608:5985   */\n      swap3\n      swap2\n      pop\n      pop\n      jump\t// out\n        /* \"#utility.yul\":5991:6103   */\n    tag_55:\n        /* \"#utility.yul\":6074:6096   */\n      tag_145\n        /* \"#utility.yul\":6090:6095   */\n      dup2\n        /* \"#utility.yul\":6074:6096   */\n      tag_44\n      jump\t// in\n    tag_145:\n        /* \"#utility.yul\":6069:6072   */\n      dup3\n        /* \"#utility.yul\":6062:6097   */\n      mstore\n        /* \"#utility.yul\":5991:6103   */\n      pop\n      pop\n      jump\t// out\n        /* \"#utility.yul\":6109:6524   */\n    tag_14:\n        /* \"#utility.yul\":6246:6250   */\n      0x00\n        /* \"#utility.yul\":6284:6286   */\n      0x40\n        /* \"#utility.yul\":6273:6282   */\n      dup3\n        /* \"#utility.yul\":6269:6287   */\n      add\n        /* \"#utility.yul\":6261:6287   */\n      swap1\n      pop\n        /* \"#utility.yul\":6333:6342   */\n      dup2\n        /* \"#utility.yul\":6327:6331   */\n      dup2\n        /* \"#utility.yul\":6323:6343   */\n      sub\n        /* \"#utility.yul\":6319:6320   */\n      0x00\n        /* \"#utility.yul\":6308:6317   */\n      dup4\n        /* \"#utility.yul\":6304:6321   */\n      add\n        /* \"#utility.yul\":6297:6344   */\n      mstore\n        /* \"#utility.yul\":6361:6439   */\n      tag_147\n        /* \"#utility.yul\":6434:6438   */\n      dup2\n        /* \"#utility.yul\":6425:6431   */\n      dup6\n        /* \"#utility.yul\":6361:6439   */\n      tag_54\n      jump\t// in\n    tag_147:\n        /* \"#utility.yul\":6353:6439   */\n      swap1\n      pop\n        /* \"#utility.yul\":6449:6517   */\n      tag_148\n        /* \"#utility.yul\":6513:6515   */\n      0x20\n        /* \"#utility.yul\":6502:6511   */\n      dup4\n        /* \"#utility.yul\":6498:6516   */\n      add\n        /* \"#utility.yul\":6489:6495   */\n      dup5\n        /* \"#utility.yul\":6449:6517   */\n      tag_55\n      jump\t// in\n    tag_148:\n        /* \"#utility.yul\":6109:6524   */\n      swap4\n      swap3\n      pop\n      pop\n      pop\n      jump\t// out\n        /* \"#utility.yul\":6530:6710   */\n    tag_56:\n        /* \"#utility.yul\":6578:6655   */\n      0x4e487b7100000000000000000000000000000000000000000000000000000000\n        /* \"#utility.yul\":6575:6576   */\n      0x00\n        /* \"#utility.yul\":6568:6656   */\n      mstore\n        /* \"#utility.yul\":6675:6679   */\n      0x22\n        /* \"#utility.yul\":6672:6673   */\n      0x04\n        /* \"#utility.yul\":6665:6680   */\n      mstore\n        /* \"#utility.yul\":6699:6703   */\n      0x24\n        /* \"#utility.yul\":6696:6697   */\n      0x00\n        /* \"#utility.yul\":6689:6704   */\n      revert\n        /* \"#utility.yul\":6716:7036   */\n    tag_21:\n        /* \"#utility.yul\":6760:6766   */\n      0x00\n        /* \"#utility.yul\":6797:6798   */\n      0x02\n        /* \"#utility.yul\":6791:6795   */\n      dup3\n        /* \"#utility.yul\":6787:6799   */\n      div\n        /* \"#utility.yul\":6777:6799   */\n      swap1\n      pop\n        /* \"#utility.yul\":6844:6845   */\n      0x01\n        /* \"#utility.yul\":6838:6842   */\n      dup3\n        /* \"#utility.yul\":6834:6846   */\n      and\n        /* \"#utility.yul\":6865:6883   */\n      dup1\n        /* \"#utility.yul\":6855:6936   */\n      tag_151\n      jumpi\n        /* \"#utility.yul\":6921:6925   */\n      0x7f\n        /* \"#utility.yul\":6913:6919   */\n      dup3\n        /* \"#utility.yul\":6909:6926   */\n      and\n        /* \"#utility.yul\":6899:6926   */\n      swap2\n      pop\n        /* \"#utility.yul\":6855:6936   */\n    tag_151:\n        /* \"#utility.yul\":6983:6985   */\n      0x20\n        /* \"#utility.yul\":6975:6981   */\n      dup3\n        /* \"#utility.yul\":6972:6986   */\n      lt\n        /* \"#utility.yul\":6952:6970   */\n      dup2\n        /* \"#utility.yul\":6949:6987   */\n      sub\n        /* \"#utility.yul\":6946:7030   */\n      tag_152\n      jumpi\n        /* \"#utility.yul\":7002:7020   */\n      tag_153\n      tag_56\n      jump\t// in\n    tag_153:\n        /* \"#utility.yul\":6946:7030   */\n    tag_152:\n        /* \"#utility.yul\":6767:7036   */\n      pop\n        /* \"#utility.yul\":6716:7036   */\n      swap2\n      swap1\n      pop\n      jump\t// out\n        /* \"#utility.yul\":7042:7183   */\n    tag_57:\n        /* \"#utility.yul\":7091:7095   */\n      0x00\n        /* \"#utility.yul\":7114:7117   */\n      dup2\n        /* \"#utility.yul\":7106:7117   */\n      swap1\n      pop\n        /* \"#utility.yul\":7137:7140   */\n      dup2\n        /* \"#utility.yul\":7134:7135   */\n      0x00\n        /* \"#utility.yul\":7127:7141   */\n      mstore\n        /* \"#utility.yul\":7171:7175   */\n      0x20\n        /* \"#utility.yul\":7168:7169   */\n      0x00\n        /* \"#utility.yul\":7158:7176   */\n      keccak256\n        /* \"#utility.yul\":7150:7176   */\n      swap1\n      pop\n        /* \"#utility.yul\":7042:7183   */\n      swap2\n      swap1\n      pop\n      jump\t// out\n        /* \"#utility.yul\":7189:7282   */\n    tag_58:\n        /* \"#utility.yul\":7226:7232   */\n      0x00\n        /* \"#utility.yul\":7273:7275   */\n      0x20\n        /* \"#utility.yul\":7268:7270   */\n      0x1f\n        /* \"#utility.yul\":7261:7266   */\n      dup4\n        /* \"#utility.yul\":7257:7271   */\n      add\n        /* \"#utility.yul\":7253:7276   */\n      div\n        /* \"#utility.yul\":7243:7276   */\n      swap1\n      pop\n        /* \"#utility.yul\":7189:7282   */\n      swap2\n      swap1\n      pop\n      jump\t// out\n        /* \"#utility.yul\":7288:7395   */\n    tag_59:\n        /* \"#utility.yul\":7332:7340   */\n      0x00\n        /* \"#utility.yul\":7382:7387   */\n      dup3\n        /* \"#utility.yul\":7376:7380   */\n      dup3\n        /* \"#utility.yul\":7372:7388   */\n      shl\n        /* \"#utility.yul\":7351:7388   */\n      swap1\n      pop\n        /* \"#utility.yul\":7288:7395   */\n      swap3\n      swap2\n      pop\n      pop\n      jump\t// out\n        /* \"#utility.yul\":7401:7794   */\n    tag_60:\n        /* \"#utility.yul\":7470:7476   */\n      0x00\n        /* \"#utility.yul\":7520:7521   */\n      0x08\n        /* \"#utility.yul\":7508:7518   */\n      dup4\n        /* \"#utility.yul\":7504:7522   */\n      mul\n        /* \"#utility.yul\":7543:7640   */\n      tag_158\n        /* \"#utility.yul\":7573:7639   */\n      0xffffffffffffffffffffffffffffffffffffffffffffffffffffffffffffffff\n        /* \"#utility.yul\":7562:7571   */\n      dup3\n        /* \"#utility.yul\":7543:7640   */\n      tag_59\n      jump\t// in\n    tag_158:\n        /* \"#utility.yul\":7661:7700   */\n      tag_159\n        /* \"#utility.yul\":7691:7699   */\n      dup7\n        /* \"#utility.yul\":7680:7689   */\n      dup4\n        /* \"#utility.yul\":7661:7700   */\n      tag_59\n      jump\t// in\n    tag_159:\n        /* \"#utility.yul\":7649:7700   */\n      swap6\n      pop\n        /* \"#utility.yul\":7733:7737   */\n      dup1\n        /* \"#utility.yul\":7729:7738   */\n      not\n        /* \"#utility.yul\":7722:7727   */\n      dup5\n        /* \"#utility.yul\":7718:7739   */\n      and\n        /* \"#utility.yul\":7709:7739   */\n      swap4\n      pop\n        /* \"#utility.yul\":7782:7786   */\n      dup1\n        /* \"#utility.yul\":7772:7780   */\n      dup7\n        /* \"#utility.yul\":7768:7787   */\n      and\n        /* \"#utility.yul\":7761:7766   */\n      dup5\n        /* \"#utility.yul\":7758:7788   */\n      or\n        /* \"#utility.yul\":7748:7788   */\n      swap3\n      pop\n        /* \"#utility.yul\":7477:7794   */\n      pop\n      pop\n        /* \"#utility.yul\":7401:7794   */\n      swap4\n      swap3\n      pop\n      pop\n      pop\n      jump\t// out\n        /* \"#utility.yul\":7800:7877   */\n    tag_61:\n        /* \"#utility.yul\":7837:7844   */\n      0x00\n        /* \"#utility.yul\":7866:7871   */\n      dup2\n        /* \"#utility.yul\":7855:7871   */\n      swap1\n      pop\n        /* \"#utility.yul\":7800:7877   */\n      swap2\n      swap1\n      pop\n      jump\t// out\n        /* \"#utility.yul\":7883:7943   */\n    tag_62:\n        /* \"#utility.yul\":7911:7914   */\n      0x00\n        /* \"#utility.yul\":7932:7937   */\n      dup2\n        /* \"#utility.yul\":7925:7937   */\n      swap1\n      pop\n        /* \"#utility.yul\":7883:7943   */\n      swap2\n      swap1\n      pop\n      jump\t// out\n        /* \"#utility.yul\":7949:8091   */\n    tag_63:\n        /* \"#utility.yul\":7999:8008   */\n      0x00\n        /* \"#utility.yul\":8032:8085   */\n      tag_163\n        /* \"#utility.yul\":8050:8084   */\n      tag_164\n        /* \"#utility.yul\":8059:8083   */\n      tag_165\n        /* \"#utility.yul\":8077:8082   */\n      dup5\n        /* \"#utility.yul\":8059:8083   */\n      tag_61\n      jump\t// in\n    tag_165:\n        /* \"#utility.yul\":8050:8084   */\n      tag_62\n      jump\t// in\n    tag_164:\n        /* \"#utility.yul\":8032:8085   */\n      tag_61\n      jump\t// in\n    tag_163:\n        /* \"#utility.yul\":8019:8085   */\n      swap1\n      pop\n        /* \"#utility.yul\":7949:8091   */\n      swap2\n      swap1\n      pop\n      jump\t// out\n        /* \"#utility.yul\":8097:8172   */\n    tag_64:\n        /* \"#utility.yul\":8140:8143   */\n      0x00\n        /* \"#utility.yul\":8161:8166   */\n      dup2\n        /* \"#utility.yul\":8154:8166   */\n      swap1\n      pop\n        /* \"#utility.yul\":8097:8172   */\n      swap2\n      swap1\n      pop\n      jump\t// out\n        /* \"#utility.yul\":8178:8447   */\n    tag_65:\n        /* \"#utility.yul\":8288:8327   */\n      tag_168\n        /* \"#utility.yul\":8319:8326   */\n      dup4\n        /* \"#utility.yul\":8288:8327   */\n      tag_63\n      jump\t// in\n    tag_168:\n        /* \"#utility.yul\":8349:8440   */\n      tag_169\n        /* \"#utility.yul\":8398:8439   */\n      tag_170\n        /* \"#utility.yul\":8422:8438   */\n      dup3\n        /* \"#utility.yul\":8398:8439   */\n      tag_64\n      jump\t// in\n    tag_170:\n        /* \"#utility.yul\":8390:8396   */\n      dup5\n        /* \"#utility.yul\":8383:8387   */\n      dup5\n        /* \"#utility.yul\":8377:8388   */\n      sload\n        /* \"#utility.yul\":8349:8440   */\n      tag_60\n      jump\t// in\n    tag_169:\n        /* \"#utility.yul\":8343:8347   */\n      dup3\n        /* \"#utility.yul\":8336:8441   */\n      sstore\n        /* \"#utility.yul\":8254:8447   */\n      pop\n        /* \"#utility.yul\":8178:8447   */\n      pop\n      pop\n      pop\n      jump\t// out\n        /* \"#utility.yul\":8453:8526   */\n    tag_66:\n        /* \"#utility.yul\":8498:8501   */\n      0x00\n        /* \"#utility.yul\":8453:8526   */\n      swap1\n      jump\t// out\n        /* \"#utility.yul\":8532:8721   */\n    tag_67:\n        /* \"#utility.yul\":8609:8641   */\n      tag_173\n      tag_66\n      jump\t// in\n    tag_173:\n        /* \"#utility.yul\":8650:8715   */\n      tag_174\n        /* \"#utility.yul\":8708:8714   */\n      dup2\n        /* \"#utility.yul\":8700:8706   */\n      dup5\n        /* \"#utility.yul\":8694:8698   */\n      dup5\n        /* \"#utility.yul\":8650:8715   */\n      tag_65\n      jump\t// in\n    tag_174:\n        /* \"#utility.yul\":8585:8721   */\n      pop\n        /* \"#utility.yul\":8532:8721   */\n      pop\n      pop\n      jump\t// out\n        /* \"#utility.yul\":8727:8913   */\n    tag_68:\n        /* \"#utility.yul\":8787:8907   */\n    tag_176:\n        /* \"#utility.yul\":8804:8807   */\n      dup2\n        /* \"#utility.yul\":8797:8802   */\n      dup2\n        /* \"#utility.yul\":8794:8808   */\n      lt\n        /* \"#utility.yul\":8787:8907   */\n      iszero\n      tag_178\n      jumpi\n        /* \"#utility.yul\":8858:8897   */\n      tag_179\n        /* \"#utility.yul\":8895:8896   */\n      0x00\n        /* \"#utility.yul\":8888:8893   */\n      dup3\n        /* \"#utility.yul\":8858:8897   */\n      tag_67\n      jump\t// in\n    tag_179:\n        /* \"#utility.yul\":8831:8832   */\n      0x01\n        /* \"#utility.yul\":8824:8829   */\n      dup2\n        /* \"#utility.yul\":8820:8833   */\n      add\n        /* \"#utility.yul\":8811:8833   */\n      swap1\n      pop\n        /* \"#utility.yul\":8787:8907   */\n      jump(tag_176)\n    tag_178:\n        /* \"#utility.yul\":8727:8913   */\n      pop\n      pop\n      jump\t// out\n        /* \"#utility.yul\":8919:9462   */\n    tag_69:\n        /* \"#utility.yul\":9020:9022   */\n      0x1f\n        /* \"#utility.yul\":9015:9018   */\n      dup3\n        /* \"#utility.yul\":9012:9023   */\n      gt\n        /* \"#utility.yul\":9009:9455   */\n      iszero\n      tag_181\n      jumpi\n        /* \"#utility.yul\":9054:9092   */\n      tag_182\n        /* \"#utility.yul\":9086:9091   */\n      dup2\n        /* \"#utility.yul\":9054:9092   */\n      tag_57\n      jump\t// in\n    tag_182:\n        /* \"#utility.yul\":9138:9167   */\n      tag_183\n        /* \"#utility.yul\":9156:9166   */\n      dup5\n        /* \"#utility.yul\":9138:9167   */\n      tag_58\n      jump\t// in\n    tag_183:\n        /* \"#utility.yul\":9128:9136   */\n      dup2\n        /* \"#utility.yul\":9124:9168   */\n      add\n        /* \"#utility.yul\":9321:9323   */\n      0x20\n        /* \"#utility.yul\":9309:9319   */\n      dup6\n        /* \"#utility.yul\":9306:9324   */\n      lt\n        /* \"#utility.yul\":9303:9352   */\n      iszero\n      tag_184\n      jumpi\n        /* \"#utility.yul\":9342:9350   */\n      dup2\n        /* \"#utility.yul\":9327:9350   */\n      swap1\n      pop\n        /* \"#utility.yul\":9303:9352   */\n    tag_184:\n        /* \"#utility.yul\":9365:9445   */\n      tag_185\n        /* \"#utility.yul\":9421:9443   */\n      tag_186\n        /* \"#utility.yul\":9439:9442   */\n      dup6\n        /* \"#utility.yul\":9421:9443   */\n      tag_58\n      jump\t// in\n    tag_186:\n        /* \"#utility.yul\":9411:9419   */\n      dup4\n        /* \"#utility.yul\":9407:9444   */\n      add\n        /* \"#utility.yul\":9394:9405   */\n      dup3\n        /* \"#utility.yul\":9365:9445   */\n      tag_68\n      jump\t// in\n    tag_185:\n        /* \"#utility.yul\":9024:9455   */\n      pop\n      pop\n        /* \"#utility.yul\":9009:9455   */\n    tag_181:\n        /* \"#utility.yul\":8919:9462   */\n      pop\n      pop\n      pop\n      jump\t// out\n        /* \"#utility.yul\":9468:9585   */\n    tag_70:\n        /* \"#utility.yul\":9522:9530   */\n      0x00\n        /* \"#utility.yul\":9572:9577   */\n      dup3\n        /* \"#utility.yul\":9566:9570   */\n      dup3\n        /* \"#utility.yul\":9562:9578   */\n      shr\n        /* \"#utility.yul\":9541:9578   */\n      swap1\n      pop\n        /* \"#utility.yul\":9468:9585   */\n      swap3\n      swap2\n      pop\n      pop\n      jump\t// out\n        /* \"#utility.yul\":9591:9760   */\n    tag_71:\n        /* \"#utility.yul\":9635:9641   */\n      0x00\n        /* \"#utility.yul\":9668:9719   */\n      tag_189\n        /* \"#utility.yul\":9716:9717   */\n      0x00\n        /* \"#utility.yul\":9712:9718   */\n      not\n        /* \"#utility.yul\":9704:9709   */\n      dup5\n        /* \"#utility.yul\":9701:9702   */\n      0x08\n        /* \"#utility.yul\":9697:9710   */\n      mul\n        /* \"#utility.yul\":9668:9719   */\n      tag_70\n      jump\t// in\n    tag_189:\n        /* \"#utility.yul\":9664:9720   */\n      not\n        /* \"#utility.yul\":9749:9753   */\n      dup1\n        /* \"#utility.yul\":9743:9747   */\n      dup4\n        /* \"#utility.yul\":9739:9754   */\n      and\n        /* \"#utility.yul\":9729:9754   */\n      swap2\n      pop\n        /* \"#utility.yul\":9642:9760   */\n      pop\n        /* \"#utility.yul\":9591:9760   */\n      swap3\n      swap2\n      pop\n      pop\n      jump\t// out\n        /* \"#utility.yul\":9765:10060   */\n    tag_72:\n        /* \"#utility.yul\":9841:9845   */\n      0x00\n        /* \"#utility.yul\":9987:10016   */\n      tag_191\n        /* \"#utility.yul\":10012:10015   */\n      dup4\n        /* \"#utility.yul\":10006:10010   */\n      dup4\n        /* \"#utility.yul\":9987:10016   */\n      tag_71\n      jump\t// in\n    tag_191:\n        /* \"#utility.yul\":9979:10016   */\n      swap2\n      pop\n        /* \"#utility.yul\":10049:10052   */\n      dup3\n        /* \"#utility.yul\":10046:10047   */\n      0x02\n        /* \"#utility.yul\":10042:10053   */\n      mul\n        /* \"#utility.yul\":10036:10040   */\n      dup3\n        /* \"#utility.yul\":10033:10054   */\n      or\n        /* \"#utility.yul\":10025:10054   */\n      swap1\n      pop\n        /* \"#utility.yul\":9765:10060   */\n      swap3\n      swap2\n      pop\n      pop\n      jump\t// out\n        /* \"#utility.yul\":10065:11460   */\n    tag_19:\n        /* \"#utility.yul\":10182:10219   */\n      tag_193\n        /* \"#utility.yul\":10215:10218   */\n      dup3\n        /* \"#utility.yul\":10182:10219   */\n      tag_51\n      jump\t// in\n    tag_193:\n        /* \"#utility.yul\":10284:10302   */\n      0xffffffffffffffff\n        /* \"#utility.yul\":10276:10282   */\n      dup2\n        /* \"#utility.yul\":10273:10303   */\n      gt\n        /* \"#utility.yul\":10270:10326   */\n      iszero\n      tag_194\n      jumpi\n        /* \"#utility.yul\":10306:10324   */\n      tag_195\n      tag_34\n      jump\t// in\n    tag_195:\n        /* \"#utility.yul\":10270:10326   */\n    tag_194:\n        /* \"#utility.yul\":10350:10388   */\n      tag_196\n        /* \"#utility.yul\":10382:10386   */\n      dup3\n        /* \"#utility.yul\":10376:10387   */\n      sload\n        /* \"#utility.yul\":10350:10388   */\n      tag_21\n      jump\t// in\n    tag_196:\n        /* \"#utility.yul\":10435:10502   */\n      tag_197\n        /* \"#utility.yul\":10495:10501   */\n      dup3\n        /* \"#utility.yul\":10487:10493   */\n      dup3\n        /* \"#utility.yul\":10481:10485   */\n      dup6\n        /* \"#utility.yul\":10435:10502   */\n      tag_69\n      jump\t// in\n    tag_197:\n        /* \"#utility.yul\":10529:10530   */\n      0x00\n        /* \"#utility.yul\":10553:10557   */\n      0x20\n        /* \"#utility.yul\":10540:10557   */\n      swap1\n      pop\n        /* \"#utility.yul\":10585:10587   */\n      0x1f\n        /* \"#utility.yul\":10577:10583   */\n      dup4\n        /* \"#utility.yul\":10574:10588   */\n      gt\n        /* \"#utility.yul\":10602:10603   */\n      0x01\n        /* \"#utility.yul\":10597:11215   */\n      dup2\n      eq\n      tag_199\n      jumpi\n        /* \"#utility.yul\":11259:11260   */\n      0x00\n        /* \"#utility.yul\":11276:11282   */\n      dup5\n        /* \"#utility.yul\":11273:11350   */\n      iszero\n      tag_200\n      jumpi\n        /* \"#utility.yul\":11325:11334   */\n      dup3\n        /* \"#utility.yul\":11320:11323   */\n      dup8\n        /* \"#utility.yul\":11316:11335   */\n      add\n        /* \"#utility.yul\":11310:11336   */\n      mload\n        /* \"#utility.yul\":11301:11336   */\n      swap1\n      pop\n        /* \"#utility.yul\":11273:11350   */\n    tag_200:\n        /* \"#utility.yul\":11376:11443   */\n      tag_201\n        /* \"#utility.yul\":11436:11442   */\n      dup6\n        /* \"#utility.yul\":11429:11434   */\n      dup3\n        /* \"#utility.yul\":11376:11443   */\n      tag_72\n      jump\t// in\n    tag_201:\n        /* \"#utility.yul\":11370:11374   */\n      dup7\n        /* \"#utility.yul\":11363:11444   */\n      sstore\n        /* \"#utility.yul\":11232:11454   */\n      pop\n        /* \"#utility.yul\":10567:11454   */\n      jump(tag_198)\n        /* \"#utility.yul\":10597:11215   */\n    tag_199:\n        /* \"#utility.yul\":10649:10653   */\n      0x1f\n        /* \"#utility.yul\":10645:10654   */\n      not\n        /* \"#utility.yul\":10637:10643   */\n      dup5\n        /* \"#utility.yul\":10633:10655   */\n      and\n        /* \"#utility.yul\":10683:10720   */\n      tag_202\n        /* \"#utility.yul\":10715:10719   */\n      dup7\n        /* \"#utility.yul\":10683:10720   */\n      tag_57\n      jump\t// in\n    tag_202:\n        /* \"#utility.yul\":10742:10743   */\n      0x00\n        /* \"#utility.yul\":10756:10964   */\n    tag_203:\n        /* \"#utility.yul\":10770:10777   */\n      dup3\n        /* \"#utility.yul\":10767:10768   */\n      dup2\n        /* \"#utility.yul\":10764:10778   */\n      lt\n        /* \"#utility.yul\":10756:10964   */\n      iszero\n      tag_205\n      jumpi\n        /* \"#utility.yul\":10849:10858   */\n      dup5\n        /* \"#utility.yul\":10844:10847   */\n      dup10\n        /* \"#utility.yul\":10840:10859   */\n      add\n        /* \"#utility.yul\":10834:10860   */\n      mload\n        /* \"#utility.yul\":10826:10832   */\n      dup3\n        /* \"#utility.yul\":10819:10861   */\n      sstore\n        /* \"#utility.yul\":10900:10901   */\n      0x01\n        /* \"#utility.yul\":10892:10898   */\n      dup3\n        /* \"#utility.yul\":10888:10902   */\n      add\n        /* \"#utility.yul\":10878:10902   */\n      swap2\n      pop\n        /* \"#utility.yul\":10947:10949   */\n      0x20\n        /* \"#utility.yul\":10936:10945   */\n      dup6\n        /* \"#utility.yul\":10932:10950   */\n      add\n        /* \"#utility.yul\":10919:10950   */\n      swap5\n      pop\n        /* \"#utility.yul\":10793:10797   */\n      0x20\n        /* \"#utility.yul\":10790:10791   */\n      dup2\n        /* \"#utility.yul\":10786:10798   */\n      add\n        /* \"#utility.yul\":10781:10798   */\n      swap1\n      pop\n        /* \"#utility.yul\":10756:10964   */\n      jump(tag_203)\n    tag_205:\n        /* \"#utility.yul\":10992:10998   */\n      dup7\n        /* \"#utility.yul\":10983:10990   */\n      dup4\n        /* \"#utility.yul\":10980:10999   */\n      lt\n        /* \"#utility.yul\":10977:11156   */\n      iszero\n      tag_206\n      jumpi\n        /* \"#utility.yul\":11050:11059   */\n      dup5\n        /* \"#utility.yul\":11045:11048   */\n      dup10\n        /* \"#utility.yul\":11041:11060   */\n      add\n        /* \"#utility.yul\":11035:11061   */\n      mload\n        /* \"#utility.yul\":11093:11141   */\n      tag_207\n        /* \"#utility.yul\":11135:11139   */\n      0x1f\n        /* \"#utility.yul\":11127:11133   */\n      dup10\n        /* \"#utility.yul\":11123:11140   */\n      and\n        /* \"#utility.yul\":11112:11121   */\n      dup3\n        /* \"#utility.yul\":11093:11141   */\n      tag_71\n      jump\t// in\n    tag_207:\n        /* \"#utility.yul\":11085:11091   */\n      dup4\n        /* \"#utility.yul\":11078:11142   */\n      sstore\n        /* \"#utility.yul\":11000:11156   */\n      pop\n        /* \"#utility.yul\":10977:11156   */\n    tag_206:\n        /* \"#utility.yul\":11202:11203   */\n      0x01\n        /* \"#utility.yul\":11198:11199   */\n      0x02\n        /* \"#utility.yul\":11190:11196   */\n      dup9\n        /* \"#utility.yul\":11186:11200   */\n      mul\n        /* \"#utility.yul\":11182:11204   */\n      add\n        /* \"#utility.yul\":11176:11180   */\n      dup9\n        /* \"#utility.yul\":11169:11205   */\n      sstore\n        /* \"#utility.yul\":10604:11215   */\n      pop\n      pop\n      pop\n        /* \"#utility.yul\":10567:11454   */\n    tag_198:\n      pop\n        /* \"#utility.yul\":10157:11460   */\n      pop\n      pop\n      pop\n        /* \"#utility.yul\":10065:11460   */\n      pop\n      pop\n      jump\t// out\n        /* \"#utility.yul\":11466:11646   */\n    tag_73:\n        /* \"#utility.yul\":11514:11591   */\n      0x4e487b7100000000000000000000000000000000000000000000000000000000\n        /* \"#utility.yul\":11511:11512   */\n      0x00\n        /* \"#utility.yul\":11504:11592   */\n      mstore\n        /* \"#utility.yul\":11611:11615   */\n      0x11\n        /* \"#utility.yul\":11608:11609   */\n      0x04\n        /* \"#utility.yul\":11601:11616   */\n      mstore\n        /* \"#utility.yul\":11635:11639   */\n      0x24\n        /* \"#utility.yul\":11632:11633   */\n      0x00\n        /* \"#utility.yul\":11625:11640   */\n      revert\n        /* \"#utility.yul\":11652:11827   */\n    tag_28:\n        /* \"#utility.yul\":11690:11693   */\n      0x00\n        /* \"#utility.yul\":11713:11736   */\n      tag_210\n        /* \"#utility.yul\":11730:11735   */\n      dup3\n        /* \"#utility.yul\":11713:11736   */\n      tag_48\n      jump\t// in\n    tag_210:\n        /* \"#utility.yul\":11704:11736   */\n      swap2\n      pop\n        /* \"#utility.yul\":11758:11768   */\n      0xffffffff\n        /* \"#utility.yul\":11751:11756   */\n      dup3\n        /* \"#utility.yul\":11748:11769   */\n      sub\n        /* \"#utility.yul\":11745:11792   */\n      tag_211\n      jumpi\n        /* \"#utility.yul\":11772:11790   */\n      tag_212\n      tag_73\n      jump\t// in\n    tag_212:\n        /* \"#utility.yul\":11745:11792   */\n    tag_211:\n        /* \"#utility.yul\":11819:11820   */\n      0x01\n        /* \"#utility.yul\":11812:11817   */\n      dup3\n        /* \"#utility.yul\":11808:11821   */\n      add\n        /* \"#utility.yul\":11801:11821   */\n      swap1\n      pop\n        /* \"#utility.yul\":11652:11827   */\n      swap2\n      swap1\n      pop\n      jump\t// out\n\n    auxdata: 0xa2646970667358221220bd499ed83cacbe1d8ca6015a3b65f02d798c401c98c4ee2ddb82bbd3c00cb4b864736f6c634300081a0033\n}\n",
				"bytecode": {
					"linkReferences": {},
					"object": "60806040525f805f6101000a81548163ffffffff021916908363ffffffff160217905550348015602d575f80fd5b506108718061003b5f395ff3fe608060405234801561000f575f80fd5b5060043610610034575f3560e01c8063cf7a463914610038578063d39e50e114610054575b5f80fd5b610052600480360381019061004d91906103c9565b610085565b005b61006e60048036038101906100699190610449565b6100e4565b60405161007c9291906104e3565b60405180910390f35b8060015f610091610196565b63ffffffff1663ffffffff1681526020019081526020015f205f820151815f0190816100bd9190610714565b506020820151816001015f6101000a81548160ff021916908360ff16021790555090505050565b6001602052805f5260405f205f91509050805f0180546101039061053e565b80601f016020809104026020016040519081016040528092919081815260200182805461012f9061053e565b801561017a5780601f106101515761010080835404028352916020019161017a565b820191905f5260205f20905b81548152906001019060200180831161015d57829003601f168201915b505050505090806001015f9054906101000a900460ff16905082565b5f805f81819054906101000a900463ffffffff166101b390610810565b91906101000a81548163ffffffff021916908363ffffffff1602179055905090565b5f604051905090565b5f80fd5b5f80fd5b5f80fd5b5f601f19601f8301169050919050565b7f4e487b71000000000000000000000000000000000000000000000000000000005f52604160045260245ffd5b610230826101ea565b810181811067ffffffffffffffff8211171561024f5761024e6101fa565b5b80604052505050565b5f6102616101d5565b905061026d8282610227565b919050565b5f80fd5b5f80fd5b5f80fd5b5f67ffffffffffffffff821115610298576102976101fa565b5b6102a1826101ea565b9050602081019050919050565b828183375f83830152505050565b5f6102ce6102c98461027e565b610258565b9050828152602081018484840111156102ea576102e961027a565b5b6102f58482856102ae565b509392505050565b5f82601f83011261031157610310610276565b5b81356103218482602086016102bc565b91505092915050565b5f60ff82169050919050565b61033f8161032a565b8114610349575f80fd5b50565b5f8135905061035a81610336565b92915050565b5f60408284031215610375576103746101e6565b5b61037f6040610258565b90505f82013567ffffffffffffffff81111561039e5761039d610272565b5b6103aa848285016102fd565b5f8301525060206103bd8482850161034c565b60208301525092915050565b5f602082840312156103de576103dd6101de565b5b5f82013567ffffffffffffffff8111156103fb576103fa6101e2565b5b61040784828501610360565b91505092915050565b5f63ffffffff82169050919050565b61042881610410565b8114610432575f80fd5b50565b5f813590506104438161041f565b92915050565b5f6020828403121561045e5761045d6101de565b5b5f61046b84828501610435565b91505092915050565b5f81519050919050565b5f82825260208201905092915050565b8281835e5f83830152505050565b5f6104a682610474565b6104b0818561047e565b93506104c081856020860161048e565b6104c9816101ea565b840191505092915050565b6104dd8161032a565b82525050565b5f6040820190508181035f8301526104fb818561049c565b905061050a60208301846104d4565b9392505050565b7f4e487b71000000000000000000000000000000000000000000000000000000005f52602260045260245ffd5b5f600282049050600182168061055557607f821691505b60208210810361056857610567610511565b5b50919050565b5f819050815f5260205f209050919050565b5f6020601f8301049050919050565b5f82821b905092915050565b5f600883026105ca7fffffffffffffffffffffffffffffffffffffffffffffffffffffffffffffffff8261058f565b6105d4868361058f565b95508019841693508086168417925050509392505050565b5f819050919050565b5f819050919050565b5f61061861061361060e846105ec565b6105f5565b6105ec565b9050919050565b5f819050919050565b610631836105fe565b61064561063d8261061f565b84845461059b565b825550505050565b5f90565b61065961064d565b610664818484610628565b505050565b5b818110156106875761067c5f82610651565b60018101905061066a565b5050565b601f8211156106cc5761069d8161056e565b6106a684610580565b810160208510156106b5578190505b6106c96106c185610580565b830182610669565b50505b505050565b5f82821c905092915050565b5f6106ec5f19846008026106d1565b1980831691505092915050565b5f61070483836106dd565b9150826002028217905092915050565b61071d82610474565b67ffffffffffffffff811115610736576107356101fa565b5b610740825461053e565b61074b82828561068b565b5f60209050601f83116001811461077c575f841561076a578287015190505b61077485826106f9565b8655506107db565b601f19841661078a8661056e565b5f5b828110156107b15784890151825560018201915060208501945060208101905061078c565b868310156107ce57848901516107ca601f8916826106dd565b8355505b6001600288020188555050505b505050505050565b7f4e487b71000000000000000000000000000000000000000000000000000000005f52601160045260245ffd5b5f61081a82610410565b915063ffffffff82036108305761082f6107e3565b5b60018201905091905056fea2646970667358221220bd499ed83cacbe1d8ca6015a3b65f02d798c401c98c4ee2ddb82bbd3c00cb4b864736f6c634300081a0033",
					"opcodes": "PUSH1 0x80 PUSH1 0x40 MSTORE PUSH0 DUP1 PUSH0 PUSH2 0x100 EXP DUP2 SLOAD DUP2 PUSH4 0xFFFFFFFF MUL NOT AND SWAP1 DUP4 PUSH4 0xFFFFFFFF AND MUL OR SWAP1 SSTORE POP CALLVALUE DUP1 ISZERO PUSH1 0x2D JUMPI PUSH0 DUP1 REVERT JUMPDEST POP PUSH2 0x871 DUP1 PUSH2 0x3B PUSH0 CODECOPY PUSH0 RETURN INVALID PUSH1 0x80 PUSH1 0x40 MSTORE CALLVALUE DUP1 ISZERO PUSH2 0xF JUMPI PUSH0 DUP1 REVERT JUMPDEST POP PUSH1 0x4 CALLDATASIZE LT PUSH2 0x34 JUMPI PUSH0 CALLDATALOAD PUSH1 0xE0 SHR DUP1 PUSH4 0xCF7A4639 EQ PUSH2 0x38 JUMPI DUP1 PUSH4 0xD39E50E1 EQ PUSH2 0x54 JUMPI JUMPDEST PUSH0 DUP1 REVERT JUMPDEST PUSH2 0x52 PUSH1 0x4 DUP1 CALLDATASIZE SUB DUP2 ADD SWAP1 PUSH2 0x4D SWAP2 SWAP1 PUSH2 0x3C9 JUMP JUMPDEST PUSH2 0x85 JUMP JUMPDEST STOP JUMPDEST PUSH2 0x6E PUSH1 0x4 DUP1 CALLDATASIZE SUB DUP2 ADD SWAP1 PUSH2 0x69 SWAP2 SWAP1 PUSH2 0x449 JUMP JUMPDEST PUSH2 0xE4 JUMP JUMPDEST PUSH1 0x40 MLOAD PUSH2 0x7C SWAP3 SWAP2 SWAP1 PUSH2 0x4E3 JUMP JUMPDEST PUSH1 0x40 MLOAD DUP1 SWAP2 SUB SWAP1 RETURN JUMPDEST DUP1 PUSH1 0x1 PUSH0 PUSH2 0x91 PUSH2 0x196 JUMP JUMPDEST PUSH4 0xFFFFFFFF AND PUSH4 0xFFFFFFFF AND DUP2 MSTORE PUSH1 0x20 ADD SWAP1 DUP2 MSTORE PUSH1 0x20 ADD PUSH0 KECCAK256 PUSH0 DUP3 ADD MLOAD DUP2 PUSH0 ADD SWAP1 DUP2 PUSH2 0xBD SWAP2 SWAP1 PUSH2 0x714 JUMP JUMPDEST POP PUSH1 0x20 DUP3 ADD MLOAD DUP2 PUSH1 0x1 ADD PUSH0 PUSH2 0x100 EXP DUP2 SLOAD DUP2 PUSH1 0xFF MUL NOT AND SWAP1 DUP4 PUSH1 0xFF AND MUL OR SWAP1 SSTORE POP SWAP1 POP POP POP JUMP JUMPDEST PUSH1 0x1 PUSH1 0x20 MSTORE DUP1 PUSH0 MSTORE PUSH1 0x40 PUSH0 KECCAK256 PUSH0 SWAP2 POP SWAP1 POP DUP1 PUSH0 ADD DUP1 SLOAD PUSH2 0x103 SWAP1 PUSH2 0x53E JUMP JUMPDEST DUP1 PUSH1 0x1F ADD PUSH1 0x20 DUP1 SWAP2 DIV MUL PUSH1 0x20 ADD PUSH1 0x40 MLOAD SWAP1 DUP2 ADD PUSH1 0x40 MSTORE DUP1 SWAP3 SWAP2 SWAP1 DUP2 DUP2 MSTORE PUSH1 0x20 ADD DUP3 DUP1 SLOAD PUSH2 0x12F SWAP1 PUSH2 0x53E JUMP JUMPDEST DUP1 ISZERO PUSH2 0x17A JUMPI DUP1 PUSH1 0x1F LT PUSH2 0x151 JUMPI PUSH2 0x100 DUP1 DUP4 SLOAD DIV MUL DUP4 MSTORE SWAP2 PUSH1 0x20 ADD SWAP2 PUSH2 0x17A JUMP JUMPDEST DUP3 ADD SWAP2 SWAP1 PUSH0 MSTORE PUSH1 0x20 PUSH0 KECCAK256 SWAP1 JUMPDEST DUP2 SLOAD DUP2 MSTORE SWAP1 PUSH1 0x1 ADD SWAP1 PUSH1 0x20 ADD DUP1 DUP4 GT PUSH2 0x15D JUMPI DUP3 SWAP1 SUB PUSH1 0x1F AND DUP3 ADD SWAP2 JUMPDEST POP POP POP POP POP SWAP1 DUP1 PUSH1 0x1 ADD PUSH0 SWAP1 SLOAD SWAP1 PUSH2 0x100 EXP SWAP1 DIV PUSH1 0xFF AND SWAP1 POP DUP3 JUMP JUMPDEST PUSH0 DUP1 PUSH0 DUP2 DUP2 SWAP1 SLOAD SWAP1 PUSH2 0x100 EXP SWAP1 DIV PUSH4 0xFFFFFFFF AND PUSH2 0x1B3 SWAP1 PUSH2 0x810 JUMP JUMPDEST SWAP2 SWAP1 PUSH2 0x100 EXP DUP2 SLOAD DUP2 PUSH4 0xFFFFFFFF MUL NOT AND SWAP1 DUP4 PUSH4 0xFFFFFFFF AND MUL OR SWAP1 SSTORE SWAP1 POP SWAP1 JUMP JUMPDEST PUSH0 PUSH1 0x40 MLOAD SWAP1 POP SWAP1 JUMP JUMPDEST PUSH0 DUP1 REVERT JUMPDEST PUSH0 DUP1 REVERT JUMPDEST PUSH0 DUP1 REVERT JUMPDEST PUSH0 PUSH1 0x1F NOT PUSH1 0x1F DUP4 ADD AND SWAP1 POP SWAP2 SWAP1 POP JUMP JUMPDEST PUSH32 0x4E487B7100000000000000000000000000000000000000000000000000000000 PUSH0 MSTORE PUSH1 0x41 PUSH1 0x4 MSTORE PUSH1 0x24 PUSH0 REVERT JUMPDEST PUSH2 0x230 DUP3 PUSH2 0x1EA JUMP JUMPDEST DUP2 ADD DUP2 DUP2 LT PUSH8 0xFFFFFFFFFFFFFFFF DUP3 GT OR ISZERO PUSH2 0x24F JUMPI PUSH2 0x24E PUSH2 0x1FA JUMP JUMPDEST JUMPDEST DUP1 PUSH1 0x40 MSTORE POP POP POP JUMP JUMPDEST PUSH0 PUSH2 0x261 PUSH2 0x1D5 JUMP JUMPDEST SWAP1 POP PUSH2 0x26D DUP3 DUP3 PUSH2 0x227 JUMP JUMPDEST SWAP2 SWAP1 POP JUMP JUMPDEST PUSH0 DUP1 REVERT JUMPDEST PUSH0 DUP1 REVERT JUMPDEST PUSH0 DUP1 REVERT JUMPDEST PUSH0 PUSH8 0xFFFFFFFFFFFFFFFF DUP3 GT ISZERO PUSH2 0x298 JUMPI PUSH2 0x297 PUSH2 0x1FA JUMP JUMPDEST JUMPDEST PUSH2 0x2A1 DUP3 PUSH2 0x1EA JUMP JUMPDEST SWAP1 POP PUSH1 0x20 DUP2 ADD SWAP1 POP SWAP2 SWAP1 POP JUMP JUMPDEST DUP3 DUP2 DUP4 CALLDATACOPY PUSH0 DUP4 DUP4 ADD MSTORE POP POP POP JUMP JUMPDEST PUSH0 PUSH2 0x2CE PUSH2 0x2C9 DUP5 PUSH2 0x27E JUMP JUMPDEST PUSH2 0x258 JUMP JUMPDEST SWAP1 POP DUP3 DUP2 MSTORE PUSH1 0x20 DUP2 ADD DUP5 DUP5 DUP5 ADD GT ISZERO PUSH2 0x2EA JUMPI PUSH2 0x2E9 PUSH2 0x27A JUMP JUMPDEST JUMPDEST PUSH2 0x2F5 DUP5 DUP3 DUP6 PUSH2 0x2AE JUMP JUMPDEST POP SWAP4 SWAP3 POP POP POP JUMP JUMPDEST PUSH0 DUP3 PUSH1 0x1F DUP4 ADD SLT PUSH2 0x311 JUMPI PUSH2 0x310 PUSH2 0x276 JUMP JUMPDEST JUMPDEST DUP2 CALLDATALOAD PUSH2 0x321 DUP5 DUP3 PUSH1 0x20 DUP7 ADD PUSH2 0x2BC JUMP JUMPDEST SWAP2 POP POP SWAP3 SWAP2 POP POP JUMP JUMPDEST PUSH0 PUSH1 0xFF DUP3 AND SWAP1 POP SWAP2 SWAP1 POP JUMP JUMPDEST PUSH2 0x33F DUP2 PUSH2 0x32A JUMP JUMPDEST DUP2 EQ PUSH2 0x349 JUMPI PUSH0 DUP1 REVERT JUMPDEST POP JUMP JUMPDEST PUSH0 DUP2 CALLDATALOAD SWAP1 POP PUSH2 0x35A DUP2 PUSH2 0x336 JUMP JUMPDEST SWAP3 SWAP2 POP POP JUMP JUMPDEST PUSH0 PUSH1 0x40 DUP3 DUP5 SUB SLT ISZERO PUSH2 0x375 JUMPI PUSH2 0x374 PUSH2 0x1E6 JUMP JUMPDEST JUMPDEST PUSH2 0x37F PUSH1 0x40 PUSH2 0x258 JUMP JUMPDEST SWAP1 POP PUSH0 DUP3 ADD CALLDATALOAD PUSH8 0xFFFFFFFFFFFFFFFF DUP2 GT ISZERO PUSH2 0x39E JUMPI PUSH2 0x39D PUSH2 0x272 JUMP JUMPDEST JUMPDEST PUSH2 0x3AA DUP5 DUP3 DUP6 ADD PUSH2 0x2FD JUMP JUMPDEST PUSH0 DUP4 ADD MSTORE POP PUSH1 0x20 PUSH2 0x3BD DUP5 DUP3 DUP6 ADD PUSH2 0x34C JUMP JUMPDEST PUSH1 0x20 DUP4 ADD MSTORE POP SWAP3 SWAP2 POP POP JUMP JUMPDEST PUSH0 PUSH1 0x20 DUP3 DUP5 SUB SLT ISZERO PUSH2 0x3DE JUMPI PUSH2 0x3DD PUSH2 0x1DE JUMP JUMPDEST JUMPDEST PUSH0 DUP3 ADD CALLDATALOAD PUSH8 0xFFFFFFFFFFFFFFFF DUP2 GT ISZERO PUSH2 0x3FB JUMPI PUSH2 0x3FA PUSH2 0x1E2 JUMP JUMPDEST JUMPDEST PUSH2 0x407 DUP5 DUP3 DUP6 ADD PUSH2 0x360 JUMP JUMPDEST SWAP2 POP POP SWAP3 SWAP2 POP POP JUMP JUMPDEST PUSH0 PUSH4 0xFFFFFFFF DUP3 AND SWAP1 POP SWAP2 SWAP1 POP JUMP JUMPDEST PUSH2 0x428 DUP2 PUSH2 0x410 JUMP JUMPDEST DUP2 EQ PUSH2 0x432 JUMPI PUSH0 DUP1 REVERT JUMPDEST POP JUMP JUMPDEST PUSH0 DUP2 CALLDATALOAD SWAP1 POP PUSH2 0x443 DUP2 PUSH2 0x41F JUMP JUMPDEST SWAP3 SWAP2 POP POP JUMP JUMPDEST PUSH0 PUSH1 0x20 DUP3 DUP5 SUB SLT ISZERO PUSH2 0x45E JUMPI PUSH2 0x45D PUSH2 0x1DE JUMP JUMPDEST JUMPDEST PUSH0 PUSH2 0x46B DUP5 DUP3 DUP6 ADD PUSH2 0x435 JUMP JUMPDEST SWAP2 POP POP SWAP3 SWAP2 POP POP JUMP JUMPDEST PUSH0 DUP2 MLOAD SWAP1 POP SWAP2 SWAP1 POP JUMP JUMPDEST PUSH0 DUP3 DUP3 MSTORE PUSH1 0x20 DUP3 ADD SWAP1 POP SWAP3 SWAP2 POP POP JUMP JUMPDEST DUP3 DUP2 DUP4 MCOPY PUSH0 DUP4 DUP4 ADD MSTORE POP POP POP JUMP JUMPDEST PUSH0 PUSH2 0x4A6 DUP3 PUSH2 0x474 JUMP JUMPDEST PUSH2 0x4B0 DUP2 DUP6 PUSH2 0x47E JUMP JUMPDEST SWAP4 POP PUSH2 0x4C0 DUP2 DUP6 PUSH1 0x20 DUP7 ADD PUSH2 0x48E JUMP JUMPDEST PUSH2 0x4C9 DUP2 PUSH2 0x1EA JUMP JUMPDEST DUP5 ADD SWAP2 POP POP SWAP3 SWAP2 POP POP JUMP JUMPDEST PUSH2 0x4DD DUP2 PUSH2 0x32A JUMP JUMPDEST DUP3 MSTORE POP POP JUMP JUMPDEST PUSH0 PUSH1 0x40 DUP3 ADD SWAP1 POP DUP2 DUP2 SUB PUSH0 DUP4 ADD MSTORE PUSH2 0x4FB DUP2 DUP6 PUSH2 0x49C JUMP JUMPDEST SWAP1 POP PUSH2 0x50A PUSH1 0x20 DUP4 ADD DUP5 PUSH2 0x4D4 JUMP JUMPDEST SWAP4 SWAP3 POP POP POP JUMP JUMPDEST PUSH32 0x4E487B7100000000000000000000000000000000000000000000000000000000 PUSH0 MSTORE PUSH1 0x22 PUSH1 0x4 MSTORE PUSH1 0x24 PUSH0 REVERT JUMPDEST PUSH0 PUSH1 0x2 DUP3 DIV SWAP1 POP PUSH1 0x1 DUP3 AND DUP1 PUSH2 0x555 JUMPI PUSH1 0x7F DUP3 AND SWAP2 POP JUMPDEST PUSH1 0x20 DUP3 LT DUP2 SUB PUSH2 0x568 JUMPI PUSH2 0x567 PUSH2 0x511 JUMP JUMPDEST JUMPDEST POP SWAP2 SWAP1 POP JUMP JUMPDEST PUSH0 DUP2 SWAP1 POP DUP2 PUSH0 MSTORE PUSH1 0x20 PUSH0 KECCAK256 SWAP1 POP SWAP2 SWAP1 POP JUMP JUMPDEST PUSH0 PUSH1 0x20 PUSH1 0x1F DUP4 ADD DIV SWAP1 POP SWAP2 SWAP1 POP JUMP JUMPDEST PUSH0 DUP3 DUP3 SHL SWAP1 POP SWAP3 SWAP2 POP POP JUMP JUMPDEST PUSH0 PUSH1 0x8 DUP4 MUL PUSH2 0x5CA PUSH32 0xFFFFFFFFFFFFFFFFFFFFFFFFFFFFFFFFFFFFFFFFFFFFFFFFFFFFFFFFFFFFFFFF DUP3 PUSH2 0x58F JUMP JUMPDEST PUSH2 0x5D4 DUP7 DUP4 PUSH2 0x58F JUMP JUMPDEST SWAP6 POP DUP1 NOT DUP5 AND SWAP4 POP DUP1 DUP7 AND DUP5 OR SWAP3 POP POP POP SWAP4 SWAP3 POP POP POP JUMP JUMPDEST PUSH0 DUP2 SWAP1 POP SWAP2 SWAP1 POP JUMP JUMPDEST PUSH0 DUP2 SWAP1 POP SWAP2 SWAP1 POP JUMP JUMPDEST PUSH0 PUSH2 0x618 PUSH2 0x613 PUSH2 0x60E DUP5 PUSH2 0x5EC JUMP JUMPDEST PUSH2 0x5F5 JUMP JUMPDEST PUSH2 0x5EC JUMP JUMPDEST SWAP1 POP SWAP2 SWAP1 POP JUMP JUMPDEST PUSH0 DUP2 SWAP1 POP SWAP2 SWAP1 POP JUMP JUMPDEST PUSH2 0x631 DUP4 PUSH2 0x5FE JUMP JUMPDEST PUSH2 0x645 PUSH2 0x63D DUP3 PUSH2 0x61F JUMP JUMPDEST DUP5 DUP5 SLOAD PUSH2 0x59B JUMP JUMPDEST DUP3 SSTORE POP POP POP POP JUMP JUMPDEST PUSH0 SWAP1 JUMP JUMPDEST PUSH2 0x659 PUSH2 0x64D JUMP JUMPDEST PUSH2 0x664 DUP2 DUP5 DUP5 PUSH2 0x628 JUMP JUMPDEST POP POP POP JUMP JUMPDEST JUMPDEST DUP2 DUP2 LT ISZERO PUSH2 0x687 JUMPI PUSH2 0x67C PUSH0 DUP3 PUSH2 0x651 JUMP JUMPDEST PUSH1 0x1 DUP2 ADD SWAP1 POP PUSH2 0x66A JUMP JUMPDEST POP POP JUMP JUMPDEST PUSH1 0x1F DUP3 GT ISZERO PUSH2 0x6CC JUMPI PUSH2 0x69D DUP2 PUSH2 0x56E JUMP JUMPDEST PUSH2 0x6A6 DUP5 PUSH2 0x580 JUMP JUMPDEST DUP2 ADD PUSH1 0x20 DUP6 LT ISZERO PUSH2 0x6B5 JUMPI DUP2 SWAP1 POP JUMPDEST PUSH2 0x6C9 PUSH2 0x6C1 DUP6 PUSH2 0x580 JUMP JUMPDEST DUP4 ADD DUP3 PUSH2 0x669 JUMP JUMPDEST POP POP JUMPDEST POP POP POP JUMP JUMPDEST PUSH0 DUP3 DUP3 SHR SWAP1 POP SWAP3 SWAP2 POP POP JUMP JUMPDEST PUSH0 PUSH2 0x6EC PUSH0 NOT DUP5 PUSH1 0x8 MUL PUSH2 0x6D1 JUMP JUMPDEST NOT DUP1 DUP4 AND SWAP2 POP POP SWAP3 SWAP2 POP POP JUMP JUMPDEST PUSH0 PUSH2 0x704 DUP4 DUP4 PUSH2 0x6DD JUMP JUMPDEST SWAP2 POP DUP3 PUSH1 0x2 MUL DUP3 OR SWAP1 POP SWAP3 SWAP2 POP POP JUMP JUMPDEST PUSH2 0x71D DUP3 PUSH2 0x474 JUMP JUMPDEST PUSH8 0xFFFFFFFFFFFFFFFF DUP2 GT ISZERO PUSH2 0x736 JUMPI PUSH2 0x735 PUSH2 0x1FA JUMP JUMPDEST JUMPDEST PUSH2 0x740 DUP3 SLOAD PUSH2 0x53E JUMP JUMPDEST PUSH2 0x74B DUP3 DUP3 DUP6 PUSH2 0x68B JUMP JUMPDEST PUSH0 PUSH1 0x20 SWAP1 POP PUSH1 0x1F DUP4 GT PUSH1 0x1 DUP2 EQ PUSH2 0x77C JUMPI PUSH0 DUP5 ISZERO PUSH2 0x76A JUMPI DUP3 DUP8 ADD MLOAD SWAP1 POP JUMPDEST PUSH2 0x774 DUP6 DUP3 PUSH2 0x6F9 JUMP JUMPDEST DUP7 SSTORE POP PUSH2 0x7DB JUMP JUMPDEST PUSH1 0x1F NOT DUP5 AND PUSH2 0x78A DUP7 PUSH2 0x56E JUMP JUMPDEST PUSH0 JUMPDEST DUP3 DUP2 LT ISZERO PUSH2 0x7B1 JUMPI DUP5 DUP10 ADD MLOAD DUP3 SSTORE PUSH1 0x1 DUP3 ADD SWAP2 POP PUSH1 0x20 DUP6 ADD SWAP5 POP PUSH1 0x20 DUP2 ADD SWAP1 POP PUSH2 0x78C JUMP JUMPDEST DUP7 DUP4 LT ISZERO PUSH2 0x7CE JUMPI DUP5 DUP10 ADD MLOAD PUSH2 0x7CA PUSH1 0x1F DUP10 AND DUP3 PUSH2 0x6DD JUMP JUMPDEST DUP4 SSTORE POP JUMPDEST PUSH1 0x1 PUSH1 0x2 DUP9 MUL ADD DUP9 SSTORE POP POP POP JUMPDEST POP POP POP POP POP POP JUMP JUMPDEST PUSH32 0x4E487B7100000000000000000000000000000000000000000000000000000000 PUSH0 MSTORE PUSH1 0x11 PUSH1 0x4 MSTORE PUSH1 0x24 PUSH0 REVERT JUMPDEST PUSH0 PUSH2 0x81A DUP3 PUSH2 0x410 JUMP JUMPDEST SWAP2 POP PUSH4 0xFFFFFFFF DUP3 SUB PUSH2 0x830 JUMPI PUSH2 0x82F PUSH2 0x7E3 JUMP JUMPDEST JUMPDEST PUSH1 0x1 DUP3 ADD SWAP1 POP SWAP2 SWAP1 POP JUMP INVALID LOG2 PUSH5 0x6970667358 0x22 SLT KECCAK256 0xBD BLOBHASH SWAP15 0xD8 EXTCODECOPY 0xAC 0xBE SAR DUP13 0xA6 ADD GAS EXTCODESIZE PUSH6 0xF02D798C401C SWAP9 0xC4 0xEE 0x2D 0xDB DUP3 0xBB 0xD3 0xC0 0xC 0xB4 0xB8 PUSH5 0x736F6C6343 STOP ADDMOD BYTE STOP CALLER "
				},
				"gasEstimates": {
					"creation": {
						"codeDepositCost": "432200",
						"executionCost": "24731",
						"totalCost": "456931"
					},
					"external": {
						"addCustomer((string,uint8))": "infinite",
						"customers(uint32)": "infinite"
					},
					"internal": {
						"getNextId()": "26555"
					}
				},
				"methodIdentifiers": {
					"addCustomer((string,uint8))": "cf7a4639",
					"customers(uint32)": "d39e50e1"
				}
			},
			"storageLayout": {
				"storage": [
					{
						"astId": 9,
						"contract": "contracts/StoreCustomers.sol:StoreCustomers",
						"label": "nextId",
						"offset": 0,
						"slot": "0",
						"type": "t_uint32"
					},
					{
						"astId": 14,
						"contract": "contracts/StoreCustomers.sol:StoreCustomers",
						"label": "customers",
						"offset": 0,
						"slot": "1",
						"type": "t_mapping(t_uint32,t_struct(Customer)6_storage)"
					}
				],
				"types": {
					"t_mapping(t_uint32,t_struct(Customer)6_storage)": {
						"encoding": "mapping",
						"key": "t_uint32",
						"label": "mapping(uint32 => struct StoreCustomers.Customer)",
						"numberOfBytes": "32",
						"value": "t_struct(Customer)6_storage"
					},
					"t_string_storage": {
						"encoding": "bytes",
						"label": "string",
						"numberOfBytes": "32"
					},
					"t_struct(Customer)6_storage": {
						"encoding": "inplace",
						"label": "struct StoreCustomers.Customer",
						"members": [
							{
								"astId": 3,
								"contract": "contracts/StoreCustomers.sol:StoreCustomers",
								"label": "name",
								"offset": 0,
								"slot": "0",
								"type": "t_string_storage"
							},
							{
								"astId": 5,
								"contract": "contracts/StoreCustomers.sol:StoreCustomers",
								"label": "age",
								"offset": 0,
								"slot": "1",
								"type": "t_uint8"
							}
						],
						"numberOfBytes": "64"
					},
					"t_uint32": {
						"encoding": "inplace",
						"label": "uint32",
						"numberOfBytes": "4"
					},
					"t_uint8": {
						"encoding": "inplace",
						"label": "uint8",
						"numberOfBytes": "1"
					}
				}
			},
			"userdoc": {
				"kind": "user",
				"methods": {},
				"version": 1
			}
		}
	}
}