{
	"contracts/eventtrigger_lecture.sol": {
		"Item": {
			"abi": [
				{
					"inputs": [
						{
							"internalType": "contract ItemManager",
							"name": "_parentContract",
							"type": "address"
						},
						{
							"internalType": "uint256",
							"name": "_priceInWei",
							"type": "uint256"
						},
						{
							"internalType": "uint256",
							"name": "_index",
							"type": "uint256"
						}
					],
					"stateMutability": "nonpayable",
					"type": "constructor"
				},
				{
					"stateMutability": "nonpayable",
					"type": "fallback"
				},
				{
					"inputs": [],
					"name": "index",
					"outputs": [
						{
							"internalType": "uint256",
							"name": "",
							"type": "uint256"
						}
					],
					"stateMutability": "view",
					"type": "function"
				},
				{
					"inputs": [],
					"name": "paidWei",
					"outputs": [
						{
							"internalType": "uint256",
							"name": "",
							"type": "uint256"
						}
					],
					"stateMutability": "view",
					"type": "function"
				},
				{
					"inputs": [],
					"name": "priceInWei",
					"outputs": [
						{
							"internalType": "uint256",
							"name": "",
							"type": "uint256"
						}
					],
					"stateMutability": "view",
					"type": "function"
				},
				{
					"stateMutability": "payable",
					"type": "receive"
				}
			],
			"devdoc": {
				"kind": "dev",
				"methods": {},
				"version": 1
			},
			"evm": {
				"assembly": "    /* \"contracts/eventtrigger_lecture.sol\":580:1795  contract Item {... */\n  mstore(0x40, 0x80)\n    /* \"contracts/eventtrigger_lecture.sol\":776:971  constructor(ItemManager _parentContract, uint _priceInWei, uint _index) {... */\n  callvalue\n  dup1\n  iszero\n  tag_1\n  jumpi\n  0x00\n  dup1\n  revert\ntag_1:\n  pop\n  mload(0x40)\n  sub(codesize, bytecodeSize)\n  dup1\n  bytecodeSize\n  dup4\n  codecopy\n  dup2\n  dup2\n  add\n  0x40\n  mstore\n  dup2\n  add\n  swap1\n  tag_2\n  swap2\n  swap1\n  tag_3\n  jump\t// in\ntag_2:\n    /* \"contracts/eventtrigger_lecture.sol\":872:883  _priceInWei */\n  dup2\n    /* \"contracts/eventtrigger_lecture.sol\":859:869  priceInWei */\n  0x00\n    /* \"contracts/eventtrigger_lecture.sol\":859:883  priceInWei = _priceInWei */\n  dup2\n  swap1\n  sstore\n  pop\n    /* \"contracts/eventtrigger_lecture.sol\":902:908  _index */\n  dup1\n    /* \"contracts/eventtrigger_lecture.sol\":894:899  index */\n  0x02\n    /* \"contracts/eventtrigger_lecture.sol\":894:908  index = _index */\n  dup2\n  swap1\n  sstore\n  pop\n    /* \"contracts/eventtrigger_lecture.sol\":947:962  _parentContract */\n  dup3\n    /* \"contracts/eventtrigger_lecture.sol\":930:944  parentContract */\n  0x03\n  0x00\n    /* \"contracts/eventtrigger_lecture.sol\":930:962  parentContract = _parentContract */\n  0x0100\n  exp\n  dup2\n  sload\n  dup2\n  0xffffffffffffffffffffffffffffffffffffffff\n  mul\n  not\n  and\n  swap1\n  dup4\n  0xffffffffffffffffffffffffffffffffffffffff\n  and\n  mul\n  or\n  swap1\n  sstore\n  pop\n    /* \"contracts/eventtrigger_lecture.sol\":776:971  constructor(ItemManager _parentContract, uint _priceInWei, uint _index) {... */\n  pop\n  pop\n  pop\n    /* \"contracts/eventtrigger_lecture.sol\":580:1795  contract Item {... */\n  jump(tag_6)\n    /* \"#utility.yul\":88:205   */\ntag_8:\n    /* \"#utility.yul\":197:198   */\n  0x00\n    /* \"#utility.yul\":194:195   */\n  dup1\n    /* \"#utility.yul\":187:199   */\n  revert\n    /* \"#utility.yul\":334:460   */\ntag_10:\n    /* \"#utility.yul\":371:378   */\n  0x00\n    /* \"#utility.yul\":411:453   */\n  0xffffffffffffffffffffffffffffffffffffffff\n    /* \"#utility.yul\":404:409   */\n  dup3\n    /* \"#utility.yul\":400:454   */\n  and\n    /* \"#utility.yul\":389:454   */\n  swap1\n  pop\n    /* \"#utility.yul\":334:460   */\n  swap2\n  swap1\n  pop\n  jump\t// out\n    /* \"#utility.yul\":466:562   */\ntag_11:\n    /* \"#utility.yul\":503:510   */\n  0x00\n    /* \"#utility.yul\":532:556   */\n  tag_24\n    /* \"#utility.yul\":550:555   */\n  dup3\n    /* \"#utility.yul\":532:556   */\n  tag_10\n  jump\t// in\ntag_24:\n    /* \"#utility.yul\":521:556   */\n  swap1\n  pop\n    /* \"#utility.yul\":466:562   */\n  swap2\n  swap1\n  pop\n  jump\t// out\n    /* \"#utility.yul\":568:683   */\ntag_12:\n    /* \"#utility.yul\":624:631   */\n  0x00\n    /* \"#utility.yul\":653:677   */\n  tag_26\n    /* \"#utility.yul\":671:676   */\n  dup3\n    /* \"#utility.yul\":653:677   */\n  tag_11\n  jump\t// in\ntag_26:\n    /* \"#utility.yul\":642:677   */\n  swap1\n  pop\n    /* \"#utility.yul\":568:683   */\n  swap2\n  swap1\n  pop\n  jump\t// out\n    /* \"#utility.yul\":689:849   */\ntag_13:\n    /* \"#utility.yul\":781:824   */\n  tag_28\n    /* \"#utility.yul\":818:823   */\n  dup2\n    /* \"#utility.yul\":781:824   */\n  tag_12\n  jump\t// in\ntag_28:\n    /* \"#utility.yul\":774:779   */\n  dup2\n    /* \"#utility.yul\":771:825   */\n  eq\n    /* \"#utility.yul\":761:843   */\n  tag_29\n  jumpi\n    /* \"#utility.yul\":839:840   */\n  0x00\n    /* \"#utility.yul\":836:837   */\n  dup1\n    /* \"#utility.yul\":829:841   */\n  revert\n    /* \"#utility.yul\":761:843   */\ntag_29:\n    /* \"#utility.yul\":689:849   */\n  pop\n  jump\t// out\n    /* \"#utility.yul\":855:1036   */\ntag_14:\n    /* \"#utility.yul\":931:936   */\n  0x00\n    /* \"#utility.yul\":962:968   */\n  dup2\n    /* \"#utility.yul\":956:969   */\n  mload\n    /* \"#utility.yul\":947:969   */\n  swap1\n  pop\n    /* \"#utility.yul\":978:1030   */\n  tag_31\n    /* \"#utility.yul\":1024:1029   */\n  dup2\n    /* \"#utility.yul\":978:1030   */\n  tag_13\n  jump\t// in\ntag_31:\n    /* \"#utility.yul\":855:1036   */\n  swap3\n  swap2\n  pop\n  pop\n  jump\t// out\n    /* \"#utility.yul\":1042:1119   */\ntag_15:\n    /* \"#utility.yul\":1079:1086   */\n  0x00\n    /* \"#utility.yul\":1108:1113   */\n  dup2\n    /* \"#utility.yul\":1097:1113   */\n  swap1\n  pop\n    /* \"#utility.yul\":1042:1119   */\n  swap2\n  swap1\n  pop\n  jump\t// out\n    /* \"#utility.yul\":1125:1247   */\ntag_16:\n    /* \"#utility.yul\":1198:1222   */\n  tag_34\n    /* \"#utility.yul\":1216:1221   */\n  dup2\n    /* \"#utility.yul\":1198:1222   */\n  tag_15\n  jump\t// in\ntag_34:\n    /* \"#utility.yul\":1191:1196   */\n  dup2\n    /* \"#utility.yul\":1188:1223   */\n  eq\n    /* \"#utility.yul\":1178:1241   */\n  tag_35\n  jumpi\n    /* \"#utility.yul\":1237:1238   */\n  0x00\n    /* \"#utility.yul\":1234:1235   */\n  dup1\n    /* \"#utility.yul\":1227:1239   */\n  revert\n    /* \"#utility.yul\":1178:1241   */\ntag_35:\n    /* \"#utility.yul\":1125:1247   */\n  pop\n  jump\t// out\n    /* \"#utility.yul\":1253:1396   */\ntag_17:\n    /* \"#utility.yul\":1310:1315   */\n  0x00\n    /* \"#utility.yul\":1341:1347   */\n  dup2\n    /* \"#utility.yul\":1335:1348   */\n  mload\n    /* \"#utility.yul\":1326:1348   */\n  swap1\n  pop\n    /* \"#utility.yul\":1357:1390   */\n  tag_37\n    /* \"#utility.yul\":1384:1389   */\n  dup2\n    /* \"#utility.yul\":1357:1390   */\n  tag_16\n  jump\t// in\ntag_37:\n    /* \"#utility.yul\":1253:1396   */\n  swap3\n  swap2\n  pop\n  pop\n  jump\t// out\n    /* \"#utility.yul\":1402:2103   */\ntag_3:\n    /* \"#utility.yul\":1509:1515   */\n  0x00\n    /* \"#utility.yul\":1517:1523   */\n  dup1\n    /* \"#utility.yul\":1525:1531   */\n  0x00\n    /* \"#utility.yul\":1574:1576   */\n  0x60\n    /* \"#utility.yul\":1562:1571   */\n  dup5\n    /* \"#utility.yul\":1553:1560   */\n  dup7\n    /* \"#utility.yul\":1549:1572   */\n  sub\n    /* \"#utility.yul\":1545:1577   */\n  slt\n    /* \"#utility.yul\":1542:1661   */\n  iszero\n  tag_39\n  jumpi\n    /* \"#utility.yul\":1580:1659   */\n  tag_40\n  tag_8\n  jump\t// in\ntag_40:\n    /* \"#utility.yul\":1542:1661   */\ntag_39:\n    /* \"#utility.yul\":1700:1701   */\n  0x00\n    /* \"#utility.yul\":1725:1808   */\n  tag_41\n    /* \"#utility.yul\":1800:1807   */\n  dup7\n    /* \"#utility.yul\":1791:1797   */\n  dup3\n    /* \"#utility.yul\":1780:1789   */\n  dup8\n    /* \"#utility.yul\":1776:1798   */\n  add\n    /* \"#utility.yul\":1725:1808   */\n  tag_14\n  jump\t// in\ntag_41:\n    /* \"#utility.yul\":1715:1808   */\n  swap4\n  pop\n    /* \"#utility.yul\":1671:1818   */\n  pop\n    /* \"#utility.yul\":1857:1859   */\n  0x20\n    /* \"#utility.yul\":1883:1947   */\n  tag_42\n    /* \"#utility.yul\":1939:1946   */\n  dup7\n    /* \"#utility.yul\":1930:1936   */\n  dup3\n    /* \"#utility.yul\":1919:1928   */\n  dup8\n    /* \"#utility.yul\":1915:1937   */\n  add\n    /* \"#utility.yul\":1883:1947   */\n  tag_17\n  jump\t// in\ntag_42:\n    /* \"#utility.yul\":1873:1947   */\n  swap3\n  pop\n    /* \"#utility.yul\":1828:1957   */\n  pop\n    /* \"#utility.yul\":1996:1998   */\n  0x40\n    /* \"#utility.yul\":2022:2086   */\n  tag_43\n    /* \"#utility.yul\":2078:2085   */\n  dup7\n    /* \"#utility.yul\":2069:2075   */\n  dup3\n    /* \"#utility.yul\":2058:2067   */\n  dup8\n    /* \"#utility.yul\":2054:2076   */\n  add\n    /* \"#utility.yul\":2022:2086   */\n  tag_17\n  jump\t// in\ntag_43:\n    /* \"#utility.yul\":2012:2086   */\n  swap2\n  pop\n    /* \"#utility.yul\":1967:2096   */\n  pop\n    /* \"#utility.yul\":1402:2103   */\n  swap3\n  pop\n  swap3\n  pop\n  swap3\n  jump\t// out\n    /* \"contracts/eventtrigger_lecture.sol\":580:1795  contract Item {... */\ntag_6:\n  dataSize(sub_0)\n  dup1\n  dataOffset(sub_0)\n  0x00\n  codecopy\n  0x00\n  return\nstop\n\nsub_0: assembly {\n        /* \"contracts/eventtrigger_lecture.sol\":580:1795  contract Item {... */\n      mstore(0x40, 0x80)\n      jumpi(tag_1, lt(calldatasize, 0x04))\n      shr(0xe0, calldataload(0x00))\n      dup1\n      0x2986c0e5\n      eq\n      tag_3\n      jumpi\n      dup1\n      0x3c8da588\n      eq\n      tag_4\n      jumpi\n      dup1\n      0x83d12eef\n      eq\n      tag_5\n      jumpi\n      jump(tag_2)\n    tag_1:\n      jumpi(tag_2, calldatasize)\n        /* \"contracts/eventtrigger_lecture.sol\":1088:1098  priceInWei */\n      sload(0x00)\n        /* \"contracts/eventtrigger_lecture.sol\":1075:1084  msg.value */\n      callvalue\n        /* \"contracts/eventtrigger_lecture.sol\":1075:1098  msg.value == priceInWei */\n      eq\n        /* \"contracts/eventtrigger_lecture.sol\":1067:1136  require(msg.value == priceInWei, \"We don't support partial payments\") */\n      tag_8\n      jumpi\n      mload(0x40)\n      0x08c379a000000000000000000000000000000000000000000000000000000000\n      dup2\n      mstore\n      0x04\n      add\n      tag_9\n      swap1\n      tag_10\n      jump\t// in\n    tag_9:\n      mload(0x40)\n      dup1\n      swap2\n      sub\n      swap1\n      revert\n    tag_8:\n        /* \"contracts/eventtrigger_lecture.sol\":1202:1203  0 */\n      0x00\n        /* \"contracts/eventtrigger_lecture.sol\":1191:1198  paidWei */\n      sload(0x01)\n        /* \"contracts/eventtrigger_lecture.sol\":1191:1203  paidWei == 0 */\n      eq\n        /* \"contracts/eventtrigger_lecture.sol\":1183:1229  require(paidWei == 0, \"Item is already paid!\") */\n      tag_11\n      jumpi\n      mload(0x40)\n      0x08c379a000000000000000000000000000000000000000000000000000000000\n      dup2\n      mstore\n      0x04\n      add\n      tag_12\n      swap1\n      tag_13\n      jump\t// in\n    tag_12:\n      mload(0x40)\n      dup1\n      swap2\n      sub\n      swap1\n      revert\n    tag_11:\n        /* \"contracts/eventtrigger_lecture.sol\":1297:1306  msg.value */\n      callvalue\n        /* \"contracts/eventtrigger_lecture.sol\":1286:1293  paidWei */\n      0x01\n      0x00\n        /* \"contracts/eventtrigger_lecture.sol\":1286:1306  paidWei += msg.value */\n      dup3\n      dup3\n      sload\n      tag_14\n      swap2\n      swap1\n      tag_15\n      jump\t// in\n    tag_14:\n      swap3\n      pop\n      pop\n      dup2\n      swap1\n      sstore\n      pop\n        /* \"contracts/eventtrigger_lecture.sol\":1410:1422  bool success */\n      0x00\n        /* \"contracts/eventtrigger_lecture.sol\":1436:1450  parentContract */\n      0x03\n      0x00\n      swap1\n      sload\n      swap1\n      0x0100\n      exp\n      swap1\n      div\n      0xffffffffffffffffffffffffffffffffffffffff\n      and\n        /* \"contracts/eventtrigger_lecture.sol\":1428:1456  address(parentContract).call */\n      0xffffffffffffffffffffffffffffffffffffffff\n      and\n        /* \"contracts/eventtrigger_lecture.sol\":1478:1487  msg.value */\n      callvalue\n        /* \"contracts/eventtrigger_lecture.sol\":1550:1555  index */\n      sload(0x02)\n        /* \"contracts/eventtrigger_lecture.sol\":1499:1556  abi.encodeWithSignature(\"triggerPayment(uint256)\", index) */\n      add(0x24, mload(0x40))\n      tag_16\n      swap2\n      swap1\n      tag_17\n      jump\t// in\n    tag_16:\n      mload(0x40)\n      0x20\n      dup2\n      dup4\n      sub\n      sub\n      dup2\n      mstore\n      swap1\n      0x40\n      mstore\n      and(not(0xffffffffffffffffffffffffffffffffffffffffffffffffffffffff), 0x800fb83f00000000000000000000000000000000000000000000000000000000)\n      0x20\n      dup3\n      add\n      dup1\n      mload\n      0xffffffffffffffffffffffffffffffffffffffffffffffffffffffff\n      dup4\n      dup2\n      dup4\n      and\n      or\n      dup4\n      mstore\n      pop\n      pop\n      pop\n      pop\n        /* \"contracts/eventtrigger_lecture.sol\":1428:1557  address(parentContract).call{... */\n      mload(0x40)\n      tag_18\n      swap2\n      swap1\n      tag_19\n      jump\t// in\n    tag_18:\n      0x00\n      mload(0x40)\n      dup1\n      dup4\n      sub\n      dup2\n      dup6\n      dup8\n      gas\n      call\n      swap3\n      pop\n      pop\n      pop\n      returndatasize\n      dup1\n      0x00\n      dup2\n      eq\n      tag_22\n      jumpi\n      mload(0x40)\n      swap2\n      pop\n      and(add(returndatasize, 0x3f), not(0x1f))\n      dup3\n      add\n      0x40\n      mstore\n      returndatasize\n      dup3\n      mstore\n      returndatasize\n      0x00\n      0x20\n      dup5\n      add\n      returndatacopy\n      jump(tag_21)\n    tag_22:\n      0x60\n      swap2\n      pop\n    tag_21:\n      pop\n        /* \"contracts/eventtrigger_lecture.sol\":1409:1557  (bool success, ) = address(parentContract).call{... */\n      pop\n      swap1\n      pop\n        /* \"contracts/eventtrigger_lecture.sol\":1578:1585  success */\n      dup1\n        /* \"contracts/eventtrigger_lecture.sol\":1570:1611  require(success, \"Delivery did not work\") */\n      tag_23\n      jumpi\n      mload(0x40)\n      0x08c379a000000000000000000000000000000000000000000000000000000000\n      dup2\n      mstore\n      0x04\n      add\n      tag_24\n      swap1\n      tag_25\n      jump\t// in\n    tag_24:\n      mload(0x40)\n      dup1\n      swap2\n      sub\n      swap1\n      revert\n    tag_23:\n        /* \"contracts/eventtrigger_lecture.sol\":1056:1661  {... */\n      stop\n        /* \"contracts/eventtrigger_lecture.sol\":580:1795  contract Item {... */\n    tag_2:\n      callvalue\n      dup1\n      iszero\n      tag_26\n      jumpi\n      0x00\n      dup1\n      revert\n    tag_26:\n      stop\n        /* \"contracts/eventtrigger_lecture.sol\":709:726  uint public index */\n    tag_3:\n      callvalue\n      dup1\n      iszero\n      tag_29\n      jumpi\n      0x00\n      dup1\n      revert\n    tag_29:\n      pop\n      tag_30\n      tag_31\n      jump\t// in\n    tag_30:\n      mload(0x40)\n      tag_32\n      swap2\n      swap1\n      tag_17\n      jump\t// in\n    tag_32:\n      mload(0x40)\n      dup1\n      swap2\n      sub\n      swap1\n      return\n        /* \"contracts/eventtrigger_lecture.sol\":601:623  uint public priceInWei */\n    tag_4:\n      callvalue\n      dup1\n      iszero\n      tag_33\n      jumpi\n      0x00\n      dup1\n      revert\n    tag_33:\n      pop\n      tag_34\n      tag_35\n      jump\t// in\n    tag_34:\n      mload(0x40)\n      tag_36\n      swap2\n      swap1\n      tag_17\n      jump\t// in\n    tag_36:\n      mload(0x40)\n      dup1\n      swap2\n      sub\n      swap1\n      return\n        /* \"contracts/eventtrigger_lecture.sol\":655:674  uint public paidWei */\n    tag_5:\n      callvalue\n      dup1\n      iszero\n      tag_37\n      jumpi\n      0x00\n      dup1\n      revert\n    tag_37:\n      pop\n      tag_38\n      tag_39\n      jump\t// in\n    tag_38:\n      mload(0x40)\n      tag_40\n      swap2\n      swap1\n      tag_17\n      jump\t// in\n    tag_40:\n      mload(0x40)\n      dup1\n      swap2\n      sub\n      swap1\n      return\n        /* \"contracts/eventtrigger_lecture.sol\":709:726  uint public index */\n    tag_31:\n      sload(0x02)\n      dup2\n      jump\t// out\n        /* \"contracts/eventtrigger_lecture.sol\":601:623  uint public priceInWei */\n    tag_35:\n      sload(0x00)\n      dup2\n      jump\t// out\n        /* \"contracts/eventtrigger_lecture.sol\":655:674  uint public paidWei */\n    tag_39:\n      sload(0x01)\n      dup2\n      jump\t// out\n        /* \"#utility.yul\":7:176   */\n    tag_41:\n        /* \"#utility.yul\":91:102   */\n      0x00\n        /* \"#utility.yul\":125:131   */\n      dup3\n        /* \"#utility.yul\":120:123   */\n      dup3\n        /* \"#utility.yul\":113:132   */\n      mstore\n        /* \"#utility.yul\":165:169   */\n      0x20\n        /* \"#utility.yul\":160:163   */\n      dup3\n        /* \"#utility.yul\":156:170   */\n      add\n        /* \"#utility.yul\":141:170   */\n      swap1\n      pop\n        /* \"#utility.yul\":7:176   */\n      swap3\n      swap2\n      pop\n      pop\n      jump\t// out\n        /* \"#utility.yul\":182:402   */\n    tag_42:\n        /* \"#utility.yul\":322:356   */\n      0x576520646f6e277420737570706f7274207061727469616c207061796d656e74\n        /* \"#utility.yul\":318:319   */\n      0x00\n        /* \"#utility.yul\":310:316   */\n      dup3\n        /* \"#utility.yul\":306:320   */\n      add\n        /* \"#utility.yul\":299:357   */\n      mstore\n        /* \"#utility.yul\":391:394   */\n      0x7300000000000000000000000000000000000000000000000000000000000000\n        /* \"#utility.yul\":386:388   */\n      0x20\n        /* \"#utility.yul\":378:384   */\n      dup3\n        /* \"#utility.yul\":374:389   */\n      add\n        /* \"#utility.yul\":367:395   */\n      mstore\n        /* \"#utility.yul\":182:402   */\n      pop\n      jump\t// out\n        /* \"#utility.yul\":408:774   */\n    tag_43:\n        /* \"#utility.yul\":550:553   */\n      0x00\n        /* \"#utility.yul\":571:638   */\n      tag_59\n        /* \"#utility.yul\":635:637   */\n      0x21\n        /* \"#utility.yul\":630:633   */\n      dup4\n        /* \"#utility.yul\":571:638   */\n      tag_41\n      jump\t// in\n    tag_59:\n        /* \"#utility.yul\":564:638   */\n      swap2\n      pop\n        /* \"#utility.yul\":647:740   */\n      tag_60\n        /* \"#utility.yul\":736:739   */\n      dup3\n        /* \"#utility.yul\":647:740   */\n      tag_42\n      jump\t// in\n    tag_60:\n        /* \"#utility.yul\":765:767   */\n      0x40\n        /* \"#utility.yul\":760:763   */\n      dup3\n        /* \"#utility.yul\":756:768   */\n      add\n        /* \"#utility.yul\":749:768   */\n      swap1\n      pop\n        /* \"#utility.yul\":408:774   */\n      swap2\n      swap1\n      pop\n      jump\t// out\n        /* \"#utility.yul\":780:1199   */\n    tag_10:\n        /* \"#utility.yul\":946:950   */\n      0x00\n        /* \"#utility.yul\":984:986   */\n      0x20\n        /* \"#utility.yul\":973:982   */\n      dup3\n        /* \"#utility.yul\":969:987   */\n      add\n        /* \"#utility.yul\":961:987   */\n      swap1\n      pop\n        /* \"#utility.yul\":1033:1042   */\n      dup2\n        /* \"#utility.yul\":1027:1031   */\n      dup2\n        /* \"#utility.yul\":1023:1043   */\n      sub\n        /* \"#utility.yul\":1019:1020   */\n      0x00\n        /* \"#utility.yul\":1008:1017   */\n      dup4\n        /* \"#utility.yul\":1004:1021   */\n      add\n        /* \"#utility.yul\":997:1044   */\n      mstore\n        /* \"#utility.yul\":1061:1192   */\n      tag_62\n        /* \"#utility.yul\":1187:1191   */\n      dup2\n        /* \"#utility.yul\":1061:1192   */\n      tag_43\n      jump\t// in\n    tag_62:\n        /* \"#utility.yul\":1053:1192   */\n      swap1\n      pop\n        /* \"#utility.yul\":780:1199   */\n      swap2\n      swap1\n      pop\n      jump\t// out\n        /* \"#utility.yul\":1205:1376   */\n    tag_44:\n        /* \"#utility.yul\":1345:1368   */\n      0x4974656d20697320616c72656164792070616964210000000000000000000000\n        /* \"#utility.yul\":1341:1342   */\n      0x00\n        /* \"#utility.yul\":1333:1339   */\n      dup3\n        /* \"#utility.yul\":1329:1343   */\n      add\n        /* \"#utility.yul\":1322:1369   */\n      mstore\n        /* \"#utility.yul\":1205:1376   */\n      pop\n      jump\t// out\n        /* \"#utility.yul\":1382:1748   */\n    tag_45:\n        /* \"#utility.yul\":1524:1527   */\n      0x00\n        /* \"#utility.yul\":1545:1612   */\n      tag_65\n        /* \"#utility.yul\":1609:1611   */\n      0x15\n        /* \"#utility.yul\":1604:1607   */\n      dup4\n        /* \"#utility.yul\":1545:1612   */\n      tag_41\n      jump\t// in\n    tag_65:\n        /* \"#utility.yul\":1538:1612   */\n      swap2\n      pop\n        /* \"#utility.yul\":1621:1714   */\n      tag_66\n        /* \"#utility.yul\":1710:1713   */\n      dup3\n        /* \"#utility.yul\":1621:1714   */\n      tag_44\n      jump\t// in\n    tag_66:\n        /* \"#utility.yul\":1739:1741   */\n      0x20\n        /* \"#utility.yul\":1734:1737   */\n      dup3\n        /* \"#utility.yul\":1730:1742   */\n      add\n        /* \"#utility.yul\":1723:1742   */\n      swap1\n      pop\n        /* \"#utility.yul\":1382:1748   */\n      swap2\n      swap1\n      pop\n      jump\t// out\n        /* \"#utility.yul\":1754:2173   */\n    tag_13:\n        /* \"#utility.yul\":1920:1924   */\n      0x00\n        /* \"#utility.yul\":1958:1960   */\n      0x20\n        /* \"#utility.yul\":1947:1956   */\n      dup3\n        /* \"#utility.yul\":1943:1961   */\n      add\n        /* \"#utility.yul\":1935:1961   */\n      swap1\n      pop\n        /* \"#utility.yul\":2007:2016   */\n      dup2\n        /* \"#utility.yul\":2001:2005   */\n      dup2\n        /* \"#utility.yul\":1997:2017   */\n      sub\n        /* \"#utility.yul\":1993:1994   */\n      0x00\n        /* \"#utility.yul\":1982:1991   */\n      dup4\n        /* \"#utility.yul\":1978:1995   */\n      add\n        /* \"#utility.yul\":1971:2018   */\n      mstore\n        /* \"#utility.yul\":2035:2166   */\n      tag_68\n        /* \"#utility.yul\":2161:2165   */\n      dup2\n        /* \"#utility.yul\":2035:2166   */\n      tag_45\n      jump\t// in\n    tag_68:\n        /* \"#utility.yul\":2027:2166   */\n      swap1\n      pop\n        /* \"#utility.yul\":1754:2173   */\n      swap2\n      swap1\n      pop\n      jump\t// out\n        /* \"#utility.yul\":2179:2256   */\n    tag_46:\n        /* \"#utility.yul\":2216:2223   */\n      0x00\n        /* \"#utility.yul\":2245:2250   */\n      dup2\n        /* \"#utility.yul\":2234:2250   */\n      swap1\n      pop\n        /* \"#utility.yul\":2179:2256   */\n      swap2\n      swap1\n      pop\n      jump\t// out\n        /* \"#utility.yul\":2262:2442   */\n    tag_47:\n        /* \"#utility.yul\":2310:2387   */\n      0x4e487b7100000000000000000000000000000000000000000000000000000000\n        /* \"#utility.yul\":2307:2308   */\n      0x00\n        /* \"#utility.yul\":2300:2388   */\n      mstore\n        /* \"#utility.yul\":2407:2411   */\n      0x11\n        /* \"#utility.yul\":2404:2405   */\n      0x04\n        /* \"#utility.yul\":2397:2412   */\n      mstore\n        /* \"#utility.yul\":2431:2435   */\n      0x24\n        /* \"#utility.yul\":2428:2429   */\n      0x00\n        /* \"#utility.yul\":2421:2436   */\n      revert\n        /* \"#utility.yul\":2448:2639   */\n    tag_15:\n        /* \"#utility.yul\":2488:2491   */\n      0x00\n        /* \"#utility.yul\":2507:2527   */\n      tag_72\n        /* \"#utility.yul\":2525:2526   */\n      dup3\n        /* \"#utility.yul\":2507:2527   */\n      tag_46\n      jump\t// in\n    tag_72:\n        /* \"#utility.yul\":2502:2527   */\n      swap2\n      pop\n        /* \"#utility.yul\":2541:2561   */\n      tag_73\n        /* \"#utility.yul\":2559:2560   */\n      dup4\n        /* \"#utility.yul\":2541:2561   */\n      tag_46\n      jump\t// in\n    tag_73:\n        /* \"#utility.yul\":2536:2561   */\n      swap3\n      pop\n        /* \"#utility.yul\":2584:2585   */\n      dup3\n        /* \"#utility.yul\":2581:2582   */\n      dup3\n        /* \"#utility.yul\":2577:2586   */\n      add\n        /* \"#utility.yul\":2570:2586   */\n      swap1\n      pop\n        /* \"#utility.yul\":2605:2608   */\n      dup1\n        /* \"#utility.yul\":2602:2603   */\n      dup3\n        /* \"#utility.yul\":2599:2609   */\n      gt\n        /* \"#utility.yul\":2596:2632   */\n      iszero\n      tag_74\n      jumpi\n        /* \"#utility.yul\":2612:2630   */\n      tag_75\n      tag_47\n      jump\t// in\n    tag_75:\n        /* \"#utility.yul\":2596:2632   */\n    tag_74:\n        /* \"#utility.yul\":2448:2639   */\n      swap3\n      swap2\n      pop\n      pop\n      jump\t// out\n        /* \"#utility.yul\":2645:2763   */\n    tag_48:\n        /* \"#utility.yul\":2732:2756   */\n      tag_77\n        /* \"#utility.yul\":2750:2755   */\n      dup2\n        /* \"#utility.yul\":2732:2756   */\n      tag_46\n      jump\t// in\n    tag_77:\n        /* \"#utility.yul\":2727:2730   */\n      dup3\n        /* \"#utility.yul\":2720:2757   */\n      mstore\n        /* \"#utility.yul\":2645:2763   */\n      pop\n      pop\n      jump\t// out\n        /* \"#utility.yul\":2769:2991   */\n    tag_17:\n        /* \"#utility.yul\":2862:2866   */\n      0x00\n        /* \"#utility.yul\":2900:2902   */\n      0x20\n        /* \"#utility.yul\":2889:2898   */\n      dup3\n        /* \"#utility.yul\":2885:2903   */\n      add\n        /* \"#utility.yul\":2877:2903   */\n      swap1\n      pop\n        /* \"#utility.yul\":2913:2984   */\n      tag_79\n        /* \"#utility.yul\":2981:2982   */\n      0x00\n        /* \"#utility.yul\":2970:2979   */\n      dup4\n        /* \"#utility.yul\":2966:2983   */\n      add\n        /* \"#utility.yul\":2957:2963   */\n      dup5\n        /* \"#utility.yul\":2913:2984   */\n      tag_48\n      jump\t// in\n    tag_79:\n        /* \"#utility.yul\":2769:2991   */\n      swap3\n      swap2\n      pop\n      pop\n      jump\t// out\n        /* \"#utility.yul\":2997:3095   */\n    tag_49:\n        /* \"#utility.yul\":3048:3054   */\n      0x00\n        /* \"#utility.yul\":3082:3087   */\n      dup2\n        /* \"#utility.yul\":3076:3088   */\n      mload\n        /* \"#utility.yul\":3066:3088   */\n      swap1\n      pop\n        /* \"#utility.yul\":2997:3095   */\n      swap2\n      swap1\n      pop\n      jump\t// out\n        /* \"#utility.yul\":3101:3248   */\n    tag_50:\n        /* \"#utility.yul\":3202:3213   */\n      0x00\n        /* \"#utility.yul\":3239:3242   */\n      dup2\n        /* \"#utility.yul\":3224:3242   */\n      swap1\n      pop\n        /* \"#utility.yul\":3101:3248   */\n      swap3\n      swap2\n      pop\n      pop\n      jump\t// out\n        /* \"#utility.yul\":3254:3393   */\n    tag_51:\n        /* \"#utility.yul\":3343:3349   */\n      dup3\n        /* \"#utility.yul\":3338:3341   */\n      dup2\n        /* \"#utility.yul\":3333:3336   */\n      dup4\n        /* \"#utility.yul\":3327:3350   */\n      mcopy\n        /* \"#utility.yul\":3384:3385   */\n      0x00\n        /* \"#utility.yul\":3375:3381   */\n      dup4\n        /* \"#utility.yul\":3370:3373   */\n      dup4\n        /* \"#utility.yul\":3366:3382   */\n      add\n        /* \"#utility.yul\":3359:3386   */\n      mstore\n        /* \"#utility.yul\":3254:3393   */\n      pop\n      pop\n      pop\n      jump\t// out\n        /* \"#utility.yul\":3399:3785   */\n    tag_52:\n        /* \"#utility.yul\":3503:3506   */\n      0x00\n        /* \"#utility.yul\":3531:3569   */\n      tag_84\n        /* \"#utility.yul\":3563:3568   */\n      dup3\n        /* \"#utility.yul\":3531:3569   */\n      tag_49\n      jump\t// in\n    tag_84:\n        /* \"#utility.yul\":3585:3673   */\n      tag_85\n        /* \"#utility.yul\":3666:3672   */\n      dup2\n        /* \"#utility.yul\":3661:3664   */\n      dup6\n        /* \"#utility.yul\":3585:3673   */\n      tag_50\n      jump\t// in\n    tag_85:\n        /* \"#utility.yul\":3578:3673   */\n      swap4\n      pop\n        /* \"#utility.yul\":3682:3747   */\n      tag_86\n        /* \"#utility.yul\":3740:3746   */\n      dup2\n        /* \"#utility.yul\":3735:3738   */\n      dup6\n        /* \"#utility.yul\":3728:3732   */\n      0x20\n        /* \"#utility.yul\":3721:3726   */\n      dup7\n        /* \"#utility.yul\":3717:3733   */\n      add\n        /* \"#utility.yul\":3682:3747   */\n      tag_51\n      jump\t// in\n    tag_86:\n        /* \"#utility.yul\":3772:3778   */\n      dup1\n        /* \"#utility.yul\":3767:3770   */\n      dup5\n        /* \"#utility.yul\":3763:3779   */\n      add\n        /* \"#utility.yul\":3756:3779   */\n      swap2\n      pop\n        /* \"#utility.yul\":3507:3785   */\n      pop\n        /* \"#utility.yul\":3399:3785   */\n      swap3\n      swap2\n      pop\n      pop\n      jump\t// out\n        /* \"#utility.yul\":3791:4062   */\n    tag_19:\n        /* \"#utility.yul\":3921:3924   */\n      0x00\n        /* \"#utility.yul\":3943:4036   */\n      tag_88\n        /* \"#utility.yul\":4032:4035   */\n      dup3\n        /* \"#utility.yul\":4023:4029   */\n      dup5\n        /* \"#utility.yul\":3943:4036   */\n      tag_52\n      jump\t// in\n    tag_88:\n        /* \"#utility.yul\":3936:4036   */\n      swap2\n      pop\n        /* \"#utility.yul\":4053:4056   */\n      dup2\n        /* \"#utility.yul\":4046:4056   */\n      swap1\n      pop\n        /* \"#utility.yul\":3791:4062   */\n      swap3\n      swap2\n      pop\n      pop\n      jump\t// out\n        /* \"#utility.yul\":4068:4239   */\n    tag_53:\n        /* \"#utility.yul\":4208:4231   */\n      0x44656c697665727920646964206e6f7420776f726b0000000000000000000000\n        /* \"#utility.yul\":4204:4205   */\n      0x00\n        /* \"#utility.yul\":4196:4202   */\n      dup3\n        /* \"#utility.yul\":4192:4206   */\n      add\n        /* \"#utility.yul\":4185:4232   */\n      mstore\n        /* \"#utility.yul\":4068:4239   */\n      pop\n      jump\t// out\n        /* \"#utility.yul\":4245:4611   */\n    tag_54:\n        /* \"#utility.yul\":4387:4390   */\n      0x00\n        /* \"#utility.yul\":4408:4475   */\n      tag_91\n        /* \"#utility.yul\":4472:4474   */\n      0x15\n        /* \"#utility.yul\":4467:4470   */\n      dup4\n        /* \"#utility.yul\":4408:4475   */\n      tag_41\n      jump\t// in\n    tag_91:\n        /* \"#utility.yul\":4401:4475   */\n      swap2\n      pop\n        /* \"#utility.yul\":4484:4577   */\n      tag_92\n        /* \"#utility.yul\":4573:4576   */\n      dup3\n        /* \"#utility.yul\":4484:4577   */\n      tag_53\n      jump\t// in\n    tag_92:\n        /* \"#utility.yul\":4602:4604   */\n      0x20\n        /* \"#utility.yul\":4597:4600   */\n      dup3\n        /* \"#utility.yul\":4593:4605   */\n      add\n        /* \"#utility.yul\":4586:4605   */\n      swap1\n      pop\n        /* \"#utility.yul\":4245:4611   */\n      swap2\n      swap1\n      pop\n      jump\t// out\n        /* \"#utility.yul\":4617:5036   */\n    tag_25:\n        /* \"#utility.yul\":4783:4787   */\n      0x00\n        /* \"#utility.yul\":4821:4823   */\n      0x20\n        /* \"#utility.yul\":4810:4819   */\n      dup3\n        /* \"#utility.yul\":4806:4824   */\n      add\n        /* \"#utility.yul\":4798:4824   */\n      swap1\n      pop\n        /* \"#utility.yul\":4870:4879   */\n      dup2\n        /* \"#utility.yul\":4864:4868   */\n      dup2\n        /* \"#utility.yul\":4860:4880   */\n      sub\n        /* \"#utility.yul\":4856:4857   */\n      0x00\n        /* \"#utility.yul\":4845:4854   */\n      dup4\n        /* \"#utility.yul\":4841:4858   */\n      add\n        /* \"#utility.yul\":4834:4881   */\n      mstore\n        /* \"#utility.yul\":4898:5029   */\n      tag_94\n        /* \"#utility.yul\":5024:5028   */\n      dup2\n        /* \"#utility.yul\":4898:5029   */\n      tag_54\n      jump\t// in\n    tag_94:\n        /* \"#utility.yul\":4890:5029   */\n      swap1\n      pop\n        /* \"#utility.yul\":4617:5036   */\n      swap2\n      swap1\n      pop\n      jump\t// out\n\n    auxdata: 0xa2646970667358221220b7895695a85fe5aa8add2f70499d68272859ef03936aa5f0247c360e2d2223a164736f6c634300081a0033\n}\n",
				"bytecode": {
					"linkReferences": {},
					"object": "608060405234801561000f575f80fd5b506040516106f53803806106f583398181016040528101906100319190610128565b815f81905550806002819055508260035f6101000a81548173ffffffffffffffffffffffffffffffffffffffff021916908373ffffffffffffffffffffffffffffffffffffffff160217905550505050610178565b5f80fd5b5f73ffffffffffffffffffffffffffffffffffffffff82169050919050565b5f6100b38261008a565b9050919050565b5f6100c4826100a9565b9050919050565b6100d4816100ba565b81146100de575f80fd5b50565b5f815190506100ef816100cb565b92915050565b5f819050919050565b610107816100f5565b8114610111575f80fd5b50565b5f81519050610122816100fe565b92915050565b5f805f6060848603121561013f5761013e610086565b5b5f61014c868287016100e1565b935050602061015d86828701610114565b925050604061016e86828701610114565b9150509250925092565b610570806101855f395ff3fe608060405260043610610037575f3560e01c80632986c0e5146102445780633c8da5881461026e57806383d12eef1461029857610237565b36610237575f54341461007f576040517f08c379a000000000000000000000000000000000000000000000000000000000815260040161007690610353565b60405180910390fd5b5f600154146100c3576040517f08c379a00000000000000000000000000000000000000000000000000000000081526004016100ba906103bb565b60405180910390fd5b3460015f8282546100d4919061040f565b925050819055505f60035f9054906101000a900473ffffffffffffffffffffffffffffffffffffffff1673ffffffffffffffffffffffffffffffffffffffff16346002546040516024016101289190610451565b6040516020818303038152906040527f800fb83f000000000000000000000000000000000000000000000000000000007bffffffffffffffffffffffffffffffffffffffffffffffffffffffff19166020820180517bffffffffffffffffffffffffffffffffffffffffffffffffffffffff83818316178352505050506040516101b291906104bc565b5f6040518083038185875af1925050503d805f81146101ec576040519150601f19603f3d011682016040523d82523d5f602084013e6101f1565b606091505b5050905080610235576040517f08c379a000000000000000000000000000000000000000000000000000000000815260040161022c9061051c565b60405180910390fd5b005b348015610242575f80fd5b005b34801561024f575f80fd5b506102586102c2565b6040516102659190610451565b60405180910390f35b348015610279575f80fd5b506102826102c8565b60405161028f9190610451565b60405180910390f35b3480156102a3575f80fd5b506102ac6102cd565b6040516102b99190610451565b60405180910390f35b60025481565b5f5481565b60015481565b5f82825260208201905092915050565b7f576520646f6e277420737570706f7274207061727469616c207061796d656e745f8201527f7300000000000000000000000000000000000000000000000000000000000000602082015250565b5f61033d6021836102d3565b9150610348826102e3565b604082019050919050565b5f6020820190508181035f83015261036a81610331565b9050919050565b7f4974656d20697320616c726561647920706169642100000000000000000000005f82015250565b5f6103a56015836102d3565b91506103b082610371565b602082019050919050565b5f6020820190508181035f8301526103d281610399565b9050919050565b5f819050919050565b7f4e487b71000000000000000000000000000000000000000000000000000000005f52601160045260245ffd5b5f610419826103d9565b9150610424836103d9565b925082820190508082111561043c5761043b6103e2565b5b92915050565b61044b816103d9565b82525050565b5f6020820190506104645f830184610442565b92915050565b5f81519050919050565b5f81905092915050565b8281835e5f83830152505050565b5f6104968261046a565b6104a08185610474565b93506104b081856020860161047e565b80840191505092915050565b5f6104c7828461048c565b915081905092915050565b7f44656c697665727920646964206e6f7420776f726b00000000000000000000005f82015250565b5f6105066015836102d3565b9150610511826104d2565b602082019050919050565b5f6020820190508181035f830152610533816104fa565b905091905056fea2646970667358221220b7895695a85fe5aa8add2f70499d68272859ef03936aa5f0247c360e2d2223a164736f6c634300081a0033",
					"opcodes": "PUSH1 0x80 PUSH1 0x40 MSTORE CALLVALUE DUP1 ISZERO PUSH2 0xF JUMPI PUSH0 DUP1 REVERT JUMPDEST POP PUSH1 0x40 MLOAD PUSH2 0x6F5 CODESIZE SUB DUP1 PUSH2 0x6F5 DUP4 CODECOPY DUP2 DUP2 ADD PUSH1 0x40 MSTORE DUP2 ADD SWAP1 PUSH2 0x31 SWAP2 SWAP1 PUSH2 0x128 JUMP JUMPDEST DUP2 PUSH0 DUP2 SWAP1 SSTORE POP DUP1 PUSH1 0x2 DUP2 SWAP1 SSTORE POP DUP3 PUSH1 0x3 PUSH0 PUSH2 0x100 EXP DUP2 SLOAD DUP2 PUSH20 0xFFFFFFFFFFFFFFFFFFFFFFFFFFFFFFFFFFFFFFFF MUL NOT AND SWAP1 DUP4 PUSH20 0xFFFFFFFFFFFFFFFFFFFFFFFFFFFFFFFFFFFFFFFF AND MUL OR SWAP1 SSTORE POP POP POP POP PUSH2 0x178 JUMP JUMPDEST PUSH0 DUP1 REVERT JUMPDEST PUSH0 PUSH20 0xFFFFFFFFFFFFFFFFFFFFFFFFFFFFFFFFFFFFFFFF DUP3 AND SWAP1 POP SWAP2 SWAP1 POP JUMP JUMPDEST PUSH0 PUSH2 0xB3 DUP3 PUSH2 0x8A JUMP JUMPDEST SWAP1 POP SWAP2 SWAP1 POP JUMP JUMPDEST PUSH0 PUSH2 0xC4 DUP3 PUSH2 0xA9 JUMP JUMPDEST SWAP1 POP SWAP2 SWAP1 POP JUMP JUMPDEST PUSH2 0xD4 DUP2 PUSH2 0xBA JUMP JUMPDEST DUP2 EQ PUSH2 0xDE JUMPI PUSH0 DUP1 REVERT JUMPDEST POP JUMP JUMPDEST PUSH0 DUP2 MLOAD SWAP1 POP PUSH2 0xEF DUP2 PUSH2 0xCB JUMP JUMPDEST SWAP3 SWAP2 POP POP JUMP JUMPDEST PUSH0 DUP2 SWAP1 POP SWAP2 SWAP1 POP JUMP JUMPDEST PUSH2 0x107 DUP2 PUSH2 0xF5 JUMP JUMPDEST DUP2 EQ PUSH2 0x111 JUMPI PUSH0 DUP1 REVERT JUMPDEST POP JUMP JUMPDEST PUSH0 DUP2 MLOAD SWAP1 POP PUSH2 0x122 DUP2 PUSH2 0xFE JUMP JUMPDEST SWAP3 SWAP2 POP POP JUMP JUMPDEST PUSH0 DUP1 PUSH0 PUSH1 0x60 DUP5 DUP7 SUB SLT ISZERO PUSH2 0x13F JUMPI PUSH2 0x13E PUSH2 0x86 JUMP JUMPDEST JUMPDEST PUSH0 PUSH2 0x14C DUP7 DUP3 DUP8 ADD PUSH2 0xE1 JUMP JUMPDEST SWAP4 POP POP PUSH1 0x20 PUSH2 0x15D DUP7 DUP3 DUP8 ADD PUSH2 0x114 JUMP JUMPDEST SWAP3 POP POP PUSH1 0x40 PUSH2 0x16E DUP7 DUP3 DUP8 ADD PUSH2 0x114 JUMP JUMPDEST SWAP2 POP POP SWAP3 POP SWAP3 POP SWAP3 JUMP JUMPDEST PUSH2 0x570 DUP1 PUSH2 0x185 PUSH0 CODECOPY PUSH0 RETURN INVALID PUSH1 0x80 PUSH1 0x40 MSTORE PUSH1 0x4 CALLDATASIZE LT PUSH2 0x37 JUMPI PUSH0 CALLDATALOAD PUSH1 0xE0 SHR DUP1 PUSH4 0x2986C0E5 EQ PUSH2 0x244 JUMPI DUP1 PUSH4 0x3C8DA588 EQ PUSH2 0x26E JUMPI DUP1 PUSH4 0x83D12EEF EQ PUSH2 0x298 JUMPI PUSH2 0x237 JUMP JUMPDEST CALLDATASIZE PUSH2 0x237 JUMPI PUSH0 SLOAD CALLVALUE EQ PUSH2 0x7F JUMPI PUSH1 0x40 MLOAD PUSH32 0x8C379A000000000000000000000000000000000000000000000000000000000 DUP2 MSTORE PUSH1 0x4 ADD PUSH2 0x76 SWAP1 PUSH2 0x353 JUMP JUMPDEST PUSH1 0x40 MLOAD DUP1 SWAP2 SUB SWAP1 REVERT JUMPDEST PUSH0 PUSH1 0x1 SLOAD EQ PUSH2 0xC3 JUMPI PUSH1 0x40 MLOAD PUSH32 0x8C379A000000000000000000000000000000000000000000000000000000000 DUP2 MSTORE PUSH1 0x4 ADD PUSH2 0xBA SWAP1 PUSH2 0x3BB JUMP JUMPDEST PUSH1 0x40 MLOAD DUP1 SWAP2 SUB SWAP1 REVERT JUMPDEST CALLVALUE PUSH1 0x1 PUSH0 DUP3 DUP3 SLOAD PUSH2 0xD4 SWAP2 SWAP1 PUSH2 0x40F JUMP JUMPDEST SWAP3 POP POP DUP2 SWAP1 SSTORE POP PUSH0 PUSH1 0x3 PUSH0 SWAP1 SLOAD SWAP1 PUSH2 0x100 EXP SWAP1 DIV PUSH20 0xFFFFFFFFFFFFFFFFFFFFFFFFFFFFFFFFFFFFFFFF AND PUSH20 0xFFFFFFFFFFFFFFFFFFFFFFFFFFFFFFFFFFFFFFFF AND CALLVALUE PUSH1 0x2 SLOAD PUSH1 0x40 MLOAD PUSH1 0x24 ADD PUSH2 0x128 SWAP2 SWAP1 PUSH2 0x451 JUMP JUMPDEST PUSH1 0x40 MLOAD PUSH1 0x20 DUP2 DUP4 SUB SUB DUP2 MSTORE SWAP1 PUSH1 0x40 MSTORE PUSH32 0x800FB83F00000000000000000000000000000000000000000000000000000000 PUSH28 0xFFFFFFFFFFFFFFFFFFFFFFFFFFFFFFFFFFFFFFFFFFFFFFFFFFFFFFFF NOT AND PUSH1 0x20 DUP3 ADD DUP1 MLOAD PUSH28 0xFFFFFFFFFFFFFFFFFFFFFFFFFFFFFFFFFFFFFFFFFFFFFFFFFFFFFFFF DUP4 DUP2 DUP4 AND OR DUP4 MSTORE POP POP POP POP PUSH1 0x40 MLOAD PUSH2 0x1B2 SWAP2 SWAP1 PUSH2 0x4BC JUMP JUMPDEST PUSH0 PUSH1 0x40 MLOAD DUP1 DUP4 SUB DUP2 DUP6 DUP8 GAS CALL SWAP3 POP POP POP RETURNDATASIZE DUP1 PUSH0 DUP2 EQ PUSH2 0x1EC JUMPI PUSH1 0x40 MLOAD SWAP2 POP PUSH1 0x1F NOT PUSH1 0x3F RETURNDATASIZE ADD AND DUP3 ADD PUSH1 0x40 MSTORE RETURNDATASIZE DUP3 MSTORE RETURNDATASIZE PUSH0 PUSH1 0x20 DUP5 ADD RETURNDATACOPY PUSH2 0x1F1 JUMP JUMPDEST PUSH1 0x60 SWAP2 POP JUMPDEST POP POP SWAP1 POP DUP1 PUSH2 0x235 JUMPI PUSH1 0x40 MLOAD PUSH32 0x8C379A000000000000000000000000000000000000000000000000000000000 DUP2 MSTORE PUSH1 0x4 ADD PUSH2 0x22C SWAP1 PUSH2 0x51C JUMP JUMPDEST PUSH1 0x40 MLOAD DUP1 SWAP2 SUB SWAP1 REVERT JUMPDEST STOP JUMPDEST CALLVALUE DUP1 ISZERO PUSH2 0x242 JUMPI PUSH0 DUP1 REVERT JUMPDEST STOP JUMPDEST CALLVALUE DUP1 ISZERO PUSH2 0x24F JUMPI PUSH0 DUP1 REVERT JUMPDEST POP PUSH2 0x258 PUSH2 0x2C2 JUMP JUMPDEST PUSH1 0x40 MLOAD PUSH2 0x265 SWAP2 SWAP1 PUSH2 0x451 JUMP JUMPDEST PUSH1 0x40 MLOAD DUP1 SWAP2 SUB SWAP1 RETURN JUMPDEST CALLVALUE DUP1 ISZERO PUSH2 0x279 JUMPI PUSH0 DUP1 REVERT JUMPDEST POP PUSH2 0x282 PUSH2 0x2C8 JUMP JUMPDEST PUSH1 0x40 MLOAD PUSH2 0x28F SWAP2 SWAP1 PUSH2 0x451 JUMP JUMPDEST PUSH1 0x40 MLOAD DUP1 SWAP2 SUB SWAP1 RETURN JUMPDEST CALLVALUE DUP1 ISZERO PUSH2 0x2A3 JUMPI PUSH0 DUP1 REVERT JUMPDEST POP PUSH2 0x2AC PUSH2 0x2CD JUMP JUMPDEST PUSH1 0x40 MLOAD PUSH2 0x2B9 SWAP2 SWAP1 PUSH2 0x451 JUMP JUMPDEST PUSH1 0x40 MLOAD DUP1 SWAP2 SUB SWAP1 RETURN JUMPDEST PUSH1 0x2 SLOAD DUP2 JUMP JUMPDEST PUSH0 SLOAD DUP2 JUMP JUMPDEST PUSH1 0x1 SLOAD DUP2 JUMP JUMPDEST PUSH0 DUP3 DUP3 MSTORE PUSH1 0x20 DUP3 ADD SWAP1 POP SWAP3 SWAP2 POP POP JUMP JUMPDEST PUSH32 0x576520646F6E277420737570706F7274207061727469616C207061796D656E74 PUSH0 DUP3 ADD MSTORE PUSH32 0x7300000000000000000000000000000000000000000000000000000000000000 PUSH1 0x20 DUP3 ADD MSTORE POP JUMP JUMPDEST PUSH0 PUSH2 0x33D PUSH1 0x21 DUP4 PUSH2 0x2D3 JUMP JUMPDEST SWAP2 POP PUSH2 0x348 DUP3 PUSH2 0x2E3 JUMP JUMPDEST PUSH1 0x40 DUP3 ADD SWAP1 POP SWAP2 SWAP1 POP JUMP JUMPDEST PUSH0 PUSH1 0x20 DUP3 ADD SWAP1 POP DUP2 DUP2 SUB PUSH0 DUP4 ADD MSTORE PUSH2 0x36A DUP2 PUSH2 0x331 JUMP JUMPDEST SWAP1 POP SWAP2 SWAP1 POP JUMP JUMPDEST PUSH32 0x4974656D20697320616C72656164792070616964210000000000000000000000 PUSH0 DUP3 ADD MSTORE POP JUMP JUMPDEST PUSH0 PUSH2 0x3A5 PUSH1 0x15 DUP4 PUSH2 0x2D3 JUMP JUMPDEST SWAP2 POP PUSH2 0x3B0 DUP3 PUSH2 0x371 JUMP JUMPDEST PUSH1 0x20 DUP3 ADD SWAP1 POP SWAP2 SWAP1 POP JUMP JUMPDEST PUSH0 PUSH1 0x20 DUP3 ADD SWAP1 POP DUP2 DUP2 SUB PUSH0 DUP4 ADD MSTORE PUSH2 0x3D2 DUP2 PUSH2 0x399 JUMP JUMPDEST SWAP1 POP SWAP2 SWAP1 POP JUMP JUMPDEST PUSH0 DUP2 SWAP1 POP SWAP2 SWAP1 POP JUMP JUMPDEST PUSH32 0x4E487B7100000000000000000000000000000000000000000000000000000000 PUSH0 MSTORE PUSH1 0x11 PUSH1 0x4 MSTORE PUSH1 0x24 PUSH0 REVERT JUMPDEST PUSH0 PUSH2 0x419 DUP3 PUSH2 0x3D9 JUMP JUMPDEST SWAP2 POP PUSH2 0x424 DUP4 PUSH2 0x3D9 JUMP JUMPDEST SWAP3 POP DUP3 DUP3 ADD SWAP1 POP DUP1 DUP3 GT ISZERO PUSH2 0x43C JUMPI PUSH2 0x43B PUSH2 0x3E2 JUMP JUMPDEST JUMPDEST SWAP3 SWAP2 POP POP JUMP JUMPDEST PUSH2 0x44B DUP2 PUSH2 0x3D9 JUMP JUMPDEST DUP3 MSTORE POP POP JUMP JUMPDEST PUSH0 PUSH1 0x20 DUP3 ADD SWAP1 POP PUSH2 0x464 PUSH0 DUP4 ADD DUP5 PUSH2 0x442 JUMP JUMPDEST SWAP3 SWAP2 POP POP JUMP JUMPDEST PUSH0 DUP2 MLOAD SWAP1 POP SWAP2 SWAP1 POP JUMP JUMPDEST PUSH0 DUP2 SWAP1 POP SWAP3 SWAP2 POP POP JUMP JUMPDEST DUP3 DUP2 DUP4 MCOPY PUSH0 DUP4 DUP4 ADD MSTORE POP POP POP JUMP JUMPDEST PUSH0 PUSH2 0x496 DUP3 PUSH2 0x46A JUMP JUMPDEST PUSH2 0x4A0 DUP2 DUP6 PUSH2 0x474 JUMP JUMPDEST SWAP4 POP PUSH2 0x4B0 DUP2 DUP6 PUSH1 0x20 DUP7 ADD PUSH2 0x47E JUMP JUMPDEST DUP1 DUP5 ADD SWAP2 POP POP SWAP3 SWAP2 POP POP JUMP JUMPDEST PUSH0 PUSH2 0x4C7 DUP3 DUP5 PUSH2 0x48C JUMP JUMPDEST SWAP2 POP DUP2 SWAP1 POP SWAP3 SWAP2 POP POP JUMP JUMPDEST PUSH32 0x44656C697665727920646964206E6F7420776F726B0000000000000000000000 PUSH0 DUP3 ADD MSTORE POP JUMP JUMPDEST PUSH0 PUSH2 0x506 PUSH1 0x15 DUP4 PUSH2 0x2D3 JUMP JUMPDEST SWAP2 POP PUSH2 0x511 DUP3 PUSH2 0x4D2 JUMP JUMPDEST PUSH1 0x20 DUP3 ADD SWAP1 POP SWAP2 SWAP1 POP JUMP JUMPDEST PUSH0 PUSH1 0x20 DUP3 ADD SWAP1 POP DUP2 DUP2 SUB PUSH0 DUP4 ADD MSTORE PUSH2 0x533 DUP2 PUSH2 0x4FA JUMP JUMPDEST SWAP1 POP SWAP2 SWAP1 POP JUMP INVALID LOG2 PUSH5 0x6970667358 0x22 SLT KECCAK256 0xB7 DUP10 JUMP SWAP6 0xA8 PUSH0 0xE5 0xAA DUP11 0xDD 0x2F PUSH17 0x499D68272859EF03936AA5F0247C360E2D 0x22 0x23 LOG1 PUSH5 0x736F6C6343 STOP ADDMOD BYTE STOP CALLER "
				},
				"gasEstimates": {
					"creation": {
						"codeDepositCost": "278400",
						"executionCost": "infinite",
						"totalCost": "infinite"
					},
					"external": {
						"": "154",
						"index()": "2403",
						"paidWei()": "2447",
						"priceInWei()": "2424"
					}
				},
				"methodIdentifiers": {
					"index()": "2986c0e5",
					"paidWei()": "83d12eef",
					"priceInWei()": "3c8da588"
				}
			},
			"storageLayout": {
				"storage": [
					{
						"astId": 37,
						"contract": "contracts/eventtrigger_lecture.sol:Item",
						"label": "priceInWei",
						"offset": 0,
						"slot": "0",
						"type": "t_uint256"
					},
					{
						"astId": 39,
						"contract": "contracts/eventtrigger_lecture.sol:Item",
						"label": "paidWei",
						"offset": 0,
						"slot": "1",
						"type": "t_uint256"
					},
					{
						"astId": 41,
						"contract": "contracts/eventtrigger_lecture.sol:Item",
						"label": "index",
						"offset": 0,
						"slot": "2",
						"type": "t_uint256"
					},
					{
						"astId": 44,
						"contract": "contracts/eventtrigger_lecture.sol:Item",
						"label": "parentContract",
						"offset": 0,
						"slot": "3",
						"type": "t_contract(ItemManager)333"
					}
				],
				"types": {
					"t_contract(ItemManager)333": {
						"encoding": "inplace",
						"label": "contract ItemManager",
						"numberOfBytes": "20"
					},
					"t_uint256": {
						"encoding": "inplace",
						"label": "uint256",
						"numberOfBytes": "32"
					}
				}
			},
			"userdoc": {
				"kind": "user",
				"methods": {},
				"version": 1
			}
		}
	}
}