{
	"contracts/ExampleErrorRevert.sol": {
		"Erros": {
			"abi": [
				{
					"inputs": [
						{
							"internalType": "uint256",
							"name": "_valor",
							"type": "uint256"
						}
					],
					"name": "limitada",
					"outputs": [],
					"stateMutability": "pure",
					"type": "function"
				}
			],
			"devdoc": {
				"kind": "dev",
				"methods": {},
				"version": 1
			},
			"evm": {
				"assembly": "    /* \"contracts/ExampleErrorRevert.sol\":60:297  contract Erros {... */\n  mstore(0x40, 0x80)\n  callvalue\n  dup1\n  iszero\n  tag_1\n  jumpi\n  0x00\n  dup1\n  revert\ntag_1:\n  pop\n  dataSize(sub_0)\n  dup1\n  dataOffset(sub_0)\n  0x00\n  codecopy\n  0x00\n  return\nstop\n\nsub_0: assembly {\n        /* \"contracts/ExampleErrorRevert.sol\":60:297  contract Erros {... */\n      mstore(0x40, 0x80)\n      callvalue\n      dup1\n      iszero\n      tag_1\n      jumpi\n      0x00\n      dup1\n      revert\n    tag_1:\n      pop\n      jumpi(tag_2, lt(calldatasize, 0x04))\n      shr(0xe0, calldataload(0x00))\n      dup1\n      0x54df2935\n      eq\n      tag_3\n      jumpi\n    tag_2:\n      0x00\n      dup1\n      revert\n        /* \"contracts/ExampleErrorRevert.sol\":84:286  function limitada(uint _valor) public pure{... */\n    tag_3:\n      tag_4\n      0x04\n      dup1\n      calldatasize\n      sub\n      dup2\n      add\n      swap1\n      tag_5\n      swap2\n      swap1\n      tag_6\n      jump\t// in\n    tag_5:\n      tag_7\n      jump\t// in\n    tag_4:\n      stop\n    tag_7:\n        /* \"contracts/ExampleErrorRevert.sol\":222:224  10 */\n      0x0a\n        /* \"contracts/ExampleErrorRevert.sol\":213:219  _valor */\n      dup2\n        /* \"contracts/ExampleErrorRevert.sol\":213:224  _valor > 10 */\n      gt\n        /* \"contracts/ExampleErrorRevert.sol\":210:278  if(_valor > 10) revert(unicode\"O valor não está dentro do limite\") */\n      iszero\n      tag_9\n      jumpi\n        /* \"contracts/ExampleErrorRevert.sol\":226:278  revert(unicode\"O valor não está dentro do limite\") */\n      mload(0x40)\n      0x08c379a000000000000000000000000000000000000000000000000000000000\n      dup2\n      mstore\n      0x04\n      add\n      tag_10\n      swap1\n      tag_11\n      jump\t// in\n    tag_10:\n      mload(0x40)\n      dup1\n      swap2\n      sub\n      swap1\n      revert\n        /* \"contracts/ExampleErrorRevert.sol\":210:278  if(_valor > 10) revert(unicode\"O valor não está dentro do limite\") */\n    tag_9:\n        /* \"contracts/ExampleErrorRevert.sol\":84:286  function limitada(uint _valor) public pure{... */\n      pop\n      jump\t// out\n        /* \"#utility.yul\":88:205   */\n    tag_13:\n        /* \"#utility.yul\":197:198   */\n      0x00\n        /* \"#utility.yul\":194:195   */\n      dup1\n        /* \"#utility.yul\":187:199   */\n      revert\n        /* \"#utility.yul\":334:411   */\n    tag_15:\n        /* \"#utility.yul\":371:378   */\n      0x00\n        /* \"#utility.yul\":400:405   */\n      dup2\n        /* \"#utility.yul\":389:405   */\n      swap1\n      pop\n        /* \"#utility.yul\":334:411   */\n      swap2\n      swap1\n      pop\n      jump\t// out\n        /* \"#utility.yul\":417:539   */\n    tag_16:\n        /* \"#utility.yul\":490:514   */\n      tag_27\n        /* \"#utility.yul\":508:513   */\n      dup2\n        /* \"#utility.yul\":490:514   */\n      tag_15\n      jump\t// in\n    tag_27:\n        /* \"#utility.yul\":483:488   */\n      dup2\n        /* \"#utility.yul\":480:515   */\n      eq\n        /* \"#utility.yul\":470:533   */\n      tag_28\n      jumpi\n        /* \"#utility.yul\":529:530   */\n      0x00\n        /* \"#utility.yul\":526:527   */\n      dup1\n        /* \"#utility.yul\":519:531   */\n      revert\n        /* \"#utility.yul\":470:533   */\n    tag_28:\n        /* \"#utility.yul\":417:539   */\n      pop\n      jump\t// out\n        /* \"#utility.yul\":545:684   */\n    tag_17:\n        /* \"#utility.yul\":591:596   */\n      0x00\n        /* \"#utility.yul\":629:635   */\n      dup2\n        /* \"#utility.yul\":616:636   */\n      calldataload\n        /* \"#utility.yul\":607:636   */\n      swap1\n      pop\n        /* \"#utility.yul\":645:678   */\n      tag_30\n        /* \"#utility.yul\":672:677   */\n      dup2\n        /* \"#utility.yul\":645:678   */\n      tag_16\n      jump\t// in\n    tag_30:\n        /* \"#utility.yul\":545:684   */\n      swap3\n      swap2\n      pop\n      pop\n      jump\t// out\n        /* \"#utility.yul\":690:1019   */\n    tag_6:\n        /* \"#utility.yul\":749:755   */\n      0x00\n        /* \"#utility.yul\":798:800   */\n      0x20\n        /* \"#utility.yul\":786:795   */\n      dup3\n        /* \"#utility.yul\":777:784   */\n      dup5\n        /* \"#utility.yul\":773:796   */\n      sub\n        /* \"#utility.yul\":769:801   */\n      slt\n        /* \"#utility.yul\":766:885   */\n      iszero\n      tag_32\n      jumpi\n        /* \"#utility.yul\":804:883   */\n      tag_33\n      tag_13\n      jump\t// in\n    tag_33:\n        /* \"#utility.yul\":766:885   */\n    tag_32:\n        /* \"#utility.yul\":924:925   */\n      0x00\n        /* \"#utility.yul\":949:1002   */\n      tag_34\n        /* \"#utility.yul\":994:1001   */\n      dup5\n        /* \"#utility.yul\":985:991   */\n      dup3\n        /* \"#utility.yul\":974:983   */\n      dup6\n        /* \"#utility.yul\":970:992   */\n      add\n        /* \"#utility.yul\":949:1002   */\n      tag_17\n      jump\t// in\n    tag_34:\n        /* \"#utility.yul\":939:1002   */\n      swap2\n      pop\n        /* \"#utility.yul\":895:1012   */\n      pop\n        /* \"#utility.yul\":690:1019   */\n      swap3\n      swap2\n      pop\n      pop\n      jump\t// out\n        /* \"#utility.yul\":1025:1194   */\n    tag_18:\n        /* \"#utility.yul\":1109:1120   */\n      0x00\n        /* \"#utility.yul\":1143:1149   */\n      dup3\n        /* \"#utility.yul\":1138:1141   */\n      dup3\n        /* \"#utility.yul\":1131:1150   */\n      mstore\n        /* \"#utility.yul\":1183:1187   */\n      0x20\n        /* \"#utility.yul\":1178:1181   */\n      dup3\n        /* \"#utility.yul\":1174:1188   */\n      add\n        /* \"#utility.yul\":1159:1188   */\n      swap1\n      pop\n        /* \"#utility.yul\":1025:1194   */\n      swap3\n      swap2\n      pop\n      pop\n      jump\t// out\n        /* \"#utility.yul\":1200:1454   */\n    tag_19:\n        /* \"#utility.yul\":1340:1406   */\n      0x4f2076616c6f72206ec3a36f20657374c3a12064656e74726f20646f206c696d\n        /* \"#utility.yul\":1336:1337   */\n      0x00\n        /* \"#utility.yul\":1328:1334   */\n      dup3\n        /* \"#utility.yul\":1324:1338   */\n      add\n        /* \"#utility.yul\":1317:1407   */\n      mstore\n        /* \"#utility.yul\":1441:1446   */\n      0x6974650000000000000000000000000000000000000000000000000000000000\n        /* \"#utility.yul\":1436:1438   */\n      0x20\n        /* \"#utility.yul\":1428:1434   */\n      dup3\n        /* \"#utility.yul\":1424:1439   */\n      add\n        /* \"#utility.yul\":1417:1447   */\n      mstore\n        /* \"#utility.yul\":1200:1454   */\n      pop\n      jump\t// out\n        /* \"#utility.yul\":1460:1826   */\n    tag_20:\n        /* \"#utility.yul\":1602:1605   */\n      0x00\n        /* \"#utility.yul\":1623:1690   */\n      tag_38\n        /* \"#utility.yul\":1687:1689   */\n      0x23\n        /* \"#utility.yul\":1682:1685   */\n      dup4\n        /* \"#utility.yul\":1623:1690   */\n      tag_18\n      jump\t// in\n    tag_38:\n        /* \"#utility.yul\":1616:1690   */\n      swap2\n      pop\n        /* \"#utility.yul\":1699:1792   */\n      tag_39\n        /* \"#utility.yul\":1788:1791   */\n      dup3\n        /* \"#utility.yul\":1699:1792   */\n      tag_19\n      jump\t// in\n    tag_39:\n        /* \"#utility.yul\":1817:1819   */\n      0x40\n        /* \"#utility.yul\":1812:1815   */\n      dup3\n        /* \"#utility.yul\":1808:1820   */\n      add\n        /* \"#utility.yul\":1801:1820   */\n      swap1\n      pop\n        /* \"#utility.yul\":1460:1826   */\n      swap2\n      swap1\n      pop\n      jump\t// out\n        /* \"#utility.yul\":1832:2251   */\n    tag_11:\n        /* \"#utility.yul\":1998:2002   */\n      0x00\n        /* \"#utility.yul\":2036:2038   */\n      0x20\n        /* \"#utility.yul\":2025:2034   */\n      dup3\n        /* \"#utility.yul\":2021:2039   */\n      add\n        /* \"#utility.yul\":2013:2039   */\n      swap1\n      pop\n        /* \"#utility.yul\":2085:2094   */\n      dup2\n        /* \"#utility.yul\":2079:2083   */\n      dup2\n        /* \"#utility.yul\":2075:2095   */\n      sub\n        /* \"#utility.yul\":2071:2072   */\n      0x00\n        /* \"#utility.yul\":2060:2069   */\n      dup4\n        /* \"#utility.yul\":2056:2073   */\n      add\n        /* \"#utility.yul\":2049:2096   */\n      mstore\n        /* \"#utility.yul\":2113:2244   */\n      tag_41\n        /* \"#utility.yul\":2239:2243   */\n      dup2\n        /* \"#utility.yul\":2113:2244   */\n      tag_20\n      jump\t// in\n    tag_41:\n        /* \"#utility.yul\":2105:2244   */\n      swap1\n      pop\n        /* \"#utility.yul\":1832:2251   */\n      swap2\n      swap1\n      pop\n      jump\t// out\n\n    auxdata: 0xa264697066735822122058f56bc70db5bc4da7bcdd06641c08c761a878fa7922d718c4b50c0a981dc00a64736f6c634300081a0033\n}\n",
				"bytecode": {
					"linkReferences": {},
					"object": "6080604052348015600e575f80fd5b506101c68061001c5f395ff3fe608060405234801561000f575f80fd5b5060043610610029575f3560e01c806354df29351461002d575b5f80fd5b610047600480360381019061004291906100c7565b610049565b005b600a81111561008d576040517f08c379a000000000000000000000000000000000000000000000000000000000815260040161008490610172565b60405180910390fd5b50565b5f80fd5b5f819050919050565b6100a681610094565b81146100b0575f80fd5b50565b5f813590506100c18161009d565b92915050565b5f602082840312156100dc576100db610090565b5b5f6100e9848285016100b3565b91505092915050565b5f82825260208201905092915050565b7f4f2076616c6f72206ec3a36f20657374c3a12064656e74726f20646f206c696d5f8201527f6974650000000000000000000000000000000000000000000000000000000000602082015250565b5f61015c6023836100f2565b915061016782610102565b604082019050919050565b5f6020820190508181035f83015261018981610150565b905091905056fea264697066735822122058f56bc70db5bc4da7bcdd06641c08c761a878fa7922d718c4b50c0a981dc00a64736f6c634300081a0033",
					"opcodes": "PUSH1 0x80 PUSH1 0x40 MSTORE CALLVALUE DUP1 ISZERO PUSH1 0xE JUMPI PUSH0 DUP1 REVERT JUMPDEST POP PUSH2 0x1C6 DUP1 PUSH2 0x1C PUSH0 CODECOPY PUSH0 RETURN INVALID PUSH1 0x80 PUSH1 0x40 MSTORE CALLVALUE DUP1 ISZERO PUSH2 0xF JUMPI PUSH0 DUP1 REVERT JUMPDEST POP PUSH1 0x4 CALLDATASIZE LT PUSH2 0x29 JUMPI PUSH0 CALLDATALOAD PUSH1 0xE0 SHR DUP1 PUSH4 0x54DF2935 EQ PUSH2 0x2D JUMPI JUMPDEST PUSH0 DUP1 REVERT JUMPDEST PUSH2 0x47 PUSH1 0x4 DUP1 CALLDATASIZE SUB DUP2 ADD SWAP1 PUSH2 0x42 SWAP2 SWAP1 PUSH2 0xC7 JUMP JUMPDEST PUSH2 0x49 JUMP JUMPDEST STOP JUMPDEST PUSH1 0xA DUP2 GT ISZERO PUSH2 0x8D JUMPI PUSH1 0x40 MLOAD PUSH32 0x8C379A000000000000000000000000000000000000000000000000000000000 DUP2 MSTORE PUSH1 0x4 ADD PUSH2 0x84 SWAP1 PUSH2 0x172 JUMP JUMPDEST PUSH1 0x40 MLOAD DUP1 SWAP2 SUB SWAP1 REVERT JUMPDEST POP JUMP JUMPDEST PUSH0 DUP1 REVERT JUMPDEST PUSH0 DUP2 SWAP1 POP SWAP2 SWAP1 POP JUMP JUMPDEST PUSH2 0xA6 DUP2 PUSH2 0x94 JUMP JUMPDEST DUP2 EQ PUSH2 0xB0 JUMPI PUSH0 DUP1 REVERT JUMPDEST POP JUMP JUMPDEST PUSH0 DUP2 CALLDATALOAD SWAP1 POP PUSH2 0xC1 DUP2 PUSH2 0x9D JUMP JUMPDEST SWAP3 SWAP2 POP POP JUMP JUMPDEST PUSH0 PUSH1 0x20 DUP3 DUP5 SUB SLT ISZERO PUSH2 0xDC JUMPI PUSH2 0xDB PUSH2 0x90 JUMP JUMPDEST JUMPDEST PUSH0 PUSH2 0xE9 DUP5 DUP3 DUP6 ADD PUSH2 0xB3 JUMP JUMPDEST SWAP2 POP POP SWAP3 SWAP2 POP POP JUMP JUMPDEST PUSH0 DUP3 DUP3 MSTORE PUSH1 0x20 DUP3 ADD SWAP1 POP SWAP3 SWAP2 POP POP JUMP JUMPDEST PUSH32 0x4F2076616C6F72206EC3A36F20657374C3A12064656E74726F20646F206C696D PUSH0 DUP3 ADD MSTORE PUSH32 0x6974650000000000000000000000000000000000000000000000000000000000 PUSH1 0x20 DUP3 ADD MSTORE POP JUMP JUMPDEST PUSH0 PUSH2 0x15C PUSH1 0x23 DUP4 PUSH2 0xF2 JUMP JUMPDEST SWAP2 POP PUSH2 0x167 DUP3 PUSH2 0x102 JUMP JUMPDEST PUSH1 0x40 DUP3 ADD SWAP1 POP SWAP2 SWAP1 POP JUMP JUMPDEST PUSH0 PUSH1 0x20 DUP3 ADD SWAP1 POP DUP2 DUP2 SUB PUSH0 DUP4 ADD MSTORE PUSH2 0x189 DUP2 PUSH2 0x150 JUMP JUMPDEST SWAP1 POP SWAP2 SWAP1 POP JUMP INVALID LOG2 PUSH5 0x6970667358 0x22 SLT KECCAK256 PC CREATE2 PUSH12 0xC70DB5BC4DA7BCDD06641C08 0xC7 PUSH2 0xA878 STATICCALL PUSH26 0x22D718C4B50C0A981DC00A64736F6C634300081A003300000000 "
				},
				"gasEstimates": {
					"creation": {
						"codeDepositCost": "90800",
						"executionCost": "139",
						"totalCost": "90939"
					},
					"external": {
						"limitada(uint256)": "705"
					}
				},
				"methodIdentifiers": {
					"limitada(uint256)": "54df2935"
				}
			},
			"storageLayout": {
				"storage": [],
				"types": null
			},
			"userdoc": {
				"kind": "user",
				"methods": {},
				"version": 1
			}
		}
	}
}