{
	"contracts/ExampleError1.sol": {
		"Erros": {
			"abi": [
				{
					"inputs": [
						{
							"internalType": "uint256",
							"name": "limite",
							"type": "uint256"
						},
						{
							"internalType": "uint256",
							"name": "valorRecebido",
							"type": "uint256"
						}
					],
					"name": "outOfRange",
					"type": "error"
				},
				{
					"inputs": [
						{
							"internalType": "uint256",
							"name": "_valor",
							"type": "uint256"
						}
					],
					"name": "limitada",
					"outputs": [],
					"stateMutability": "pure",
					"type": "function"
				},
				{
					"inputs": [],
					"name": "limite",
					"outputs": [
						{
							"internalType": "uint256",
							"name": "",
							"type": "uint256"
						}
					],
					"stateMutability": "view",
					"type": "function"
				},
				{
					"inputs": [
						{
							"internalType": "uint256",
							"name": "_valor",
							"type": "uint256"
						}
					],
					"name": "recebe",
					"outputs": [],
					"stateMutability": "nonpayable",
					"type": "function"
				}
			],
			"devdoc": {
				"kind": "dev",
				"methods": {},
				"version": 1
			},
			"evm": {
				"assembly": "    /* \"contracts/ExampleError1.sol\":60:494  contract Erros {... */\n  mstore(0x40, 0x80)\n    /* \"contracts/ExampleError1.sol\":105:107  10 */\n  0x0a\n    /* \"contracts/ExampleError1.sol\":84:107  uint public limite = 10 */\n  0x00\n  sstore\n    /* \"contracts/ExampleError1.sol\":60:494  contract Erros {... */\n  callvalue\n  dup1\n  iszero\n  tag_1\n  jumpi\n  0x00\n  dup1\n  revert\ntag_1:\n  pop\n  dataSize(sub_0)\n  dup1\n  dataOffset(sub_0)\n  0x00\n  codecopy\n  0x00\n  return\nstop\n\nsub_0: assembly {\n        /* \"contracts/ExampleError1.sol\":60:494  contract Erros {... */\n      mstore(0x40, 0x80)\n      callvalue\n      dup1\n      iszero\n      tag_1\n      jumpi\n      0x00\n      dup1\n      revert\n    tag_1:\n      pop\n      jumpi(tag_2, lt(calldatasize, 0x04))\n      shr(0xe0, calldataload(0x00))\n      dup1\n      0x20eb8e53\n      eq\n      tag_3\n      jumpi\n      dup1\n      0x38045905\n      eq\n      tag_4\n      jumpi\n      dup1\n      0x54df2935\n      eq\n      tag_5\n      jumpi\n    tag_2:\n      0x00\n      dup1\n      revert\n        /* \"contracts/ExampleError1.sol\":84:107  uint public limite = 10 */\n    tag_3:\n      tag_6\n      tag_7\n      jump\t// in\n    tag_6:\n      mload(0x40)\n      tag_8\n      swap2\n      swap1\n      tag_9\n      jump\t// in\n    tag_8:\n      mload(0x40)\n      dup1\n      swap2\n      sub\n      swap1\n      return\n        /* \"contracts/ExampleError1.sol\":172:281  function recebe(uint _valor) public {... */\n    tag_4:\n      tag_10\n      0x04\n      dup1\n      calldatasize\n      sub\n      dup2\n      add\n      swap1\n      tag_11\n      swap2\n      swap1\n      tag_12\n      jump\t// in\n    tag_11:\n      tag_13\n      jump\t// in\n    tag_10:\n      stop\n        /* \"contracts/ExampleError1.sol\":289:491  function limitada(uint _valor) public pure{... */\n    tag_5:\n      tag_14\n      0x04\n      dup1\n      calldatasize\n      sub\n      dup2\n      add\n      swap1\n      tag_15\n      swap2\n      swap1\n      tag_12\n      jump\t// in\n    tag_15:\n      tag_16\n      jump\t// in\n    tag_14:\n      stop\n        /* \"contracts/ExampleError1.sol\":84:107  uint public limite = 10 */\n    tag_7:\n      sload(0x00)\n      dup2\n      jump\t// out\n        /* \"contracts/ExampleError1.sol\":172:281  function recebe(uint _valor) public {... */\n    tag_13:\n        /* \"contracts/ExampleError1.sol\":232:238  limite */\n      sload(0x00)\n        /* \"contracts/ExampleError1.sol\":223:229  _valor */\n      dup2\n        /* \"contracts/ExampleError1.sol\":223:238  _valor > limite */\n      gt\n        /* \"contracts/ExampleError1.sol\":219:273  if (_valor > limite) revert outOfRange(limite, _valor) */\n      iszero\n      tag_18\n      jumpi\n        /* \"contracts/ExampleError1.sol\":258:264  limite */\n      sload(0x00)\n        /* \"contracts/ExampleError1.sol\":266:272  _valor */\n      dup2\n        /* \"contracts/ExampleError1.sol\":247:273  outOfRange(limite, _valor) */\n      mload(0x40)\n      0xdd5bc4dc00000000000000000000000000000000000000000000000000000000\n      dup2\n      mstore\n      0x04\n      add\n      tag_19\n      swap3\n      swap2\n      swap1\n      tag_20\n      jump\t// in\n    tag_19:\n      mload(0x40)\n      dup1\n      swap2\n      sub\n      swap1\n      revert\n        /* \"contracts/ExampleError1.sol\":219:273  if (_valor > limite) revert outOfRange(limite, _valor) */\n    tag_18:\n        /* \"contracts/ExampleError1.sol\":172:281  function recebe(uint _valor) public {... */\n      pop\n      jump\t// out\n        /* \"contracts/ExampleError1.sol\":289:491  function limitada(uint _valor) public pure{... */\n    tag_16:\n        /* \"contracts/ExampleError1.sol\":427:429  10 */\n      0x0a\n        /* \"contracts/ExampleError1.sol\":418:424  _valor */\n      dup2\n        /* \"contracts/ExampleError1.sol\":418:429  _valor > 10 */\n      gt\n        /* \"contracts/ExampleError1.sol\":415:483  if(_valor > 10) revert(unicode\"O valor não está dentro do limite\") */\n      iszero\n      tag_22\n      jumpi\n        /* \"contracts/ExampleError1.sol\":431:483  revert(unicode\"O valor não está dentro do limite\") */\n      mload(0x40)\n      0x08c379a000000000000000000000000000000000000000000000000000000000\n      dup2\n      mstore\n      0x04\n      add\n      tag_23\n      swap1\n      tag_24\n      jump\t// in\n    tag_23:\n      mload(0x40)\n      dup1\n      swap2\n      sub\n      swap1\n      revert\n        /* \"contracts/ExampleError1.sol\":415:483  if(_valor > 10) revert(unicode\"O valor não está dentro do limite\") */\n    tag_22:\n        /* \"contracts/ExampleError1.sol\":289:491  function limitada(uint _valor) public pure{... */\n      pop\n      jump\t// out\n        /* \"#utility.yul\":7:84   */\n    tag_25:\n        /* \"#utility.yul\":44:51   */\n      0x00\n        /* \"#utility.yul\":73:78   */\n      dup2\n        /* \"#utility.yul\":62:78   */\n      swap1\n      pop\n        /* \"#utility.yul\":7:84   */\n      swap2\n      swap1\n      pop\n      jump\t// out\n        /* \"#utility.yul\":90:208   */\n    tag_26:\n        /* \"#utility.yul\":177:201   */\n      tag_38\n        /* \"#utility.yul\":195:200   */\n      dup2\n        /* \"#utility.yul\":177:201   */\n      tag_25\n      jump\t// in\n    tag_38:\n        /* \"#utility.yul\":172:175   */\n      dup3\n        /* \"#utility.yul\":165:202   */\n      mstore\n        /* \"#utility.yul\":90:208   */\n      pop\n      pop\n      jump\t// out\n        /* \"#utility.yul\":214:436   */\n    tag_9:\n        /* \"#utility.yul\":307:311   */\n      0x00\n        /* \"#utility.yul\":345:347   */\n      0x20\n        /* \"#utility.yul\":334:343   */\n      dup3\n        /* \"#utility.yul\":330:348   */\n      add\n        /* \"#utility.yul\":322:348   */\n      swap1\n      pop\n        /* \"#utility.yul\":358:429   */\n      tag_40\n        /* \"#utility.yul\":426:427   */\n      0x00\n        /* \"#utility.yul\":415:424   */\n      dup4\n        /* \"#utility.yul\":411:428   */\n      add\n        /* \"#utility.yul\":402:408   */\n      dup5\n        /* \"#utility.yul\":358:429   */\n      tag_26\n      jump\t// in\n    tag_40:\n        /* \"#utility.yul\":214:436   */\n      swap3\n      swap2\n      pop\n      pop\n      jump\t// out\n        /* \"#utility.yul\":523:640   */\n    tag_28:\n        /* \"#utility.yul\":632:633   */\n      0x00\n        /* \"#utility.yul\":629:630   */\n      dup1\n        /* \"#utility.yul\":622:634   */\n      revert\n        /* \"#utility.yul\":769:891   */\n    tag_30:\n        /* \"#utility.yul\":842:866   */\n      tag_45\n        /* \"#utility.yul\":860:865   */\n      dup2\n        /* \"#utility.yul\":842:866   */\n      tag_25\n      jump\t// in\n    tag_45:\n        /* \"#utility.yul\":835:840   */\n      dup2\n        /* \"#utility.yul\":832:867   */\n      eq\n        /* \"#utility.yul\":822:885   */\n      tag_46\n      jumpi\n        /* \"#utility.yul\":881:882   */\n      0x00\n        /* \"#utility.yul\":878:879   */\n      dup1\n        /* \"#utility.yul\":871:883   */\n      revert\n        /* \"#utility.yul\":822:885   */\n    tag_46:\n        /* \"#utility.yul\":769:891   */\n      pop\n      jump\t// out\n        /* \"#utility.yul\":897:1036   */\n    tag_31:\n        /* \"#utility.yul\":943:948   */\n      0x00\n        /* \"#utility.yul\":981:987   */\n      dup2\n        /* \"#utility.yul\":968:988   */\n      calldataload\n        /* \"#utility.yul\":959:988   */\n      swap1\n      pop\n        /* \"#utility.yul\":997:1030   */\n      tag_48\n        /* \"#utility.yul\":1024:1029   */\n      dup2\n        /* \"#utility.yul\":997:1030   */\n      tag_30\n      jump\t// in\n    tag_48:\n        /* \"#utility.yul\":897:1036   */\n      swap3\n      swap2\n      pop\n      pop\n      jump\t// out\n        /* \"#utility.yul\":1042:1371   */\n    tag_12:\n        /* \"#utility.yul\":1101:1107   */\n      0x00\n        /* \"#utility.yul\":1150:1152   */\n      0x20\n        /* \"#utility.yul\":1138:1147   */\n      dup3\n        /* \"#utility.yul\":1129:1136   */\n      dup5\n        /* \"#utility.yul\":1125:1148   */\n      sub\n        /* \"#utility.yul\":1121:1153   */\n      slt\n        /* \"#utility.yul\":1118:1237   */\n      iszero\n      tag_50\n      jumpi\n        /* \"#utility.yul\":1156:1235   */\n      tag_51\n      tag_28\n      jump\t// in\n    tag_51:\n        /* \"#utility.yul\":1118:1237   */\n    tag_50:\n        /* \"#utility.yul\":1276:1277   */\n      0x00\n        /* \"#utility.yul\":1301:1354   */\n      tag_52\n        /* \"#utility.yul\":1346:1353   */\n      dup5\n        /* \"#utility.yul\":1337:1343   */\n      dup3\n        /* \"#utility.yul\":1326:1335   */\n      dup6\n        /* \"#utility.yul\":1322:1344   */\n      add\n        /* \"#utility.yul\":1301:1354   */\n      tag_31\n      jump\t// in\n    tag_52:\n        /* \"#utility.yul\":1291:1354   */\n      swap2\n      pop\n        /* \"#utility.yul\":1247:1364   */\n      pop\n        /* \"#utility.yul\":1042:1371   */\n      swap3\n      swap2\n      pop\n      pop\n      jump\t// out\n        /* \"#utility.yul\":1377:1709   */\n    tag_20:\n        /* \"#utility.yul\":1498:1502   */\n      0x00\n        /* \"#utility.yul\":1536:1538   */\n      0x40\n        /* \"#utility.yul\":1525:1534   */\n      dup3\n        /* \"#utility.yul\":1521:1539   */\n      add\n        /* \"#utility.yul\":1513:1539   */\n      swap1\n      pop\n        /* \"#utility.yul\":1549:1620   */\n      tag_54\n        /* \"#utility.yul\":1617:1618   */\n      0x00\n        /* \"#utility.yul\":1606:1615   */\n      dup4\n        /* \"#utility.yul\":1602:1619   */\n      add\n        /* \"#utility.yul\":1593:1599   */\n      dup6\n        /* \"#utility.yul\":1549:1620   */\n      tag_26\n      jump\t// in\n    tag_54:\n        /* \"#utility.yul\":1630:1702   */\n      tag_55\n        /* \"#utility.yul\":1698:1700   */\n      0x20\n        /* \"#utility.yul\":1687:1696   */\n      dup4\n        /* \"#utility.yul\":1683:1701   */\n      add\n        /* \"#utility.yul\":1674:1680   */\n      dup5\n        /* \"#utility.yul\":1630:1702   */\n      tag_26\n      jump\t// in\n    tag_55:\n        /* \"#utility.yul\":1377:1709   */\n      swap4\n      swap3\n      pop\n      pop\n      pop\n      jump\t// out\n        /* \"#utility.yul\":1715:1884   */\n    tag_32:\n        /* \"#utility.yul\":1799:1810   */\n      0x00\n        /* \"#utility.yul\":1833:1839   */\n      dup3\n        /* \"#utility.yul\":1828:1831   */\n      dup3\n        /* \"#utility.yul\":1821:1840   */\n      mstore\n        /* \"#utility.yul\":1873:1877   */\n      0x20\n        /* \"#utility.yul\":1868:1871   */\n      dup3\n        /* \"#utility.yul\":1864:1878   */\n      add\n        /* \"#utility.yul\":1849:1878   */\n      swap1\n      pop\n        /* \"#utility.yul\":1715:1884   */\n      swap3\n      swap2\n      pop\n      pop\n      jump\t// out\n        /* \"#utility.yul\":1890:2144   */\n    tag_33:\n        /* \"#utility.yul\":2030:2096   */\n      0x4f2076616c6f72206ec3a36f20657374c3a12064656e74726f20646f206c696d\n        /* \"#utility.yul\":2026:2027   */\n      0x00\n        /* \"#utility.yul\":2018:2024   */\n      dup3\n        /* \"#utility.yul\":2014:2028   */\n      add\n        /* \"#utility.yul\":2007:2097   */\n      mstore\n        /* \"#utility.yul\":2131:2136   */\n      0x6974650000000000000000000000000000000000000000000000000000000000\n        /* \"#utility.yul\":2126:2128   */\n      0x20\n        /* \"#utility.yul\":2118:2124   */\n      dup3\n        /* \"#utility.yul\":2114:2129   */\n      add\n        /* \"#utility.yul\":2107:2137   */\n      mstore\n        /* \"#utility.yul\":1890:2144   */\n      pop\n      jump\t// out\n        /* \"#utility.yul\":2150:2516   */\n    tag_34:\n        /* \"#utility.yul\":2292:2295   */\n      0x00\n        /* \"#utility.yul\":2313:2380   */\n      tag_59\n        /* \"#utility.yul\":2377:2379   */\n      0x23\n        /* \"#utility.yul\":2372:2375   */\n      dup4\n        /* \"#utility.yul\":2313:2380   */\n      tag_32\n      jump\t// in\n    tag_59:\n        /* \"#utility.yul\":2306:2380   */\n      swap2\n      pop\n        /* \"#utility.yul\":2389:2482   */\n      tag_60\n        /* \"#utility.yul\":2478:2481   */\n      dup3\n        /* \"#utility.yul\":2389:2482   */\n      tag_33\n      jump\t// in\n    tag_60:\n        /* \"#utility.yul\":2507:2509   */\n      0x40\n        /* \"#utility.yul\":2502:2505   */\n      dup3\n        /* \"#utility.yul\":2498:2510   */\n      add\n        /* \"#utility.yul\":2491:2510   */\n      swap1\n      pop\n        /* \"#utility.yul\":2150:2516   */\n      swap2\n      swap1\n      pop\n      jump\t// out\n        /* \"#utility.yul\":2522:2941   */\n    tag_24:\n        /* \"#utility.yul\":2688:2692   */\n      0x00\n        /* \"#utility.yul\":2726:2728   */\n      0x20\n        /* \"#utility.yul\":2715:2724   */\n      dup3\n        /* \"#utility.yul\":2711:2729   */\n      add\n        /* \"#utility.yul\":2703:2729   */\n      swap1\n      pop\n        /* \"#utility.yul\":2775:2784   */\n      dup2\n        /* \"#utility.yul\":2769:2773   */\n      dup2\n        /* \"#utility.yul\":2765:2785   */\n      sub\n        /* \"#utility.yul\":2761:2762   */\n      0x00\n        /* \"#utility.yul\":2750:2759   */\n      dup4\n        /* \"#utility.yul\":2746:2763   */\n      add\n        /* \"#utility.yul\":2739:2786   */\n      mstore\n        /* \"#utility.yul\":2803:2934   */\n      tag_62\n        /* \"#utility.yul\":2929:2933   */\n      dup2\n        /* \"#utility.yul\":2803:2934   */\n      tag_34\n      jump\t// in\n    tag_62:\n        /* \"#utility.yul\":2795:2934   */\n      swap1\n      pop\n        /* \"#utility.yul\":2522:2941   */\n      swap2\n      swap1\n      pop\n      jump\t// out\n\n    auxdata: 0xa264697066735822122041264d243e01d42d78caefa1b49aad8363fa10557b30656ce20e10484b8384dc64736f6c634300081a0033\n}\n",
				"bytecode": {
					"linkReferences": {},
					"object": "6080604052600a5f553480156012575f80fd5b506102b6806100205f395ff3fe608060405234801561000f575f80fd5b506004361061003f575f3560e01c806320eb8e5314610043578063380459051461006157806354df29351461007d575b5f80fd5b61004b610099565b6040516100589190610149565b60405180910390f35b61007b60048036038101906100769190610190565b61009e565b005b61009760048036038101906100929190610190565b6100ea565b005b5f5481565b5f548111156100e7575f54816040517fdd5bc4dc0000000000000000000000000000000000000000000000000000000081526004016100de9291906101bb565b60405180910390fd5b50565b600a81111561012e576040517f08c379a000000000000000000000000000000000000000000000000000000000815260040161012590610262565b60405180910390fd5b50565b5f819050919050565b61014381610131565b82525050565b5f60208201905061015c5f83018461013a565b92915050565b5f80fd5b61016f81610131565b8114610179575f80fd5b50565b5f8135905061018a81610166565b92915050565b5f602082840312156101a5576101a4610162565b5b5f6101b28482850161017c565b91505092915050565b5f6040820190506101ce5f83018561013a565b6101db602083018461013a565b9392505050565b5f82825260208201905092915050565b7f4f2076616c6f72206ec3a36f20657374c3a12064656e74726f20646f206c696d5f8201527f6974650000000000000000000000000000000000000000000000000000000000602082015250565b5f61024c6023836101e2565b9150610257826101f2565b604082019050919050565b5f6020820190508181035f83015261027981610240565b905091905056fea264697066735822122041264d243e01d42d78caefa1b49aad8363fa10557b30656ce20e10484b8384dc64736f6c634300081a0033",
					"opcodes": "PUSH1 0x80 PUSH1 0x40 MSTORE PUSH1 0xA PUSH0 SSTORE CALLVALUE DUP1 ISZERO PUSH1 0x12 JUMPI PUSH0 DUP1 REVERT JUMPDEST POP PUSH2 0x2B6 DUP1 PUSH2 0x20 PUSH0 CODECOPY PUSH0 RETURN INVALID PUSH1 0x80 PUSH1 0x40 MSTORE CALLVALUE DUP1 ISZERO PUSH2 0xF JUMPI PUSH0 DUP1 REVERT JUMPDEST POP PUSH1 0x4 CALLDATASIZE LT PUSH2 0x3F JUMPI PUSH0 CALLDATALOAD PUSH1 0xE0 SHR DUP1 PUSH4 0x20EB8E53 EQ PUSH2 0x43 JUMPI DUP1 PUSH4 0x38045905 EQ PUSH2 0x61 JUMPI DUP1 PUSH4 0x54DF2935 EQ PUSH2 0x7D JUMPI JUMPDEST PUSH0 DUP1 REVERT JUMPDEST PUSH2 0x4B PUSH2 0x99 JUMP JUMPDEST PUSH1 0x40 MLOAD PUSH2 0x58 SWAP2 SWAP1 PUSH2 0x149 JUMP JUMPDEST PUSH1 0x40 MLOAD DUP1 SWAP2 SUB SWAP1 RETURN JUMPDEST PUSH2 0x7B PUSH1 0x4 DUP1 CALLDATASIZE SUB DUP2 ADD SWAP1 PUSH2 0x76 SWAP2 SWAP1 PUSH2 0x190 JUMP JUMPDEST PUSH2 0x9E JUMP JUMPDEST STOP JUMPDEST PUSH2 0x97 PUSH1 0x4 DUP1 CALLDATASIZE SUB DUP2 ADD SWAP1 PUSH2 0x92 SWAP2 SWAP1 PUSH2 0x190 JUMP JUMPDEST PUSH2 0xEA JUMP JUMPDEST STOP JUMPDEST PUSH0 SLOAD DUP2 JUMP JUMPDEST PUSH0 SLOAD DUP2 GT ISZERO PUSH2 0xE7 JUMPI PUSH0 SLOAD DUP2 PUSH1 0x40 MLOAD PUSH32 0xDD5BC4DC00000000000000000000000000000000000000000000000000000000 DUP2 MSTORE PUSH1 0x4 ADD PUSH2 0xDE SWAP3 SWAP2 SWAP1 PUSH2 0x1BB JUMP JUMPDEST PUSH1 0x40 MLOAD DUP1 SWAP2 SUB SWAP1 REVERT JUMPDEST POP JUMP JUMPDEST PUSH1 0xA DUP2 GT ISZERO PUSH2 0x12E JUMPI PUSH1 0x40 MLOAD PUSH32 0x8C379A000000000000000000000000000000000000000000000000000000000 DUP2 MSTORE PUSH1 0x4 ADD PUSH2 0x125 SWAP1 PUSH2 0x262 JUMP JUMPDEST PUSH1 0x40 MLOAD DUP1 SWAP2 SUB SWAP1 REVERT JUMPDEST POP JUMP JUMPDEST PUSH0 DUP2 SWAP1 POP SWAP2 SWAP1 POP JUMP JUMPDEST PUSH2 0x143 DUP2 PUSH2 0x131 JUMP JUMPDEST DUP3 MSTORE POP POP JUMP JUMPDEST PUSH0 PUSH1 0x20 DUP3 ADD SWAP1 POP PUSH2 0x15C PUSH0 DUP4 ADD DUP5 PUSH2 0x13A JUMP JUMPDEST SWAP3 SWAP2 POP POP JUMP JUMPDEST PUSH0 DUP1 REVERT JUMPDEST PUSH2 0x16F DUP2 PUSH2 0x131 JUMP JUMPDEST DUP2 EQ PUSH2 0x179 JUMPI PUSH0 DUP1 REVERT JUMPDEST POP JUMP JUMPDEST PUSH0 DUP2 CALLDATALOAD SWAP1 POP PUSH2 0x18A DUP2 PUSH2 0x166 JUMP JUMPDEST SWAP3 SWAP2 POP POP JUMP JUMPDEST PUSH0 PUSH1 0x20 DUP3 DUP5 SUB SLT ISZERO PUSH2 0x1A5 JUMPI PUSH2 0x1A4 PUSH2 0x162 JUMP JUMPDEST JUMPDEST PUSH0 PUSH2 0x1B2 DUP5 DUP3 DUP6 ADD PUSH2 0x17C JUMP JUMPDEST SWAP2 POP POP SWAP3 SWAP2 POP POP JUMP JUMPDEST PUSH0 PUSH1 0x40 DUP3 ADD SWAP1 POP PUSH2 0x1CE PUSH0 DUP4 ADD DUP6 PUSH2 0x13A JUMP JUMPDEST PUSH2 0x1DB PUSH1 0x20 DUP4 ADD DUP5 PUSH2 0x13A JUMP JUMPDEST SWAP4 SWAP3 POP POP POP JUMP JUMPDEST PUSH0 DUP3 DUP3 MSTORE PUSH1 0x20 DUP3 ADD SWAP1 POP SWAP3 SWAP2 POP POP JUMP JUMPDEST PUSH32 0x4F2076616C6F72206EC3A36F20657374C3A12064656E74726F20646F206C696D PUSH0 DUP3 ADD MSTORE PUSH32 0x6974650000000000000000000000000000000000000000000000000000000000 PUSH1 0x20 DUP3 ADD MSTORE POP JUMP JUMPDEST PUSH0 PUSH2 0x24C PUSH1 0x23 DUP4 PUSH2 0x1E2 JUMP JUMPDEST SWAP2 POP PUSH2 0x257 DUP3 PUSH2 0x1F2 JUMP JUMPDEST PUSH1 0x40 DUP3 ADD SWAP1 POP SWAP2 SWAP1 POP JUMP JUMPDEST PUSH0 PUSH1 0x20 DUP3 ADD SWAP1 POP DUP2 DUP2 SUB PUSH0 DUP4 ADD MSTORE PUSH2 0x279 DUP2 PUSH2 0x240 JUMP JUMPDEST SWAP1 POP SWAP2 SWAP1 POP JUMP INVALID LOG2 PUSH5 0x6970667358 0x22 SLT KECCAK256 COINBASE 0x26 0x4D 0x24 RETURNDATACOPY ADD 0xD4 0x2D PUSH25 0xCAEFA1B49AAD8363FA10557B30656CE20E10484B8384DC6473 PUSH16 0x6C634300081A00330000000000000000 "
				},
				"gasEstimates": {
					"creation": {
						"codeDepositCost": "138800",
						"executionCost": "22286",
						"totalCost": "161086"
					},
					"external": {
						"limitada(uint256)": "749",
						"limite()": "2402",
						"recebe(uint256)": "infinite"
					}
				},
				"methodIdentifiers": {
					"limitada(uint256)": "54df2935",
					"limite()": "20eb8e53",
					"recebe(uint256)": "38045905"
				}
			},
			"storageLayout": {
				"storage": [
					{
						"astId": 4,
						"contract": "contracts/ExampleError1.sol:Erros",
						"label": "limite",
						"offset": 0,
						"slot": "0",
						"type": "t_uint256"
					}
				],
				"types": {
					"t_uint256": {
						"encoding": "inplace",
						"label": "uint256",
						"numberOfBytes": "32"
					}
				}
			},
			"userdoc": {
				"kind": "user",
				"methods": {},
				"version": 1
			}
		}
	}
}