{
	"contracts/SmartContractWallet.sol": {
		"SmartContractWallet": {
			"abi": [
				{
					"inputs": [],
					"stateMutability": "nonpayable",
					"type": "constructor"
				},
				{
					"inputs": [
						{
							"internalType": "address",
							"name": "",
							"type": "address"
						}
					],
					"name": "allowance",
					"outputs": [
						{
							"internalType": "uint256",
							"name": "",
							"type": "uint256"
						}
					],
					"stateMutability": "view",
					"type": "function"
				},
				{
					"inputs": [],
					"name": "confirmationsFromGuardiansForReset",
					"outputs": [
						{
							"internalType": "uint256",
							"name": "",
							"type": "uint256"
						}
					],
					"stateMutability": "view",
					"type": "function"
				},
				{
					"inputs": [
						{
							"internalType": "address",
							"name": "_from",
							"type": "address"
						}
					],
					"name": "denySending",
					"outputs": [],
					"stateMutability": "nonpayable",
					"type": "function"
				},
				{
					"inputs": [
						{
							"internalType": "address",
							"name": "",
							"type": "address"
						}
					],
					"name": "guardian",
					"outputs": [
						{
							"internalType": "bool",
							"name": "",
							"type": "bool"
						}
					],
					"stateMutability": "view",
					"type": "function"
				},
				{
					"inputs": [
						{
							"internalType": "address",
							"name": "",
							"type": "address"
						}
					],
					"name": "isAllowedToSend",
					"outputs": [
						{
							"internalType": "bool",
							"name": "",
							"type": "bool"
						}
					],
					"stateMutability": "view",
					"type": "function"
				},
				{
					"inputs": [
						{
							"internalType": "address payable",
							"name": "newOwner",
							"type": "address"
						}
					],
					"name": "proposeNewOwner",
					"outputs": [],
					"stateMutability": "nonpayable",
					"type": "function"
				},
				{
					"inputs": [
						{
							"internalType": "address",
							"name": "_from",
							"type": "address"
						},
						{
							"internalType": "uint256",
							"name": "_amount",
							"type": "uint256"
						}
					],
					"name": "setAllowance",
					"outputs": [],
					"stateMutability": "nonpayable",
					"type": "function"
				},
				{
					"inputs": [
						{
							"internalType": "address payable",
							"name": "_to",
							"type": "address"
						},
						{
							"internalType": "uint256",
							"name": "_amount",
							"type": "uint256"
						},
						{
							"internalType": "bytes",
							"name": "payload",
							"type": "bytes"
						}
					],
					"name": "transfer",
					"outputs": [
						{
							"internalType": "bytes",
							"name": "",
							"type": "bytes"
						}
					],
					"stateMutability": "nonpayable",
					"type": "function"
				},
				{
					"stateMutability": "payable",
					"type": "receive"
				}
			],
			"devdoc": {
				"kind": "dev",
				"methods": {},
				"version": 1
			},
			"evm": {
				"assembly": "    /* \"contracts/SmartContractWallet.sol\":60:4286  contract SmartContractWallet {... */\n  mstore(0x40, 0x80)\n    /* \"contracts/SmartContractWallet.sol\":939:999  constructor() {... */\n  callvalue\n  dup1\n  iszero\n  tag_1\n  jumpi\n  0x00\n  dup1\n  revert\ntag_1:\n  pop\n    /* \"contracts/SmartContractWallet.sol\":980:990  msg.sender */\n  caller\n    /* \"contracts/SmartContractWallet.sol\":964:969  owner */\n  0x00\n  dup1\n    /* \"contracts/SmartContractWallet.sol\":964:991  owner = payable(msg.sender) */\n  0x0100\n  exp\n  dup2\n  sload\n  dup2\n  0xffffffffffffffffffffffffffffffffffffffff\n  mul\n  not\n  and\n  swap1\n  dup4\n  0xffffffffffffffffffffffffffffffffffffffff\n  and\n  mul\n  or\n  swap1\n  sstore\n  pop\n    /* \"contracts/SmartContractWallet.sol\":60:4286  contract SmartContractWallet {... */\n  dataSize(sub_0)\n  dup1\n  dataOffset(sub_0)\n  0x00\n  codecopy\n  0x00\n  return\nstop\n\nsub_0: assembly {\n        /* \"contracts/SmartContractWallet.sol\":60:4286  contract SmartContractWallet {... */\n      mstore(0x40, 0x80)\n      jumpi(tag_1, lt(calldatasize, 0x04))\n      shr(0xe0, calldataload(0x00))\n      dup1\n      0x83012be1\n      gt\n      tag_11\n      jumpi\n      dup1\n      0x83012be1\n      eq\n      tag_7\n      jumpi\n      dup1\n      0xb1f8100d\n      eq\n      tag_8\n      jumpi\n      dup1\n      0xbe45fd62\n      eq\n      tag_9\n      jumpi\n      dup1\n      0xf29e2236\n      eq\n      tag_10\n      jumpi\n      jump(tag_2)\n    tag_11:\n      dup1\n      0x0bc605ad\n      eq\n      tag_3\n      jumpi\n      dup1\n      0x310ec4a7\n      eq\n      tag_4\n      jumpi\n      dup1\n      0x3e5beab9\n      eq\n      tag_5\n      jumpi\n      dup1\n      0x7673de53\n      eq\n      tag_6\n      jumpi\n      jump(tag_2)\n    tag_1:\n      jumpi(tag_2, calldatasize)\n      stop\n    tag_2:\n      0x00\n      dup1\n      revert\n        /* \"contracts/SmartContractWallet.sol\":278:325  mapping(address => bool) public isAllowedToSend */\n    tag_3:\n      callvalue\n      dup1\n      iszero\n      tag_14\n      jumpi\n      0x00\n      dup1\n      revert\n    tag_14:\n      pop\n      tag_15\n      0x04\n      dup1\n      calldatasize\n      sub\n      dup2\n      add\n      swap1\n      tag_16\n      swap2\n      swap1\n      tag_17\n      jump\t// in\n    tag_16:\n      tag_18\n      jump\t// in\n    tag_15:\n      mload(0x40)\n      tag_19\n      swap2\n      swap1\n      tag_20\n      jump\t// in\n    tag_19:\n      mload(0x40)\n      dup1\n      swap2\n      sub\n      swap1\n      return\n        /* \"contracts/SmartContractWallet.sol\":2072:2434  function setAllowance(address _from, uint _amount) public {... */\n    tag_4:\n      callvalue\n      dup1\n      iszero\n      tag_21\n      jumpi\n      0x00\n      dup1\n      revert\n    tag_21:\n      pop\n      tag_22\n      0x04\n      dup1\n      calldatasize\n      sub\n      dup2\n      add\n      swap1\n      tag_23\n      swap2\n      swap1\n      tag_24\n      jump\t// in\n    tag_23:\n      tag_25\n      jump\t// in\n    tag_22:\n      stop\n        /* \"contracts/SmartContractWallet.sol\":179:220  mapping(address => uint) public allowance */\n    tag_5:\n      callvalue\n      dup1\n      iszero\n      tag_26\n      jumpi\n      0x00\n      dup1\n      revert\n    tag_26:\n      pop\n      tag_27\n      0x04\n      dup1\n      calldatasize\n      sub\n      dup2\n      add\n      swap1\n      tag_28\n      swap2\n      swap1\n      tag_17\n      jump\t// in\n    tag_28:\n      tag_29\n      jump\t// in\n    tag_27:\n      mload(0x40)\n      tag_30\n      swap2\n      swap1\n      tag_31\n      jump\t// in\n    tag_30:\n      mload(0x40)\n      dup1\n      swap2\n      sub\n      swap1\n      return\n        /* \"contracts/SmartContractWallet.sol\":2524:2774  function denySending(address _from) public {... */\n    tag_6:\n      callvalue\n      dup1\n      iszero\n      tag_32\n      jumpi\n      0x00\n      dup1\n      revert\n    tag_32:\n      pop\n      tag_33\n      0x04\n      dup1\n      calldatasize\n      sub\n      dup2\n      add\n      swap1\n      tag_34\n      swap2\n      swap1\n      tag_17\n      jump\t// in\n    tag_34:\n      tag_35\n      jump\t// in\n    tag_33:\n      stop\n        /* \"contracts/SmartContractWallet.sol\":746:805  uint public constant confirmationsFromGuardiansForReset = 3 */\n    tag_7:\n      callvalue\n      dup1\n      iszero\n      tag_36\n      jumpi\n      0x00\n      dup1\n      revert\n    tag_36:\n      pop\n      tag_37\n      tag_38\n      jump\t// in\n    tag_37:\n      mload(0x40)\n      tag_39\n      swap2\n      swap1\n      tag_31\n      jump\t// in\n    tag_39:\n      mload(0x40)\n      dup1\n      swap2\n      sub\n      swap1\n      return\n        /* \"contracts/SmartContractWallet.sol\":1087:1976  function proposeNewOwner(address payable newOwner) public {... */\n    tag_8:\n      callvalue\n      dup1\n      iszero\n      tag_40\n      jumpi\n      0x00\n      dup1\n      revert\n    tag_40:\n      pop\n      tag_41\n      0x04\n      dup1\n      calldatasize\n      sub\n      dup2\n      add\n      swap1\n      tag_42\n      swap2\n      swap1\n      tag_43\n      jump\t// in\n    tag_42:\n      tag_44\n      jump\t// in\n    tag_41:\n      stop\n        /* \"contracts/SmartContractWallet.sol\":2834:4179  function transfer(address payable _to, uint _amount, bytes memory payload) public returns (bytes memory) {... */\n    tag_9:\n      callvalue\n      dup1\n      iszero\n      tag_45\n      jumpi\n      0x00\n      dup1\n      revert\n    tag_45:\n      pop\n      tag_46\n      0x04\n      dup1\n      calldatasize\n      sub\n      dup2\n      add\n      swap1\n      tag_47\n      swap2\n      swap1\n      tag_48\n      jump\t// in\n    tag_47:\n      tag_49\n      jump\t// in\n    tag_46:\n      mload(0x40)\n      tag_50\n      swap2\n      swap1\n      tag_51\n      jump\t// in\n    tag_50:\n      mload(0x40)\n      dup1\n      swap2\n      sub\n      swap1\n      return\n        /* \"contracts/SmartContractWallet.sol\":462:502  mapping(address => bool) public guardian */\n    tag_10:\n      callvalue\n      dup1\n      iszero\n      tag_52\n      jumpi\n      0x00\n      dup1\n      revert\n    tag_52:\n      pop\n      tag_53\n      0x04\n      dup1\n      calldatasize\n      sub\n      dup2\n      add\n      swap1\n      tag_54\n      swap2\n      swap1\n      tag_17\n      jump\t// in\n    tag_54:\n      tag_55\n      jump\t// in\n    tag_53:\n      mload(0x40)\n      tag_56\n      swap2\n      swap1\n      tag_20\n      jump\t// in\n    tag_56:\n      mload(0x40)\n      dup1\n      swap2\n      sub\n      swap1\n      return\n        /* \"contracts/SmartContractWallet.sol\":278:325  mapping(address => bool) public isAllowedToSend */\n    tag_18:\n      mstore(0x20, 0x02)\n      dup1\n      0x00\n      mstore\n      keccak256(0x00, 0x40)\n      0x00\n      swap2\n      pop\n      sload\n      swap1\n      0x0100\n      exp\n      swap1\n      div\n      0xff\n      and\n      dup2\n      jump\t// out\n        /* \"contracts/SmartContractWallet.sol\":2072:2434  function setAllowance(address _from, uint _amount) public {... */\n    tag_25:\n        /* \"contracts/SmartContractWallet.sol\":2226:2231  owner */\n      0x00\n      dup1\n      sload\n      swap1\n      0x0100\n      exp\n      swap1\n      div\n      0xffffffffffffffffffffffffffffffffffffffff\n      and\n        /* \"contracts/SmartContractWallet.sol\":2212:2231  msg.sender == owner */\n      0xffffffffffffffffffffffffffffffffffffffff\n      and\n        /* \"contracts/SmartContractWallet.sol\":2212:2222  msg.sender */\n      caller\n        /* \"contracts/SmartContractWallet.sol\":2212:2231  msg.sender == owner */\n      0xffffffffffffffffffffffffffffffffffffffff\n      and\n      eq\n        /* \"contracts/SmartContractWallet.sol\":2204:2268  require(msg.sender == owner, \"You are not the owner, aborting!\") */\n      tag_58\n      jumpi\n      mload(0x40)\n      0x08c379a000000000000000000000000000000000000000000000000000000000\n      dup2\n      mstore\n      0x04\n      add\n      tag_59\n      swap1\n      tag_60\n      jump\t// in\n    tag_59:\n      mload(0x40)\n      dup1\n      swap2\n      sub\n      swap1\n      revert\n    tag_58:\n        /* \"contracts/SmartContractWallet.sol\":2298:2305  _amount */\n      dup1\n        /* \"contracts/SmartContractWallet.sol\":2279:2288  allowance */\n      0x01\n        /* \"contracts/SmartContractWallet.sol\":2279:2295  allowance[_from] */\n      0x00\n        /* \"contracts/SmartContractWallet.sol\":2289:2294  _from */\n      dup5\n        /* \"contracts/SmartContractWallet.sol\":2279:2295  allowance[_from] */\n      0xffffffffffffffffffffffffffffffffffffffff\n      and\n      0xffffffffffffffffffffffffffffffffffffffff\n      and\n      dup2\n      mstore\n      0x20\n      add\n      swap1\n      dup2\n      mstore\n      0x20\n      add\n      0x00\n      keccak256\n        /* \"contracts/SmartContractWallet.sol\":2279:2305  allowance[_from] = _amount */\n      dup2\n      swap1\n      sstore\n      pop\n        /* \"contracts/SmartContractWallet.sol\":2387:2391  true */\n      0x01\n        /* \"contracts/SmartContractWallet.sol\":2362:2377  isAllowedToSend */\n      0x02\n        /* \"contracts/SmartContractWallet.sol\":2362:2384  isAllowedToSend[_from] */\n      0x00\n        /* \"contracts/SmartContractWallet.sol\":2378:2383  _from */\n      dup5\n        /* \"contracts/SmartContractWallet.sol\":2362:2384  isAllowedToSend[_from] */\n      0xffffffffffffffffffffffffffffffffffffffff\n      and\n      0xffffffffffffffffffffffffffffffffffffffff\n      and\n      dup2\n      mstore\n      0x20\n      add\n      swap1\n      dup2\n      mstore\n      0x20\n      add\n      0x00\n      keccak256\n      0x00\n        /* \"contracts/SmartContractWallet.sol\":2362:2391  isAllowedToSend[_from] = true */\n      0x0100\n      exp\n      dup2\n      sload\n      dup2\n      0xff\n      mul\n      not\n      and\n      swap1\n      dup4\n      iszero\n      iszero\n      mul\n      or\n      swap1\n      sstore\n      pop\n        /* \"contracts/SmartContractWallet.sol\":2072:2434  function setAllowance(address _from, uint _amount) public {... */\n      pop\n      pop\n      jump\t// out\n        /* \"contracts/SmartContractWallet.sol\":179:220  mapping(address => uint) public allowance */\n    tag_29:\n      mstore(0x20, 0x01)\n      dup1\n      0x00\n      mstore\n      keccak256(0x00, 0x40)\n      0x00\n      swap2\n      pop\n      swap1\n      pop\n      sload\n      dup2\n      jump\t// out\n        /* \"contracts/SmartContractWallet.sol\":2524:2774  function denySending(address _from) public {... */\n    tag_35:\n        /* \"contracts/SmartContractWallet.sol\":2660:2665  owner */\n      0x00\n      dup1\n      sload\n      swap1\n      0x0100\n      exp\n      swap1\n      div\n      0xffffffffffffffffffffffffffffffffffffffff\n      and\n        /* \"contracts/SmartContractWallet.sol\":2646:2665  msg.sender == owner */\n      0xffffffffffffffffffffffffffffffffffffffff\n      and\n        /* \"contracts/SmartContractWallet.sol\":2646:2656  msg.sender */\n      caller\n        /* \"contracts/SmartContractWallet.sol\":2646:2665  msg.sender == owner */\n      0xffffffffffffffffffffffffffffffffffffffff\n      and\n      eq\n        /* \"contracts/SmartContractWallet.sol\":2638:2702  require(msg.sender == owner, \"You are not the owner, aborting!\") */\n      tag_62\n      jumpi\n      mload(0x40)\n      0x08c379a000000000000000000000000000000000000000000000000000000000\n      dup2\n      mstore\n      0x04\n      add\n      tag_63\n      swap1\n      tag_60\n      jump\t// in\n    tag_63:\n      mload(0x40)\n      dup1\n      swap2\n      sub\n      swap1\n      revert\n    tag_62:\n        /* \"contracts/SmartContractWallet.sol\":2738:2743  false */\n      0x00\n        /* \"contracts/SmartContractWallet.sol\":2713:2728  isAllowedToSend */\n      0x02\n        /* \"contracts/SmartContractWallet.sol\":2713:2735  isAllowedToSend[_from] */\n      0x00\n        /* \"contracts/SmartContractWallet.sol\":2729:2734  _from */\n      dup4\n        /* \"contracts/SmartContractWallet.sol\":2713:2735  isAllowedToSend[_from] */\n      0xffffffffffffffffffffffffffffffffffffffff\n      and\n      0xffffffffffffffffffffffffffffffffffffffff\n      and\n      dup2\n      mstore\n      0x20\n      add\n      swap1\n      dup2\n      mstore\n      0x20\n      add\n      0x00\n      keccak256\n      0x00\n        /* \"contracts/SmartContractWallet.sol\":2713:2743  isAllowedToSend[_from] = false */\n      0x0100\n      exp\n      dup2\n      sload\n      dup2\n      0xff\n      mul\n      not\n      and\n      swap1\n      dup4\n      iszero\n      iszero\n      mul\n      or\n      swap1\n      sstore\n      pop\n        /* \"contracts/SmartContractWallet.sol\":2524:2774  function denySending(address _from) public {... */\n      pop\n      jump\t// out\n        /* \"contracts/SmartContractWallet.sol\":746:805  uint public constant confirmationsFromGuardiansForReset = 3 */\n    tag_38:\n        /* \"contracts/SmartContractWallet.sol\":804:805  3 */\n      0x03\n        /* \"contracts/SmartContractWallet.sol\":746:805  uint public constant confirmationsFromGuardiansForReset = 3 */\n      dup2\n      jump\t// out\n        /* \"contracts/SmartContractWallet.sol\":1087:1976  function proposeNewOwner(address payable newOwner) public {... */\n    tag_44:\n        /* \"contracts/SmartContractWallet.sol\":1222:1230  guardian */\n      0x03\n        /* \"contracts/SmartContractWallet.sol\":1222:1242  guardian[msg.sender] */\n      0x00\n        /* \"contracts/SmartContractWallet.sol\":1231:1241  msg.sender */\n      caller\n        /* \"contracts/SmartContractWallet.sol\":1222:1242  guardian[msg.sender] */\n      0xffffffffffffffffffffffffffffffffffffffff\n      and\n      0xffffffffffffffffffffffffffffffffffffffff\n      and\n      dup2\n      mstore\n      0x20\n      add\n      swap1\n      dup2\n      mstore\n      0x20\n      add\n      0x00\n      keccak256\n      0x00\n      swap1\n      sload\n      swap1\n      0x0100\n      exp\n      swap1\n      div\n      0xff\n      and\n        /* \"contracts/SmartContractWallet.sol\":1214:1276  require(guardian[msg.sender], \"You are no guardian, aborting\") */\n      tag_65\n      jumpi\n      mload(0x40)\n      0x08c379a000000000000000000000000000000000000000000000000000000000\n      dup2\n      mstore\n      0x04\n      add\n      tag_66\n      swap1\n      tag_67\n      jump\t// in\n    tag_66:\n      mload(0x40)\n      dup1\n      swap2\n      sub\n      swap1\n      revert\n    tag_65:\n        /* \"contracts/SmartContractWallet.sol\":1406:1414  newOwner */\n      dup1\n        /* \"contracts/SmartContractWallet.sol\":1393:1414  nextOwner != newOwner */\n      0xffffffffffffffffffffffffffffffffffffffff\n      and\n        /* \"contracts/SmartContractWallet.sol\":1393:1402  nextOwner */\n      0x04\n      0x00\n      swap1\n      sload\n      swap1\n      0x0100\n      exp\n      swap1\n      div\n      0xffffffffffffffffffffffffffffffffffffffff\n      and\n        /* \"contracts/SmartContractWallet.sol\":1393:1414  nextOwner != newOwner */\n      0xffffffffffffffffffffffffffffffffffffffff\n      and\n      eq\n        /* \"contracts/SmartContractWallet.sol\":1390:1577  if(nextOwner != newOwner) {... */\n      tag_68\n      jumpi\n        /* \"contracts/SmartContractWallet.sol\":1443:1451  newOwner */\n      dup1\n        /* \"contracts/SmartContractWallet.sol\":1431:1440  nextOwner */\n      0x04\n      0x00\n        /* \"contracts/SmartContractWallet.sol\":1431:1451  nextOwner = newOwner */\n      0x0100\n      exp\n      dup2\n      sload\n      dup2\n      0xffffffffffffffffffffffffffffffffffffffff\n      mul\n      not\n      and\n      swap1\n      dup4\n      0xffffffffffffffffffffffffffffffffffffffff\n      and\n      mul\n      or\n      swap1\n      sstore\n      pop\n        /* \"contracts/SmartContractWallet.sol\":1525:1526  0 */\n      0x00\n        /* \"contracts/SmartContractWallet.sol\":1503:1522  guardiansResetCount */\n      0x05\n        /* \"contracts/SmartContractWallet.sol\":1503:1526  guardiansResetCount = 0 */\n      dup2\n      swap1\n      sstore\n      pop\n        /* \"contracts/SmartContractWallet.sol\":1390:1577  if(nextOwner != newOwner) {... */\n    tag_68:\n        /* \"contracts/SmartContractWallet.sol\":1589:1608  guardiansResetCount */\n      0x05\n      0x00\n        /* \"contracts/SmartContractWallet.sol\":1589:1610  guardiansResetCount++ */\n      dup2\n      sload\n      dup1\n      swap3\n      swap2\n      swap1\n      tag_69\n      swap1\n      tag_70\n      jump\t// in\n    tag_69:\n      swap2\n      swap1\n      pop\n      sstore\n      pop\n        /* \"contracts/SmartContractWallet.sol\":804:805  3 */\n      0x03\n        /* \"contracts/SmartContractWallet.sol\":1758:1777  guardiansResetCount */\n      sload(0x05)\n        /* \"contracts/SmartContractWallet.sol\":1758:1815  guardiansResetCount >= confirmationsFromGuardiansForReset */\n      lt\n        /* \"contracts/SmartContractWallet.sol\":1755:1969  if(guardiansResetCount >= confirmationsFromGuardiansForReset) {... */\n      tag_71\n      jumpi\n        /* \"contracts/SmartContractWallet.sol\":1840:1849  nextOwner */\n      0x04\n      0x00\n      swap1\n      sload\n      swap1\n      0x0100\n      exp\n      swap1\n      div\n      0xffffffffffffffffffffffffffffffffffffffff\n      and\n        /* \"contracts/SmartContractWallet.sol\":1832:1837  owner */\n      0x00\n      dup1\n        /* \"contracts/SmartContractWallet.sol\":1832:1849  owner = nextOwner */\n      0x0100\n      exp\n      dup2\n      sload\n      dup2\n      0xffffffffffffffffffffffffffffffffffffffff\n      mul\n      not\n      and\n      swap1\n      dup4\n      0xffffffffffffffffffffffffffffffffffffffff\n      and\n      mul\n      or\n      swap1\n      sstore\n      pop\n        /* \"contracts/SmartContractWallet.sol\":1919:1920  0 */\n      0x00\n        /* \"contracts/SmartContractWallet.sol\":1891:1900  nextOwner */\n      0x04\n      0x00\n        /* \"contracts/SmartContractWallet.sol\":1891:1922  nextOwner = payable(address(0)) */\n      0x0100\n      exp\n      dup2\n      sload\n      dup2\n      0xffffffffffffffffffffffffffffffffffffffff\n      mul\n      not\n      and\n      swap1\n      dup4\n      0xffffffffffffffffffffffffffffffffffffffff\n      and\n      mul\n      or\n      swap1\n      sstore\n      pop\n        /* \"contracts/SmartContractWallet.sol\":1755:1969  if(guardiansResetCount >= confirmationsFromGuardiansForReset) {... */\n    tag_71:\n        /* \"contracts/SmartContractWallet.sol\":1087:1976  function proposeNewOwner(address payable newOwner) public {... */\n      pop\n      jump\t// out\n        /* \"contracts/SmartContractWallet.sol\":2834:4179  function transfer(address payable _to, uint _amount, bytes memory payload) public returns (bytes memory) {... */\n    tag_49:\n        /* \"contracts/SmartContractWallet.sol\":2925:2937  bytes memory */\n      0x60\n        /* \"contracts/SmartContractWallet.sol\":3050:3071  address(this).balance */\n      selfbalance\n        /* \"contracts/SmartContractWallet.sol\":3039:3046  _amount */\n      dup4\n        /* \"contracts/SmartContractWallet.sol\":3039:3071  _amount <= address(this).balance */\n      gt\n      iszero\n        /* \"contracts/SmartContractWallet.sol\":3031:3125  require(_amount <= address(this).balance, \"Can't send more than the contract owns, aborting.\") */\n      tag_73\n      jumpi\n      mload(0x40)\n      0x08c379a000000000000000000000000000000000000000000000000000000000\n      dup2\n      mstore\n      0x04\n      add\n      tag_74\n      swap1\n      tag_75\n      jump\t// in\n    tag_74:\n      mload(0x40)\n      dup1\n      swap2\n      sub\n      swap1\n      revert\n    tag_73:\n        /* \"contracts/SmartContractWallet.sol\":3312:3317  owner */\n      0x00\n      dup1\n      sload\n      swap1\n      0x0100\n      exp\n      swap1\n      div\n      0xffffffffffffffffffffffffffffffffffffffff\n      and\n        /* \"contracts/SmartContractWallet.sol\":3298:3317  msg.sender != owner */\n      0xffffffffffffffffffffffffffffffffffffffff\n      and\n        /* \"contracts/SmartContractWallet.sol\":3298:3308  msg.sender */\n      caller\n        /* \"contracts/SmartContractWallet.sol\":3298:3317  msg.sender != owner */\n      0xffffffffffffffffffffffffffffffffffffffff\n      and\n      eq\n        /* \"contracts/SmartContractWallet.sol\":3295:3829  if(msg.sender != owner) {... */\n      tag_76\n      jumpi\n        /* \"contracts/SmartContractWallet.sol\":3416:3431  isAllowedToSend */\n      0x02\n        /* \"contracts/SmartContractWallet.sol\":3416:3443  isAllowedToSend[msg.sender] */\n      0x00\n        /* \"contracts/SmartContractWallet.sol\":3432:3442  msg.sender */\n      caller\n        /* \"contracts/SmartContractWallet.sol\":3416:3443  isAllowedToSend[msg.sender] */\n      0xffffffffffffffffffffffffffffffffffffffff\n      and\n      0xffffffffffffffffffffffffffffffffffffffff\n      and\n      dup2\n      mstore\n      0x20\n      add\n      swap1\n      dup2\n      mstore\n      0x20\n      add\n      0x00\n      keccak256\n      0x00\n      swap1\n      sload\n      swap1\n      0x0100\n      exp\n      swap1\n      div\n      0xff\n      and\n        /* \"contracts/SmartContractWallet.sol\":3408:3502  require(isAllowedToSend[msg.sender], \"You are not allowed to send any transactions, aborting\") */\n      tag_77\n      jumpi\n      mload(0x40)\n      0x08c379a000000000000000000000000000000000000000000000000000000000\n      dup2\n      mstore\n      0x04\n      add\n      tag_78\n      swap1\n      tag_79\n      jump\t// in\n    tag_78:\n      mload(0x40)\n      dup1\n      swap2\n      sub\n      swap1\n      revert\n    tag_77:\n        /* \"contracts/SmartContractWallet.sol\":3634:3641  _amount */\n      dup3\n        /* \"contracts/SmartContractWallet.sol\":3609:3618  allowance */\n      0x01\n        /* \"contracts/SmartContractWallet.sol\":3609:3630  allowance[msg.sender] */\n      0x00\n        /* \"contracts/SmartContractWallet.sol\":3619:3629  msg.sender */\n      caller\n        /* \"contracts/SmartContractWallet.sol\":3609:3630  allowance[msg.sender] */\n      0xffffffffffffffffffffffffffffffffffffffff\n      and\n      0xffffffffffffffffffffffffffffffffffffffff\n      and\n      dup2\n      mstore\n      0x20\n      add\n      swap1\n      dup2\n      mstore\n      0x20\n      add\n      0x00\n      keccak256\n      sload\n        /* \"contracts/SmartContractWallet.sol\":3609:3641  allowance[msg.sender] >= _amount */\n      lt\n      iszero\n        /* \"contracts/SmartContractWallet.sol\":3601:3707  require(allowance[msg.sender] >= _amount, \"You are trying to send more than you are allowed to, aborting\") */\n      tag_80\n      jumpi\n      mload(0x40)\n      0x08c379a000000000000000000000000000000000000000000000000000000000\n      dup2\n      mstore\n      0x04\n      add\n      tag_81\n      swap1\n      tag_82\n      jump\t// in\n    tag_81:\n      mload(0x40)\n      dup1\n      swap2\n      sub\n      swap1\n      revert\n    tag_80:\n        /* \"contracts/SmartContractWallet.sol\":3810:3817  _amount */\n      dup3\n        /* \"contracts/SmartContractWallet.sol\":3785:3794  allowance */\n      0x01\n        /* \"contracts/SmartContractWallet.sol\":3785:3806  allowance[msg.sender] */\n      0x00\n        /* \"contracts/SmartContractWallet.sol\":3795:3805  msg.sender */\n      caller\n        /* \"contracts/SmartContractWallet.sol\":3785:3806  allowance[msg.sender] */\n      0xffffffffffffffffffffffffffffffffffffffff\n      and\n      0xffffffffffffffffffffffffffffffffffffffff\n      and\n      dup2\n      mstore\n      0x20\n      add\n      swap1\n      dup2\n      mstore\n      0x20\n      add\n      0x00\n      keccak256\n      0x00\n        /* \"contracts/SmartContractWallet.sol\":3785:3817  allowance[msg.sender] -= _amount */\n      dup3\n      dup3\n      sload\n      tag_83\n      swap2\n      swap1\n      tag_84\n      jump\t// in\n    tag_83:\n      swap3\n      pop\n      pop\n      dup2\n      swap1\n      sstore\n      pop\n        /* \"contracts/SmartContractWallet.sol\":3295:3829  if(msg.sender != owner) {... */\n    tag_76:\n        /* \"contracts/SmartContractWallet.sol\":3904:3916  bool success */\n      0x00\n        /* \"contracts/SmartContractWallet.sol\":3918:3941  bytes memory returnData */\n      dup1\n        /* \"contracts/SmartContractWallet.sol\":3945:3948  _to */\n      dup6\n        /* \"contracts/SmartContractWallet.sol\":3945:3953  _to.call */\n      0xffffffffffffffffffffffffffffffffffffffff\n      and\n        /* \"contracts/SmartContractWallet.sol\":3961:3968  _amount */\n      dup6\n        /* \"contracts/SmartContractWallet.sol\":3970:3977  payload */\n      dup6\n        /* \"contracts/SmartContractWallet.sol\":3945:3978  _to.call{value: _amount}(payload) */\n      mload(0x40)\n      tag_85\n      swap2\n      swap1\n      tag_86\n      jump\t// in\n    tag_85:\n      0x00\n      mload(0x40)\n      dup1\n      dup4\n      sub\n      dup2\n      dup6\n      dup8\n      gas\n      call\n      swap3\n      pop\n      pop\n      pop\n      returndatasize\n      dup1\n      0x00\n      dup2\n      eq\n      tag_89\n      jumpi\n      mload(0x40)\n      swap2\n      pop\n      and(add(returndatasize, 0x3f), not(0x1f))\n      dup3\n      add\n      0x40\n      mstore\n      returndatasize\n      dup3\n      mstore\n      returndatasize\n      0x00\n      0x20\n      dup5\n      add\n      returndatacopy\n      jump(tag_88)\n    tag_89:\n      0x60\n      swap2\n      pop\n    tag_88:\n      pop\n        /* \"contracts/SmartContractWallet.sol\":3903:3978  (bool success, bytes memory returnData) = _to.call{value: _amount}(payload) */\n      swap2\n      pop\n      swap2\n      pop\n        /* \"contracts/SmartContractWallet.sol\":4057:4064  success */\n      dup2\n        /* \"contracts/SmartContractWallet.sol\":4049:4097  require(success, \"Transaction failed, aborting\") */\n      tag_90\n      jumpi\n      mload(0x40)\n      0x08c379a000000000000000000000000000000000000000000000000000000000\n      dup2\n      mstore\n      0x04\n      add\n      tag_91\n      swap1\n      tag_92\n      jump\t// in\n    tag_91:\n      mload(0x40)\n      dup1\n      swap2\n      sub\n      swap1\n      revert\n    tag_90:\n        /* \"contracts/SmartContractWallet.sol\":4161:4171  returnData */\n      dup1\n        /* \"contracts/SmartContractWallet.sol\":4154:4171  return returnData */\n      swap3\n      pop\n      pop\n      pop\n        /* \"contracts/SmartContractWallet.sol\":2834:4179  function transfer(address payable _to, uint _amount, bytes memory payload) public returns (bytes memory) {... */\n      swap4\n      swap3\n      pop\n      pop\n      pop\n      jump\t// out\n        /* \"contracts/SmartContractWallet.sol\":462:502  mapping(address => bool) public guardian */\n    tag_55:\n      mstore(0x20, 0x03)\n      dup1\n      0x00\n      mstore\n      keccak256(0x00, 0x40)\n      0x00\n      swap2\n      pop\n      sload\n      swap1\n      0x0100\n      exp\n      swap1\n      div\n      0xff\n      and\n      dup2\n      jump\t// out\n        /* \"#utility.yul\":7:82   */\n    tag_93:\n        /* \"#utility.yul\":40:46   */\n      0x00\n        /* \"#utility.yul\":73:75   */\n      0x40\n        /* \"#utility.yul\":67:76   */\n      mload\n        /* \"#utility.yul\":57:76   */\n      swap1\n      pop\n        /* \"#utility.yul\":7:82   */\n      swap1\n      jump\t// out\n        /* \"#utility.yul\":88:205   */\n    tag_94:\n        /* \"#utility.yul\":197:198   */\n      0x00\n        /* \"#utility.yul\":194:195   */\n      dup1\n        /* \"#utility.yul\":187:199   */\n      revert\n        /* \"#utility.yul\":211:328   */\n    tag_95:\n        /* \"#utility.yul\":320:321   */\n      0x00\n        /* \"#utility.yul\":317:318   */\n      dup1\n        /* \"#utility.yul\":310:322   */\n      revert\n        /* \"#utility.yul\":334:460   */\n    tag_96:\n        /* \"#utility.yul\":371:378   */\n      0x00\n        /* \"#utility.yul\":411:453   */\n      0xffffffffffffffffffffffffffffffffffffffff\n        /* \"#utility.yul\":404:409   */\n      dup3\n        /* \"#utility.yul\":400:454   */\n      and\n        /* \"#utility.yul\":389:454   */\n      swap1\n      pop\n        /* \"#utility.yul\":334:460   */\n      swap2\n      swap1\n      pop\n      jump\t// out\n        /* \"#utility.yul\":466:562   */\n    tag_97:\n        /* \"#utility.yul\":503:510   */\n      0x00\n        /* \"#utility.yul\":532:556   */\n      tag_145\n        /* \"#utility.yul\":550:555   */\n      dup3\n        /* \"#utility.yul\":532:556   */\n      tag_96\n      jump\t// in\n    tag_145:\n        /* \"#utility.yul\":521:556   */\n      swap1\n      pop\n        /* \"#utility.yul\":466:562   */\n      swap2\n      swap1\n      pop\n      jump\t// out\n        /* \"#utility.yul\":568:690   */\n    tag_98:\n        /* \"#utility.yul\":641:665   */\n      tag_147\n        /* \"#utility.yul\":659:664   */\n      dup2\n        /* \"#utility.yul\":641:665   */\n      tag_97\n      jump\t// in\n    tag_147:\n        /* \"#utility.yul\":634:639   */\n      dup2\n        /* \"#utility.yul\":631:666   */\n      eq\n        /* \"#utility.yul\":621:684   */\n      tag_148\n      jumpi\n        /* \"#utility.yul\":680:681   */\n      0x00\n        /* \"#utility.yul\":677:678   */\n      dup1\n        /* \"#utility.yul\":670:682   */\n      revert\n        /* \"#utility.yul\":621:684   */\n    tag_148:\n        /* \"#utility.yul\":568:690   */\n      pop\n      jump\t// out\n        /* \"#utility.yul\":696:835   */\n    tag_99:\n        /* \"#utility.yul\":742:747   */\n      0x00\n        /* \"#utility.yul\":780:786   */\n      dup2\n        /* \"#utility.yul\":767:787   */\n      calldataload\n        /* \"#utility.yul\":758:787   */\n      swap1\n      pop\n        /* \"#utility.yul\":796:829   */\n      tag_150\n        /* \"#utility.yul\":823:828   */\n      dup2\n        /* \"#utility.yul\":796:829   */\n      tag_98\n      jump\t// in\n    tag_150:\n        /* \"#utility.yul\":696:835   */\n      swap3\n      swap2\n      pop\n      pop\n      jump\t// out\n        /* \"#utility.yul\":841:1170   */\n    tag_17:\n        /* \"#utility.yul\":900:906   */\n      0x00\n        /* \"#utility.yul\":949:951   */\n      0x20\n        /* \"#utility.yul\":937:946   */\n      dup3\n        /* \"#utility.yul\":928:935   */\n      dup5\n        /* \"#utility.yul\":924:947   */\n      sub\n        /* \"#utility.yul\":920:952   */\n      slt\n        /* \"#utility.yul\":917:1036   */\n      iszero\n      tag_152\n      jumpi\n        /* \"#utility.yul\":955:1034   */\n      tag_153\n      tag_94\n      jump\t// in\n    tag_153:\n        /* \"#utility.yul\":917:1036   */\n    tag_152:\n        /* \"#utility.yul\":1075:1076   */\n      0x00\n        /* \"#utility.yul\":1100:1153   */\n      tag_154\n        /* \"#utility.yul\":1145:1152   */\n      dup5\n        /* \"#utility.yul\":1136:1142   */\n      dup3\n        /* \"#utility.yul\":1125:1134   */\n      dup6\n        /* \"#utility.yul\":1121:1143   */\n      add\n        /* \"#utility.yul\":1100:1153   */\n      tag_99\n      jump\t// in\n    tag_154:\n        /* \"#utility.yul\":1090:1153   */\n      swap2\n      pop\n        /* \"#utility.yul\":1046:1163   */\n      pop\n        /* \"#utility.yul\":841:1170   */\n      swap3\n      swap2\n      pop\n      pop\n      jump\t// out\n        /* \"#utility.yul\":1176:1266   */\n    tag_100:\n        /* \"#utility.yul\":1210:1217   */\n      0x00\n        /* \"#utility.yul\":1253:1258   */\n      dup2\n        /* \"#utility.yul\":1246:1259   */\n      iszero\n        /* \"#utility.yul\":1239:1260   */\n      iszero\n        /* \"#utility.yul\":1228:1260   */\n      swap1\n      pop\n        /* \"#utility.yul\":1176:1266   */\n      swap2\n      swap1\n      pop\n      jump\t// out\n        /* \"#utility.yul\":1272:1381   */\n    tag_101:\n        /* \"#utility.yul\":1353:1374   */\n      tag_157\n        /* \"#utility.yul\":1368:1373   */\n      dup2\n        /* \"#utility.yul\":1353:1374   */\n      tag_100\n      jump\t// in\n    tag_157:\n        /* \"#utility.yul\":1348:1351   */\n      dup3\n        /* \"#utility.yul\":1341:1375   */\n      mstore\n        /* \"#utility.yul\":1272:1381   */\n      pop\n      pop\n      jump\t// out\n        /* \"#utility.yul\":1387:1597   */\n    tag_20:\n        /* \"#utility.yul\":1474:1478   */\n      0x00\n        /* \"#utility.yul\":1512:1514   */\n      0x20\n        /* \"#utility.yul\":1501:1510   */\n      dup3\n        /* \"#utility.yul\":1497:1515   */\n      add\n        /* \"#utility.yul\":1489:1515   */\n      swap1\n      pop\n        /* \"#utility.yul\":1525:1590   */\n      tag_159\n        /* \"#utility.yul\":1587:1588   */\n      0x00\n        /* \"#utility.yul\":1576:1585   */\n      dup4\n        /* \"#utility.yul\":1572:1589   */\n      add\n        /* \"#utility.yul\":1563:1569   */\n      dup5\n        /* \"#utility.yul\":1525:1590   */\n      tag_101\n      jump\t// in\n    tag_159:\n        /* \"#utility.yul\":1387:1597   */\n      swap3\n      swap2\n      pop\n      pop\n      jump\t// out\n        /* \"#utility.yul\":1603:1680   */\n    tag_102:\n        /* \"#utility.yul\":1640:1647   */\n      0x00\n        /* \"#utility.yul\":1669:1674   */\n      dup2\n        /* \"#utility.yul\":1658:1674   */\n      swap1\n      pop\n        /* \"#utility.yul\":1603:1680   */\n      swap2\n      swap1\n      pop\n      jump\t// out\n        /* \"#utility.yul\":1686:1808   */\n    tag_103:\n        /* \"#utility.yul\":1759:1783   */\n      tag_162\n        /* \"#utility.yul\":1777:1782   */\n      dup2\n        /* \"#utility.yul\":1759:1783   */\n      tag_102\n      jump\t// in\n    tag_162:\n        /* \"#utility.yul\":1752:1757   */\n      dup2\n        /* \"#utility.yul\":1749:1784   */\n      eq\n        /* \"#utility.yul\":1739:1802   */\n      tag_163\n      jumpi\n        /* \"#utility.yul\":1798:1799   */\n      0x00\n        /* \"#utility.yul\":1795:1796   */\n      dup1\n        /* \"#utility.yul\":1788:1800   */\n      revert\n        /* \"#utility.yul\":1739:1802   */\n    tag_163:\n        /* \"#utility.yul\":1686:1808   */\n      pop\n      jump\t// out\n        /* \"#utility.yul\":1814:1953   */\n    tag_104:\n        /* \"#utility.yul\":1860:1865   */\n      0x00\n        /* \"#utility.yul\":1898:1904   */\n      dup2\n        /* \"#utility.yul\":1885:1905   */\n      calldataload\n        /* \"#utility.yul\":1876:1905   */\n      swap1\n      pop\n        /* \"#utility.yul\":1914:1947   */\n      tag_165\n        /* \"#utility.yul\":1941:1946   */\n      dup2\n        /* \"#utility.yul\":1914:1947   */\n      tag_103\n      jump\t// in\n    tag_165:\n        /* \"#utility.yul\":1814:1953   */\n      swap3\n      swap2\n      pop\n      pop\n      jump\t// out\n        /* \"#utility.yul\":1959:2433   */\n    tag_24:\n        /* \"#utility.yul\":2027:2033   */\n      0x00\n        /* \"#utility.yul\":2035:2041   */\n      dup1\n        /* \"#utility.yul\":2084:2086   */\n      0x40\n        /* \"#utility.yul\":2072:2081   */\n      dup4\n        /* \"#utility.yul\":2063:2070   */\n      dup6\n        /* \"#utility.yul\":2059:2082   */\n      sub\n        /* \"#utility.yul\":2055:2087   */\n      slt\n        /* \"#utility.yul\":2052:2171   */\n      iszero\n      tag_167\n      jumpi\n        /* \"#utility.yul\":2090:2169   */\n      tag_168\n      tag_94\n      jump\t// in\n    tag_168:\n        /* \"#utility.yul\":2052:2171   */\n    tag_167:\n        /* \"#utility.yul\":2210:2211   */\n      0x00\n        /* \"#utility.yul\":2235:2288   */\n      tag_169\n        /* \"#utility.yul\":2280:2287   */\n      dup6\n        /* \"#utility.yul\":2271:2277   */\n      dup3\n        /* \"#utility.yul\":2260:2269   */\n      dup7\n        /* \"#utility.yul\":2256:2278   */\n      add\n        /* \"#utility.yul\":2235:2288   */\n      tag_99\n      jump\t// in\n    tag_169:\n        /* \"#utility.yul\":2225:2288   */\n      swap3\n      pop\n        /* \"#utility.yul\":2181:2298   */\n      pop\n        /* \"#utility.yul\":2337:2339   */\n      0x20\n        /* \"#utility.yul\":2363:2416   */\n      tag_170\n        /* \"#utility.yul\":2408:2415   */\n      dup6\n        /* \"#utility.yul\":2399:2405   */\n      dup3\n        /* \"#utility.yul\":2388:2397   */\n      dup7\n        /* \"#utility.yul\":2384:2406   */\n      add\n        /* \"#utility.yul\":2363:2416   */\n      tag_104\n      jump\t// in\n    tag_170:\n        /* \"#utility.yul\":2353:2416   */\n      swap2\n      pop\n        /* \"#utility.yul\":2308:2426   */\n      pop\n        /* \"#utility.yul\":1959:2433   */\n      swap3\n      pop\n      swap3\n      swap1\n      pop\n      jump\t// out\n        /* \"#utility.yul\":2439:2557   */\n    tag_105:\n        /* \"#utility.yul\":2526:2550   */\n      tag_172\n        /* \"#utility.yul\":2544:2549   */\n      dup2\n        /* \"#utility.yul\":2526:2550   */\n      tag_102\n      jump\t// in\n    tag_172:\n        /* \"#utility.yul\":2521:2524   */\n      dup3\n        /* \"#utility.yul\":2514:2551   */\n      mstore\n        /* \"#utility.yul\":2439:2557   */\n      pop\n      pop\n      jump\t// out\n        /* \"#utility.yul\":2563:2785   */\n    tag_31:\n        /* \"#utility.yul\":2656:2660   */\n      0x00\n        /* \"#utility.yul\":2694:2696   */\n      0x20\n        /* \"#utility.yul\":2683:2692   */\n      dup3\n        /* \"#utility.yul\":2679:2697   */\n      add\n        /* \"#utility.yul\":2671:2697   */\n      swap1\n      pop\n        /* \"#utility.yul\":2707:2778   */\n      tag_174\n        /* \"#utility.yul\":2775:2776   */\n      0x00\n        /* \"#utility.yul\":2764:2773   */\n      dup4\n        /* \"#utility.yul\":2760:2777   */\n      add\n        /* \"#utility.yul\":2751:2757   */\n      dup5\n        /* \"#utility.yul\":2707:2778   */\n      tag_105\n      jump\t// in\n    tag_174:\n        /* \"#utility.yul\":2563:2785   */\n      swap3\n      swap2\n      pop\n      pop\n      jump\t// out\n        /* \"#utility.yul\":2791:2895   */\n    tag_106:\n        /* \"#utility.yul\":2836:2843   */\n      0x00\n        /* \"#utility.yul\":2865:2889   */\n      tag_176\n        /* \"#utility.yul\":2883:2888   */\n      dup3\n        /* \"#utility.yul\":2865:2889   */\n      tag_96\n      jump\t// in\n    tag_176:\n        /* \"#utility.yul\":2854:2889   */\n      swap1\n      pop\n        /* \"#utility.yul\":2791:2895   */\n      swap2\n      swap1\n      pop\n      jump\t// out\n        /* \"#utility.yul\":2901:3039   */\n    tag_107:\n        /* \"#utility.yul\":2982:3014   */\n      tag_178\n        /* \"#utility.yul\":3008:3013   */\n      dup2\n        /* \"#utility.yul\":2982:3014   */\n      tag_106\n      jump\t// in\n    tag_178:\n        /* \"#utility.yul\":2975:2980   */\n      dup2\n        /* \"#utility.yul\":2972:3015   */\n      eq\n        /* \"#utility.yul\":2962:3033   */\n      tag_179\n      jumpi\n        /* \"#utility.yul\":3029:3030   */\n      0x00\n        /* \"#utility.yul\":3026:3027   */\n      dup1\n        /* \"#utility.yul\":3019:3031   */\n      revert\n        /* \"#utility.yul\":2962:3033   */\n    tag_179:\n        /* \"#utility.yul\":2901:3039   */\n      pop\n      jump\t// out\n        /* \"#utility.yul\":3045:3200   */\n    tag_108:\n        /* \"#utility.yul\":3099:3104   */\n      0x00\n        /* \"#utility.yul\":3137:3143   */\n      dup2\n        /* \"#utility.yul\":3124:3144   */\n      calldataload\n        /* \"#utility.yul\":3115:3144   */\n      swap1\n      pop\n        /* \"#utility.yul\":3153:3194   */\n      tag_181\n        /* \"#utility.yul\":3188:3193   */\n      dup2\n        /* \"#utility.yul\":3153:3194   */\n      tag_107\n      jump\t// in\n    tag_181:\n        /* \"#utility.yul\":3045:3200   */\n      swap3\n      swap2\n      pop\n      pop\n      jump\t// out\n        /* \"#utility.yul\":3206:3551   */\n    tag_43:\n        /* \"#utility.yul\":3273:3279   */\n      0x00\n        /* \"#utility.yul\":3322:3324   */\n      0x20\n        /* \"#utility.yul\":3310:3319   */\n      dup3\n        /* \"#utility.yul\":3301:3308   */\n      dup5\n        /* \"#utility.yul\":3297:3320   */\n      sub\n        /* \"#utility.yul\":3293:3325   */\n      slt\n        /* \"#utility.yul\":3290:3409   */\n      iszero\n      tag_183\n      jumpi\n        /* \"#utility.yul\":3328:3407   */\n      tag_184\n      tag_94\n      jump\t// in\n    tag_184:\n        /* \"#utility.yul\":3290:3409   */\n    tag_183:\n        /* \"#utility.yul\":3448:3449   */\n      0x00\n        /* \"#utility.yul\":3473:3534   */\n      tag_185\n        /* \"#utility.yul\":3526:3533   */\n      dup5\n        /* \"#utility.yul\":3517:3523   */\n      dup3\n        /* \"#utility.yul\":3506:3515   */\n      dup6\n        /* \"#utility.yul\":3502:3524   */\n      add\n        /* \"#utility.yul\":3473:3534   */\n      tag_108\n      jump\t// in\n    tag_185:\n        /* \"#utility.yul\":3463:3534   */\n      swap2\n      pop\n        /* \"#utility.yul\":3419:3544   */\n      pop\n        /* \"#utility.yul\":3206:3551   */\n      swap3\n      swap2\n      pop\n      pop\n      jump\t// out\n        /* \"#utility.yul\":3557:3674   */\n    tag_109:\n        /* \"#utility.yul\":3666:3667   */\n      0x00\n        /* \"#utility.yul\":3663:3664   */\n      dup1\n        /* \"#utility.yul\":3656:3668   */\n      revert\n        /* \"#utility.yul\":3680:3797   */\n    tag_110:\n        /* \"#utility.yul\":3789:3790   */\n      0x00\n        /* \"#utility.yul\":3786:3787   */\n      dup1\n        /* \"#utility.yul\":3779:3791   */\n      revert\n        /* \"#utility.yul\":3803:3905   */\n    tag_111:\n        /* \"#utility.yul\":3844:3850   */\n      0x00\n        /* \"#utility.yul\":3895:3897   */\n      0x1f\n        /* \"#utility.yul\":3891:3898   */\n      not\n        /* \"#utility.yul\":3886:3888   */\n      0x1f\n        /* \"#utility.yul\":3879:3884   */\n      dup4\n        /* \"#utility.yul\":3875:3889   */\n      add\n        /* \"#utility.yul\":3871:3899   */\n      and\n        /* \"#utility.yul\":3861:3899   */\n      swap1\n      pop\n        /* \"#utility.yul\":3803:3905   */\n      swap2\n      swap1\n      pop\n      jump\t// out\n        /* \"#utility.yul\":3911:4091   */\n    tag_112:\n        /* \"#utility.yul\":3959:4036   */\n      0x4e487b7100000000000000000000000000000000000000000000000000000000\n        /* \"#utility.yul\":3956:3957   */\n      0x00\n        /* \"#utility.yul\":3949:4037   */\n      mstore\n        /* \"#utility.yul\":4056:4060   */\n      0x41\n        /* \"#utility.yul\":4053:4054   */\n      0x04\n        /* \"#utility.yul\":4046:4061   */\n      mstore\n        /* \"#utility.yul\":4080:4084   */\n      0x24\n        /* \"#utility.yul\":4077:4078   */\n      0x00\n        /* \"#utility.yul\":4070:4085   */\n      revert\n        /* \"#utility.yul\":4097:4378   */\n    tag_113:\n        /* \"#utility.yul\":4180:4207   */\n      tag_191\n        /* \"#utility.yul\":4202:4206   */\n      dup3\n        /* \"#utility.yul\":4180:4207   */\n      tag_111\n      jump\t// in\n    tag_191:\n        /* \"#utility.yul\":4172:4178   */\n      dup2\n        /* \"#utility.yul\":4168:4208   */\n      add\n        /* \"#utility.yul\":4310:4316   */\n      dup2\n        /* \"#utility.yul\":4298:4308   */\n      dup2\n        /* \"#utility.yul\":4295:4317   */\n      lt\n        /* \"#utility.yul\":4274:4292   */\n      0xffffffffffffffff\n        /* \"#utility.yul\":4262:4272   */\n      dup3\n        /* \"#utility.yul\":4259:4293   */\n      gt\n        /* \"#utility.yul\":4256:4318   */\n      or\n        /* \"#utility.yul\":4253:4341   */\n      iszero\n      tag_192\n      jumpi\n        /* \"#utility.yul\":4321:4339   */\n      tag_193\n      tag_112\n      jump\t// in\n    tag_193:\n        /* \"#utility.yul\":4253:4341   */\n    tag_192:\n        /* \"#utility.yul\":4361:4371   */\n      dup1\n        /* \"#utility.yul\":4357:4359   */\n      0x40\n        /* \"#utility.yul\":4350:4372   */\n      mstore\n        /* \"#utility.yul\":4140:4378   */\n      pop\n        /* \"#utility.yul\":4097:4378   */\n      pop\n      pop\n      jump\t// out\n        /* \"#utility.yul\":4384:4513   */\n    tag_114:\n        /* \"#utility.yul\":4418:4424   */\n      0x00\n        /* \"#utility.yul\":4445:4465   */\n      tag_195\n      tag_93\n      jump\t// in\n    tag_195:\n        /* \"#utility.yul\":4435:4465   */\n      swap1\n      pop\n        /* \"#utility.yul\":4474:4507   */\n      tag_196\n        /* \"#utility.yul\":4502:4506   */\n      dup3\n        /* \"#utility.yul\":4494:4500   */\n      dup3\n        /* \"#utility.yul\":4474:4507   */\n      tag_113\n      jump\t// in\n    tag_196:\n        /* \"#utility.yul\":4384:4513   */\n      swap2\n      swap1\n      pop\n      jump\t// out\n        /* \"#utility.yul\":4519:4826   */\n    tag_115:\n        /* \"#utility.yul\":4580:4584   */\n      0x00\n        /* \"#utility.yul\":4670:4688   */\n      0xffffffffffffffff\n        /* \"#utility.yul\":4662:4668   */\n      dup3\n        /* \"#utility.yul\":4659:4689   */\n      gt\n        /* \"#utility.yul\":4656:4712   */\n      iszero\n      tag_198\n      jumpi\n        /* \"#utility.yul\":4692:4710   */\n      tag_199\n      tag_112\n      jump\t// in\n    tag_199:\n        /* \"#utility.yul\":4656:4712   */\n    tag_198:\n        /* \"#utility.yul\":4730:4759   */\n      tag_200\n        /* \"#utility.yul\":4752:4758   */\n      dup3\n        /* \"#utility.yul\":4730:4759   */\n      tag_111\n      jump\t// in\n    tag_200:\n        /* \"#utility.yul\":4722:4759   */\n      swap1\n      pop\n        /* \"#utility.yul\":4814:4818   */\n      0x20\n        /* \"#utility.yul\":4808:4812   */\n      dup2\n        /* \"#utility.yul\":4804:4819   */\n      add\n        /* \"#utility.yul\":4796:4819   */\n      swap1\n      pop\n        /* \"#utility.yul\":4519:4826   */\n      swap2\n      swap1\n      pop\n      jump\t// out\n        /* \"#utility.yul\":4832:4980   */\n    tag_116:\n        /* \"#utility.yul\":4930:4936   */\n      dup3\n        /* \"#utility.yul\":4925:4928   */\n      dup2\n        /* \"#utility.yul\":4920:4923   */\n      dup4\n        /* \"#utility.yul\":4907:4937   */\n      calldatacopy\n        /* \"#utility.yul\":4971:4972   */\n      0x00\n        /* \"#utility.yul\":4962:4968   */\n      dup4\n        /* \"#utility.yul\":4957:4960   */\n      dup4\n        /* \"#utility.yul\":4953:4969   */\n      add\n        /* \"#utility.yul\":4946:4973   */\n      mstore\n        /* \"#utility.yul\":4832:4980   */\n      pop\n      pop\n      pop\n      jump\t// out\n        /* \"#utility.yul\":4986:5409   */\n    tag_117:\n        /* \"#utility.yul\":5063:5068   */\n      0x00\n        /* \"#utility.yul\":5088:5153   */\n      tag_203\n        /* \"#utility.yul\":5104:5152   */\n      tag_204\n        /* \"#utility.yul\":5145:5151   */\n      dup5\n        /* \"#utility.yul\":5104:5152   */\n      tag_115\n      jump\t// in\n    tag_204:\n        /* \"#utility.yul\":5088:5153   */\n      tag_114\n      jump\t// in\n    tag_203:\n        /* \"#utility.yul\":5079:5153   */\n      swap1\n      pop\n        /* \"#utility.yul\":5176:5182   */\n      dup3\n        /* \"#utility.yul\":5169:5174   */\n      dup2\n        /* \"#utility.yul\":5162:5183   */\n      mstore\n        /* \"#utility.yul\":5214:5218   */\n      0x20\n        /* \"#utility.yul\":5207:5212   */\n      dup2\n        /* \"#utility.yul\":5203:5219   */\n      add\n        /* \"#utility.yul\":5252:5255   */\n      dup5\n        /* \"#utility.yul\":5243:5249   */\n      dup5\n        /* \"#utility.yul\":5238:5241   */\n      dup5\n        /* \"#utility.yul\":5234:5250   */\n      add\n        /* \"#utility.yul\":5231:5256   */\n      gt\n        /* \"#utility.yul\":5228:5340   */\n      iszero\n      tag_205\n      jumpi\n        /* \"#utility.yul\":5259:5338   */\n      tag_206\n      tag_110\n      jump\t// in\n    tag_206:\n        /* \"#utility.yul\":5228:5340   */\n    tag_205:\n        /* \"#utility.yul\":5349:5403   */\n      tag_207\n        /* \"#utility.yul\":5396:5402   */\n      dup5\n        /* \"#utility.yul\":5391:5394   */\n      dup3\n        /* \"#utility.yul\":5386:5389   */\n      dup6\n        /* \"#utility.yul\":5349:5403   */\n      tag_116\n      jump\t// in\n    tag_207:\n        /* \"#utility.yul\":5069:5409   */\n      pop\n        /* \"#utility.yul\":4986:5409   */\n      swap4\n      swap3\n      pop\n      pop\n      pop\n      jump\t// out\n        /* \"#utility.yul\":5428:5766   */\n    tag_118:\n        /* \"#utility.yul\":5483:5488   */\n      0x00\n        /* \"#utility.yul\":5532:5535   */\n      dup3\n        /* \"#utility.yul\":5525:5529   */\n      0x1f\n        /* \"#utility.yul\":5517:5523   */\n      dup4\n        /* \"#utility.yul\":5513:5530   */\n      add\n        /* \"#utility.yul\":5509:5536   */\n      slt\n        /* \"#utility.yul\":5499:5621   */\n      tag_209\n      jumpi\n        /* \"#utility.yul\":5540:5619   */\n      tag_210\n      tag_109\n      jump\t// in\n    tag_210:\n        /* \"#utility.yul\":5499:5621   */\n    tag_209:\n        /* \"#utility.yul\":5657:5663   */\n      dup2\n        /* \"#utility.yul\":5644:5664   */\n      calldataload\n        /* \"#utility.yul\":5682:5760   */\n      tag_211\n        /* \"#utility.yul\":5756:5759   */\n      dup5\n        /* \"#utility.yul\":5748:5754   */\n      dup3\n        /* \"#utility.yul\":5741:5745   */\n      0x20\n        /* \"#utility.yul\":5733:5739   */\n      dup7\n        /* \"#utility.yul\":5729:5746   */\n      add\n        /* \"#utility.yul\":5682:5760   */\n      tag_117\n      jump\t// in\n    tag_211:\n        /* \"#utility.yul\":5673:5760   */\n      swap2\n      pop\n        /* \"#utility.yul\":5489:5766   */\n      pop\n        /* \"#utility.yul\":5428:5766   */\n      swap3\n      swap2\n      pop\n      pop\n      jump\t// out\n        /* \"#utility.yul\":5772:6585   */\n    tag_48:\n        /* \"#utility.yul\":5866:5872   */\n      0x00\n        /* \"#utility.yul\":5874:5880   */\n      dup1\n        /* \"#utility.yul\":5882:5888   */\n      0x00\n        /* \"#utility.yul\":5931:5933   */\n      0x60\n        /* \"#utility.yul\":5919:5928   */\n      dup5\n        /* \"#utility.yul\":5910:5917   */\n      dup7\n        /* \"#utility.yul\":5906:5929   */\n      sub\n        /* \"#utility.yul\":5902:5934   */\n      slt\n        /* \"#utility.yul\":5899:6018   */\n      iszero\n      tag_213\n      jumpi\n        /* \"#utility.yul\":5937:6016   */\n      tag_214\n      tag_94\n      jump\t// in\n    tag_214:\n        /* \"#utility.yul\":5899:6018   */\n    tag_213:\n        /* \"#utility.yul\":6057:6058   */\n      0x00\n        /* \"#utility.yul\":6082:6143   */\n      tag_215\n        /* \"#utility.yul\":6135:6142   */\n      dup7\n        /* \"#utility.yul\":6126:6132   */\n      dup3\n        /* \"#utility.yul\":6115:6124   */\n      dup8\n        /* \"#utility.yul\":6111:6133   */\n      add\n        /* \"#utility.yul\":6082:6143   */\n      tag_108\n      jump\t// in\n    tag_215:\n        /* \"#utility.yul\":6072:6143   */\n      swap4\n      pop\n        /* \"#utility.yul\":6028:6153   */\n      pop\n        /* \"#utility.yul\":6192:6194   */\n      0x20\n        /* \"#utility.yul\":6218:6271   */\n      tag_216\n        /* \"#utility.yul\":6263:6270   */\n      dup7\n        /* \"#utility.yul\":6254:6260   */\n      dup3\n        /* \"#utility.yul\":6243:6252   */\n      dup8\n        /* \"#utility.yul\":6239:6261   */\n      add\n        /* \"#utility.yul\":6218:6271   */\n      tag_104\n      jump\t// in\n    tag_216:\n        /* \"#utility.yul\":6208:6271   */\n      swap3\n      pop\n        /* \"#utility.yul\":6163:6281   */\n      pop\n        /* \"#utility.yul\":6348:6350   */\n      0x40\n        /* \"#utility.yul\":6337:6346   */\n      dup5\n        /* \"#utility.yul\":6333:6351   */\n      add\n        /* \"#utility.yul\":6320:6352   */\n      calldataload\n        /* \"#utility.yul\":6379:6397   */\n      0xffffffffffffffff\n        /* \"#utility.yul\":6371:6377   */\n      dup2\n        /* \"#utility.yul\":6368:6398   */\n      gt\n        /* \"#utility.yul\":6365:6482   */\n      iszero\n      tag_217\n      jumpi\n        /* \"#utility.yul\":6401:6480   */\n      tag_218\n      tag_95\n      jump\t// in\n    tag_218:\n        /* \"#utility.yul\":6365:6482   */\n    tag_217:\n        /* \"#utility.yul\":6506:6568   */\n      tag_219\n        /* \"#utility.yul\":6560:6567   */\n      dup7\n        /* \"#utility.yul\":6551:6557   */\n      dup3\n        /* \"#utility.yul\":6540:6549   */\n      dup8\n        /* \"#utility.yul\":6536:6558   */\n      add\n        /* \"#utility.yul\":6506:6568   */\n      tag_118\n      jump\t// in\n    tag_219:\n        /* \"#utility.yul\":6496:6568   */\n      swap2\n      pop\n        /* \"#utility.yul\":6291:6578   */\n      pop\n        /* \"#utility.yul\":5772:6585   */\n      swap3\n      pop\n      swap3\n      pop\n      swap3\n      jump\t// out\n        /* \"#utility.yul\":6591:6689   */\n    tag_119:\n        /* \"#utility.yul\":6642:6648   */\n      0x00\n        /* \"#utility.yul\":6676:6681   */\n      dup2\n        /* \"#utility.yul\":6670:6682   */\n      mload\n        /* \"#utility.yul\":6660:6682   */\n      swap1\n      pop\n        /* \"#utility.yul\":6591:6689   */\n      swap2\n      swap1\n      pop\n      jump\t// out\n        /* \"#utility.yul\":6695:6863   */\n    tag_120:\n        /* \"#utility.yul\":6778:6789   */\n      0x00\n        /* \"#utility.yul\":6812:6818   */\n      dup3\n        /* \"#utility.yul\":6807:6810   */\n      dup3\n        /* \"#utility.yul\":6800:6819   */\n      mstore\n        /* \"#utility.yul\":6852:6856   */\n      0x20\n        /* \"#utility.yul\":6847:6850   */\n      dup3\n        /* \"#utility.yul\":6843:6857   */\n      add\n        /* \"#utility.yul\":6828:6857   */\n      swap1\n      pop\n        /* \"#utility.yul\":6695:6863   */\n      swap3\n      swap2\n      pop\n      pop\n      jump\t// out\n        /* \"#utility.yul\":6869:7008   */\n    tag_121:\n        /* \"#utility.yul\":6958:6964   */\n      dup3\n        /* \"#utility.yul\":6953:6956   */\n      dup2\n        /* \"#utility.yul\":6948:6951   */\n      dup4\n        /* \"#utility.yul\":6942:6965   */\n      mcopy\n        /* \"#utility.yul\":6999:7000   */\n      0x00\n        /* \"#utility.yul\":6990:6996   */\n      dup4\n        /* \"#utility.yul\":6985:6988   */\n      dup4\n        /* \"#utility.yul\":6981:6997   */\n      add\n        /* \"#utility.yul\":6974:7001   */\n      mstore\n        /* \"#utility.yul\":6869:7008   */\n      pop\n      pop\n      pop\n      jump\t// out\n        /* \"#utility.yul\":7014:7387   */\n    tag_122:\n        /* \"#utility.yul\":7100:7103   */\n      0x00\n        /* \"#utility.yul\":7128:7166   */\n      tag_224\n        /* \"#utility.yul\":7160:7165   */\n      dup3\n        /* \"#utility.yul\":7128:7166   */\n      tag_119\n      jump\t// in\n    tag_224:\n        /* \"#utility.yul\":7182:7252   */\n      tag_225\n        /* \"#utility.yul\":7245:7251   */\n      dup2\n        /* \"#utility.yul\":7240:7243   */\n      dup6\n        /* \"#utility.yul\":7182:7252   */\n      tag_120\n      jump\t// in\n    tag_225:\n        /* \"#utility.yul\":7175:7252   */\n      swap4\n      pop\n        /* \"#utility.yul\":7261:7326   */\n      tag_226\n        /* \"#utility.yul\":7319:7325   */\n      dup2\n        /* \"#utility.yul\":7314:7317   */\n      dup6\n        /* \"#utility.yul\":7307:7311   */\n      0x20\n        /* \"#utility.yul\":7300:7305   */\n      dup7\n        /* \"#utility.yul\":7296:7312   */\n      add\n        /* \"#utility.yul\":7261:7326   */\n      tag_121\n      jump\t// in\n    tag_226:\n        /* \"#utility.yul\":7351:7380   */\n      tag_227\n        /* \"#utility.yul\":7373:7379   */\n      dup2\n        /* \"#utility.yul\":7351:7380   */\n      tag_111\n      jump\t// in\n    tag_227:\n        /* \"#utility.yul\":7346:7349   */\n      dup5\n        /* \"#utility.yul\":7342:7381   */\n      add\n        /* \"#utility.yul\":7335:7381   */\n      swap2\n      pop\n        /* \"#utility.yul\":7104:7387   */\n      pop\n        /* \"#utility.yul\":7014:7387   */\n      swap3\n      swap2\n      pop\n      pop\n      jump\t// out\n        /* \"#utility.yul\":7393:7702   */\n    tag_51:\n        /* \"#utility.yul\":7504:7508   */\n      0x00\n        /* \"#utility.yul\":7542:7544   */\n      0x20\n        /* \"#utility.yul\":7531:7540   */\n      dup3\n        /* \"#utility.yul\":7527:7545   */\n      add\n        /* \"#utility.yul\":7519:7545   */\n      swap1\n      pop\n        /* \"#utility.yul\":7591:7600   */\n      dup2\n        /* \"#utility.yul\":7585:7589   */\n      dup2\n        /* \"#utility.yul\":7581:7601   */\n      sub\n        /* \"#utility.yul\":7577:7578   */\n      0x00\n        /* \"#utility.yul\":7566:7575   */\n      dup4\n        /* \"#utility.yul\":7562:7579   */\n      add\n        /* \"#utility.yul\":7555:7602   */\n      mstore\n        /* \"#utility.yul\":7619:7695   */\n      tag_229\n        /* \"#utility.yul\":7690:7694   */\n      dup2\n        /* \"#utility.yul\":7681:7687   */\n      dup5\n        /* \"#utility.yul\":7619:7695   */\n      tag_122\n      jump\t// in\n    tag_229:\n        /* \"#utility.yul\":7611:7695   */\n      swap1\n      pop\n        /* \"#utility.yul\":7393:7702   */\n      swap3\n      swap2\n      pop\n      pop\n      jump\t// out\n        /* \"#utility.yul\":7708:7877   */\n    tag_123:\n        /* \"#utility.yul\":7792:7803   */\n      0x00\n        /* \"#utility.yul\":7826:7832   */\n      dup3\n        /* \"#utility.yul\":7821:7824   */\n      dup3\n        /* \"#utility.yul\":7814:7833   */\n      mstore\n        /* \"#utility.yul\":7866:7870   */\n      0x20\n        /* \"#utility.yul\":7861:7864   */\n      dup3\n        /* \"#utility.yul\":7857:7871   */\n      add\n        /* \"#utility.yul\":7842:7871   */\n      swap1\n      pop\n        /* \"#utility.yul\":7708:7877   */\n      swap3\n      swap2\n      pop\n      pop\n      jump\t// out\n        /* \"#utility.yul\":7883:8065   */\n    tag_124:\n        /* \"#utility.yul\":8023:8057   */\n      0x596f7520617265206e6f7420746865206f776e65722c2061626f7274696e6721\n        /* \"#utility.yul\":8019:8020   */\n      0x00\n        /* \"#utility.yul\":8011:8017   */\n      dup3\n        /* \"#utility.yul\":8007:8021   */\n      add\n        /* \"#utility.yul\":8000:8058   */\n      mstore\n        /* \"#utility.yul\":7883:8065   */\n      pop\n      jump\t// out\n        /* \"#utility.yul\":8071:8437   */\n    tag_125:\n        /* \"#utility.yul\":8213:8216   */\n      0x00\n        /* \"#utility.yul\":8234:8301   */\n      tag_233\n        /* \"#utility.yul\":8298:8300   */\n      0x20\n        /* \"#utility.yul\":8293:8296   */\n      dup4\n        /* \"#utility.yul\":8234:8301   */\n      tag_123\n      jump\t// in\n    tag_233:\n        /* \"#utility.yul\":8227:8301   */\n      swap2\n      pop\n        /* \"#utility.yul\":8310:8403   */\n      tag_234\n        /* \"#utility.yul\":8399:8402   */\n      dup3\n        /* \"#utility.yul\":8310:8403   */\n      tag_124\n      jump\t// in\n    tag_234:\n        /* \"#utility.yul\":8428:8430   */\n      0x20\n        /* \"#utility.yul\":8423:8426   */\n      dup3\n        /* \"#utility.yul\":8419:8431   */\n      add\n        /* \"#utility.yul\":8412:8431   */\n      swap1\n      pop\n        /* \"#utility.yul\":8071:8437   */\n      swap2\n      swap1\n      pop\n      jump\t// out\n        /* \"#utility.yul\":8443:8862   */\n    tag_60:\n        /* \"#utility.yul\":8609:8613   */\n      0x00\n        /* \"#utility.yul\":8647:8649   */\n      0x20\n        /* \"#utility.yul\":8636:8645   */\n      dup3\n        /* \"#utility.yul\":8632:8650   */\n      add\n        /* \"#utility.yul\":8624:8650   */\n      swap1\n      pop\n        /* \"#utility.yul\":8696:8705   */\n      dup2\n        /* \"#utility.yul\":8690:8694   */\n      dup2\n        /* \"#utility.yul\":8686:8706   */\n      sub\n        /* \"#utility.yul\":8682:8683   */\n      0x00\n        /* \"#utility.yul\":8671:8680   */\n      dup4\n        /* \"#utility.yul\":8667:8684   */\n      add\n        /* \"#utility.yul\":8660:8707   */\n      mstore\n        /* \"#utility.yul\":8724:8855   */\n      tag_236\n        /* \"#utility.yul\":8850:8854   */\n      dup2\n        /* \"#utility.yul\":8724:8855   */\n      tag_125\n      jump\t// in\n    tag_236:\n        /* \"#utility.yul\":8716:8855   */\n      swap1\n      pop\n        /* \"#utility.yul\":8443:8862   */\n      swap2\n      swap1\n      pop\n      jump\t// out\n        /* \"#utility.yul\":8868:9047   */\n    tag_126:\n        /* \"#utility.yul\":9008:9039   */\n      0x596f7520617265206e6f20677561726469616e2c2061626f7274696e67000000\n        /* \"#utility.yul\":9004:9005   */\n      0x00\n        /* \"#utility.yul\":8996:9002   */\n      dup3\n        /* \"#utility.yul\":8992:9006   */\n      add\n        /* \"#utility.yul\":8985:9040   */\n      mstore\n        /* \"#utility.yul\":8868:9047   */\n      pop\n      jump\t// out\n        /* \"#utility.yul\":9053:9419   */\n    tag_127:\n        /* \"#utility.yul\":9195:9198   */\n      0x00\n        /* \"#utility.yul\":9216:9283   */\n      tag_239\n        /* \"#utility.yul\":9280:9282   */\n      0x1d\n        /* \"#utility.yul\":9275:9278   */\n      dup4\n        /* \"#utility.yul\":9216:9283   */\n      tag_123\n      jump\t// in\n    tag_239:\n        /* \"#utility.yul\":9209:9283   */\n      swap2\n      pop\n        /* \"#utility.yul\":9292:9385   */\n      tag_240\n        /* \"#utility.yul\":9381:9384   */\n      dup3\n        /* \"#utility.yul\":9292:9385   */\n      tag_126\n      jump\t// in\n    tag_240:\n        /* \"#utility.yul\":9410:9412   */\n      0x20\n        /* \"#utility.yul\":9405:9408   */\n      dup3\n        /* \"#utility.yul\":9401:9413   */\n      add\n        /* \"#utility.yul\":9394:9413   */\n      swap1\n      pop\n        /* \"#utility.yul\":9053:9419   */\n      swap2\n      swap1\n      pop\n      jump\t// out\n        /* \"#utility.yul\":9425:9844   */\n    tag_67:\n        /* \"#utility.yul\":9591:9595   */\n      0x00\n        /* \"#utility.yul\":9629:9631   */\n      0x20\n        /* \"#utility.yul\":9618:9627   */\n      dup3\n        /* \"#utility.yul\":9614:9632   */\n      add\n        /* \"#utility.yul\":9606:9632   */\n      swap1\n      pop\n        /* \"#utility.yul\":9678:9687   */\n      dup2\n        /* \"#utility.yul\":9672:9676   */\n      dup2\n        /* \"#utility.yul\":9668:9688   */\n      sub\n        /* \"#utility.yul\":9664:9665   */\n      0x00\n        /* \"#utility.yul\":9653:9662   */\n      dup4\n        /* \"#utility.yul\":9649:9666   */\n      add\n        /* \"#utility.yul\":9642:9689   */\n      mstore\n        /* \"#utility.yul\":9706:9837   */\n      tag_242\n        /* \"#utility.yul\":9832:9836   */\n      dup2\n        /* \"#utility.yul\":9706:9837   */\n      tag_127\n      jump\t// in\n    tag_242:\n        /* \"#utility.yul\":9698:9837   */\n      swap1\n      pop\n        /* \"#utility.yul\":9425:9844   */\n      swap2\n      swap1\n      pop\n      jump\t// out\n        /* \"#utility.yul\":9850:10030   */\n    tag_128:\n        /* \"#utility.yul\":9898:9975   */\n      0x4e487b7100000000000000000000000000000000000000000000000000000000\n        /* \"#utility.yul\":9895:9896   */\n      0x00\n        /* \"#utility.yul\":9888:9976   */\n      mstore\n        /* \"#utility.yul\":9995:9999   */\n      0x11\n        /* \"#utility.yul\":9992:9993   */\n      0x04\n        /* \"#utility.yul\":9985:10000   */\n      mstore\n        /* \"#utility.yul\":10019:10023   */\n      0x24\n        /* \"#utility.yul\":10016:10017   */\n      0x00\n        /* \"#utility.yul\":10009:10024   */\n      revert\n        /* \"#utility.yul\":10036:10269   */\n    tag_70:\n        /* \"#utility.yul\":10075:10078   */\n      0x00\n        /* \"#utility.yul\":10098:10122   */\n      tag_245\n        /* \"#utility.yul\":10116:10121   */\n      dup3\n        /* \"#utility.yul\":10098:10122   */\n      tag_102\n      jump\t// in\n    tag_245:\n        /* \"#utility.yul\":10089:10122   */\n      swap2\n      pop\n        /* \"#utility.yul\":10144:10210   */\n      0xffffffffffffffffffffffffffffffffffffffffffffffffffffffffffffffff\n        /* \"#utility.yul\":10137:10142   */\n      dup3\n        /* \"#utility.yul\":10134:10211   */\n      sub\n        /* \"#utility.yul\":10131:10234   */\n      tag_246\n      jumpi\n        /* \"#utility.yul\":10214:10232   */\n      tag_247\n      tag_128\n      jump\t// in\n    tag_247:\n        /* \"#utility.yul\":10131:10234   */\n    tag_246:\n        /* \"#utility.yul\":10261:10262   */\n      0x01\n        /* \"#utility.yul\":10254:10259   */\n      dup3\n        /* \"#utility.yul\":10250:10263   */\n      add\n        /* \"#utility.yul\":10243:10263   */\n      swap1\n      pop\n        /* \"#utility.yul\":10036:10269   */\n      swap2\n      swap1\n      pop\n      jump\t// out\n        /* \"#utility.yul\":10275:10511   */\n    tag_129:\n        /* \"#utility.yul\":10415:10449   */\n      0x43616e27742073656e64206d6f7265207468616e2074686520636f6e74726163\n        /* \"#utility.yul\":10411:10412   */\n      0x00\n        /* \"#utility.yul\":10403:10409   */\n      dup3\n        /* \"#utility.yul\":10399:10413   */\n      add\n        /* \"#utility.yul\":10392:10450   */\n      mstore\n        /* \"#utility.yul\":10484:10503   */\n      0x74206f776e732c2061626f7274696e672e000000000000000000000000000000\n        /* \"#utility.yul\":10479:10481   */\n      0x20\n        /* \"#utility.yul\":10471:10477   */\n      dup3\n        /* \"#utility.yul\":10467:10482   */\n      add\n        /* \"#utility.yul\":10460:10504   */\n      mstore\n        /* \"#utility.yul\":10275:10511   */\n      pop\n      jump\t// out\n        /* \"#utility.yul\":10517:10883   */\n    tag_130:\n        /* \"#utility.yul\":10659:10662   */\n      0x00\n        /* \"#utility.yul\":10680:10747   */\n      tag_250\n        /* \"#utility.yul\":10744:10746   */\n      0x31\n        /* \"#utility.yul\":10739:10742   */\n      dup4\n        /* \"#utility.yul\":10680:10747   */\n      tag_123\n      jump\t// in\n    tag_250:\n        /* \"#utility.yul\":10673:10747   */\n      swap2\n      pop\n        /* \"#utility.yul\":10756:10849   */\n      tag_251\n        /* \"#utility.yul\":10845:10848   */\n      dup3\n        /* \"#utility.yul\":10756:10849   */\n      tag_129\n      jump\t// in\n    tag_251:\n        /* \"#utility.yul\":10874:10876   */\n      0x40\n        /* \"#utility.yul\":10869:10872   */\n      dup3\n        /* \"#utility.yul\":10865:10877   */\n      add\n        /* \"#utility.yul\":10858:10877   */\n      swap1\n      pop\n        /* \"#utility.yul\":10517:10883   */\n      swap2\n      swap1\n      pop\n      jump\t// out\n        /* \"#utility.yul\":10889:11308   */\n    tag_75:\n        /* \"#utility.yul\":11055:11059   */\n      0x00\n        /* \"#utility.yul\":11093:11095   */\n      0x20\n        /* \"#utility.yul\":11082:11091   */\n      dup3\n        /* \"#utility.yul\":11078:11096   */\n      add\n        /* \"#utility.yul\":11070:11096   */\n      swap1\n      pop\n        /* \"#utility.yul\":11142:11151   */\n      dup2\n        /* \"#utility.yul\":11136:11140   */\n      dup2\n        /* \"#utility.yul\":11132:11152   */\n      sub\n        /* \"#utility.yul\":11128:11129   */\n      0x00\n        /* \"#utility.yul\":11117:11126   */\n      dup4\n        /* \"#utility.yul\":11113:11130   */\n      add\n        /* \"#utility.yul\":11106:11153   */\n      mstore\n        /* \"#utility.yul\":11170:11301   */\n      tag_253\n        /* \"#utility.yul\":11296:11300   */\n      dup2\n        /* \"#utility.yul\":11170:11301   */\n      tag_130\n      jump\t// in\n    tag_253:\n        /* \"#utility.yul\":11162:11301   */\n      swap1\n      pop\n        /* \"#utility.yul\":10889:11308   */\n      swap2\n      swap1\n      pop\n      jump\t// out\n        /* \"#utility.yul\":11314:11555   */\n    tag_131:\n        /* \"#utility.yul\":11454:11488   */\n      0x596f7520617265206e6f7420616c6c6f77656420746f2073656e6420616e7920\n        /* \"#utility.yul\":11450:11451   */\n      0x00\n        /* \"#utility.yul\":11442:11448   */\n      dup3\n        /* \"#utility.yul\":11438:11452   */\n      add\n        /* \"#utility.yul\":11431:11489   */\n      mstore\n        /* \"#utility.yul\":11523:11547   */\n      0x7472616e73616374696f6e732c2061626f7274696e6700000000000000000000\n        /* \"#utility.yul\":11518:11520   */\n      0x20\n        /* \"#utility.yul\":11510:11516   */\n      dup3\n        /* \"#utility.yul\":11506:11521   */\n      add\n        /* \"#utility.yul\":11499:11548   */\n      mstore\n        /* \"#utility.yul\":11314:11555   */\n      pop\n      jump\t// out\n        /* \"#utility.yul\":11561:11927   */\n    tag_132:\n        /* \"#utility.yul\":11703:11706   */\n      0x00\n        /* \"#utility.yul\":11724:11791   */\n      tag_256\n        /* \"#utility.yul\":11788:11790   */\n      0x36\n        /* \"#utility.yul\":11783:11786   */\n      dup4\n        /* \"#utility.yul\":11724:11791   */\n      tag_123\n      jump\t// in\n    tag_256:\n        /* \"#utility.yul\":11717:11791   */\n      swap2\n      pop\n        /* \"#utility.yul\":11800:11893   */\n      tag_257\n        /* \"#utility.yul\":11889:11892   */\n      dup3\n        /* \"#utility.yul\":11800:11893   */\n      tag_131\n      jump\t// in\n    tag_257:\n        /* \"#utility.yul\":11918:11920   */\n      0x40\n        /* \"#utility.yul\":11913:11916   */\n      dup3\n        /* \"#utility.yul\":11909:11921   */\n      add\n        /* \"#utility.yul\":11902:11921   */\n      swap1\n      pop\n        /* \"#utility.yul\":11561:11927   */\n      swap2\n      swap1\n      pop\n      jump\t// out\n        /* \"#utility.yul\":11933:12352   */\n    tag_79:\n        /* \"#utility.yul\":12099:12103   */\n      0x00\n        /* \"#utility.yul\":12137:12139   */\n      0x20\n        /* \"#utility.yul\":12126:12135   */\n      dup3\n        /* \"#utility.yul\":12122:12140   */\n      add\n        /* \"#utility.yul\":12114:12140   */\n      swap1\n      pop\n        /* \"#utility.yul\":12186:12195   */\n      dup2\n        /* \"#utility.yul\":12180:12184   */\n      dup2\n        /* \"#utility.yul\":12176:12196   */\n      sub\n        /* \"#utility.yul\":12172:12173   */\n      0x00\n        /* \"#utility.yul\":12161:12170   */\n      dup4\n        /* \"#utility.yul\":12157:12174   */\n      add\n        /* \"#utility.yul\":12150:12197   */\n      mstore\n        /* \"#utility.yul\":12214:12345   */\n      tag_259\n        /* \"#utility.yul\":12340:12344   */\n      dup2\n        /* \"#utility.yul\":12214:12345   */\n      tag_132\n      jump\t// in\n    tag_259:\n        /* \"#utility.yul\":12206:12345   */\n      swap1\n      pop\n        /* \"#utility.yul\":11933:12352   */\n      swap2\n      swap1\n      pop\n      jump\t// out\n        /* \"#utility.yul\":12358:12606   */\n    tag_133:\n        /* \"#utility.yul\":12498:12532   */\n      0x596f752061726520747279696e6720746f2073656e64206d6f7265207468616e\n        /* \"#utility.yul\":12494:12495   */\n      0x00\n        /* \"#utility.yul\":12486:12492   */\n      dup3\n        /* \"#utility.yul\":12482:12496   */\n      add\n        /* \"#utility.yul\":12475:12533   */\n      mstore\n        /* \"#utility.yul\":12567:12598   */\n      0x20796f752061726520616c6c6f77656420746f2c2061626f7274696e67000000\n        /* \"#utility.yul\":12562:12564   */\n      0x20\n        /* \"#utility.yul\":12554:12560   */\n      dup3\n        /* \"#utility.yul\":12550:12565   */\n      add\n        /* \"#utility.yul\":12543:12599   */\n      mstore\n        /* \"#utility.yul\":12358:12606   */\n      pop\n      jump\t// out\n        /* \"#utility.yul\":12612:12978   */\n    tag_134:\n        /* \"#utility.yul\":12754:12757   */\n      0x00\n        /* \"#utility.yul\":12775:12842   */\n      tag_262\n        /* \"#utility.yul\":12839:12841   */\n      0x3d\n        /* \"#utility.yul\":12834:12837   */\n      dup4\n        /* \"#utility.yul\":12775:12842   */\n      tag_123\n      jump\t// in\n    tag_262:\n        /* \"#utility.yul\":12768:12842   */\n      swap2\n      pop\n        /* \"#utility.yul\":12851:12944   */\n      tag_263\n        /* \"#utility.yul\":12940:12943   */\n      dup3\n        /* \"#utility.yul\":12851:12944   */\n      tag_133\n      jump\t// in\n    tag_263:\n        /* \"#utility.yul\":12969:12971   */\n      0x40\n        /* \"#utility.yul\":12964:12967   */\n      dup3\n        /* \"#utility.yul\":12960:12972   */\n      add\n        /* \"#utility.yul\":12953:12972   */\n      swap1\n      pop\n        /* \"#utility.yul\":12612:12978   */\n      swap2\n      swap1\n      pop\n      jump\t// out\n        /* \"#utility.yul\":12984:13403   */\n    tag_82:\n        /* \"#utility.yul\":13150:13154   */\n      0x00\n        /* \"#utility.yul\":13188:13190   */\n      0x20\n        /* \"#utility.yul\":13177:13186   */\n      dup3\n        /* \"#utility.yul\":13173:13191   */\n      add\n        /* \"#utility.yul\":13165:13191   */\n      swap1\n      pop\n        /* \"#utility.yul\":13237:13246   */\n      dup2\n        /* \"#utility.yul\":13231:13235   */\n      dup2\n        /* \"#utility.yul\":13227:13247   */\n      sub\n        /* \"#utility.yul\":13223:13224   */\n      0x00\n        /* \"#utility.yul\":13212:13221   */\n      dup4\n        /* \"#utility.yul\":13208:13225   */\n      add\n        /* \"#utility.yul\":13201:13248   */\n      mstore\n        /* \"#utility.yul\":13265:13396   */\n      tag_265\n        /* \"#utility.yul\":13391:13395   */\n      dup2\n        /* \"#utility.yul\":13265:13396   */\n      tag_134\n      jump\t// in\n    tag_265:\n        /* \"#utility.yul\":13257:13396   */\n      swap1\n      pop\n        /* \"#utility.yul\":12984:13403   */\n      swap2\n      swap1\n      pop\n      jump\t// out\n        /* \"#utility.yul\":13409:13603   */\n    tag_84:\n        /* \"#utility.yul\":13449:13453   */\n      0x00\n        /* \"#utility.yul\":13469:13489   */\n      tag_267\n        /* \"#utility.yul\":13487:13488   */\n      dup3\n        /* \"#utility.yul\":13469:13489   */\n      tag_102\n      jump\t// in\n    tag_267:\n        /* \"#utility.yul\":13464:13489   */\n      swap2\n      pop\n        /* \"#utility.yul\":13503:13523   */\n      tag_268\n        /* \"#utility.yul\":13521:13522   */\n      dup4\n        /* \"#utility.yul\":13503:13523   */\n      tag_102\n      jump\t// in\n    tag_268:\n        /* \"#utility.yul\":13498:13523   */\n      swap3\n      pop\n        /* \"#utility.yul\":13547:13548   */\n      dup3\n        /* \"#utility.yul\":13544:13545   */\n      dup3\n        /* \"#utility.yul\":13540:13549   */\n      sub\n        /* \"#utility.yul\":13532:13549   */\n      swap1\n      pop\n        /* \"#utility.yul\":13571:13572   */\n      dup2\n        /* \"#utility.yul\":13565:13569   */\n      dup2\n        /* \"#utility.yul\":13562:13573   */\n      gt\n        /* \"#utility.yul\":13559:13596   */\n      iszero\n      tag_269\n      jumpi\n        /* \"#utility.yul\":13576:13594   */\n      tag_270\n      tag_128\n      jump\t// in\n    tag_270:\n        /* \"#utility.yul\":13559:13596   */\n    tag_269:\n        /* \"#utility.yul\":13409:13603   */\n      swap3\n      swap2\n      pop\n      pop\n      jump\t// out\n        /* \"#utility.yul\":13609:13756   */\n    tag_135:\n        /* \"#utility.yul\":13710:13721   */\n      0x00\n        /* \"#utility.yul\":13747:13750   */\n      dup2\n        /* \"#utility.yul\":13732:13750   */\n      swap1\n      pop\n        /* \"#utility.yul\":13609:13756   */\n      swap3\n      swap2\n      pop\n      pop\n      jump\t// out\n        /* \"#utility.yul\":13762:14148   */\n    tag_136:\n        /* \"#utility.yul\":13866:13869   */\n      0x00\n        /* \"#utility.yul\":13894:13932   */\n      tag_273\n        /* \"#utility.yul\":13926:13931   */\n      dup3\n        /* \"#utility.yul\":13894:13932   */\n      tag_119\n      jump\t// in\n    tag_273:\n        /* \"#utility.yul\":13948:14036   */\n      tag_274\n        /* \"#utility.yul\":14029:14035   */\n      dup2\n        /* \"#utility.yul\":14024:14027   */\n      dup6\n        /* \"#utility.yul\":13948:14036   */\n      tag_135\n      jump\t// in\n    tag_274:\n        /* \"#utility.yul\":13941:14036   */\n      swap4\n      pop\n        /* \"#utility.yul\":14045:14110   */\n      tag_275\n        /* \"#utility.yul\":14103:14109   */\n      dup2\n        /* \"#utility.yul\":14098:14101   */\n      dup6\n        /* \"#utility.yul\":14091:14095   */\n      0x20\n        /* \"#utility.yul\":14084:14089   */\n      dup7\n        /* \"#utility.yul\":14080:14096   */\n      add\n        /* \"#utility.yul\":14045:14110   */\n      tag_121\n      jump\t// in\n    tag_275:\n        /* \"#utility.yul\":14135:14141   */\n      dup1\n        /* \"#utility.yul\":14130:14133   */\n      dup5\n        /* \"#utility.yul\":14126:14142   */\n      add\n        /* \"#utility.yul\":14119:14142   */\n      swap2\n      pop\n        /* \"#utility.yul\":13870:14148   */\n      pop\n        /* \"#utility.yul\":13762:14148   */\n      swap3\n      swap2\n      pop\n      pop\n      jump\t// out\n        /* \"#utility.yul\":14154:14425   */\n    tag_86:\n        /* \"#utility.yul\":14284:14287   */\n      0x00\n        /* \"#utility.yul\":14306:14399   */\n      tag_277\n        /* \"#utility.yul\":14395:14398   */\n      dup3\n        /* \"#utility.yul\":14386:14392   */\n      dup5\n        /* \"#utility.yul\":14306:14399   */\n      tag_136\n      jump\t// in\n    tag_277:\n        /* \"#utility.yul\":14299:14399   */\n      swap2\n      pop\n        /* \"#utility.yul\":14416:14419   */\n      dup2\n        /* \"#utility.yul\":14409:14419   */\n      swap1\n      pop\n        /* \"#utility.yul\":14154:14425   */\n      swap3\n      swap2\n      pop\n      pop\n      jump\t// out\n        /* \"#utility.yul\":14431:14609   */\n    tag_137:\n        /* \"#utility.yul\":14571:14601   */\n      0x5472616e73616374696f6e206661696c65642c2061626f7274696e6700000000\n        /* \"#utility.yul\":14567:14568   */\n      0x00\n        /* \"#utility.yul\":14559:14565   */\n      dup3\n        /* \"#utility.yul\":14555:14569   */\n      add\n        /* \"#utility.yul\":14548:14602   */\n      mstore\n        /* \"#utility.yul\":14431:14609   */\n      pop\n      jump\t// out\n        /* \"#utility.yul\":14615:14981   */\n    tag_138:\n        /* \"#utility.yul\":14757:14760   */\n      0x00\n        /* \"#utility.yul\":14778:14845   */\n      tag_280\n        /* \"#utility.yul\":14842:14844   */\n      0x1c\n        /* \"#utility.yul\":14837:14840   */\n      dup4\n        /* \"#utility.yul\":14778:14845   */\n      tag_123\n      jump\t// in\n    tag_280:\n        /* \"#utility.yul\":14771:14845   */\n      swap2\n      pop\n        /* \"#utility.yul\":14854:14947   */\n      tag_281\n        /* \"#utility.yul\":14943:14946   */\n      dup3\n        /* \"#utility.yul\":14854:14947   */\n      tag_137\n      jump\t// in\n    tag_281:\n        /* \"#utility.yul\":14972:14974   */\n      0x20\n        /* \"#utility.yul\":14967:14970   */\n      dup3\n        /* \"#utility.yul\":14963:14975   */\n      add\n        /* \"#utility.yul\":14956:14975   */\n      swap1\n      pop\n        /* \"#utility.yul\":14615:14981   */\n      swap2\n      swap1\n      pop\n      jump\t// out\n        /* \"#utility.yul\":14987:15406   */\n    tag_92:\n        /* \"#utility.yul\":15153:15157   */\n      0x00\n        /* \"#utility.yul\":15191:15193   */\n      0x20\n        /* \"#utility.yul\":15180:15189   */\n      dup3\n        /* \"#utility.yul\":15176:15194   */\n      add\n        /* \"#utility.yul\":15168:15194   */\n      swap1\n      pop\n        /* \"#utility.yul\":15240:15249   */\n      dup2\n        /* \"#utility.yul\":15234:15238   */\n      dup2\n        /* \"#utility.yul\":15230:15250   */\n      sub\n        /* \"#utility.yul\":15226:15227   */\n      0x00\n        /* \"#utility.yul\":15215:15224   */\n      dup4\n        /* \"#utility.yul\":15211:15228   */\n      add\n        /* \"#utility.yul\":15204:15251   */\n      mstore\n        /* \"#utility.yul\":15268:15399   */\n      tag_283\n        /* \"#utility.yul\":15394:15398   */\n      dup2\n        /* \"#utility.yul\":15268:15399   */\n      tag_138\n      jump\t// in\n    tag_283:\n        /* \"#utility.yul\":15260:15399   */\n      swap1\n      pop\n        /* \"#utility.yul\":14987:15406   */\n      swap2\n      swap1\n      pop\n      jump\t// out\n\n    auxdata: 0xa26469706673582212209c78b461cab3046bfa00fb77b87bf9d2edc5c9be84af5404fe37c047c199aeb364736f6c634300081a0033\n}\n",
				"bytecode": {
					"linkReferences": {},
					"object": "6080604052348015600e575f80fd5b50335f806101000a81548173ffffffffffffffffffffffffffffffffffffffff021916908373ffffffffffffffffffffffffffffffffffffffff1602179055506111208061005b5f395ff3fe60806040526004361061007e575f3560e01c806383012be11161004d57806383012be114610151578063b1f8100d1461017b578063be45fd62146101a3578063f29e2236146101df57610085565b80630bc605ad14610089578063310ec4a7146100c55780633e5beab9146100ed5780637673de531461012957610085565b3661008557005b5f80fd5b348015610094575f80fd5b506100af60048036038101906100aa919061097c565b61021b565b6040516100bc91906109c1565b60405180910390f35b3480156100d0575f80fd5b506100eb60048036038101906100e69190610a0d565b610238565b005b3480156100f8575f80fd5b50610113600480360381019061010e919061097c565b610360565b6040516101209190610a5a565b60405180910390f35b348015610134575f80fd5b5061014f600480360381019061014a919061097c565b610375565b005b34801561015c575f80fd5b50610165610459565b6040516101729190610a5a565b60405180910390f35b348015610186575f80fd5b506101a1600480360381019061019c9190610aae565b61045e565b005b3480156101ae575f80fd5b506101c960048036038101906101c49190610c15565b610648565b6040516101d69190610ce1565b60405180910390f35b3480156101ea575f80fd5b506102056004803603810190610200919061097c565b6108f4565b60405161021291906109c1565b60405180910390f35b6002602052805f5260405f205f915054906101000a900460ff1681565b5f8054906101000a900473ffffffffffffffffffffffffffffffffffffffff1673ffffffffffffffffffffffffffffffffffffffff163373ffffffffffffffffffffffffffffffffffffffff16146102c5576040517f08c379a00000000000000000000000000000000000000000000000000000000081526004016102bc90610d5b565b60405180910390fd5b8060015f8473ffffffffffffffffffffffffffffffffffffffff1673ffffffffffffffffffffffffffffffffffffffff1681526020019081526020015f2081905550600160025f8473ffffffffffffffffffffffffffffffffffffffff1673ffffffffffffffffffffffffffffffffffffffff1681526020019081526020015f205f6101000a81548160ff0219169083151502179055505050565b6001602052805f5260405f205f915090505481565b5f8054906101000a900473ffffffffffffffffffffffffffffffffffffffff1673ffffffffffffffffffffffffffffffffffffffff163373ffffffffffffffffffffffffffffffffffffffff1614610402576040517f08c379a00000000000000000000000000000000000000000000000000000000081526004016103f990610d5b565b60405180910390fd5b5f60025f8373ffffffffffffffffffffffffffffffffffffffff1673ffffffffffffffffffffffffffffffffffffffff1681526020019081526020015f205f6101000a81548160ff02191690831515021790555050565b600381565b60035f3373ffffffffffffffffffffffffffffffffffffffff1673ffffffffffffffffffffffffffffffffffffffff1681526020019081526020015f205f9054906101000a900460ff166104e7576040517f08c379a00000000000000000000000000000000000000000000000000000000081526004016104de90610dc3565b60405180910390fd5b8073ffffffffffffffffffffffffffffffffffffffff1660045f9054906101000a900473ffffffffffffffffffffffffffffffffffffffff1673ffffffffffffffffffffffffffffffffffffffff1614610583578060045f6101000a81548173ffffffffffffffffffffffffffffffffffffffff021916908373ffffffffffffffffffffffffffffffffffffffff1602179055505f6005819055505b60055f81548092919061059590610e0e565b91905055506003600554106106455760045f9054906101000a900473ffffffffffffffffffffffffffffffffffffffff165f806101000a81548173ffffffffffffffffffffffffffffffffffffffff021916908373ffffffffffffffffffffffffffffffffffffffff1602179055505f60045f6101000a81548173ffffffffffffffffffffffffffffffffffffffff021916908373ffffffffffffffffffffffffffffffffffffffff1602179055505b50565b60604783111561068d576040517f08c379a000000000000000000000000000000000000000000000000000000000815260040161068490610ec5565b60405180910390fd5b5f8054906101000a900473ffffffffffffffffffffffffffffffffffffffff1673ffffffffffffffffffffffffffffffffffffffff163373ffffffffffffffffffffffffffffffffffffffff161461083c5760025f3373ffffffffffffffffffffffffffffffffffffffff1673ffffffffffffffffffffffffffffffffffffffff1681526020019081526020015f205f9054906101000a900460ff16610768576040517f08c379a000000000000000000000000000000000000000000000000000000000815260040161075f90610f53565b60405180910390fd5b8260015f3373ffffffffffffffffffffffffffffffffffffffff1673ffffffffffffffffffffffffffffffffffffffff1681526020019081526020015f205410156107e8576040517f08c379a00000000000000000000000000000000000000000000000000000000081526004016107df90610fe1565b60405180910390fd5b8260015f3373ffffffffffffffffffffffffffffffffffffffff1673ffffffffffffffffffffffffffffffffffffffff1681526020019081526020015f205f8282546108349190610fff565b925050819055505b5f808573ffffffffffffffffffffffffffffffffffffffff168585604051610864919061106c565b5f6040518083038185875af1925050503d805f811461089e576040519150601f19603f3d011682016040523d82523d5f602084013e6108a3565b606091505b5091509150816108e8576040517f08c379a00000000000000000000000000000000000000000000000000000000081526004016108df906110cc565b60405180910390fd5b80925050509392505050565b6003602052805f5260405f205f915054906101000a900460ff1681565b5f604051905090565b5f80fd5b5f80fd5b5f73ffffffffffffffffffffffffffffffffffffffff82169050919050565b5f61094b82610922565b9050919050565b61095b81610941565b8114610965575f80fd5b50565b5f8135905061097681610952565b92915050565b5f602082840312156109915761099061091a565b5b5f61099e84828501610968565b91505092915050565b5f8115159050919050565b6109bb816109a7565b82525050565b5f6020820190506109d45f8301846109b2565b92915050565b5f819050919050565b6109ec816109da565b81146109f6575f80fd5b50565b5f81359050610a07816109e3565b92915050565b5f8060408385031215610a2357610a2261091a565b5b5f610a3085828601610968565b9250506020610a41858286016109f9565b9150509250929050565b610a54816109da565b82525050565b5f602082019050610a6d5f830184610a4b565b92915050565b5f610a7d82610922565b9050919050565b610a8d81610a73565b8114610a97575f80fd5b50565b5f81359050610aa881610a84565b92915050565b5f60208284031215610ac357610ac261091a565b5b5f610ad084828501610a9a565b91505092915050565b5f80fd5b5f80fd5b5f601f19601f8301169050919050565b7f4e487b71000000000000000000000000000000000000000000000000000000005f52604160045260245ffd5b610b2782610ae1565b810181811067ffffffffffffffff82111715610b4657610b45610af1565b5b80604052505050565b5f610b58610911565b9050610b648282610b1e565b919050565b5f67ffffffffffffffff821115610b8357610b82610af1565b5b610b8c82610ae1565b9050602081019050919050565b828183375f83830152505050565b5f610bb9610bb484610b69565b610b4f565b905082815260208101848484011115610bd557610bd4610add565b5b610be0848285610b99565b509392505050565b5f82601f830112610bfc57610bfb610ad9565b5b8135610c0c848260208601610ba7565b91505092915050565b5f805f60608486031215610c2c57610c2b61091a565b5b5f610c3986828701610a9a565b9350506020610c4a868287016109f9565b925050604084013567ffffffffffffffff811115610c6b57610c6a61091e565b5b610c7786828701610be8565b9150509250925092565b5f81519050919050565b5f82825260208201905092915050565b8281835e5f83830152505050565b5f610cb382610c81565b610cbd8185610c8b565b9350610ccd818560208601610c9b565b610cd681610ae1565b840191505092915050565b5f6020820190508181035f830152610cf98184610ca9565b905092915050565b5f82825260208201905092915050565b7f596f7520617265206e6f7420746865206f776e65722c2061626f7274696e67215f82015250565b5f610d45602083610d01565b9150610d5082610d11565b602082019050919050565b5f6020820190508181035f830152610d7281610d39565b9050919050565b7f596f7520617265206e6f20677561726469616e2c2061626f7274696e670000005f82015250565b5f610dad601d83610d01565b9150610db882610d79565b602082019050919050565b5f6020820190508181035f830152610dda81610da1565b9050919050565b7f4e487b71000000000000000000000000000000000000000000000000000000005f52601160045260245ffd5b5f610e18826109da565b91507fffffffffffffffffffffffffffffffffffffffffffffffffffffffffffffffff8203610e4a57610e49610de1565b5b600182019050919050565b7f43616e27742073656e64206d6f7265207468616e2074686520636f6e747261635f8201527f74206f776e732c2061626f7274696e672e000000000000000000000000000000602082015250565b5f610eaf603183610d01565b9150610eba82610e55565b604082019050919050565b5f6020820190508181035f830152610edc81610ea3565b9050919050565b7f596f7520617265206e6f7420616c6c6f77656420746f2073656e6420616e79205f8201527f7472616e73616374696f6e732c2061626f7274696e6700000000000000000000602082015250565b5f610f3d603683610d01565b9150610f4882610ee3565b604082019050919050565b5f6020820190508181035f830152610f6a81610f31565b9050919050565b7f596f752061726520747279696e6720746f2073656e64206d6f7265207468616e5f8201527f20796f752061726520616c6c6f77656420746f2c2061626f7274696e67000000602082015250565b5f610fcb603d83610d01565b9150610fd682610f71565b604082019050919050565b5f6020820190508181035f830152610ff881610fbf565b9050919050565b5f611009826109da565b9150611014836109da565b925082820390508181111561102c5761102b610de1565b5b92915050565b5f81905092915050565b5f61104682610c81565b6110508185611032565b9350611060818560208601610c9b565b80840191505092915050565b5f611077828461103c565b915081905092915050565b7f5472616e73616374696f6e206661696c65642c2061626f7274696e67000000005f82015250565b5f6110b6601c83610d01565b91506110c182611082565b602082019050919050565b5f6020820190508181035f8301526110e3816110aa565b905091905056fea26469706673582212209c78b461cab3046bfa00fb77b87bf9d2edc5c9be84af5404fe37c047c199aeb364736f6c634300081a0033",
					"opcodes": "PUSH1 0x80 PUSH1 0x40 MSTORE CALLVALUE DUP1 ISZERO PUSH1 0xE JUMPI PUSH0 DUP1 REVERT JUMPDEST POP CALLER PUSH0 DUP1 PUSH2 0x100 EXP DUP2 SLOAD DUP2 PUSH20 0xFFFFFFFFFFFFFFFFFFFFFFFFFFFFFFFFFFFFFFFF MUL NOT AND SWAP1 DUP4 PUSH20 0xFFFFFFFFFFFFFFFFFFFFFFFFFFFFFFFFFFFFFFFF AND MUL OR SWAP1 SSTORE POP PUSH2 0x1120 DUP1 PUSH2 0x5B PUSH0 CODECOPY PUSH0 RETURN INVALID PUSH1 0x80 PUSH1 0x40 MSTORE PUSH1 0x4 CALLDATASIZE LT PUSH2 0x7E JUMPI PUSH0 CALLDATALOAD PUSH1 0xE0 SHR DUP1 PUSH4 0x83012BE1 GT PUSH2 0x4D JUMPI DUP1 PUSH4 0x83012BE1 EQ PUSH2 0x151 JUMPI DUP1 PUSH4 0xB1F8100D EQ PUSH2 0x17B JUMPI DUP1 PUSH4 0xBE45FD62 EQ PUSH2 0x1A3 JUMPI DUP1 PUSH4 0xF29E2236 EQ PUSH2 0x1DF JUMPI PUSH2 0x85 JUMP JUMPDEST DUP1 PUSH4 0xBC605AD EQ PUSH2 0x89 JUMPI DUP1 PUSH4 0x310EC4A7 EQ PUSH2 0xC5 JUMPI DUP1 PUSH4 0x3E5BEAB9 EQ PUSH2 0xED JUMPI DUP1 PUSH4 0x7673DE53 EQ PUSH2 0x129 JUMPI PUSH2 0x85 JUMP JUMPDEST CALLDATASIZE PUSH2 0x85 JUMPI STOP JUMPDEST PUSH0 DUP1 REVERT JUMPDEST CALLVALUE DUP1 ISZERO PUSH2 0x94 JUMPI PUSH0 DUP1 REVERT JUMPDEST POP PUSH2 0xAF PUSH1 0x4 DUP1 CALLDATASIZE SUB DUP2 ADD SWAP1 PUSH2 0xAA SWAP2 SWAP1 PUSH2 0x97C JUMP JUMPDEST PUSH2 0x21B JUMP JUMPDEST PUSH1 0x40 MLOAD PUSH2 0xBC SWAP2 SWAP1 PUSH2 0x9C1 JUMP JUMPDEST PUSH1 0x40 MLOAD DUP1 SWAP2 SUB SWAP1 RETURN JUMPDEST CALLVALUE DUP1 ISZERO PUSH2 0xD0 JUMPI PUSH0 DUP1 REVERT JUMPDEST POP PUSH2 0xEB PUSH1 0x4 DUP1 CALLDATASIZE SUB DUP2 ADD SWAP1 PUSH2 0xE6 SWAP2 SWAP1 PUSH2 0xA0D JUMP JUMPDEST PUSH2 0x238 JUMP JUMPDEST STOP JUMPDEST CALLVALUE DUP1 ISZERO PUSH2 0xF8 JUMPI PUSH0 DUP1 REVERT JUMPDEST POP PUSH2 0x113 PUSH1 0x4 DUP1 CALLDATASIZE SUB DUP2 ADD SWAP1 PUSH2 0x10E SWAP2 SWAP1 PUSH2 0x97C JUMP JUMPDEST PUSH2 0x360 JUMP JUMPDEST PUSH1 0x40 MLOAD PUSH2 0x120 SWAP2 SWAP1 PUSH2 0xA5A JUMP JUMPDEST PUSH1 0x40 MLOAD DUP1 SWAP2 SUB SWAP1 RETURN JUMPDEST CALLVALUE DUP1 ISZERO PUSH2 0x134 JUMPI PUSH0 DUP1 REVERT JUMPDEST POP PUSH2 0x14F PUSH1 0x4 DUP1 CALLDATASIZE SUB DUP2 ADD SWAP1 PUSH2 0x14A SWAP2 SWAP1 PUSH2 0x97C JUMP JUMPDEST PUSH2 0x375 JUMP JUMPDEST STOP JUMPDEST CALLVALUE DUP1 ISZERO PUSH2 0x15C JUMPI PUSH0 DUP1 REVERT JUMPDEST POP PUSH2 0x165 PUSH2 0x459 JUMP JUMPDEST PUSH1 0x40 MLOAD PUSH2 0x172 SWAP2 SWAP1 PUSH2 0xA5A JUMP JUMPDEST PUSH1 0x40 MLOAD DUP1 SWAP2 SUB SWAP1 RETURN JUMPDEST CALLVALUE DUP1 ISZERO PUSH2 0x186 JUMPI PUSH0 DUP1 REVERT JUMPDEST POP PUSH2 0x1A1 PUSH1 0x4 DUP1 CALLDATASIZE SUB DUP2 ADD SWAP1 PUSH2 0x19C SWAP2 SWAP1 PUSH2 0xAAE JUMP JUMPDEST PUSH2 0x45E JUMP JUMPDEST STOP JUMPDEST CALLVALUE DUP1 ISZERO PUSH2 0x1AE JUMPI PUSH0 DUP1 REVERT JUMPDEST POP PUSH2 0x1C9 PUSH1 0x4 DUP1 CALLDATASIZE SUB DUP2 ADD SWAP1 PUSH2 0x1C4 SWAP2 SWAP1 PUSH2 0xC15 JUMP JUMPDEST PUSH2 0x648 JUMP JUMPDEST PUSH1 0x40 MLOAD PUSH2 0x1D6 SWAP2 SWAP1 PUSH2 0xCE1 JUMP JUMPDEST PUSH1 0x40 MLOAD DUP1 SWAP2 SUB SWAP1 RETURN JUMPDEST CALLVALUE DUP1 ISZERO PUSH2 0x1EA JUMPI PUSH0 DUP1 REVERT JUMPDEST POP PUSH2 0x205 PUSH1 0x4 DUP1 CALLDATASIZE SUB DUP2 ADD SWAP1 PUSH2 0x200 SWAP2 SWAP1 PUSH2 0x97C JUMP JUMPDEST PUSH2 0x8F4 JUMP JUMPDEST PUSH1 0x40 MLOAD PUSH2 0x212 SWAP2 SWAP1 PUSH2 0x9C1 JUMP JUMPDEST PUSH1 0x40 MLOAD DUP1 SWAP2 SUB SWAP1 RETURN JUMPDEST PUSH1 0x2 PUSH1 0x20 MSTORE DUP1 PUSH0 MSTORE PUSH1 0x40 PUSH0 KECCAK256 PUSH0 SWAP2 POP SLOAD SWAP1 PUSH2 0x100 EXP SWAP1 DIV PUSH1 0xFF AND DUP2 JUMP JUMPDEST PUSH0 DUP1 SLOAD SWAP1 PUSH2 0x100 EXP SWAP1 DIV PUSH20 0xFFFFFFFFFFFFFFFFFFFFFFFFFFFFFFFFFFFFFFFF AND PUSH20 0xFFFFFFFFFFFFFFFFFFFFFFFFFFFFFFFFFFFFFFFF AND CALLER PUSH20 0xFFFFFFFFFFFFFFFFFFFFFFFFFFFFFFFFFFFFFFFF AND EQ PUSH2 0x2C5 JUMPI PUSH1 0x40 MLOAD PUSH32 0x8C379A000000000000000000000000000000000000000000000000000000000 DUP2 MSTORE PUSH1 0x4 ADD PUSH2 0x2BC SWAP1 PUSH2 0xD5B JUMP JUMPDEST PUSH1 0x40 MLOAD DUP1 SWAP2 SUB SWAP1 REVERT JUMPDEST DUP1 PUSH1 0x1 PUSH0 DUP5 PUSH20 0xFFFFFFFFFFFFFFFFFFFFFFFFFFFFFFFFFFFFFFFF AND PUSH20 0xFFFFFFFFFFFFFFFFFFFFFFFFFFFFFFFFFFFFFFFF AND DUP2 MSTORE PUSH1 0x20 ADD SWAP1 DUP2 MSTORE PUSH1 0x20 ADD PUSH0 KECCAK256 DUP2 SWAP1 SSTORE POP PUSH1 0x1 PUSH1 0x2 PUSH0 DUP5 PUSH20 0xFFFFFFFFFFFFFFFFFFFFFFFFFFFFFFFFFFFFFFFF AND PUSH20 0xFFFFFFFFFFFFFFFFFFFFFFFFFFFFFFFFFFFFFFFF AND DUP2 MSTORE PUSH1 0x20 ADD SWAP1 DUP2 MSTORE PUSH1 0x20 ADD PUSH0 KECCAK256 PUSH0 PUSH2 0x100 EXP DUP2 SLOAD DUP2 PUSH1 0xFF MUL NOT AND SWAP1 DUP4 ISZERO ISZERO MUL OR SWAP1 SSTORE POP POP POP JUMP JUMPDEST PUSH1 0x1 PUSH1 0x20 MSTORE DUP1 PUSH0 MSTORE PUSH1 0x40 PUSH0 KECCAK256 PUSH0 SWAP2 POP SWAP1 POP SLOAD DUP2 JUMP JUMPDEST PUSH0 DUP1 SLOAD SWAP1 PUSH2 0x100 EXP SWAP1 DIV PUSH20 0xFFFFFFFFFFFFFFFFFFFFFFFFFFFFFFFFFFFFFFFF AND PUSH20 0xFFFFFFFFFFFFFFFFFFFFFFFFFFFFFFFFFFFFFFFF AND CALLER PUSH20 0xFFFFFFFFFFFFFFFFFFFFFFFFFFFFFFFFFFFFFFFF AND EQ PUSH2 0x402 JUMPI PUSH1 0x40 MLOAD PUSH32 0x8C379A000000000000000000000000000000000000000000000000000000000 DUP2 MSTORE PUSH1 0x4 ADD PUSH2 0x3F9 SWAP1 PUSH2 0xD5B JUMP JUMPDEST PUSH1 0x40 MLOAD DUP1 SWAP2 SUB SWAP1 REVERT JUMPDEST PUSH0 PUSH1 0x2 PUSH0 DUP4 PUSH20 0xFFFFFFFFFFFFFFFFFFFFFFFFFFFFFFFFFFFFFFFF AND PUSH20 0xFFFFFFFFFFFFFFFFFFFFFFFFFFFFFFFFFFFFFFFF AND DUP2 MSTORE PUSH1 0x20 ADD SWAP1 DUP2 MSTORE PUSH1 0x20 ADD PUSH0 KECCAK256 PUSH0 PUSH2 0x100 EXP DUP2 SLOAD DUP2 PUSH1 0xFF MUL NOT AND SWAP1 DUP4 ISZERO ISZERO MUL OR SWAP1 SSTORE POP POP JUMP JUMPDEST PUSH1 0x3 DUP2 JUMP JUMPDEST PUSH1 0x3 PUSH0 CALLER PUSH20 0xFFFFFFFFFFFFFFFFFFFFFFFFFFFFFFFFFFFFFFFF AND PUSH20 0xFFFFFFFFFFFFFFFFFFFFFFFFFFFFFFFFFFFFFFFF AND DUP2 MSTORE PUSH1 0x20 ADD SWAP1 DUP2 MSTORE PUSH1 0x20 ADD PUSH0 KECCAK256 PUSH0 SWAP1 SLOAD SWAP1 PUSH2 0x100 EXP SWAP1 DIV PUSH1 0xFF AND PUSH2 0x4E7 JUMPI PUSH1 0x40 MLOAD PUSH32 0x8C379A000000000000000000000000000000000000000000000000000000000 DUP2 MSTORE PUSH1 0x4 ADD PUSH2 0x4DE SWAP1 PUSH2 0xDC3 JUMP JUMPDEST PUSH1 0x40 MLOAD DUP1 SWAP2 SUB SWAP1 REVERT JUMPDEST DUP1 PUSH20 0xFFFFFFFFFFFFFFFFFFFFFFFFFFFFFFFFFFFFFFFF AND PUSH1 0x4 PUSH0 SWAP1 SLOAD SWAP1 PUSH2 0x100 EXP SWAP1 DIV PUSH20 0xFFFFFFFFFFFFFFFFFFFFFFFFFFFFFFFFFFFFFFFF AND PUSH20 0xFFFFFFFFFFFFFFFFFFFFFFFFFFFFFFFFFFFFFFFF AND EQ PUSH2 0x583 JUMPI DUP1 PUSH1 0x4 PUSH0 PUSH2 0x100 EXP DUP2 SLOAD DUP2 PUSH20 0xFFFFFFFFFFFFFFFFFFFFFFFFFFFFFFFFFFFFFFFF MUL NOT AND SWAP1 DUP4 PUSH20 0xFFFFFFFFFFFFFFFFFFFFFFFFFFFFFFFFFFFFFFFF AND MUL OR SWAP1 SSTORE POP PUSH0 PUSH1 0x5 DUP2 SWAP1 SSTORE POP JUMPDEST PUSH1 0x5 PUSH0 DUP2 SLOAD DUP1 SWAP3 SWAP2 SWAP1 PUSH2 0x595 SWAP1 PUSH2 0xE0E JUMP JUMPDEST SWAP2 SWAP1 POP SSTORE POP PUSH1 0x3 PUSH1 0x5 SLOAD LT PUSH2 0x645 JUMPI PUSH1 0x4 PUSH0 SWAP1 SLOAD SWAP1 PUSH2 0x100 EXP SWAP1 DIV PUSH20 0xFFFFFFFFFFFFFFFFFFFFFFFFFFFFFFFFFFFFFFFF AND PUSH0 DUP1 PUSH2 0x100 EXP DUP2 SLOAD DUP2 PUSH20 0xFFFFFFFFFFFFFFFFFFFFFFFFFFFFFFFFFFFFFFFF MUL NOT AND SWAP1 DUP4 PUSH20 0xFFFFFFFFFFFFFFFFFFFFFFFFFFFFFFFFFFFFFFFF AND MUL OR SWAP1 SSTORE POP PUSH0 PUSH1 0x4 PUSH0 PUSH2 0x100 EXP DUP2 SLOAD DUP2 PUSH20 0xFFFFFFFFFFFFFFFFFFFFFFFFFFFFFFFFFFFFFFFF MUL NOT AND SWAP1 DUP4 PUSH20 0xFFFFFFFFFFFFFFFFFFFFFFFFFFFFFFFFFFFFFFFF AND MUL OR SWAP1 SSTORE POP JUMPDEST POP JUMP JUMPDEST PUSH1 0x60 SELFBALANCE DUP4 GT ISZERO PUSH2 0x68D JUMPI PUSH1 0x40 MLOAD PUSH32 0x8C379A000000000000000000000000000000000000000000000000000000000 DUP2 MSTORE PUSH1 0x4 ADD PUSH2 0x684 SWAP1 PUSH2 0xEC5 JUMP JUMPDEST PUSH1 0x40 MLOAD DUP1 SWAP2 SUB SWAP1 REVERT JUMPDEST PUSH0 DUP1 SLOAD SWAP1 PUSH2 0x100 EXP SWAP1 DIV PUSH20 0xFFFFFFFFFFFFFFFFFFFFFFFFFFFFFFFFFFFFFFFF AND PUSH20 0xFFFFFFFFFFFFFFFFFFFFFFFFFFFFFFFFFFFFFFFF AND CALLER PUSH20 0xFFFFFFFFFFFFFFFFFFFFFFFFFFFFFFFFFFFFFFFF AND EQ PUSH2 0x83C JUMPI PUSH1 0x2 PUSH0 CALLER PUSH20 0xFFFFFFFFFFFFFFFFFFFFFFFFFFFFFFFFFFFFFFFF AND PUSH20 0xFFFFFFFFFFFFFFFFFFFFFFFFFFFFFFFFFFFFFFFF AND DUP2 MSTORE PUSH1 0x20 ADD SWAP1 DUP2 MSTORE PUSH1 0x20 ADD PUSH0 KECCAK256 PUSH0 SWAP1 SLOAD SWAP1 PUSH2 0x100 EXP SWAP1 DIV PUSH1 0xFF AND PUSH2 0x768 JUMPI PUSH1 0x40 MLOAD PUSH32 0x8C379A000000000000000000000000000000000000000000000000000000000 DUP2 MSTORE PUSH1 0x4 ADD PUSH2 0x75F SWAP1 PUSH2 0xF53 JUMP JUMPDEST PUSH1 0x40 MLOAD DUP1 SWAP2 SUB SWAP1 REVERT JUMPDEST DUP3 PUSH1 0x1 PUSH0 CALLER PUSH20 0xFFFFFFFFFFFFFFFFFFFFFFFFFFFFFFFFFFFFFFFF AND PUSH20 0xFFFFFFFFFFFFFFFFFFFFFFFFFFFFFFFFFFFFFFFF AND DUP2 MSTORE PUSH1 0x20 ADD SWAP1 DUP2 MSTORE PUSH1 0x20 ADD PUSH0 KECCAK256 SLOAD LT ISZERO PUSH2 0x7E8 JUMPI PUSH1 0x40 MLOAD PUSH32 0x8C379A000000000000000000000000000000000000000000000000000000000 DUP2 MSTORE PUSH1 0x4 ADD PUSH2 0x7DF SWAP1 PUSH2 0xFE1 JUMP JUMPDEST PUSH1 0x40 MLOAD DUP1 SWAP2 SUB SWAP1 REVERT JUMPDEST DUP3 PUSH1 0x1 PUSH0 CALLER PUSH20 0xFFFFFFFFFFFFFFFFFFFFFFFFFFFFFFFFFFFFFFFF AND PUSH20 0xFFFFFFFFFFFFFFFFFFFFFFFFFFFFFFFFFFFFFFFF AND DUP2 MSTORE PUSH1 0x20 ADD SWAP1 DUP2 MSTORE PUSH1 0x20 ADD PUSH0 KECCAK256 PUSH0 DUP3 DUP3 SLOAD PUSH2 0x834 SWAP2 SWAP1 PUSH2 0xFFF JUMP JUMPDEST SWAP3 POP POP DUP2 SWAP1 SSTORE POP JUMPDEST PUSH0 DUP1 DUP6 PUSH20 0xFFFFFFFFFFFFFFFFFFFFFFFFFFFFFFFFFFFFFFFF AND DUP6 DUP6 PUSH1 0x40 MLOAD PUSH2 0x864 SWAP2 SWAP1 PUSH2 0x106C JUMP JUMPDEST PUSH0 PUSH1 0x40 MLOAD DUP1 DUP4 SUB DUP2 DUP6 DUP8 GAS CALL SWAP3 POP POP POP RETURNDATASIZE DUP1 PUSH0 DUP2 EQ PUSH2 0x89E JUMPI PUSH1 0x40 MLOAD SWAP2 POP PUSH1 0x1F NOT PUSH1 0x3F RETURNDATASIZE ADD AND DUP3 ADD PUSH1 0x40 MSTORE RETURNDATASIZE DUP3 MSTORE RETURNDATASIZE PUSH0 PUSH1 0x20 DUP5 ADD RETURNDATACOPY PUSH2 0x8A3 JUMP JUMPDEST PUSH1 0x60 SWAP2 POP JUMPDEST POP SWAP2 POP SWAP2 POP DUP2 PUSH2 0x8E8 JUMPI PUSH1 0x40 MLOAD PUSH32 0x8C379A000000000000000000000000000000000000000000000000000000000 DUP2 MSTORE PUSH1 0x4 ADD PUSH2 0x8DF SWAP1 PUSH2 0x10CC JUMP JUMPDEST PUSH1 0x40 MLOAD DUP1 SWAP2 SUB SWAP1 REVERT JUMPDEST DUP1 SWAP3 POP POP POP SWAP4 SWAP3 POP POP POP JUMP JUMPDEST PUSH1 0x3 PUSH1 0x20 MSTORE DUP1 PUSH0 MSTORE PUSH1 0x40 PUSH0 KECCAK256 PUSH0 SWAP2 POP SLOAD SWAP1 PUSH2 0x100 EXP SWAP1 DIV PUSH1 0xFF AND DUP2 JUMP JUMPDEST PUSH0 PUSH1 0x40 MLOAD SWAP1 POP SWAP1 JUMP JUMPDEST PUSH0 DUP1 REVERT JUMPDEST PUSH0 DUP1 REVERT JUMPDEST PUSH0 PUSH20 0xFFFFFFFFFFFFFFFFFFFFFFFFFFFFFFFFFFFFFFFF DUP3 AND SWAP1 POP SWAP2 SWAP1 POP JUMP JUMPDEST PUSH0 PUSH2 0x94B DUP3 PUSH2 0x922 JUMP JUMPDEST SWAP1 POP SWAP2 SWAP1 POP JUMP JUMPDEST PUSH2 0x95B DUP2 PUSH2 0x941 JUMP JUMPDEST DUP2 EQ PUSH2 0x965 JUMPI PUSH0 DUP1 REVERT JUMPDEST POP JUMP JUMPDEST PUSH0 DUP2 CALLDATALOAD SWAP1 POP PUSH2 0x976 DUP2 PUSH2 0x952 JUMP JUMPDEST SWAP3 SWAP2 POP POP JUMP JUMPDEST PUSH0 PUSH1 0x20 DUP3 DUP5 SUB SLT ISZERO PUSH2 0x991 JUMPI PUSH2 0x990 PUSH2 0x91A JUMP JUMPDEST JUMPDEST PUSH0 PUSH2 0x99E DUP5 DUP3 DUP6 ADD PUSH2 0x968 JUMP JUMPDEST SWAP2 POP POP SWAP3 SWAP2 POP POP JUMP JUMPDEST PUSH0 DUP2 ISZERO ISZERO SWAP1 POP SWAP2 SWAP1 POP JUMP JUMPDEST PUSH2 0x9BB DUP2 PUSH2 0x9A7 JUMP JUMPDEST DUP3 MSTORE POP POP JUMP JUMPDEST PUSH0 PUSH1 0x20 DUP3 ADD SWAP1 POP PUSH2 0x9D4 PUSH0 DUP4 ADD DUP5 PUSH2 0x9B2 JUMP JUMPDEST SWAP3 SWAP2 POP POP JUMP JUMPDEST PUSH0 DUP2 SWAP1 POP SWAP2 SWAP1 POP JUMP JUMPDEST PUSH2 0x9EC DUP2 PUSH2 0x9DA JUMP JUMPDEST DUP2 EQ PUSH2 0x9F6 JUMPI PUSH0 DUP1 REVERT JUMPDEST POP JUMP JUMPDEST PUSH0 DUP2 CALLDATALOAD SWAP1 POP PUSH2 0xA07 DUP2 PUSH2 0x9E3 JUMP JUMPDEST SWAP3 SWAP2 POP POP JUMP JUMPDEST PUSH0 DUP1 PUSH1 0x40 DUP4 DUP6 SUB SLT ISZERO PUSH2 0xA23 JUMPI PUSH2 0xA22 PUSH2 0x91A JUMP JUMPDEST JUMPDEST PUSH0 PUSH2 0xA30 DUP6 DUP3 DUP7 ADD PUSH2 0x968 JUMP JUMPDEST SWAP3 POP POP PUSH1 0x20 PUSH2 0xA41 DUP6 DUP3 DUP7 ADD PUSH2 0x9F9 JUMP JUMPDEST SWAP2 POP POP SWAP3 POP SWAP3 SWAP1 POP JUMP JUMPDEST PUSH2 0xA54 DUP2 PUSH2 0x9DA JUMP JUMPDEST DUP3 MSTORE POP POP JUMP JUMPDEST PUSH0 PUSH1 0x20 DUP3 ADD SWAP1 POP PUSH2 0xA6D PUSH0 DUP4 ADD DUP5 PUSH2 0xA4B JUMP JUMPDEST SWAP3 SWAP2 POP POP JUMP JUMPDEST PUSH0 PUSH2 0xA7D DUP3 PUSH2 0x922 JUMP JUMPDEST SWAP1 POP SWAP2 SWAP1 POP JUMP JUMPDEST PUSH2 0xA8D DUP2 PUSH2 0xA73 JUMP JUMPDEST DUP2 EQ PUSH2 0xA97 JUMPI PUSH0 DUP1 REVERT JUMPDEST POP JUMP JUMPDEST PUSH0 DUP2 CALLDATALOAD SWAP1 POP PUSH2 0xAA8 DUP2 PUSH2 0xA84 JUMP JUMPDEST SWAP3 SWAP2 POP POP JUMP JUMPDEST PUSH0 PUSH1 0x20 DUP3 DUP5 SUB SLT ISZERO PUSH2 0xAC3 JUMPI PUSH2 0xAC2 PUSH2 0x91A JUMP JUMPDEST JUMPDEST PUSH0 PUSH2 0xAD0 DUP5 DUP3 DUP6 ADD PUSH2 0xA9A JUMP JUMPDEST SWAP2 POP POP SWAP3 SWAP2 POP POP JUMP JUMPDEST PUSH0 DUP1 REVERT JUMPDEST PUSH0 DUP1 REVERT JUMPDEST PUSH0 PUSH1 0x1F NOT PUSH1 0x1F DUP4 ADD AND SWAP1 POP SWAP2 SWAP1 POP JUMP JUMPDEST PUSH32 0x4E487B7100000000000000000000000000000000000000000000000000000000 PUSH0 MSTORE PUSH1 0x41 PUSH1 0x4 MSTORE PUSH1 0x24 PUSH0 REVERT JUMPDEST PUSH2 0xB27 DUP3 PUSH2 0xAE1 JUMP JUMPDEST DUP2 ADD DUP2 DUP2 LT PUSH8 0xFFFFFFFFFFFFFFFF DUP3 GT OR ISZERO PUSH2 0xB46 JUMPI PUSH2 0xB45 PUSH2 0xAF1 JUMP JUMPDEST JUMPDEST DUP1 PUSH1 0x40 MSTORE POP POP POP JUMP JUMPDEST PUSH0 PUSH2 0xB58 PUSH2 0x911 JUMP JUMPDEST SWAP1 POP PUSH2 0xB64 DUP3 DUP3 PUSH2 0xB1E JUMP JUMPDEST SWAP2 SWAP1 POP JUMP JUMPDEST PUSH0 PUSH8 0xFFFFFFFFFFFFFFFF DUP3 GT ISZERO PUSH2 0xB83 JUMPI PUSH2 0xB82 PUSH2 0xAF1 JUMP JUMPDEST JUMPDEST PUSH2 0xB8C DUP3 PUSH2 0xAE1 JUMP JUMPDEST SWAP1 POP PUSH1 0x20 DUP2 ADD SWAP1 POP SWAP2 SWAP1 POP JUMP JUMPDEST DUP3 DUP2 DUP4 CALLDATACOPY PUSH0 DUP4 DUP4 ADD MSTORE POP POP POP JUMP JUMPDEST PUSH0 PUSH2 0xBB9 PUSH2 0xBB4 DUP5 PUSH2 0xB69 JUMP JUMPDEST PUSH2 0xB4F JUMP JUMPDEST SWAP1 POP DUP3 DUP2 MSTORE PUSH1 0x20 DUP2 ADD DUP5 DUP5 DUP5 ADD GT ISZERO PUSH2 0xBD5 JUMPI PUSH2 0xBD4 PUSH2 0xADD JUMP JUMPDEST JUMPDEST PUSH2 0xBE0 DUP5 DUP3 DUP6 PUSH2 0xB99 JUMP JUMPDEST POP SWAP4 SWAP3 POP POP POP JUMP JUMPDEST PUSH0 DUP3 PUSH1 0x1F DUP4 ADD SLT PUSH2 0xBFC JUMPI PUSH2 0xBFB PUSH2 0xAD9 JUMP JUMPDEST JUMPDEST DUP2 CALLDATALOAD PUSH2 0xC0C DUP5 DUP3 PUSH1 0x20 DUP7 ADD PUSH2 0xBA7 JUMP JUMPDEST SWAP2 POP POP SWAP3 SWAP2 POP POP JUMP JUMPDEST PUSH0 DUP1 PUSH0 PUSH1 0x60 DUP5 DUP7 SUB SLT ISZERO PUSH2 0xC2C JUMPI PUSH2 0xC2B PUSH2 0x91A JUMP JUMPDEST JUMPDEST PUSH0 PUSH2 0xC39 DUP7 DUP3 DUP8 ADD PUSH2 0xA9A JUMP JUMPDEST SWAP4 POP POP PUSH1 0x20 PUSH2 0xC4A DUP7 DUP3 DUP8 ADD PUSH2 0x9F9 JUMP JUMPDEST SWAP3 POP POP PUSH1 0x40 DUP5 ADD CALLDATALOAD PUSH8 0xFFFFFFFFFFFFFFFF DUP2 GT ISZERO PUSH2 0xC6B JUMPI PUSH2 0xC6A PUSH2 0x91E JUMP JUMPDEST JUMPDEST PUSH2 0xC77 DUP7 DUP3 DUP8 ADD PUSH2 0xBE8 JUMP JUMPDEST SWAP2 POP POP SWAP3 POP SWAP3 POP SWAP3 JUMP JUMPDEST PUSH0 DUP2 MLOAD SWAP1 POP SWAP2 SWAP1 POP JUMP JUMPDEST PUSH0 DUP3 DUP3 MSTORE PUSH1 0x20 DUP3 ADD SWAP1 POP SWAP3 SWAP2 POP POP JUMP JUMPDEST DUP3 DUP2 DUP4 MCOPY PUSH0 DUP4 DUP4 ADD MSTORE POP POP POP JUMP JUMPDEST PUSH0 PUSH2 0xCB3 DUP3 PUSH2 0xC81 JUMP JUMPDEST PUSH2 0xCBD DUP2 DUP6 PUSH2 0xC8B JUMP JUMPDEST SWAP4 POP PUSH2 0xCCD DUP2 DUP6 PUSH1 0x20 DUP7 ADD PUSH2 0xC9B JUMP JUMPDEST PUSH2 0xCD6 DUP2 PUSH2 0xAE1 JUMP JUMPDEST DUP5 ADD SWAP2 POP POP SWAP3 SWAP2 POP POP JUMP JUMPDEST PUSH0 PUSH1 0x20 DUP3 ADD SWAP1 POP DUP2 DUP2 SUB PUSH0 DUP4 ADD MSTORE PUSH2 0xCF9 DUP2 DUP5 PUSH2 0xCA9 JUMP JUMPDEST SWAP1 POP SWAP3 SWAP2 POP POP JUMP JUMPDEST PUSH0 DUP3 DUP3 MSTORE PUSH1 0x20 DUP3 ADD SWAP1 POP SWAP3 SWAP2 POP POP JUMP JUMPDEST PUSH32 0x596F7520617265206E6F7420746865206F776E65722C2061626F7274696E6721 PUSH0 DUP3 ADD MSTORE POP JUMP JUMPDEST PUSH0 PUSH2 0xD45 PUSH1 0x20 DUP4 PUSH2 0xD01 JUMP JUMPDEST SWAP2 POP PUSH2 0xD50 DUP3 PUSH2 0xD11 JUMP JUMPDEST PUSH1 0x20 DUP3 ADD SWAP1 POP SWAP2 SWAP1 POP JUMP JUMPDEST PUSH0 PUSH1 0x20 DUP3 ADD SWAP1 POP DUP2 DUP2 SUB PUSH0 DUP4 ADD MSTORE PUSH2 0xD72 DUP2 PUSH2 0xD39 JUMP JUMPDEST SWAP1 POP SWAP2 SWAP1 POP JUMP JUMPDEST PUSH32 0x596F7520617265206E6F20677561726469616E2C2061626F7274696E67000000 PUSH0 DUP3 ADD MSTORE POP JUMP JUMPDEST PUSH0 PUSH2 0xDAD PUSH1 0x1D DUP4 PUSH2 0xD01 JUMP JUMPDEST SWAP2 POP PUSH2 0xDB8 DUP3 PUSH2 0xD79 JUMP JUMPDEST PUSH1 0x20 DUP3 ADD SWAP1 POP SWAP2 SWAP1 POP JUMP JUMPDEST PUSH0 PUSH1 0x20 DUP3 ADD SWAP1 POP DUP2 DUP2 SUB PUSH0 DUP4 ADD MSTORE PUSH2 0xDDA DUP2 PUSH2 0xDA1 JUMP JUMPDEST SWAP1 POP SWAP2 SWAP1 POP JUMP JUMPDEST PUSH32 0x4E487B7100000000000000000000000000000000000000000000000000000000 PUSH0 MSTORE PUSH1 0x11 PUSH1 0x4 MSTORE PUSH1 0x24 PUSH0 REVERT JUMPDEST PUSH0 PUSH2 0xE18 DUP3 PUSH2 0x9DA JUMP JUMPDEST SWAP2 POP PUSH32 0xFFFFFFFFFFFFFFFFFFFFFFFFFFFFFFFFFFFFFFFFFFFFFFFFFFFFFFFFFFFFFFFF DUP3 SUB PUSH2 0xE4A JUMPI PUSH2 0xE49 PUSH2 0xDE1 JUMP JUMPDEST JUMPDEST PUSH1 0x1 DUP3 ADD SWAP1 POP SWAP2 SWAP1 POP JUMP JUMPDEST PUSH32 0x43616E27742073656E64206D6F7265207468616E2074686520636F6E74726163 PUSH0 DUP3 ADD MSTORE PUSH32 0x74206F776E732C2061626F7274696E672E000000000000000000000000000000 PUSH1 0x20 DUP3 ADD MSTORE POP JUMP JUMPDEST PUSH0 PUSH2 0xEAF PUSH1 0x31 DUP4 PUSH2 0xD01 JUMP JUMPDEST SWAP2 POP PUSH2 0xEBA DUP3 PUSH2 0xE55 JUMP JUMPDEST PUSH1 0x40 DUP3 ADD SWAP1 POP SWAP2 SWAP1 POP JUMP JUMPDEST PUSH0 PUSH1 0x20 DUP3 ADD SWAP1 POP DUP2 DUP2 SUB PUSH0 DUP4 ADD MSTORE PUSH2 0xEDC DUP2 PUSH2 0xEA3 JUMP JUMPDEST SWAP1 POP SWAP2 SWAP1 POP JUMP JUMPDEST PUSH32 0x596F7520617265206E6F7420616C6C6F77656420746F2073656E6420616E7920 PUSH0 DUP3 ADD MSTORE PUSH32 0x7472616E73616374696F6E732C2061626F7274696E6700000000000000000000 PUSH1 0x20 DUP3 ADD MSTORE POP JUMP JUMPDEST PUSH0 PUSH2 0xF3D PUSH1 0x36 DUP4 PUSH2 0xD01 JUMP JUMPDEST SWAP2 POP PUSH2 0xF48 DUP3 PUSH2 0xEE3 JUMP JUMPDEST PUSH1 0x40 DUP3 ADD SWAP1 POP SWAP2 SWAP1 POP JUMP JUMPDEST PUSH0 PUSH1 0x20 DUP3 ADD SWAP1 POP DUP2 DUP2 SUB PUSH0 DUP4 ADD MSTORE PUSH2 0xF6A DUP2 PUSH2 0xF31 JUMP JUMPDEST SWAP1 POP SWAP2 SWAP1 POP JUMP JUMPDEST PUSH32 0x596F752061726520747279696E6720746F2073656E64206D6F7265207468616E PUSH0 DUP3 ADD MSTORE PUSH32 0x20796F752061726520616C6C6F77656420746F2C2061626F7274696E67000000 PUSH1 0x20 DUP3 ADD MSTORE POP JUMP JUMPDEST PUSH0 PUSH2 0xFCB PUSH1 0x3D DUP4 PUSH2 0xD01 JUMP JUMPDEST SWAP2 POP PUSH2 0xFD6 DUP3 PUSH2 0xF71 JUMP JUMPDEST PUSH1 0x40 DUP3 ADD SWAP1 POP SWAP2 SWAP1 POP JUMP JUMPDEST PUSH0 PUSH1 0x20 DUP3 ADD SWAP1 POP DUP2 DUP2 SUB PUSH0 DUP4 ADD MSTORE PUSH2 0xFF8 DUP2 PUSH2 0xFBF JUMP JUMPDEST SWAP1 POP SWAP2 SWAP1 POP JUMP JUMPDEST PUSH0 PUSH2 0x1009 DUP3 PUSH2 0x9DA JUMP JUMPDEST SWAP2 POP PUSH2 0x1014 DUP4 PUSH2 0x9DA JUMP JUMPDEST SWAP3 POP DUP3 DUP3 SUB SWAP1 POP DUP2 DUP2 GT ISZERO PUSH2 0x102C JUMPI PUSH2 0x102B PUSH2 0xDE1 JUMP JUMPDEST JUMPDEST SWAP3 SWAP2 POP POP JUMP JUMPDEST PUSH0 DUP2 SWAP1 POP SWAP3 SWAP2 POP POP JUMP JUMPDEST PUSH0 PUSH2 0x1046 DUP3 PUSH2 0xC81 JUMP JUMPDEST PUSH2 0x1050 DUP2 DUP6 PUSH2 0x1032 JUMP JUMPDEST SWAP4 POP PUSH2 0x1060 DUP2 DUP6 PUSH1 0x20 DUP7 ADD PUSH2 0xC9B JUMP JUMPDEST DUP1 DUP5 ADD SWAP2 POP POP SWAP3 SWAP2 POP POP JUMP JUMPDEST PUSH0 PUSH2 0x1077 DUP3 DUP5 PUSH2 0x103C JUMP JUMPDEST SWAP2 POP DUP2 SWAP1 POP SWAP3 SWAP2 POP POP JUMP JUMPDEST PUSH32 0x5472616E73616374696F6E206661696C65642C2061626F7274696E6700000000 PUSH0 DUP3 ADD MSTORE POP JUMP JUMPDEST PUSH0 PUSH2 0x10B6 PUSH1 0x1C DUP4 PUSH2 0xD01 JUMP JUMPDEST SWAP2 POP PUSH2 0x10C1 DUP3 PUSH2 0x1082 JUMP JUMPDEST PUSH1 0x20 DUP3 ADD SWAP1 POP SWAP2 SWAP1 POP JUMP JUMPDEST PUSH0 PUSH1 0x20 DUP3 ADD SWAP1 POP DUP2 DUP2 SUB PUSH0 DUP4 ADD MSTORE PUSH2 0x10E3 DUP2 PUSH2 0x10AA JUMP JUMPDEST SWAP1 POP SWAP2 SWAP1 POP JUMP INVALID LOG2 PUSH5 0x6970667358 0x22 SLT KECCAK256 SWAP13 PUSH25 0xB461CAB3046BFA00FB77B87BF9D2EDC5C9BE84AF5404FE37C0 SELFBALANCE 0xC1 SWAP10 0xAE 0xB3 PUSH5 0x736F6C6343 STOP ADDMOD BYTE STOP CALLER "
				},
				"gasEstimates": {
					"creation": {
						"codeDepositCost": "876800",
						"executionCost": "25172",
						"totalCost": "901972"
					},
					"external": {
						"allowance(address)": "2847",
						"confirmationsFromGuardiansForReset()": "325",
						"denySending(address)": "27035",
						"guardian(address)": "2899",
						"isAllowedToSend(address)": "2834",
						"proposeNewOwner(address)": "60636",
						"setAllowance(address,uint256)": "49365",
						"transfer(address,uint256,bytes)": "infinite"
					}
				},
				"methodIdentifiers": {
					"allowance(address)": "3e5beab9",
					"confirmationsFromGuardiansForReset()": "83012be1",
					"denySending(address)": "7673de53",
					"guardian(address)": "f29e2236",
					"isAllowedToSend(address)": "0bc605ad",
					"proposeNewOwner(address)": "b1f8100d",
					"setAllowance(address,uint256)": "310ec4a7",
					"transfer(address,uint256,bytes)": "be45fd62"
				}
			},
			"storageLayout": {
				"storage": [
					{
						"astId": 3,
						"contract": "contracts/SmartContractWallet.sol:SmartContractWallet",
						"label": "owner",
						"offset": 0,
						"slot": "0",
						"type": "t_address_payable"
					},
					{
						"astId": 7,
						"contract": "contracts/SmartContractWallet.sol:SmartContractWallet",
						"label": "allowance",
						"offset": 0,
						"slot": "1",
						"type": "t_mapping(t_address,t_uint256)"
					},
					{
						"astId": 11,
						"contract": "contracts/SmartContractWallet.sol:SmartContractWallet",
						"label": "isAllowedToSend",
						"offset": 0,
						"slot": "2",
						"type": "t_mapping(t_address,t_bool)"
					},
					{
						"astId": 15,
						"contract": "contracts/SmartContractWallet.sol:SmartContractWallet",
						"label": "guardian",
						"offset": 0,
						"slot": "3",
						"type": "t_mapping(t_address,t_bool)"
					},
					{
						"astId": 17,
						"contract": "contracts/SmartContractWallet.sol:SmartContractWallet",
						"label": "nextOwner",
						"offset": 0,
						"slot": "4",
						"type": "t_address_payable"
					},
					{
						"astId": 19,
						"contract": "contracts/SmartContractWallet.sol:SmartContractWallet",
						"label": "guardiansResetCount",
						"offset": 0,
						"slot": "5",
						"type": "t_uint256"
					}
				],
				"types": {
					"t_address": {
						"encoding": "inplace",
						"label": "address",
						"numberOfBytes": "20"
					},
					"t_address_payable": {
						"encoding": "inplace",
						"label": "address payable",
						"numberOfBytes": "20"
					},
					"t_bool": {
						"encoding": "inplace",
						"label": "bool",
						"numberOfBytes": "1"
					},
					"t_mapping(t_address,t_bool)": {
						"encoding": "mapping",
						"key": "t_address",
						"label": "mapping(address => bool)",
						"numberOfBytes": "32",
						"value": "t_bool"
					},
					"t_mapping(t_address,t_uint256)": {
						"encoding": "mapping",
						"key": "t_address",
						"label": "mapping(address => uint256)",
						"numberOfBytes": "32",
						"value": "t_uint256"
					},
					"t_uint256": {
						"encoding": "inplace",
						"label": "uint256",
						"numberOfBytes": "32"
					}
				}
			},
			"userdoc": {
				"kind": "user",
				"methods": {},
				"version": 1
			}
		}
	}
}