{
	"contracts/ExampleTryCatch1.sol": {
		"TryCatch": {
			"abi": [
				{
					"inputs": [],
					"name": "error",
					"outputs": [],
					"stateMutability": "nonpayable",
					"type": "function"
				},
				{
					"inputs": [],
					"name": "invoca",
					"outputs": [
						{
							"internalType": "string",
							"name": "",
							"type": "string"
						}
					],
					"stateMutability": "nonpayable",
					"type": "function"
				},
				{
					"inputs": [],
					"name": "panic",
					"outputs": [],
					"stateMutability": "nonpayable",
					"type": "function"
				}
			],
			"devdoc": {
				"kind": "dev",
				"methods": {},
				"version": 1
			},
			"evm": {
				"assembly": "    /* \"contracts/ExampleTryCatch1.sol\":60:508  contract TryCatch {... */\n  mstore(0x40, 0x80)\n  callvalue\n  dup1\n  iszero\n  tag_1\n  jumpi\n  0x00\n  dup1\n  revert\ntag_1:\n  pop\n  dataSize(sub_0)\n  dup1\n  dataOffset(sub_0)\n  0x00\n  codecopy\n  0x00\n  return\nstop\n\nsub_0: assembly {\n        /* \"contracts/ExampleTryCatch1.sol\":60:508  contract TryCatch {... */\n      mstore(0x40, 0x80)\n      callvalue\n      dup1\n      iszero\n      tag_1\n      jumpi\n      0x00\n      dup1\n      revert\n    tag_1:\n      pop\n      jumpi(tag_2, lt(calldatasize, 0x04))\n      shr(0xe0, calldataload(0x00))\n      dup1\n      0x4700d305\n      eq\n      tag_3\n      jumpi\n      dup1\n      0x90a17fd1\n      eq\n      tag_4\n      jumpi\n      dup1\n      0xc79f8b62\n      eq\n      tag_5\n      jumpi\n    tag_2:\n      0x00\n      dup1\n      revert\n        /* \"contracts/ExampleTryCatch1.sol\":167:225  function panic() external {... */\n    tag_3:\n      tag_6\n      tag_7\n      jump\t// in\n    tag_6:\n      stop\n        /* \"contracts/ExampleTryCatch1.sol\":233:501  function invoca() public returns (string memory) {... */\n    tag_4:\n      tag_8\n      tag_9\n      jump\t// in\n    tag_8:\n      mload(0x40)\n      tag_10\n      swap2\n      swap1\n      tag_11\n      jump\t// in\n    tag_10:\n      mload(0x40)\n      dup1\n      swap2\n      sub\n      swap1\n      return\n        /* \"contracts/ExampleTryCatch1.sol\":87:159  function error() external {... */\n    tag_5:\n      tag_12\n      tag_13\n      jump\t// in\n    tag_12:\n      stop\n        /* \"contracts/ExampleTryCatch1.sol\":167:225  function panic() external {... */\n    tag_7:\n        /* \"contracts/ExampleTryCatch1.sol\":211:216  false */\n      0x00\n        /* \"contracts/ExampleTryCatch1.sol\":204:217  assert(false) */\n      tag_15\n      jumpi\n      tag_16\n      tag_17\n      jump\t// in\n    tag_16:\n    tag_15:\n        /* \"contracts/ExampleTryCatch1.sol\":167:225  function panic() external {... */\n      jump\t// out\n        /* \"contracts/ExampleTryCatch1.sol\":233:501  function invoca() public returns (string memory) {... */\n    tag_9:\n        /* \"contracts/ExampleTryCatch1.sol\":267:280  string memory */\n      0x60\n        /* \"contracts/ExampleTryCatch1.sol\":297:301  this */\n      address\n        /* \"contracts/ExampleTryCatch1.sol\":297:307  this.panic */\n      0xffffffffffffffffffffffffffffffffffffffff\n      and\n      0x4700d305\n        /* \"contracts/ExampleTryCatch1.sol\":297:309  this.panic() */\n      mload(0x40)\n      dup2\n      0xffffffff\n      and\n      0xe0\n      shl\n      dup2\n      mstore\n      0x04\n      add\n      0x00\n      mload(0x40)\n      dup1\n      dup4\n      sub\n      dup2\n      0x00\n      dup8\n      dup1\n      extcodesize\n      iszero\n      dup1\n      iszero\n      tag_19\n      jumpi\n      0x00\n      dup1\n      revert\n    tag_19:\n      pop\n      gas\n      call\n      swap3\n      pop\n      pop\n      pop\n      dup1\n      iszero\n      tag_20\n      jumpi\n      pop\n      0x01\n    tag_20:\n        /* \"contracts/ExampleTryCatch1.sol\":293:494  try this.panic() {... */\n      tag_21\n      jumpi\n      tag_25\n      tag_26\n      jump\t// in\n    tag_25:\n      dup1\n      0x08c379a0\n      sub\n      tag_24\n      jumpi\n      pop\n      tag_27\n      tag_28\n      jump\t// in\n    tag_27:\n      dup1\n      tag_29\n      jumpi\n      pop\n      jump(tag_23)\n    tag_29:\n        /* \"contracts/ExampleTryCatch1.sol\":376:399  return \"Pegou um erro!\" */\n      mload(0x40)\n      dup1\n      0x40\n      add\n      0x40\n      mstore\n      dup1\n      0x0e\n      dup2\n      mstore\n      0x20\n      add\n      0x5065676f7520756d206572726f21000000000000000000000000000000000000\n      dup2\n      mstore\n      pop\n      swap2\n      pop\n      pop\n      jump(tag_18)\n        /* \"contracts/ExampleTryCatch1.sol\":293:494  try this.panic() {... */\n    tag_24:\n      0x4e487b71\n      sub\n      tag_23\n      jumpi\n      tag_30\n      tag_31\n      jump\t// in\n    tag_30:\n      swap1\n      tag_32\n      jumpi\n      pop\n      jump(tag_23)\n    tag_32:\n        /* \"contracts/ExampleTryCatch1.sol\":457:482  return \"Pegou um panico!\" */\n      mload(0x40)\n      dup1\n      0x40\n      add\n      0x40\n      mstore\n      dup1\n      0x10\n      dup2\n      mstore\n      0x20\n      add\n      0x5065676f7520756d2070616e69636f2100000000000000000000000000000000\n      dup2\n      mstore\n      pop\n      swap2\n      pop\n      pop\n      jump(tag_18)\n        /* \"contracts/ExampleTryCatch1.sol\":293:494  try this.panic() {... */\n    tag_23:\n      returndatasize\n      0x00\n      dup1\n      returndatacopy\n      revert(0x00, returndatasize)\n    tag_21:\n        /* \"contracts/ExampleTryCatch1.sol\":233:501  function invoca() public returns (string memory) {... */\n    tag_18:\n      swap1\n      jump\t// out\n        /* \"contracts/ExampleTryCatch1.sol\":87:159  function error() external {... */\n    tag_13:\n        /* \"contracts/ExampleTryCatch1.sol\":132:137  false */\n      0x00\n        /* \"contracts/ExampleTryCatch1.sol\":124:151  require(false, \"Reverteu!\") */\n      tag_35\n      jumpi\n      mload(0x40)\n      0x08c379a000000000000000000000000000000000000000000000000000000000\n      dup2\n      mstore\n      0x04\n      add\n      tag_36\n      swap1\n      tag_37\n      jump\t// in\n    tag_36:\n      mload(0x40)\n      dup1\n      swap2\n      sub\n      swap1\n      revert\n    tag_35:\n        /* \"contracts/ExampleTryCatch1.sol\":87:159  function error() external {... */\n      jump\t// out\n        /* \"#utility.yul\":7:106   */\n    tag_38:\n        /* \"#utility.yul\":59:65   */\n      0x00\n        /* \"#utility.yul\":93:98   */\n      dup2\n        /* \"#utility.yul\":87:99   */\n      mload\n        /* \"#utility.yul\":77:99   */\n      swap1\n      pop\n        /* \"#utility.yul\":7:106   */\n      swap2\n      swap1\n      pop\n      jump\t// out\n        /* \"#utility.yul\":112:281   */\n    tag_39:\n        /* \"#utility.yul\":196:207   */\n      0x00\n        /* \"#utility.yul\":230:236   */\n      dup3\n        /* \"#utility.yul\":225:228   */\n      dup3\n        /* \"#utility.yul\":218:237   */\n      mstore\n        /* \"#utility.yul\":270:274   */\n      0x20\n        /* \"#utility.yul\":265:268   */\n      dup3\n        /* \"#utility.yul\":261:275   */\n      add\n        /* \"#utility.yul\":246:275   */\n      swap1\n      pop\n        /* \"#utility.yul\":112:281   */\n      swap3\n      swap2\n      pop\n      pop\n      jump\t// out\n        /* \"#utility.yul\":287:426   */\n    tag_40:\n        /* \"#utility.yul\":376:382   */\n      dup3\n        /* \"#utility.yul\":371:374   */\n      dup2\n        /* \"#utility.yul\":366:369   */\n      dup4\n        /* \"#utility.yul\":360:383   */\n      mcopy\n        /* \"#utility.yul\":417:418   */\n      0x00\n        /* \"#utility.yul\":408:414   */\n      dup4\n        /* \"#utility.yul\":403:406   */\n      dup4\n        /* \"#utility.yul\":399:415   */\n      add\n        /* \"#utility.yul\":392:419   */\n      mstore\n        /* \"#utility.yul\":287:426   */\n      pop\n      pop\n      pop\n      jump\t// out\n        /* \"#utility.yul\":432:534   */\n    tag_41:\n        /* \"#utility.yul\":473:479   */\n      0x00\n        /* \"#utility.yul\":524:526   */\n      0x1f\n        /* \"#utility.yul\":520:527   */\n      not\n        /* \"#utility.yul\":515:517   */\n      0x1f\n        /* \"#utility.yul\":508:513   */\n      dup4\n        /* \"#utility.yul\":504:518   */\n      add\n        /* \"#utility.yul\":500:528   */\n      and\n        /* \"#utility.yul\":490:528   */\n      swap1\n      pop\n        /* \"#utility.yul\":432:534   */\n      swap2\n      swap1\n      pop\n      jump\t// out\n        /* \"#utility.yul\":540:917   */\n    tag_42:\n        /* \"#utility.yul\":628:631   */\n      0x00\n        /* \"#utility.yul\":656:695   */\n      tag_55\n        /* \"#utility.yul\":689:694   */\n      dup3\n        /* \"#utility.yul\":656:695   */\n      tag_38\n      jump\t// in\n    tag_55:\n        /* \"#utility.yul\":711:782   */\n      tag_56\n        /* \"#utility.yul\":775:781   */\n      dup2\n        /* \"#utility.yul\":770:773   */\n      dup6\n        /* \"#utility.yul\":711:782   */\n      tag_39\n      jump\t// in\n    tag_56:\n        /* \"#utility.yul\":704:782   */\n      swap4\n      pop\n        /* \"#utility.yul\":791:856   */\n      tag_57\n        /* \"#utility.yul\":849:855   */\n      dup2\n        /* \"#utility.yul\":844:847   */\n      dup6\n        /* \"#utility.yul\":837:841   */\n      0x20\n        /* \"#utility.yul\":830:835   */\n      dup7\n        /* \"#utility.yul\":826:842   */\n      add\n        /* \"#utility.yul\":791:856   */\n      tag_40\n      jump\t// in\n    tag_57:\n        /* \"#utility.yul\":881:910   */\n      tag_58\n        /* \"#utility.yul\":903:909   */\n      dup2\n        /* \"#utility.yul\":881:910   */\n      tag_41\n      jump\t// in\n    tag_58:\n        /* \"#utility.yul\":876:879   */\n      dup5\n        /* \"#utility.yul\":872:911   */\n      add\n        /* \"#utility.yul\":865:911   */\n      swap2\n      pop\n        /* \"#utility.yul\":632:917   */\n      pop\n        /* \"#utility.yul\":540:917   */\n      swap3\n      swap2\n      pop\n      pop\n      jump\t// out\n        /* \"#utility.yul\":923:1236   */\n    tag_11:\n        /* \"#utility.yul\":1036:1040   */\n      0x00\n        /* \"#utility.yul\":1074:1076   */\n      0x20\n        /* \"#utility.yul\":1063:1072   */\n      dup3\n        /* \"#utility.yul\":1059:1077   */\n      add\n        /* \"#utility.yul\":1051:1077   */\n      swap1\n      pop\n        /* \"#utility.yul\":1123:1132   */\n      dup2\n        /* \"#utility.yul\":1117:1121   */\n      dup2\n        /* \"#utility.yul\":1113:1133   */\n      sub\n        /* \"#utility.yul\":1109:1110   */\n      0x00\n        /* \"#utility.yul\":1098:1107   */\n      dup4\n        /* \"#utility.yul\":1094:1111   */\n      add\n        /* \"#utility.yul\":1087:1134   */\n      mstore\n        /* \"#utility.yul\":1151:1229   */\n      tag_60\n        /* \"#utility.yul\":1224:1228   */\n      dup2\n        /* \"#utility.yul\":1215:1221   */\n      dup5\n        /* \"#utility.yul\":1151:1229   */\n      tag_42\n      jump\t// in\n    tag_60:\n        /* \"#utility.yul\":1143:1229   */\n      swap1\n      pop\n        /* \"#utility.yul\":923:1236   */\n      swap3\n      swap2\n      pop\n      pop\n      jump\t// out\n        /* \"#utility.yul\":1242:1422   */\n    tag_17:\n        /* \"#utility.yul\":1290:1367   */\n      0x4e487b7100000000000000000000000000000000000000000000000000000000\n        /* \"#utility.yul\":1287:1288   */\n      0x00\n        /* \"#utility.yul\":1280:1368   */\n      mstore\n        /* \"#utility.yul\":1387:1391   */\n      0x01\n        /* \"#utility.yul\":1384:1385   */\n      0x04\n        /* \"#utility.yul\":1377:1392   */\n      mstore\n        /* \"#utility.yul\":1411:1415   */\n      0x24\n        /* \"#utility.yul\":1408:1409   */\n      0x00\n        /* \"#utility.yul\":1401:1416   */\n      revert\n        /* \"#utility.yul\":1428:1534   */\n    tag_43:\n        /* \"#utility.yul\":1472:1480   */\n      0x00\n        /* \"#utility.yul\":1521:1526   */\n      dup2\n        /* \"#utility.yul\":1516:1519   */\n      0xe0\n        /* \"#utility.yul\":1512:1527   */\n      shr\n        /* \"#utility.yul\":1491:1527   */\n      swap1\n      pop\n        /* \"#utility.yul\":1428:1534   */\n      swap2\n      swap1\n      pop\n      jump\t// out\n        /* \"#utility.yul\":1540:1723   */\n    tag_26:\n        /* \"#utility.yul\":1575:1578   */\n      0x00\n        /* \"#utility.yul\":1613:1614   */\n      0x03\n        /* \"#utility.yul\":1595:1611   */\n      returndatasize\n        /* \"#utility.yul\":1592:1615   */\n      gt\n        /* \"#utility.yul\":1589:1717   */\n      iszero\n      tag_64\n      jumpi\n        /* \"#utility.yul\":1651:1652   */\n      0x04\n        /* \"#utility.yul\":1648:1649   */\n      0x00\n        /* \"#utility.yul\":1645:1646   */\n      dup1\n        /* \"#utility.yul\":1630:1653   */\n      returndatacopy\n        /* \"#utility.yul\":1673:1707   */\n      tag_65\n        /* \"#utility.yul\":1704:1705   */\n      0x00\n        /* \"#utility.yul\":1698:1706   */\n      mload\n        /* \"#utility.yul\":1673:1707   */\n      tag_43\n      jump\t// in\n    tag_65:\n        /* \"#utility.yul\":1666:1707   */\n      swap1\n      pop\n        /* \"#utility.yul\":1589:1717   */\n    tag_64:\n        /* \"#utility.yul\":1540:1723   */\n      swap1\n      jump\t// out\n        /* \"#utility.yul\":1729:1804   */\n    tag_44:\n        /* \"#utility.yul\":1762:1768   */\n      0x00\n        /* \"#utility.yul\":1795:1797   */\n      0x40\n        /* \"#utility.yul\":1789:1798   */\n      mload\n        /* \"#utility.yul\":1779:1798   */\n      swap1\n      pop\n        /* \"#utility.yul\":1729:1804   */\n      swap1\n      jump\t// out\n        /* \"#utility.yul\":1810:1990   */\n    tag_45:\n        /* \"#utility.yul\":1858:1935   */\n      0x4e487b7100000000000000000000000000000000000000000000000000000000\n        /* \"#utility.yul\":1855:1856   */\n      0x00\n        /* \"#utility.yul\":1848:1936   */\n      mstore\n        /* \"#utility.yul\":1955:1959   */\n      0x41\n        /* \"#utility.yul\":1952:1953   */\n      0x04\n        /* \"#utility.yul\":1945:1960   */\n      mstore\n        /* \"#utility.yul\":1979:1983   */\n      0x24\n        /* \"#utility.yul\":1976:1977   */\n      0x00\n        /* \"#utility.yul\":1969:1984   */\n      revert\n        /* \"#utility.yul\":1996:2277   */\n    tag_46:\n        /* \"#utility.yul\":2079:2106   */\n      tag_69\n        /* \"#utility.yul\":2101:2105   */\n      dup3\n        /* \"#utility.yul\":2079:2106   */\n      tag_41\n      jump\t// in\n    tag_69:\n        /* \"#utility.yul\":2071:2077   */\n      dup2\n        /* \"#utility.yul\":2067:2107   */\n      add\n        /* \"#utility.yul\":2209:2215   */\n      dup2\n        /* \"#utility.yul\":2197:2207   */\n      dup2\n        /* \"#utility.yul\":2194:2216   */\n      lt\n        /* \"#utility.yul\":2173:2191   */\n      0xffffffffffffffff\n        /* \"#utility.yul\":2161:2171   */\n      dup3\n        /* \"#utility.yul\":2158:2192   */\n      gt\n        /* \"#utility.yul\":2155:2217   */\n      or\n        /* \"#utility.yul\":2152:2240   */\n      iszero\n      tag_70\n      jumpi\n        /* \"#utility.yul\":2220:2238   */\n      tag_71\n      tag_45\n      jump\t// in\n    tag_71:\n        /* \"#utility.yul\":2152:2240   */\n    tag_70:\n        /* \"#utility.yul\":2260:2270   */\n      dup1\n        /* \"#utility.yul\":2256:2258   */\n      0x40\n        /* \"#utility.yul\":2249:2271   */\n      mstore\n        /* \"#utility.yul\":2039:2277   */\n      pop\n        /* \"#utility.yul\":1996:2277   */\n      pop\n      pop\n      jump\t// out\n        /* \"#utility.yul\":2283:2994   */\n    tag_28:\n        /* \"#utility.yul\":2322:2325   */\n      0x00\n        /* \"#utility.yul\":2360:2364   */\n      0x44\n        /* \"#utility.yul\":2342:2358   */\n      returndatasize\n        /* \"#utility.yul\":2339:2365   */\n      lt\n        /* \"#utility.yul\":2368:2373   */\n      tag_72\n        /* \"#utility.yul\":2336:2375   */\n      jumpi\n        /* \"#utility.yul\":2397:2417   */\n      tag_74\n      tag_44\n      jump\t// in\n    tag_74:\n        /* \"#utility.yul\":2472:2473   */\n      0x04\n        /* \"#utility.yul\":2454:2470   */\n      returndatasize\n        /* \"#utility.yul\":2450:2474   */\n      sub\n        /* \"#utility.yul\":2447:2448   */\n      0x04\n        /* \"#utility.yul\":2441:2445   */\n      dup3\n        /* \"#utility.yul\":2426:2475   */\n      returndatacopy\n        /* \"#utility.yul\":2505:2509   */\n      dup1\n        /* \"#utility.yul\":2499:2510   */\n      mload\n        /* \"#utility.yul\":2604:2620   */\n      returndatasize\n        /* \"#utility.yul\":2597:2601   */\n      0x24\n        /* \"#utility.yul\":2589:2595   */\n      dup3\n        /* \"#utility.yul\":2585:2602   */\n      add\n        /* \"#utility.yul\":2582:2621   */\n      gt\n        /* \"#utility.yul\":2549:2567   */\n      0xffffffffffffffff\n        /* \"#utility.yul\":2541:2547   */\n      dup3\n        /* \"#utility.yul\":2538:2568   */\n      gt\n        /* \"#utility.yul\":2522:2635   */\n      or\n        /* \"#utility.yul\":2519:2665   */\n      iszero\n      tag_75\n      jumpi\n        /* \"#utility.yul\":2650:2655   */\n      pop\n      pop\n      jump(tag_72)\n        /* \"#utility.yul\":2519:2665   */\n    tag_75:\n        /* \"#utility.yul\":2696:2702   */\n      dup1\n        /* \"#utility.yul\":2690:2694   */\n      dup3\n        /* \"#utility.yul\":2686:2703   */\n      add\n        /* \"#utility.yul\":2732:2735   */\n      dup1\n        /* \"#utility.yul\":2726:2736   */\n      mload\n        /* \"#utility.yul\":2759:2777   */\n      0xffffffffffffffff\n        /* \"#utility.yul\":2751:2757   */\n      dup2\n        /* \"#utility.yul\":2748:2778   */\n      gt\n        /* \"#utility.yul\":2745:2788   */\n      iszero\n      tag_76\n      jumpi\n        /* \"#utility.yul\":2781:2786   */\n      pop\n      pop\n      pop\n      pop\n      jump(tag_72)\n        /* \"#utility.yul\":2745:2788   */\n    tag_76:\n        /* \"#utility.yul\":2829:2835   */\n      dup1\n        /* \"#utility.yul\":2822:2826   */\n      0x20\n        /* \"#utility.yul\":2817:2820   */\n      dup4\n        /* \"#utility.yul\":2813:2827   */\n      add\n        /* \"#utility.yul\":2809:2836   */\n      add\n        /* \"#utility.yul\":2888:2889   */\n      0x04\n        /* \"#utility.yul\":2870:2886   */\n      returndatasize\n        /* \"#utility.yul\":2866:2890   */\n      sub\n        /* \"#utility.yul\":2860:2864   */\n      dup6\n        /* \"#utility.yul\":2856:2891   */\n      add\n        /* \"#utility.yul\":2851:2854   */\n      dup2\n        /* \"#utility.yul\":2848:2892   */\n      gt\n        /* \"#utility.yul\":2845:2902   */\n      iszero\n      tag_77\n      jumpi\n        /* \"#utility.yul\":2895:2900   */\n      pop\n      pop\n      pop\n      pop\n      pop\n      jump(tag_72)\n        /* \"#utility.yul\":2845:2902   */\n    tag_77:\n        /* \"#utility.yul\":2912:2969   */\n      tag_78\n        /* \"#utility.yul\":2960:2966   */\n      dup3\n        /* \"#utility.yul\":2954:2958   */\n      0x20\n        /* \"#utility.yul\":2950:2967   */\n      add\n        /* \"#utility.yul\":2942:2948   */\n      dup6\n        /* \"#utility.yul\":2938:2968   */\n      add\n        /* \"#utility.yul\":2932:2936   */\n      dup7\n        /* \"#utility.yul\":2912:2969   */\n      tag_46\n      jump\t// in\n    tag_78:\n        /* \"#utility.yul\":2985:2988   */\n      dup3\n        /* \"#utility.yul\":2978:2988   */\n      swap6\n      pop\n        /* \"#utility.yul\":2326:2994   */\n      pop\n      pop\n      pop\n      pop\n      pop\n        /* \"#utility.yul\":2283:2994   */\n    tag_72:\n      swap1\n      jump\t// out\n        /* \"#utility.yul\":3000:3200   */\n    tag_31:\n        /* \"#utility.yul\":3036:3043   */\n      0x00\n        /* \"#utility.yul\":3045:3049   */\n      dup1\n        /* \"#utility.yul\":3084:3088   */\n      0x23\n        /* \"#utility.yul\":3066:3082   */\n      returndatasize\n        /* \"#utility.yul\":3063:3089   */\n      gt\n        /* \"#utility.yul\":3060:3194   */\n      iszero\n      tag_80\n      jumpi\n        /* \"#utility.yul\":3125:3129   */\n      0x20\n        /* \"#utility.yul\":3122:3123   */\n      0x04\n        /* \"#utility.yul\":3119:3120   */\n      0x00\n        /* \"#utility.yul\":3104:3130   */\n      returndatacopy\n        /* \"#utility.yul\":3154:3155   */\n      0x01\n        /* \"#utility.yul\":3143:3155   */\n      swap2\n      pop\n        /* \"#utility.yul\":3182:3183   */\n      0x00\n        /* \"#utility.yul\":3176:3184   */\n      mload\n        /* \"#utility.yul\":3168:3184   */\n      swap1\n      pop\n        /* \"#utility.yul\":3060:3194   */\n    tag_80:\n        /* \"#utility.yul\":3000:3200   */\n      swap1\n      swap2\n      jump\t// out\n        /* \"#utility.yul\":3206:3365   */\n    tag_47:\n        /* \"#utility.yul\":3346:3357   */\n      0x5265766572746575210000000000000000000000000000000000000000000000\n        /* \"#utility.yul\":3342:3343   */\n      0x00\n        /* \"#utility.yul\":3334:3340   */\n      dup3\n        /* \"#utility.yul\":3330:3344   */\n      add\n        /* \"#utility.yul\":3323:3358   */\n      mstore\n        /* \"#utility.yul\":3206:3365   */\n      pop\n      jump\t// out\n        /* \"#utility.yul\":3371:3736   */\n    tag_48:\n        /* \"#utility.yul\":3513:3516   */\n      0x00\n        /* \"#utility.yul\":3534:3600   */\n      tag_83\n        /* \"#utility.yul\":3598:3599   */\n      0x09\n        /* \"#utility.yul\":3593:3596   */\n      dup4\n        /* \"#utility.yul\":3534:3600   */\n      tag_39\n      jump\t// in\n    tag_83:\n        /* \"#utility.yul\":3527:3600   */\n      swap2\n      pop\n        /* \"#utility.yul\":3609:3702   */\n      tag_84\n        /* \"#utility.yul\":3698:3701   */\n      dup3\n        /* \"#utility.yul\":3609:3702   */\n      tag_47\n      jump\t// in\n    tag_84:\n        /* \"#utility.yul\":3727:3729   */\n      0x20\n        /* \"#utility.yul\":3722:3725   */\n      dup3\n        /* \"#utility.yul\":3718:3730   */\n      add\n        /* \"#utility.yul\":3711:3730   */\n      swap1\n      pop\n        /* \"#utility.yul\":3371:3736   */\n      swap2\n      swap1\n      pop\n      jump\t// out\n        /* \"#utility.yul\":3742:4161   */\n    tag_37:\n        /* \"#utility.yul\":3908:3912   */\n      0x00\n        /* \"#utility.yul\":3946:3948   */\n      0x20\n        /* \"#utility.yul\":3935:3944   */\n      dup3\n        /* \"#utility.yul\":3931:3949   */\n      add\n        /* \"#utility.yul\":3923:3949   */\n      swap1\n      pop\n        /* \"#utility.yul\":3995:4004   */\n      dup2\n        /* \"#utility.yul\":3989:3993   */\n      dup2\n        /* \"#utility.yul\":3985:4005   */\n      sub\n        /* \"#utility.yul\":3981:3982   */\n      0x00\n        /* \"#utility.yul\":3970:3979   */\n      dup4\n        /* \"#utility.yul\":3966:3983   */\n      add\n        /* \"#utility.yul\":3959:4006   */\n      mstore\n        /* \"#utility.yul\":4023:4154   */\n      tag_86\n        /* \"#utility.yul\":4149:4153   */\n      dup2\n        /* \"#utility.yul\":4023:4154   */\n      tag_48\n      jump\t// in\n    tag_86:\n        /* \"#utility.yul\":4015:4154   */\n      swap1\n      pop\n        /* \"#utility.yul\":3742:4161   */\n      swap2\n      swap1\n      pop\n      jump\t// out\n\n    auxdata: 0xa264697066735822122066e4d47c7d2c09606bccdea22846d02ac9a906318c0cf2df6629a1a5742f294e64736f6c634300081a0033\n}\n",
				"bytecode": {
					"linkReferences": {},
					"object": "6080604052348015600e575f80fd5b506104898061001c5f395ff3fe608060405234801561000f575f80fd5b506004361061003f575f3560e01c80634700d3051461004357806390a17fd11461004d578063c79f8b621461006b575b5f80fd5b61004b610075565b005b610055610085565b604051610062919061025f565b60405180910390f35b6100736101ad565b005b5f6100835761008261027f565b5b565b60603073ffffffffffffffffffffffffffffffffffffffff16634700d3056040518163ffffffff1660e01b81526004015f604051808303815f87803b1580156100cc575f80fd5b505af19250505080156100dd575060015b6101a9576100e96102b8565b806308c379a00361014657506100fd61033e565b8061010857506101a1565b6040518060400160405280600e81526020017f5065676f7520756d206572726f210000000000000000000000000000000000008152509150506101aa565b634e487b71036101a1576101586103cd565b9061016357506101a1565b6040518060400160405280601081526020017f5065676f7520756d2070616e69636f21000000000000000000000000000000008152509150506101aa565b3d5f803e3d5ffd5b5b90565b5f6101ed576040517f08c379a00000000000000000000000000000000000000000000000000000000081526004016101e490610435565b60405180910390fd5b565b5f81519050919050565b5f82825260208201905092915050565b8281835e5f83830152505050565b5f601f19601f8301169050919050565b5f610231826101ef565b61023b81856101f9565b935061024b818560208601610209565b61025481610217565b840191505092915050565b5f6020820190508181035f8301526102778184610227565b905092915050565b7f4e487b71000000000000000000000000000000000000000000000000000000005f52600160045260245ffd5b5f8160e01c9050919050565b5f60033d11156102d45760045f803e6102d15f516102ac565b90505b90565b5f604051905090565b7f4e487b71000000000000000000000000000000000000000000000000000000005f52604160045260245ffd5b61031682610217565b810181811067ffffffffffffffff82111715610335576103346102e0565b5b80604052505050565b5f60443d106103ca5761034f6102d7565b60043d036004823e80513d602482011167ffffffffffffffff821117156103775750506103ca565b808201805167ffffffffffffffff81111561039557505050506103ca565b80602083010160043d0385018111156103b25750505050506103ca565b6103c18260200185018661030d565b82955050505050505b90565b5f8060233d11156103e757602060045f3e600191505f5190505b9091565b7f52657665727465752100000000000000000000000000000000000000000000005f82015250565b5f61041f6009836101f9565b915061042a826103eb565b602082019050919050565b5f6020820190508181035f83015261044c81610413565b905091905056fea264697066735822122066e4d47c7d2c09606bccdea22846d02ac9a906318c0cf2df6629a1a5742f294e64736f6c634300081a0033",
					"opcodes": "PUSH1 0x80 PUSH1 0x40 MSTORE CALLVALUE DUP1 ISZERO PUSH1 0xE JUMPI PUSH0 DUP1 REVERT JUMPDEST POP PUSH2 0x489 DUP1 PUSH2 0x1C PUSH0 CODECOPY PUSH0 RETURN INVALID PUSH1 0x80 PUSH1 0x40 MSTORE CALLVALUE DUP1 ISZERO PUSH2 0xF JUMPI PUSH0 DUP1 REVERT JUMPDEST POP PUSH1 0x4 CALLDATASIZE LT PUSH2 0x3F JUMPI PUSH0 CALLDATALOAD PUSH1 0xE0 SHR DUP1 PUSH4 0x4700D305 EQ PUSH2 0x43 JUMPI DUP1 PUSH4 0x90A17FD1 EQ PUSH2 0x4D JUMPI DUP1 PUSH4 0xC79F8B62 EQ PUSH2 0x6B JUMPI JUMPDEST PUSH0 DUP1 REVERT JUMPDEST PUSH2 0x4B PUSH2 0x75 JUMP JUMPDEST STOP JUMPDEST PUSH2 0x55 PUSH2 0x85 JUMP JUMPDEST PUSH1 0x40 MLOAD PUSH2 0x62 SWAP2 SWAP1 PUSH2 0x25F JUMP JUMPDEST PUSH1 0x40 MLOAD DUP1 SWAP2 SUB SWAP1 RETURN JUMPDEST PUSH2 0x73 PUSH2 0x1AD JUMP JUMPDEST STOP JUMPDEST PUSH0 PUSH2 0x83 JUMPI PUSH2 0x82 PUSH2 0x27F JUMP JUMPDEST JUMPDEST JUMP JUMPDEST PUSH1 0x60 ADDRESS PUSH20 0xFFFFFFFFFFFFFFFFFFFFFFFFFFFFFFFFFFFFFFFF AND PUSH4 0x4700D305 PUSH1 0x40 MLOAD DUP2 PUSH4 0xFFFFFFFF AND PUSH1 0xE0 SHL DUP2 MSTORE PUSH1 0x4 ADD PUSH0 PUSH1 0x40 MLOAD DUP1 DUP4 SUB DUP2 PUSH0 DUP8 DUP1 EXTCODESIZE ISZERO DUP1 ISZERO PUSH2 0xCC JUMPI PUSH0 DUP1 REVERT JUMPDEST POP GAS CALL SWAP3 POP POP POP DUP1 ISZERO PUSH2 0xDD JUMPI POP PUSH1 0x1 JUMPDEST PUSH2 0x1A9 JUMPI PUSH2 0xE9 PUSH2 0x2B8 JUMP JUMPDEST DUP1 PUSH4 0x8C379A0 SUB PUSH2 0x146 JUMPI POP PUSH2 0xFD PUSH2 0x33E JUMP JUMPDEST DUP1 PUSH2 0x108 JUMPI POP PUSH2 0x1A1 JUMP JUMPDEST PUSH1 0x40 MLOAD DUP1 PUSH1 0x40 ADD PUSH1 0x40 MSTORE DUP1 PUSH1 0xE DUP2 MSTORE PUSH1 0x20 ADD PUSH32 0x5065676F7520756D206572726F21000000000000000000000000000000000000 DUP2 MSTORE POP SWAP2 POP POP PUSH2 0x1AA JUMP JUMPDEST PUSH4 0x4E487B71 SUB PUSH2 0x1A1 JUMPI PUSH2 0x158 PUSH2 0x3CD JUMP JUMPDEST SWAP1 PUSH2 0x163 JUMPI POP PUSH2 0x1A1 JUMP JUMPDEST PUSH1 0x40 MLOAD DUP1 PUSH1 0x40 ADD PUSH1 0x40 MSTORE DUP1 PUSH1 0x10 DUP2 MSTORE PUSH1 0x20 ADD PUSH32 0x5065676F7520756D2070616E69636F2100000000000000000000000000000000 DUP2 MSTORE POP SWAP2 POP POP PUSH2 0x1AA JUMP JUMPDEST RETURNDATASIZE PUSH0 DUP1 RETURNDATACOPY RETURNDATASIZE PUSH0 REVERT JUMPDEST JUMPDEST SWAP1 JUMP JUMPDEST PUSH0 PUSH2 0x1ED JUMPI PUSH1 0x40 MLOAD PUSH32 0x8C379A000000000000000000000000000000000000000000000000000000000 DUP2 MSTORE PUSH1 0x4 ADD PUSH2 0x1E4 SWAP1 PUSH2 0x435 JUMP JUMPDEST PUSH1 0x40 MLOAD DUP1 SWAP2 SUB SWAP1 REVERT JUMPDEST JUMP JUMPDEST PUSH0 DUP2 MLOAD SWAP1 POP SWAP2 SWAP1 POP JUMP JUMPDEST PUSH0 DUP3 DUP3 MSTORE PUSH1 0x20 DUP3 ADD SWAP1 POP SWAP3 SWAP2 POP POP JUMP JUMPDEST DUP3 DUP2 DUP4 MCOPY PUSH0 DUP4 DUP4 ADD MSTORE POP POP POP JUMP JUMPDEST PUSH0 PUSH1 0x1F NOT PUSH1 0x1F DUP4 ADD AND SWAP1 POP SWAP2 SWAP1 POP JUMP JUMPDEST PUSH0 PUSH2 0x231 DUP3 PUSH2 0x1EF JUMP JUMPDEST PUSH2 0x23B DUP2 DUP6 PUSH2 0x1F9 JUMP JUMPDEST SWAP4 POP PUSH2 0x24B DUP2 DUP6 PUSH1 0x20 DUP7 ADD PUSH2 0x209 JUMP JUMPDEST PUSH2 0x254 DUP2 PUSH2 0x217 JUMP JUMPDEST DUP5 ADD SWAP2 POP POP SWAP3 SWAP2 POP POP JUMP JUMPDEST PUSH0 PUSH1 0x20 DUP3 ADD SWAP1 POP DUP2 DUP2 SUB PUSH0 DUP4 ADD MSTORE PUSH2 0x277 DUP2 DUP5 PUSH2 0x227 JUMP JUMPDEST SWAP1 POP SWAP3 SWAP2 POP POP JUMP JUMPDEST PUSH32 0x4E487B7100000000000000000000000000000000000000000000000000000000 PUSH0 MSTORE PUSH1 0x1 PUSH1 0x4 MSTORE PUSH1 0x24 PUSH0 REVERT JUMPDEST PUSH0 DUP2 PUSH1 0xE0 SHR SWAP1 POP SWAP2 SWAP1 POP JUMP JUMPDEST PUSH0 PUSH1 0x3 RETURNDATASIZE GT ISZERO PUSH2 0x2D4 JUMPI PUSH1 0x4 PUSH0 DUP1 RETURNDATACOPY PUSH2 0x2D1 PUSH0 MLOAD PUSH2 0x2AC JUMP JUMPDEST SWAP1 POP JUMPDEST SWAP1 JUMP JUMPDEST PUSH0 PUSH1 0x40 MLOAD SWAP1 POP SWAP1 JUMP JUMPDEST PUSH32 0x4E487B7100000000000000000000000000000000000000000000000000000000 PUSH0 MSTORE PUSH1 0x41 PUSH1 0x4 MSTORE PUSH1 0x24 PUSH0 REVERT JUMPDEST PUSH2 0x316 DUP3 PUSH2 0x217 JUMP JUMPDEST DUP2 ADD DUP2 DUP2 LT PUSH8 0xFFFFFFFFFFFFFFFF DUP3 GT OR ISZERO PUSH2 0x335 JUMPI PUSH2 0x334 PUSH2 0x2E0 JUMP JUMPDEST JUMPDEST DUP1 PUSH1 0x40 MSTORE POP POP POP JUMP JUMPDEST PUSH0 PUSH1 0x44 RETURNDATASIZE LT PUSH2 0x3CA JUMPI PUSH2 0x34F PUSH2 0x2D7 JUMP JUMPDEST PUSH1 0x4 RETURNDATASIZE SUB PUSH1 0x4 DUP3 RETURNDATACOPY DUP1 MLOAD RETURNDATASIZE PUSH1 0x24 DUP3 ADD GT PUSH8 0xFFFFFFFFFFFFFFFF DUP3 GT OR ISZERO PUSH2 0x377 JUMPI POP POP PUSH2 0x3CA JUMP JUMPDEST DUP1 DUP3 ADD DUP1 MLOAD PUSH8 0xFFFFFFFFFFFFFFFF DUP2 GT ISZERO PUSH2 0x395 JUMPI POP POP POP POP PUSH2 0x3CA JUMP JUMPDEST DUP1 PUSH1 0x20 DUP4 ADD ADD PUSH1 0x4 RETURNDATASIZE SUB DUP6 ADD DUP2 GT ISZERO PUSH2 0x3B2 JUMPI POP POP POP POP POP PUSH2 0x3CA JUMP JUMPDEST PUSH2 0x3C1 DUP3 PUSH1 0x20 ADD DUP6 ADD DUP7 PUSH2 0x30D JUMP JUMPDEST DUP3 SWAP6 POP POP POP POP POP POP JUMPDEST SWAP1 JUMP JUMPDEST PUSH0 DUP1 PUSH1 0x23 RETURNDATASIZE GT ISZERO PUSH2 0x3E7 JUMPI PUSH1 0x20 PUSH1 0x4 PUSH0 RETURNDATACOPY PUSH1 0x1 SWAP2 POP PUSH0 MLOAD SWAP1 POP JUMPDEST SWAP1 SWAP2 JUMP JUMPDEST PUSH32 0x5265766572746575210000000000000000000000000000000000000000000000 PUSH0 DUP3 ADD MSTORE POP JUMP JUMPDEST PUSH0 PUSH2 0x41F PUSH1 0x9 DUP4 PUSH2 0x1F9 JUMP JUMPDEST SWAP2 POP PUSH2 0x42A DUP3 PUSH2 0x3EB JUMP JUMPDEST PUSH1 0x20 DUP3 ADD SWAP1 POP SWAP2 SWAP1 POP JUMP JUMPDEST PUSH0 PUSH1 0x20 DUP3 ADD SWAP1 POP DUP2 DUP2 SUB PUSH0 DUP4 ADD MSTORE PUSH2 0x44C DUP2 PUSH2 0x413 JUMP JUMPDEST SWAP1 POP SWAP2 SWAP1 POP JUMP INVALID LOG2 PUSH5 0x6970667358 0x22 SLT KECCAK256 PUSH7 0xE4D47C7D2C0960 PUSH12 0xCCDEA22846D02AC9A906318C 0xC CALLCODE 0xDF PUSH7 0x29A1A5742F294E PUSH5 0x736F6C6343 STOP ADDMOD BYTE STOP CALLER "
				},
				"gasEstimates": {
					"creation": {
						"codeDepositCost": "232200",
						"executionCost": "273",
						"totalCost": "232473"
					},
					"external": {
						"error()": "465",
						"invoca()": "infinite",
						"panic()": "164"
					}
				},
				"methodIdentifiers": {
					"error()": "c79f8b62",
					"invoca()": "90a17fd1",
					"panic()": "4700d305"
				}
			},
			"storageLayout": {
				"storage": [],
				"types": null
			},
			"userdoc": {
				"kind": "user",
				"methods": {},
				"version": 1
			}
		}
	}
}