{
	"contracts/ExampleString.sol": {
		"ExampleStrings": {
			"abi": [
				{
					"inputs": [
						{
							"internalType": "string",
							"name": "_myString",
							"type": "string"
						}
					],
					"name": "compareTwostring",
					"outputs": [
						{
							"internalType": "bool",
							"name": "",
							"type": "bool"
						}
					],
					"stateMutability": "view",
					"type": "function"
				},
				{
					"inputs": [],
					"name": "getBytesLength",
					"outputs": [
						{
							"internalType": "uint256",
							"name": "",
							"type": "uint256"
						}
					],
					"stateMutability": "view",
					"type": "function"
				},
				{
					"inputs": [],
					"name": "myBytes",
					"outputs": [
						{
							"internalType": "bytes",
							"name": "",
							"type": "bytes"
						}
					],
					"stateMutability": "view",
					"type": "function"
				},
				{
					"inputs": [],
					"name": "myString",
					"outputs": [
						{
							"internalType": "string",
							"name": "",
							"type": "string"
						}
					],
					"stateMutability": "view",
					"type": "function"
				},
				{
					"inputs": [
						{
							"internalType": "string",
							"name": "_myString",
							"type": "string"
						}
					],
					"name": "setMyString",
					"outputs": [],
					"stateMutability": "nonpayable",
					"type": "function"
				}
			],
			"devdoc": {
				"kind": "dev",
				"methods": {},
				"version": 1
			},
			"evm": {
				"assembly": "    /* \"contracts/ExampleString.sol\":60:557  contract ExampleStrings {... */\n  mstore(0x40, 0x80)\n    /* \"contracts/ExampleString.sol\":97:135  string public myString = \"Hello world\" */\n  mload(0x40)\n  dup1\n  0x40\n  add\n  0x40\n  mstore\n  dup1\n  0x0b\n  dup2\n  mstore\n  0x20\n  add\n  0x48656c6c6f20776f726c64000000000000000000000000000000000000000000\n  dup2\n  mstore\n  pop\n  0x00\n  swap1\n  dup2\n  tag_1\n  swap2\n  swap1\n  tag_2\n  jump\t// in\ntag_1:\n  pop\n    /* \"contracts/ExampleString.sol\":142:177  bytes public myBytes = \"Hello word\" */\n  mload(0x40)\n  dup1\n  0x40\n  add\n  0x40\n  mstore\n  dup1\n  0x0a\n  dup2\n  mstore\n  0x20\n  add\n  0x48656c6c6f20776f726400000000000000000000000000000000000000000000\n  dup2\n  mstore\n  pop\n  0x01\n  swap1\n  dup2\n  tag_3\n  swap2\n  swap1\n  tag_4\n  jump\t// in\ntag_3:\n  pop\n    /* \"contracts/ExampleString.sol\":60:557  contract ExampleStrings {... */\n  callvalue\n  dup1\n  iszero\n  tag_5\n  jumpi\n  0x00\n  dup1\n  revert\ntag_5:\n  pop\n  jump(tag_6)\n    /* \"#utility.yul\":7:106   */\ntag_7:\n    /* \"#utility.yul\":59:65   */\n  0x00\n    /* \"#utility.yul\":93:98   */\n  dup2\n    /* \"#utility.yul\":87:99   */\n  mload\n    /* \"#utility.yul\":77:99   */\n  swap1\n  pop\n    /* \"#utility.yul\":7:106   */\n  swap2\n  swap1\n  pop\n  jump\t// out\n    /* \"#utility.yul\":112:292   */\ntag_8:\n    /* \"#utility.yul\":160:237   */\n  0x4e487b7100000000000000000000000000000000000000000000000000000000\n    /* \"#utility.yul\":157:158   */\n  0x00\n    /* \"#utility.yul\":150:238   */\n  mstore\n    /* \"#utility.yul\":257:261   */\n  0x41\n    /* \"#utility.yul\":254:255   */\n  0x04\n    /* \"#utility.yul\":247:262   */\n  mstore\n    /* \"#utility.yul\":281:285   */\n  0x24\n    /* \"#utility.yul\":278:279   */\n  0x00\n    /* \"#utility.yul\":271:286   */\n  revert\n    /* \"#utility.yul\":298:478   */\ntag_9:\n    /* \"#utility.yul\":346:423   */\n  0x4e487b7100000000000000000000000000000000000000000000000000000000\n    /* \"#utility.yul\":343:344   */\n  0x00\n    /* \"#utility.yul\":336:424   */\n  mstore\n    /* \"#utility.yul\":443:447   */\n  0x22\n    /* \"#utility.yul\":440:441   */\n  0x04\n    /* \"#utility.yul\":433:448   */\n  mstore\n    /* \"#utility.yul\":467:471   */\n  0x24\n    /* \"#utility.yul\":464:465   */\n  0x00\n    /* \"#utility.yul\":457:472   */\n  revert\n    /* \"#utility.yul\":484:804   */\ntag_10:\n    /* \"#utility.yul\":528:534   */\n  0x00\n    /* \"#utility.yul\":565:566   */\n  0x02\n    /* \"#utility.yul\":559:563   */\n  dup3\n    /* \"#utility.yul\":555:567   */\n  div\n    /* \"#utility.yul\":545:567   */\n  swap1\n  pop\n    /* \"#utility.yul\":612:613   */\n  0x01\n    /* \"#utility.yul\":606:610   */\n  dup3\n    /* \"#utility.yul\":602:614   */\n  and\n    /* \"#utility.yul\":633:651   */\n  dup1\n    /* \"#utility.yul\":623:704   */\n  tag_34\n  jumpi\n    /* \"#utility.yul\":689:693   */\n  0x7f\n    /* \"#utility.yul\":681:687   */\n  dup3\n    /* \"#utility.yul\":677:694   */\n  and\n    /* \"#utility.yul\":667:694   */\n  swap2\n  pop\n    /* \"#utility.yul\":623:704   */\ntag_34:\n    /* \"#utility.yul\":751:753   */\n  0x20\n    /* \"#utility.yul\":743:749   */\n  dup3\n    /* \"#utility.yul\":740:754   */\n  lt\n    /* \"#utility.yul\":720:738   */\n  dup2\n    /* \"#utility.yul\":717:755   */\n  sub\n    /* \"#utility.yul\":714:798   */\n  tag_35\n  jumpi\n    /* \"#utility.yul\":770:788   */\n  tag_36\n  tag_9\n  jump\t// in\ntag_36:\n    /* \"#utility.yul\":714:798   */\ntag_35:\n    /* \"#utility.yul\":535:804   */\n  pop\n    /* \"#utility.yul\":484:804   */\n  swap2\n  swap1\n  pop\n  jump\t// out\n    /* \"#utility.yul\":810:951   */\ntag_11:\n    /* \"#utility.yul\":859:863   */\n  0x00\n    /* \"#utility.yul\":882:885   */\n  dup2\n    /* \"#utility.yul\":874:885   */\n  swap1\n  pop\n    /* \"#utility.yul\":905:908   */\n  dup2\n    /* \"#utility.yul\":902:903   */\n  0x00\n    /* \"#utility.yul\":895:909   */\n  mstore\n    /* \"#utility.yul\":939:943   */\n  0x20\n    /* \"#utility.yul\":936:937   */\n  0x00\n    /* \"#utility.yul\":926:944   */\n  keccak256\n    /* \"#utility.yul\":918:944   */\n  swap1\n  pop\n    /* \"#utility.yul\":810:951   */\n  swap2\n  swap1\n  pop\n  jump\t// out\n    /* \"#utility.yul\":957:1050   */\ntag_12:\n    /* \"#utility.yul\":994:1000   */\n  0x00\n    /* \"#utility.yul\":1041:1043   */\n  0x20\n    /* \"#utility.yul\":1036:1038   */\n  0x1f\n    /* \"#utility.yul\":1029:1034   */\n  dup4\n    /* \"#utility.yul\":1025:1039   */\n  add\n    /* \"#utility.yul\":1021:1044   */\n  div\n    /* \"#utility.yul\":1011:1044   */\n  swap1\n  pop\n    /* \"#utility.yul\":957:1050   */\n  swap2\n  swap1\n  pop\n  jump\t// out\n    /* \"#utility.yul\":1056:1163   */\ntag_13:\n    /* \"#utility.yul\":1100:1108   */\n  0x00\n    /* \"#utility.yul\":1150:1155   */\n  dup3\n    /* \"#utility.yul\":1144:1148   */\n  dup3\n    /* \"#utility.yul\":1140:1156   */\n  shl\n    /* \"#utility.yul\":1119:1156   */\n  swap1\n  pop\n    /* \"#utility.yul\":1056:1163   */\n  swap3\n  swap2\n  pop\n  pop\n  jump\t// out\n    /* \"#utility.yul\":1169:1562   */\ntag_14:\n    /* \"#utility.yul\":1238:1244   */\n  0x00\n    /* \"#utility.yul\":1288:1289   */\n  0x08\n    /* \"#utility.yul\":1276:1286   */\n  dup4\n    /* \"#utility.yul\":1272:1290   */\n  mul\n    /* \"#utility.yul\":1311:1408   */\n  tag_41\n    /* \"#utility.yul\":1341:1407   */\n  0xffffffffffffffffffffffffffffffffffffffffffffffffffffffffffffffff\n    /* \"#utility.yul\":1330:1339   */\n  dup3\n    /* \"#utility.yul\":1311:1408   */\n  tag_13\n  jump\t// in\ntag_41:\n    /* \"#utility.yul\":1429:1468   */\n  tag_42\n    /* \"#utility.yul\":1459:1467   */\n  dup7\n    /* \"#utility.yul\":1448:1457   */\n  dup4\n    /* \"#utility.yul\":1429:1468   */\n  tag_13\n  jump\t// in\ntag_42:\n    /* \"#utility.yul\":1417:1468   */\n  swap6\n  pop\n    /* \"#utility.yul\":1501:1505   */\n  dup1\n    /* \"#utility.yul\":1497:1506   */\n  not\n    /* \"#utility.yul\":1490:1495   */\n  dup5\n    /* \"#utility.yul\":1486:1507   */\n  and\n    /* \"#utility.yul\":1477:1507   */\n  swap4\n  pop\n    /* \"#utility.yul\":1550:1554   */\n  dup1\n    /* \"#utility.yul\":1540:1548   */\n  dup7\n    /* \"#utility.yul\":1536:1555   */\n  and\n    /* \"#utility.yul\":1529:1534   */\n  dup5\n    /* \"#utility.yul\":1526:1556   */\n  or\n    /* \"#utility.yul\":1516:1556   */\n  swap3\n  pop\n    /* \"#utility.yul\":1245:1562   */\n  pop\n  pop\n    /* \"#utility.yul\":1169:1562   */\n  swap4\n  swap3\n  pop\n  pop\n  pop\n  jump\t// out\n    /* \"#utility.yul\":1568:1645   */\ntag_15:\n    /* \"#utility.yul\":1605:1612   */\n  0x00\n    /* \"#utility.yul\":1634:1639   */\n  dup2\n    /* \"#utility.yul\":1623:1639   */\n  swap1\n  pop\n    /* \"#utility.yul\":1568:1645   */\n  swap2\n  swap1\n  pop\n  jump\t// out\n    /* \"#utility.yul\":1651:1711   */\ntag_16:\n    /* \"#utility.yul\":1679:1682   */\n  0x00\n    /* \"#utility.yul\":1700:1705   */\n  dup2\n    /* \"#utility.yul\":1693:1705   */\n  swap1\n  pop\n    /* \"#utility.yul\":1651:1711   */\n  swap2\n  swap1\n  pop\n  jump\t// out\n    /* \"#utility.yul\":1717:1859   */\ntag_17:\n    /* \"#utility.yul\":1767:1776   */\n  0x00\n    /* \"#utility.yul\":1800:1853   */\n  tag_46\n    /* \"#utility.yul\":1818:1852   */\n  tag_47\n    /* \"#utility.yul\":1827:1851   */\n  tag_48\n    /* \"#utility.yul\":1845:1850   */\n  dup5\n    /* \"#utility.yul\":1827:1851   */\n  tag_15\n  jump\t// in\ntag_48:\n    /* \"#utility.yul\":1818:1852   */\n  tag_16\n  jump\t// in\ntag_47:\n    /* \"#utility.yul\":1800:1853   */\n  tag_15\n  jump\t// in\ntag_46:\n    /* \"#utility.yul\":1787:1853   */\n  swap1\n  pop\n    /* \"#utility.yul\":1717:1859   */\n  swap2\n  swap1\n  pop\n  jump\t// out\n    /* \"#utility.yul\":1865:1940   */\ntag_18:\n    /* \"#utility.yul\":1908:1911   */\n  0x00\n    /* \"#utility.yul\":1929:1934   */\n  dup2\n    /* \"#utility.yul\":1922:1934   */\n  swap1\n  pop\n    /* \"#utility.yul\":1865:1940   */\n  swap2\n  swap1\n  pop\n  jump\t// out\n    /* \"#utility.yul\":1946:2215   */\ntag_19:\n    /* \"#utility.yul\":2056:2095   */\n  tag_51\n    /* \"#utility.yul\":2087:2094   */\n  dup4\n    /* \"#utility.yul\":2056:2095   */\n  tag_17\n  jump\t// in\ntag_51:\n    /* \"#utility.yul\":2117:2208   */\n  tag_52\n    /* \"#utility.yul\":2166:2207   */\n  tag_53\n    /* \"#utility.yul\":2190:2206   */\n  dup3\n    /* \"#utility.yul\":2166:2207   */\n  tag_18\n  jump\t// in\ntag_53:\n    /* \"#utility.yul\":2158:2164   */\n  dup5\n    /* \"#utility.yul\":2151:2155   */\n  dup5\n    /* \"#utility.yul\":2145:2156   */\n  sload\n    /* \"#utility.yul\":2117:2208   */\n  tag_14\n  jump\t// in\ntag_52:\n    /* \"#utility.yul\":2111:2115   */\n  dup3\n    /* \"#utility.yul\":2104:2209   */\n  sstore\n    /* \"#utility.yul\":2022:2215   */\n  pop\n    /* \"#utility.yul\":1946:2215   */\n  pop\n  pop\n  pop\n  jump\t// out\n    /* \"#utility.yul\":2221:2294   */\ntag_20:\n    /* \"#utility.yul\":2266:2269   */\n  0x00\n    /* \"#utility.yul\":2221:2294   */\n  swap1\n  jump\t// out\n    /* \"#utility.yul\":2300:2489   */\ntag_21:\n    /* \"#utility.yul\":2377:2409   */\n  tag_56\n  tag_20\n  jump\t// in\ntag_56:\n    /* \"#utility.yul\":2418:2483   */\n  tag_57\n    /* \"#utility.yul\":2476:2482   */\n  dup2\n    /* \"#utility.yul\":2468:2474   */\n  dup5\n    /* \"#utility.yul\":2462:2466   */\n  dup5\n    /* \"#utility.yul\":2418:2483   */\n  tag_19\n  jump\t// in\ntag_57:\n    /* \"#utility.yul\":2353:2489   */\n  pop\n    /* \"#utility.yul\":2300:2489   */\n  pop\n  pop\n  jump\t// out\n    /* \"#utility.yul\":2495:2681   */\ntag_22:\n    /* \"#utility.yul\":2555:2675   */\ntag_59:\n    /* \"#utility.yul\":2572:2575   */\n  dup2\n    /* \"#utility.yul\":2565:2570   */\n  dup2\n    /* \"#utility.yul\":2562:2576   */\n  lt\n    /* \"#utility.yul\":2555:2675   */\n  iszero\n  tag_61\n  jumpi\n    /* \"#utility.yul\":2626:2665   */\n  tag_62\n    /* \"#utility.yul\":2663:2664   */\n  0x00\n    /* \"#utility.yul\":2656:2661   */\n  dup3\n    /* \"#utility.yul\":2626:2665   */\n  tag_21\n  jump\t// in\ntag_62:\n    /* \"#utility.yul\":2599:2600   */\n  0x01\n    /* \"#utility.yul\":2592:2597   */\n  dup2\n    /* \"#utility.yul\":2588:2601   */\n  add\n    /* \"#utility.yul\":2579:2601   */\n  swap1\n  pop\n    /* \"#utility.yul\":2555:2675   */\n  jump(tag_59)\ntag_61:\n    /* \"#utility.yul\":2495:2681   */\n  pop\n  pop\n  jump\t// out\n    /* \"#utility.yul\":2687:3230   */\ntag_23:\n    /* \"#utility.yul\":2788:2790   */\n  0x1f\n    /* \"#utility.yul\":2783:2786   */\n  dup3\n    /* \"#utility.yul\":2780:2791   */\n  gt\n    /* \"#utility.yul\":2777:3223   */\n  iszero\n  tag_64\n  jumpi\n    /* \"#utility.yul\":2822:2860   */\n  tag_65\n    /* \"#utility.yul\":2854:2859   */\n  dup2\n    /* \"#utility.yul\":2822:2860   */\n  tag_11\n  jump\t// in\ntag_65:\n    /* \"#utility.yul\":2906:2935   */\n  tag_66\n    /* \"#utility.yul\":2924:2934   */\n  dup5\n    /* \"#utility.yul\":2906:2935   */\n  tag_12\n  jump\t// in\ntag_66:\n    /* \"#utility.yul\":2896:2904   */\n  dup2\n    /* \"#utility.yul\":2892:2936   */\n  add\n    /* \"#utility.yul\":3089:3091   */\n  0x20\n    /* \"#utility.yul\":3077:3087   */\n  dup6\n    /* \"#utility.yul\":3074:3092   */\n  lt\n    /* \"#utility.yul\":3071:3120   */\n  iszero\n  tag_67\n  jumpi\n    /* \"#utility.yul\":3110:3118   */\n  dup2\n    /* \"#utility.yul\":3095:3118   */\n  swap1\n  pop\n    /* \"#utility.yul\":3071:3120   */\ntag_67:\n    /* \"#utility.yul\":3133:3213   */\n  tag_68\n    /* \"#utility.yul\":3189:3211   */\n  tag_69\n    /* \"#utility.yul\":3207:3210   */\n  dup6\n    /* \"#utility.yul\":3189:3211   */\n  tag_12\n  jump\t// in\ntag_69:\n    /* \"#utility.yul\":3179:3187   */\n  dup4\n    /* \"#utility.yul\":3175:3212   */\n  add\n    /* \"#utility.yul\":3162:3173   */\n  dup3\n    /* \"#utility.yul\":3133:3213   */\n  tag_22\n  jump\t// in\ntag_68:\n    /* \"#utility.yul\":2792:3223   */\n  pop\n  pop\n    /* \"#utility.yul\":2777:3223   */\ntag_64:\n    /* \"#utility.yul\":2687:3230   */\n  pop\n  pop\n  pop\n  jump\t// out\n    /* \"#utility.yul\":3236:3353   */\ntag_24:\n    /* \"#utility.yul\":3290:3298   */\n  0x00\n    /* \"#utility.yul\":3340:3345   */\n  dup3\n    /* \"#utility.yul\":3334:3338   */\n  dup3\n    /* \"#utility.yul\":3330:3346   */\n  shr\n    /* \"#utility.yul\":3309:3346   */\n  swap1\n  pop\n    /* \"#utility.yul\":3236:3353   */\n  swap3\n  swap2\n  pop\n  pop\n  jump\t// out\n    /* \"#utility.yul\":3359:3528   */\ntag_25:\n    /* \"#utility.yul\":3403:3409   */\n  0x00\n    /* \"#utility.yul\":3436:3487   */\n  tag_72\n    /* \"#utility.yul\":3484:3485   */\n  0x00\n    /* \"#utility.yul\":3480:3486   */\n  not\n    /* \"#utility.yul\":3472:3477   */\n  dup5\n    /* \"#utility.yul\":3469:3470   */\n  0x08\n    /* \"#utility.yul\":3465:3478   */\n  mul\n    /* \"#utility.yul\":3436:3487   */\n  tag_24\n  jump\t// in\ntag_72:\n    /* \"#utility.yul\":3432:3488   */\n  not\n    /* \"#utility.yul\":3517:3521   */\n  dup1\n    /* \"#utility.yul\":3511:3515   */\n  dup4\n    /* \"#utility.yul\":3507:3522   */\n  and\n    /* \"#utility.yul\":3497:3522   */\n  swap2\n  pop\n    /* \"#utility.yul\":3410:3528   */\n  pop\n    /* \"#utility.yul\":3359:3528   */\n  swap3\n  swap2\n  pop\n  pop\n  jump\t// out\n    /* \"#utility.yul\":3533:3828   */\ntag_26:\n    /* \"#utility.yul\":3609:3613   */\n  0x00\n    /* \"#utility.yul\":3755:3784   */\n  tag_74\n    /* \"#utility.yul\":3780:3783   */\n  dup4\n    /* \"#utility.yul\":3774:3778   */\n  dup4\n    /* \"#utility.yul\":3755:3784   */\n  tag_25\n  jump\t// in\ntag_74:\n    /* \"#utility.yul\":3747:3784   */\n  swap2\n  pop\n    /* \"#utility.yul\":3817:3820   */\n  dup3\n    /* \"#utility.yul\":3814:3815   */\n  0x02\n    /* \"#utility.yul\":3810:3821   */\n  mul\n    /* \"#utility.yul\":3804:3808   */\n  dup3\n    /* \"#utility.yul\":3801:3822   */\n  or\n    /* \"#utility.yul\":3793:3822   */\n  swap1\n  pop\n    /* \"#utility.yul\":3533:3828   */\n  swap3\n  swap2\n  pop\n  pop\n  jump\t// out\n    /* \"#utility.yul\":3833:5228   */\ntag_2:\n    /* \"#utility.yul\":3950:3987   */\n  tag_76\n    /* \"#utility.yul\":3983:3986   */\n  dup3\n    /* \"#utility.yul\":3950:3987   */\n  tag_7\n  jump\t// in\ntag_76:\n    /* \"#utility.yul\":4052:4070   */\n  0xffffffffffffffff\n    /* \"#utility.yul\":4044:4050   */\n  dup2\n    /* \"#utility.yul\":4041:4071   */\n  gt\n    /* \"#utility.yul\":4038:4094   */\n  iszero\n  tag_77\n  jumpi\n    /* \"#utility.yul\":4074:4092   */\n  tag_78\n  tag_8\n  jump\t// in\ntag_78:\n    /* \"#utility.yul\":4038:4094   */\ntag_77:\n    /* \"#utility.yul\":4118:4156   */\n  tag_79\n    /* \"#utility.yul\":4150:4154   */\n  dup3\n    /* \"#utility.yul\":4144:4155   */\n  sload\n    /* \"#utility.yul\":4118:4156   */\n  tag_10\n  jump\t// in\ntag_79:\n    /* \"#utility.yul\":4203:4270   */\n  tag_80\n    /* \"#utility.yul\":4263:4269   */\n  dup3\n    /* \"#utility.yul\":4255:4261   */\n  dup3\n    /* \"#utility.yul\":4249:4253   */\n  dup6\n    /* \"#utility.yul\":4203:4270   */\n  tag_23\n  jump\t// in\ntag_80:\n    /* \"#utility.yul\":4297:4298   */\n  0x00\n    /* \"#utility.yul\":4321:4325   */\n  0x20\n    /* \"#utility.yul\":4308:4325   */\n  swap1\n  pop\n    /* \"#utility.yul\":4353:4355   */\n  0x1f\n    /* \"#utility.yul\":4345:4351   */\n  dup4\n    /* \"#utility.yul\":4342:4356   */\n  gt\n    /* \"#utility.yul\":4370:4371   */\n  0x01\n    /* \"#utility.yul\":4365:4983   */\n  dup2\n  eq\n  tag_82\n  jumpi\n    /* \"#utility.yul\":5027:5028   */\n  0x00\n    /* \"#utility.yul\":5044:5050   */\n  dup5\n    /* \"#utility.yul\":5041:5118   */\n  iszero\n  tag_83\n  jumpi\n    /* \"#utility.yul\":5093:5102   */\n  dup3\n    /* \"#utility.yul\":5088:5091   */\n  dup8\n    /* \"#utility.yul\":5084:5103   */\n  add\n    /* \"#utility.yul\":5078:5104   */\n  mload\n    /* \"#utility.yul\":5069:5104   */\n  swap1\n  pop\n    /* \"#utility.yul\":5041:5118   */\ntag_83:\n    /* \"#utility.yul\":5144:5211   */\n  tag_84\n    /* \"#utility.yul\":5204:5210   */\n  dup6\n    /* \"#utility.yul\":5197:5202   */\n  dup3\n    /* \"#utility.yul\":5144:5211   */\n  tag_26\n  jump\t// in\ntag_84:\n    /* \"#utility.yul\":5138:5142   */\n  dup7\n    /* \"#utility.yul\":5131:5212   */\n  sstore\n    /* \"#utility.yul\":5000:5222   */\n  pop\n    /* \"#utility.yul\":4335:5222   */\n  jump(tag_81)\n    /* \"#utility.yul\":4365:4983   */\ntag_82:\n    /* \"#utility.yul\":4417:4421   */\n  0x1f\n    /* \"#utility.yul\":4413:4422   */\n  not\n    /* \"#utility.yul\":4405:4411   */\n  dup5\n    /* \"#utility.yul\":4401:4423   */\n  and\n    /* \"#utility.yul\":4451:4488   */\n  tag_85\n    /* \"#utility.yul\":4483:4487   */\n  dup7\n    /* \"#utility.yul\":4451:4488   */\n  tag_11\n  jump\t// in\ntag_85:\n    /* \"#utility.yul\":4510:4511   */\n  0x00\n    /* \"#utility.yul\":4524:4732   */\ntag_86:\n    /* \"#utility.yul\":4538:4545   */\n  dup3\n    /* \"#utility.yul\":4535:4536   */\n  dup2\n    /* \"#utility.yul\":4532:4546   */\n  lt\n    /* \"#utility.yul\":4524:4732   */\n  iszero\n  tag_88\n  jumpi\n    /* \"#utility.yul\":4617:4626   */\n  dup5\n    /* \"#utility.yul\":4612:4615   */\n  dup10\n    /* \"#utility.yul\":4608:4627   */\n  add\n    /* \"#utility.yul\":4602:4628   */\n  mload\n    /* \"#utility.yul\":4594:4600   */\n  dup3\n    /* \"#utility.yul\":4587:4629   */\n  sstore\n    /* \"#utility.yul\":4668:4669   */\n  0x01\n    /* \"#utility.yul\":4660:4666   */\n  dup3\n    /* \"#utility.yul\":4656:4670   */\n  add\n    /* \"#utility.yul\":4646:4670   */\n  swap2\n  pop\n    /* \"#utility.yul\":4715:4717   */\n  0x20\n    /* \"#utility.yul\":4704:4713   */\n  dup6\n    /* \"#utility.yul\":4700:4718   */\n  add\n    /* \"#utility.yul\":4687:4718   */\n  swap5\n  pop\n    /* \"#utility.yul\":4561:4565   */\n  0x20\n    /* \"#utility.yul\":4558:4559   */\n  dup2\n    /* \"#utility.yul\":4554:4566   */\n  add\n    /* \"#utility.yul\":4549:4566   */\n  swap1\n  pop\n    /* \"#utility.yul\":4524:4732   */\n  jump(tag_86)\ntag_88:\n    /* \"#utility.yul\":4760:4766   */\n  dup7\n    /* \"#utility.yul\":4751:4758   */\n  dup4\n    /* \"#utility.yul\":4748:4767   */\n  lt\n    /* \"#utility.yul\":4745:4924   */\n  iszero\n  tag_89\n  jumpi\n    /* \"#utility.yul\":4818:4827   */\n  dup5\n    /* \"#utility.yul\":4813:4816   */\n  dup10\n    /* \"#utility.yul\":4809:4828   */\n  add\n    /* \"#utility.yul\":4803:4829   */\n  mload\n    /* \"#utility.yul\":4861:4909   */\n  tag_90\n    /* \"#utility.yul\":4903:4907   */\n  0x1f\n    /* \"#utility.yul\":4895:4901   */\n  dup10\n    /* \"#utility.yul\":4891:4908   */\n  and\n    /* \"#utility.yul\":4880:4889   */\n  dup3\n    /* \"#utility.yul\":4861:4909   */\n  tag_25\n  jump\t// in\ntag_90:\n    /* \"#utility.yul\":4853:4859   */\n  dup4\n    /* \"#utility.yul\":4846:4910   */\n  sstore\n    /* \"#utility.yul\":4768:4924   */\n  pop\n    /* \"#utility.yul\":4745:4924   */\ntag_89:\n    /* \"#utility.yul\":4970:4971   */\n  0x01\n    /* \"#utility.yul\":4966:4967   */\n  0x02\n    /* \"#utility.yul\":4958:4964   */\n  dup9\n    /* \"#utility.yul\":4954:4968   */\n  mul\n    /* \"#utility.yul\":4950:4972   */\n  add\n    /* \"#utility.yul\":4944:4948   */\n  dup9\n    /* \"#utility.yul\":4937:4973   */\n  sstore\n    /* \"#utility.yul\":4372:4983   */\n  pop\n  pop\n  pop\n    /* \"#utility.yul\":4335:5222   */\ntag_81:\n  pop\n    /* \"#utility.yul\":3925:5228   */\n  pop\n  pop\n  pop\n    /* \"#utility.yul\":3833:5228   */\n  pop\n  pop\n  jump\t// out\n    /* \"#utility.yul\":5234:5374   */\ntag_27:\n    /* \"#utility.yul\":5282:5286   */\n  0x00\n    /* \"#utility.yul\":5305:5308   */\n  dup2\n    /* \"#utility.yul\":5297:5308   */\n  swap1\n  pop\n    /* \"#utility.yul\":5328:5331   */\n  dup2\n    /* \"#utility.yul\":5325:5326   */\n  0x00\n    /* \"#utility.yul\":5318:5332   */\n  mstore\n    /* \"#utility.yul\":5362:5366   */\n  0x20\n    /* \"#utility.yul\":5359:5360   */\n  0x00\n    /* \"#utility.yul\":5349:5367   */\n  keccak256\n    /* \"#utility.yul\":5341:5367   */\n  swap1\n  pop\n    /* \"#utility.yul\":5234:5374   */\n  swap2\n  swap1\n  pop\n  jump\t// out\n    /* \"#utility.yul\":5380:5921   */\ntag_28:\n    /* \"#utility.yul\":5480:5482   */\n  0x1f\n    /* \"#utility.yul\":5475:5478   */\n  dup3\n    /* \"#utility.yul\":5472:5483   */\n  gt\n    /* \"#utility.yul\":5469:5914   */\n  iszero\n  tag_93\n  jumpi\n    /* \"#utility.yul\":5514:5551   */\n  tag_94\n    /* \"#utility.yul\":5545:5550   */\n  dup2\n    /* \"#utility.yul\":5514:5551   */\n  tag_27\n  jump\t// in\ntag_94:\n    /* \"#utility.yul\":5597:5626   */\n  tag_95\n    /* \"#utility.yul\":5615:5625   */\n  dup5\n    /* \"#utility.yul\":5597:5626   */\n  tag_12\n  jump\t// in\ntag_95:\n    /* \"#utility.yul\":5587:5595   */\n  dup2\n    /* \"#utility.yul\":5583:5627   */\n  add\n    /* \"#utility.yul\":5780:5782   */\n  0x20\n    /* \"#utility.yul\":5768:5778   */\n  dup6\n    /* \"#utility.yul\":5765:5783   */\n  lt\n    /* \"#utility.yul\":5762:5811   */\n  iszero\n  tag_96\n  jumpi\n    /* \"#utility.yul\":5801:5809   */\n  dup2\n    /* \"#utility.yul\":5786:5809   */\n  swap1\n  pop\n    /* \"#utility.yul\":5762:5811   */\ntag_96:\n    /* \"#utility.yul\":5824:5904   */\n  tag_97\n    /* \"#utility.yul\":5880:5902   */\n  tag_98\n    /* \"#utility.yul\":5898:5901   */\n  dup6\n    /* \"#utility.yul\":5880:5902   */\n  tag_12\n  jump\t// in\ntag_98:\n    /* \"#utility.yul\":5870:5878   */\n  dup4\n    /* \"#utility.yul\":5866:5903   */\n  add\n    /* \"#utility.yul\":5853:5864   */\n  dup3\n    /* \"#utility.yul\":5824:5904   */\n  tag_22\n  jump\t// in\ntag_97:\n    /* \"#utility.yul\":5484:5914   */\n  pop\n  pop\n    /* \"#utility.yul\":5469:5914   */\ntag_93:\n    /* \"#utility.yul\":5380:5921   */\n  pop\n  pop\n  pop\n  jump\t// out\n    /* \"#utility.yul\":5927:7319   */\ntag_4:\n    /* \"#utility.yul\":6043:6080   */\n  tag_100\n    /* \"#utility.yul\":6076:6079   */\n  dup3\n    /* \"#utility.yul\":6043:6080   */\n  tag_7\n  jump\t// in\ntag_100:\n    /* \"#utility.yul\":6145:6163   */\n  0xffffffffffffffff\n    /* \"#utility.yul\":6137:6143   */\n  dup2\n    /* \"#utility.yul\":6134:6164   */\n  gt\n    /* \"#utility.yul\":6131:6187   */\n  iszero\n  tag_101\n  jumpi\n    /* \"#utility.yul\":6167:6185   */\n  tag_102\n  tag_8\n  jump\t// in\ntag_102:\n    /* \"#utility.yul\":6131:6187   */\ntag_101:\n    /* \"#utility.yul\":6211:6249   */\n  tag_103\n    /* \"#utility.yul\":6243:6247   */\n  dup3\n    /* \"#utility.yul\":6237:6248   */\n  sload\n    /* \"#utility.yul\":6211:6249   */\n  tag_10\n  jump\t// in\ntag_103:\n    /* \"#utility.yul\":6296:6362   */\n  tag_104\n    /* \"#utility.yul\":6355:6361   */\n  dup3\n    /* \"#utility.yul\":6347:6353   */\n  dup3\n    /* \"#utility.yul\":6341:6345   */\n  dup6\n    /* \"#utility.yul\":6296:6362   */\n  tag_28\n  jump\t// in\ntag_104:\n    /* \"#utility.yul\":6389:6390   */\n  0x00\n    /* \"#utility.yul\":6413:6417   */\n  0x20\n    /* \"#utility.yul\":6400:6417   */\n  swap1\n  pop\n    /* \"#utility.yul\":6445:6447   */\n  0x1f\n    /* \"#utility.yul\":6437:6443   */\n  dup4\n    /* \"#utility.yul\":6434:6448   */\n  gt\n    /* \"#utility.yul\":6462:6463   */\n  0x01\n    /* \"#utility.yul\":6457:7074   */\n  dup2\n  eq\n  tag_106\n  jumpi\n    /* \"#utility.yul\":7118:7119   */\n  0x00\n    /* \"#utility.yul\":7135:7141   */\n  dup5\n    /* \"#utility.yul\":7132:7209   */\n  iszero\n  tag_107\n  jumpi\n    /* \"#utility.yul\":7184:7193   */\n  dup3\n    /* \"#utility.yul\":7179:7182   */\n  dup8\n    /* \"#utility.yul\":7175:7194   */\n  add\n    /* \"#utility.yul\":7169:7195   */\n  mload\n    /* \"#utility.yul\":7160:7195   */\n  swap1\n  pop\n    /* \"#utility.yul\":7132:7209   */\ntag_107:\n    /* \"#utility.yul\":7235:7302   */\n  tag_108\n    /* \"#utility.yul\":7295:7301   */\n  dup6\n    /* \"#utility.yul\":7288:7293   */\n  dup3\n    /* \"#utility.yul\":7235:7302   */\n  tag_26\n  jump\t// in\ntag_108:\n    /* \"#utility.yul\":7229:7233   */\n  dup7\n    /* \"#utility.yul\":7222:7303   */\n  sstore\n    /* \"#utility.yul\":7091:7313   */\n  pop\n    /* \"#utility.yul\":6427:7313   */\n  jump(tag_105)\n    /* \"#utility.yul\":6457:7074   */\ntag_106:\n    /* \"#utility.yul\":6509:6513   */\n  0x1f\n    /* \"#utility.yul\":6505:6514   */\n  not\n    /* \"#utility.yul\":6497:6503   */\n  dup5\n    /* \"#utility.yul\":6493:6515   */\n  and\n    /* \"#utility.yul\":6543:6579   */\n  tag_109\n    /* \"#utility.yul\":6574:6578   */\n  dup7\n    /* \"#utility.yul\":6543:6579   */\n  tag_27\n  jump\t// in\ntag_109:\n    /* \"#utility.yul\":6601:6602   */\n  0x00\n    /* \"#utility.yul\":6615:6823   */\ntag_110:\n    /* \"#utility.yul\":6629:6636   */\n  dup3\n    /* \"#utility.yul\":6626:6627   */\n  dup2\n    /* \"#utility.yul\":6623:6637   */\n  lt\n    /* \"#utility.yul\":6615:6823   */\n  iszero\n  tag_112\n  jumpi\n    /* \"#utility.yul\":6708:6717   */\n  dup5\n    /* \"#utility.yul\":6703:6706   */\n  dup10\n    /* \"#utility.yul\":6699:6718   */\n  add\n    /* \"#utility.yul\":6693:6719   */\n  mload\n    /* \"#utility.yul\":6685:6691   */\n  dup3\n    /* \"#utility.yul\":6678:6720   */\n  sstore\n    /* \"#utility.yul\":6759:6760   */\n  0x01\n    /* \"#utility.yul\":6751:6757   */\n  dup3\n    /* \"#utility.yul\":6747:6761   */\n  add\n    /* \"#utility.yul\":6737:6761   */\n  swap2\n  pop\n    /* \"#utility.yul\":6806:6808   */\n  0x20\n    /* \"#utility.yul\":6795:6804   */\n  dup6\n    /* \"#utility.yul\":6791:6809   */\n  add\n    /* \"#utility.yul\":6778:6809   */\n  swap5\n  pop\n    /* \"#utility.yul\":6652:6656   */\n  0x20\n    /* \"#utility.yul\":6649:6650   */\n  dup2\n    /* \"#utility.yul\":6645:6657   */\n  add\n    /* \"#utility.yul\":6640:6657   */\n  swap1\n  pop\n    /* \"#utility.yul\":6615:6823   */\n  jump(tag_110)\ntag_112:\n    /* \"#utility.yul\":6851:6857   */\n  dup7\n    /* \"#utility.yul\":6842:6849   */\n  dup4\n    /* \"#utility.yul\":6839:6858   */\n  lt\n    /* \"#utility.yul\":6836:7015   */\n  iszero\n  tag_113\n  jumpi\n    /* \"#utility.yul\":6909:6918   */\n  dup5\n    /* \"#utility.yul\":6904:6907   */\n  dup10\n    /* \"#utility.yul\":6900:6919   */\n  add\n    /* \"#utility.yul\":6894:6920   */\n  mload\n    /* \"#utility.yul\":6952:7000   */\n  tag_114\n    /* \"#utility.yul\":6994:6998   */\n  0x1f\n    /* \"#utility.yul\":6986:6992   */\n  dup10\n    /* \"#utility.yul\":6982:6999   */\n  and\n    /* \"#utility.yul\":6971:6980   */\n  dup3\n    /* \"#utility.yul\":6952:7000   */\n  tag_25\n  jump\t// in\ntag_114:\n    /* \"#utility.yul\":6944:6950   */\n  dup4\n    /* \"#utility.yul\":6937:7001   */\n  sstore\n    /* \"#utility.yul\":6859:7015   */\n  pop\n    /* \"#utility.yul\":6836:7015   */\ntag_113:\n    /* \"#utility.yul\":7061:7062   */\n  0x01\n    /* \"#utility.yul\":7057:7058   */\n  0x02\n    /* \"#utility.yul\":7049:7055   */\n  dup9\n    /* \"#utility.yul\":7045:7059   */\n  mul\n    /* \"#utility.yul\":7041:7063   */\n  add\n    /* \"#utility.yul\":7035:7039   */\n  dup9\n    /* \"#utility.yul\":7028:7064   */\n  sstore\n    /* \"#utility.yul\":6464:7074   */\n  pop\n  pop\n  pop\n    /* \"#utility.yul\":6427:7313   */\ntag_105:\n  pop\n    /* \"#utility.yul\":6018:7319   */\n  pop\n  pop\n  pop\n    /* \"#utility.yul\":5927:7319   */\n  pop\n  pop\n  jump\t// out\n    /* \"contracts/ExampleString.sol\":60:557  contract ExampleStrings {... */\ntag_6:\n  dataSize(sub_0)\n  dup1\n  dataOffset(sub_0)\n  0x00\n  codecopy\n  0x00\n  return\nstop\n\nsub_0: assembly {\n        /* \"contracts/ExampleString.sol\":60:557  contract ExampleStrings {... */\n      mstore(0x40, 0x80)\n      callvalue\n      dup1\n      iszero\n      tag_1\n      jumpi\n      0x00\n      dup1\n      revert\n    tag_1:\n      pop\n      jumpi(tag_2, lt(calldatasize, 0x04))\n      shr(0xe0, calldataload(0x00))\n      dup1\n      0x07da3eae\n      eq\n      tag_3\n      jumpi\n      dup1\n      0x48242714\n      eq\n      tag_4\n      jumpi\n      dup1\n      0x492bfa18\n      eq\n      tag_5\n      jumpi\n      dup1\n      0x712f4602\n      eq\n      tag_6\n      jumpi\n      dup1\n      0x82180568\n      eq\n      tag_7\n      jumpi\n    tag_2:\n      0x00\n      dup1\n      revert\n        /* \"contracts/ExampleString.sol\":462:554  function getBytesLength() public view returns(uint) {... */\n    tag_3:\n      tag_8\n      tag_9\n      jump\t// in\n    tag_8:\n      mload(0x40)\n      tag_10\n      swap2\n      swap1\n      tag_11\n      jump\t// in\n    tag_10:\n      mload(0x40)\n      dup1\n      swap2\n      sub\n      swap1\n      return\n        /* \"contracts/ExampleString.sol\":286:456  function compareTwostring(string memory _myString) public view returns(bool) {... */\n    tag_4:\n      tag_12\n      0x04\n      dup1\n      calldatasize\n      sub\n      dup2\n      add\n      swap1\n      tag_13\n      swap2\n      swap1\n      tag_14\n      jump\t// in\n    tag_13:\n      tag_15\n      jump\t// in\n    tag_12:\n      mload(0x40)\n      tag_16\n      swap2\n      swap1\n      tag_17\n      jump\t// in\n    tag_16:\n      mload(0x40)\n      dup1\n      swap2\n      sub\n      swap1\n      return\n        /* \"contracts/ExampleString.sol\":97:135  string public myString = \"Hello world\" */\n    tag_5:\n      tag_18\n      tag_19\n      jump\t// in\n    tag_18:\n      mload(0x40)\n      tag_20\n      swap2\n      swap1\n      tag_21\n      jump\t// in\n    tag_20:\n      mload(0x40)\n      dup1\n      swap2\n      sub\n      swap1\n      return\n        /* \"contracts/ExampleString.sol\":142:177  bytes public myBytes = \"Hello word\" */\n    tag_6:\n      tag_22\n      tag_23\n      jump\t// in\n    tag_22:\n      mload(0x40)\n      tag_24\n      swap2\n      swap1\n      tag_25\n      jump\t// in\n    tag_24:\n      mload(0x40)\n      dup1\n      swap2\n      sub\n      swap1\n      return\n        /* \"contracts/ExampleString.sol\":186:278  function setMyString(string memory _myString) public {... */\n    tag_7:\n      tag_26\n      0x04\n      dup1\n      calldatasize\n      sub\n      dup2\n      add\n      swap1\n      tag_27\n      swap2\n      swap1\n      tag_14\n      jump\t// in\n    tag_27:\n      tag_28\n      jump\t// in\n    tag_26:\n      stop\n        /* \"contracts/ExampleString.sol\":462:554  function getBytesLength() public view returns(uint) {... */\n    tag_9:\n        /* \"contracts/ExampleString.sol\":508:512  uint */\n      0x00\n        /* \"contracts/ExampleString.sol\":532:539  myBytes */\n      0x01\n        /* \"contracts/ExampleString.sol\":532:546  myBytes.length */\n      dup1\n      sload\n      tag_30\n      swap1\n      tag_31\n      jump\t// in\n    tag_30:\n      swap1\n      pop\n        /* \"contracts/ExampleString.sol\":525:546  return myBytes.length */\n      swap1\n      pop\n        /* \"contracts/ExampleString.sol\":462:554  function getBytesLength() public view returns(uint) {... */\n      swap1\n      jump\t// out\n        /* \"contracts/ExampleString.sol\":286:456  function compareTwostring(string memory _myString) public view returns(bool) {... */\n    tag_15:\n        /* \"contracts/ExampleString.sol\":357:361  bool */\n      0x00\n        /* \"contracts/ExampleString.sol\":437:446  _myString */\n      dup2\n        /* \"contracts/ExampleString.sol\":426:447  abi.encode(_myString) */\n      add(0x20, mload(0x40))\n      tag_33\n      swap2\n      swap1\n      tag_21\n      jump\t// in\n    tag_33:\n      mload(0x40)\n      0x20\n      dup2\n      dup4\n      sub\n      sub\n      dup2\n      mstore\n      swap1\n      0x40\n      mstore\n        /* \"contracts/ExampleString.sol\":416:448  keccak256(abi.encode(_myString)) */\n      dup1\n      mload\n      swap1\n      0x20\n      add\n      keccak256\n        /* \"contracts/ExampleString.sol\":402:410  myString */\n      0x00\n        /* \"contracts/ExampleString.sol\":391:411  abi.encode(myString) */\n      add(0x20, mload(0x40))\n      tag_34\n      swap2\n      swap1\n      tag_35\n      jump\t// in\n    tag_34:\n      mload(0x40)\n      0x20\n      dup2\n      dup4\n      sub\n      sub\n      dup2\n      mstore\n      swap1\n      0x40\n      mstore\n        /* \"contracts/ExampleString.sol\":381:412  keccak256(abi.encode(myString)) */\n      dup1\n      mload\n      swap1\n      0x20\n      add\n      keccak256\n        /* \"contracts/ExampleString.sol\":381:448  keccak256(abi.encode(myString)) == keccak256(abi.encode(_myString)) */\n      eq\n        /* \"contracts/ExampleString.sol\":374:448  return keccak256(abi.encode(myString)) == keccak256(abi.encode(_myString)) */\n      swap1\n      pop\n        /* \"contracts/ExampleString.sol\":286:456  function compareTwostring(string memory _myString) public view returns(bool) {... */\n      swap2\n      swap1\n      pop\n      jump\t// out\n        /* \"contracts/ExampleString.sol\":97:135  string public myString = \"Hello world\" */\n    tag_19:\n      0x00\n      dup1\n      sload\n      tag_36\n      swap1\n      tag_31\n      jump\t// in\n    tag_36:\n      dup1\n      0x1f\n      add\n      0x20\n      dup1\n      swap2\n      div\n      mul\n      0x20\n      add\n      mload(0x40)\n      swap1\n      dup2\n      add\n      0x40\n      mstore\n      dup1\n      swap3\n      swap2\n      swap1\n      dup2\n      dup2\n      mstore\n      0x20\n      add\n      dup3\n      dup1\n      sload\n      tag_37\n      swap1\n      tag_31\n      jump\t// in\n    tag_37:\n      dup1\n      iszero\n      tag_38\n      jumpi\n      dup1\n      0x1f\n      lt\n      tag_39\n      jumpi\n      0x0100\n      dup1\n      dup4\n      sload\n      div\n      mul\n      dup4\n      mstore\n      swap2\n      0x20\n      add\n      swap2\n      jump(tag_38)\n    tag_39:\n      dup3\n      add\n      swap2\n      swap1\n      0x00\n      mstore\n      keccak256(0x00, 0x20)\n      swap1\n    tag_40:\n      dup2\n      sload\n      dup2\n      mstore\n      swap1\n      0x01\n      add\n      swap1\n      0x20\n      add\n      dup1\n      dup4\n      gt\n      tag_40\n      jumpi\n      dup3\n      swap1\n      sub\n      0x1f\n      and\n      dup3\n      add\n      swap2\n    tag_38:\n      pop\n      pop\n      pop\n      pop\n      pop\n      dup2\n      jump\t// out\n        /* \"contracts/ExampleString.sol\":142:177  bytes public myBytes = \"Hello word\" */\n    tag_23:\n      0x01\n      dup1\n      sload\n      tag_41\n      swap1\n      tag_31\n      jump\t// in\n    tag_41:\n      dup1\n      0x1f\n      add\n      0x20\n      dup1\n      swap2\n      div\n      mul\n      0x20\n      add\n      mload(0x40)\n      swap1\n      dup2\n      add\n      0x40\n      mstore\n      dup1\n      swap3\n      swap2\n      swap1\n      dup2\n      dup2\n      mstore\n      0x20\n      add\n      dup3\n      dup1\n      sload\n      tag_42\n      swap1\n      tag_31\n      jump\t// in\n    tag_42:\n      dup1\n      iszero\n      tag_43\n      jumpi\n      dup1\n      0x1f\n      lt\n      tag_44\n      jumpi\n      0x0100\n      dup1\n      dup4\n      sload\n      div\n      mul\n      dup4\n      mstore\n      swap2\n      0x20\n      add\n      swap2\n      jump(tag_43)\n    tag_44:\n      dup3\n      add\n      swap2\n      swap1\n      0x00\n      mstore\n      keccak256(0x00, 0x20)\n      swap1\n    tag_45:\n      dup2\n      sload\n      dup2\n      mstore\n      swap1\n      0x01\n      add\n      swap1\n      0x20\n      add\n      dup1\n      dup4\n      gt\n      tag_45\n      jumpi\n      dup3\n      swap1\n      sub\n      0x1f\n      and\n      dup3\n      add\n      swap2\n    tag_43:\n      pop\n      pop\n      pop\n      pop\n      pop\n      dup2\n      jump\t// out\n        /* \"contracts/ExampleString.sol\":186:278  function setMyString(string memory _myString) public {... */\n    tag_28:\n        /* \"contracts/ExampleString.sol\":261:270  _myString */\n      dup1\n        /* \"contracts/ExampleString.sol\":250:258  myString */\n      0x00\n        /* \"contracts/ExampleString.sol\":250:270  myString = _myString */\n      swap1\n      dup2\n      tag_47\n      swap2\n      swap1\n      tag_48\n      jump\t// in\n    tag_47:\n      pop\n        /* \"contracts/ExampleString.sol\":186:278  function setMyString(string memory _myString) public {... */\n      pop\n      jump\t// out\n        /* \"#utility.yul\":7:84   */\n    tag_49:\n        /* \"#utility.yul\":44:51   */\n      0x00\n        /* \"#utility.yul\":73:78   */\n      dup2\n        /* \"#utility.yul\":62:78   */\n      swap1\n      pop\n        /* \"#utility.yul\":7:84   */\n      swap2\n      swap1\n      pop\n      jump\t// out\n        /* \"#utility.yul\":90:208   */\n    tag_50:\n        /* \"#utility.yul\":177:201   */\n      tag_93\n        /* \"#utility.yul\":195:200   */\n      dup2\n        /* \"#utility.yul\":177:201   */\n      tag_49\n      jump\t// in\n    tag_93:\n        /* \"#utility.yul\":172:175   */\n      dup3\n        /* \"#utility.yul\":165:202   */\n      mstore\n        /* \"#utility.yul\":90:208   */\n      pop\n      pop\n      jump\t// out\n        /* \"#utility.yul\":214:436   */\n    tag_11:\n        /* \"#utility.yul\":307:311   */\n      0x00\n        /* \"#utility.yul\":345:347   */\n      0x20\n        /* \"#utility.yul\":334:343   */\n      dup3\n        /* \"#utility.yul\":330:348   */\n      add\n        /* \"#utility.yul\":322:348   */\n      swap1\n      pop\n        /* \"#utility.yul\":358:429   */\n      tag_95\n        /* \"#utility.yul\":426:427   */\n      0x00\n        /* \"#utility.yul\":415:424   */\n      dup4\n        /* \"#utility.yul\":411:428   */\n      add\n        /* \"#utility.yul\":402:408   */\n      dup5\n        /* \"#utility.yul\":358:429   */\n      tag_50\n      jump\t// in\n    tag_95:\n        /* \"#utility.yul\":214:436   */\n      swap3\n      swap2\n      pop\n      pop\n      jump\t// out\n        /* \"#utility.yul\":442:517   */\n    tag_51:\n        /* \"#utility.yul\":475:481   */\n      0x00\n        /* \"#utility.yul\":508:510   */\n      0x40\n        /* \"#utility.yul\":502:511   */\n      mload\n        /* \"#utility.yul\":492:511   */\n      swap1\n      pop\n        /* \"#utility.yul\":442:517   */\n      swap1\n      jump\t// out\n        /* \"#utility.yul\":523:640   */\n    tag_52:\n        /* \"#utility.yul\":632:633   */\n      0x00\n        /* \"#utility.yul\":629:630   */\n      dup1\n        /* \"#utility.yul\":622:634   */\n      revert\n        /* \"#utility.yul\":646:763   */\n    tag_53:\n        /* \"#utility.yul\":755:756   */\n      0x00\n        /* \"#utility.yul\":752:753   */\n      dup1\n        /* \"#utility.yul\":745:757   */\n      revert\n        /* \"#utility.yul\":769:886   */\n    tag_54:\n        /* \"#utility.yul\":878:879   */\n      0x00\n        /* \"#utility.yul\":875:876   */\n      dup1\n        /* \"#utility.yul\":868:880   */\n      revert\n        /* \"#utility.yul\":892:1009   */\n    tag_55:\n        /* \"#utility.yul\":1001:1002   */\n      0x00\n        /* \"#utility.yul\":998:999   */\n      dup1\n        /* \"#utility.yul\":991:1003   */\n      revert\n        /* \"#utility.yul\":1015:1117   */\n    tag_56:\n        /* \"#utility.yul\":1056:1062   */\n      0x00\n        /* \"#utility.yul\":1107:1109   */\n      0x1f\n        /* \"#utility.yul\":1103:1110   */\n      not\n        /* \"#utility.yul\":1098:1100   */\n      0x1f\n        /* \"#utility.yul\":1091:1096   */\n      dup4\n        /* \"#utility.yul\":1087:1101   */\n      add\n        /* \"#utility.yul\":1083:1111   */\n      and\n        /* \"#utility.yul\":1073:1111   */\n      swap1\n      pop\n        /* \"#utility.yul\":1015:1117   */\n      swap2\n      swap1\n      pop\n      jump\t// out\n        /* \"#utility.yul\":1123:1303   */\n    tag_57:\n        /* \"#utility.yul\":1171:1248   */\n      0x4e487b7100000000000000000000000000000000000000000000000000000000\n        /* \"#utility.yul\":1168:1169   */\n      0x00\n        /* \"#utility.yul\":1161:1249   */\n      mstore\n        /* \"#utility.yul\":1268:1272   */\n      0x41\n        /* \"#utility.yul\":1265:1266   */\n      0x04\n        /* \"#utility.yul\":1258:1273   */\n      mstore\n        /* \"#utility.yul\":1292:1296   */\n      0x24\n        /* \"#utility.yul\":1289:1290   */\n      0x00\n        /* \"#utility.yul\":1282:1297   */\n      revert\n        /* \"#utility.yul\":1309:1590   */\n    tag_58:\n        /* \"#utility.yul\":1392:1419   */\n      tag_104\n        /* \"#utility.yul\":1414:1418   */\n      dup3\n        /* \"#utility.yul\":1392:1419   */\n      tag_56\n      jump\t// in\n    tag_104:\n        /* \"#utility.yul\":1384:1390   */\n      dup2\n        /* \"#utility.yul\":1380:1420   */\n      add\n        /* \"#utility.yul\":1522:1528   */\n      dup2\n        /* \"#utility.yul\":1510:1520   */\n      dup2\n        /* \"#utility.yul\":1507:1529   */\n      lt\n        /* \"#utility.yul\":1486:1504   */\n      0xffffffffffffffff\n        /* \"#utility.yul\":1474:1484   */\n      dup3\n        /* \"#utility.yul\":1471:1505   */\n      gt\n        /* \"#utility.yul\":1468:1530   */\n      or\n        /* \"#utility.yul\":1465:1553   */\n      iszero\n      tag_105\n      jumpi\n        /* \"#utility.yul\":1533:1551   */\n      tag_106\n      tag_57\n      jump\t// in\n    tag_106:\n        /* \"#utility.yul\":1465:1553   */\n    tag_105:\n        /* \"#utility.yul\":1573:1583   */\n      dup1\n        /* \"#utility.yul\":1569:1571   */\n      0x40\n        /* \"#utility.yul\":1562:1584   */\n      mstore\n        /* \"#utility.yul\":1352:1590   */\n      pop\n        /* \"#utility.yul\":1309:1590   */\n      pop\n      pop\n      jump\t// out\n        /* \"#utility.yul\":1596:1725   */\n    tag_59:\n        /* \"#utility.yul\":1630:1636   */\n      0x00\n        /* \"#utility.yul\":1657:1677   */\n      tag_108\n      tag_51\n      jump\t// in\n    tag_108:\n        /* \"#utility.yul\":1647:1677   */\n      swap1\n      pop\n        /* \"#utility.yul\":1686:1719   */\n      tag_109\n        /* \"#utility.yul\":1714:1718   */\n      dup3\n        /* \"#utility.yul\":1706:1712   */\n      dup3\n        /* \"#utility.yul\":1686:1719   */\n      tag_58\n      jump\t// in\n    tag_109:\n        /* \"#utility.yul\":1596:1725   */\n      swap2\n      swap1\n      pop\n      jump\t// out\n        /* \"#utility.yul\":1731:2039   */\n    tag_60:\n        /* \"#utility.yul\":1793:1797   */\n      0x00\n        /* \"#utility.yul\":1883:1901   */\n      0xffffffffffffffff\n        /* \"#utility.yul\":1875:1881   */\n      dup3\n        /* \"#utility.yul\":1872:1902   */\n      gt\n        /* \"#utility.yul\":1869:1925   */\n      iszero\n      tag_111\n      jumpi\n        /* \"#utility.yul\":1905:1923   */\n      tag_112\n      tag_57\n      jump\t// in\n    tag_112:\n        /* \"#utility.yul\":1869:1925   */\n    tag_111:\n        /* \"#utility.yul\":1943:1972   */\n      tag_113\n        /* \"#utility.yul\":1965:1971   */\n      dup3\n        /* \"#utility.yul\":1943:1972   */\n      tag_56\n      jump\t// in\n    tag_113:\n        /* \"#utility.yul\":1935:1972   */\n      swap1\n      pop\n        /* \"#utility.yul\":2027:2031   */\n      0x20\n        /* \"#utility.yul\":2021:2025   */\n      dup2\n        /* \"#utility.yul\":2017:2032   */\n      add\n        /* \"#utility.yul\":2009:2032   */\n      swap1\n      pop\n        /* \"#utility.yul\":1731:2039   */\n      swap2\n      swap1\n      pop\n      jump\t// out\n        /* \"#utility.yul\":2045:2193   */\n    tag_61:\n        /* \"#utility.yul\":2143:2149   */\n      dup3\n        /* \"#utility.yul\":2138:2141   */\n      dup2\n        /* \"#utility.yul\":2133:2136   */\n      dup4\n        /* \"#utility.yul\":2120:2150   */\n      calldatacopy\n        /* \"#utility.yul\":2184:2185   */\n      0x00\n        /* \"#utility.yul\":2175:2181   */\n      dup4\n        /* \"#utility.yul\":2170:2173   */\n      dup4\n        /* \"#utility.yul\":2166:2182   */\n      add\n        /* \"#utility.yul\":2159:2186   */\n      mstore\n        /* \"#utility.yul\":2045:2193   */\n      pop\n      pop\n      pop\n      jump\t// out\n        /* \"#utility.yul\":2199:2624   */\n    tag_62:\n        /* \"#utility.yul\":2277:2282   */\n      0x00\n        /* \"#utility.yul\":2302:2368   */\n      tag_116\n        /* \"#utility.yul\":2318:2367   */\n      tag_117\n        /* \"#utility.yul\":2360:2366   */\n      dup5\n        /* \"#utility.yul\":2318:2367   */\n      tag_60\n      jump\t// in\n    tag_117:\n        /* \"#utility.yul\":2302:2368   */\n      tag_59\n      jump\t// in\n    tag_116:\n        /* \"#utility.yul\":2293:2368   */\n      swap1\n      pop\n        /* \"#utility.yul\":2391:2397   */\n      dup3\n        /* \"#utility.yul\":2384:2389   */\n      dup2\n        /* \"#utility.yul\":2377:2398   */\n      mstore\n        /* \"#utility.yul\":2429:2433   */\n      0x20\n        /* \"#utility.yul\":2422:2427   */\n      dup2\n        /* \"#utility.yul\":2418:2434   */\n      add\n        /* \"#utility.yul\":2467:2470   */\n      dup5\n        /* \"#utility.yul\":2458:2464   */\n      dup5\n        /* \"#utility.yul\":2453:2456   */\n      dup5\n        /* \"#utility.yul\":2449:2465   */\n      add\n        /* \"#utility.yul\":2446:2471   */\n      gt\n        /* \"#utility.yul\":2443:2555   */\n      iszero\n      tag_118\n      jumpi\n        /* \"#utility.yul\":2474:2553   */\n      tag_119\n      tag_55\n      jump\t// in\n    tag_119:\n        /* \"#utility.yul\":2443:2555   */\n    tag_118:\n        /* \"#utility.yul\":2564:2618   */\n      tag_120\n        /* \"#utility.yul\":2611:2617   */\n      dup5\n        /* \"#utility.yul\":2606:2609   */\n      dup3\n        /* \"#utility.yul\":2601:2604   */\n      dup6\n        /* \"#utility.yul\":2564:2618   */\n      tag_61\n      jump\t// in\n    tag_120:\n        /* \"#utility.yul\":2283:2624   */\n      pop\n        /* \"#utility.yul\":2199:2624   */\n      swap4\n      swap3\n      pop\n      pop\n      pop\n      jump\t// out\n        /* \"#utility.yul\":2644:2984   */\n    tag_63:\n        /* \"#utility.yul\":2700:2705   */\n      0x00\n        /* \"#utility.yul\":2749:2752   */\n      dup3\n        /* \"#utility.yul\":2742:2746   */\n      0x1f\n        /* \"#utility.yul\":2734:2740   */\n      dup4\n        /* \"#utility.yul\":2730:2747   */\n      add\n        /* \"#utility.yul\":2726:2753   */\n      slt\n        /* \"#utility.yul\":2716:2838   */\n      tag_122\n      jumpi\n        /* \"#utility.yul\":2757:2836   */\n      tag_123\n      tag_54\n      jump\t// in\n    tag_123:\n        /* \"#utility.yul\":2716:2838   */\n    tag_122:\n        /* \"#utility.yul\":2874:2880   */\n      dup2\n        /* \"#utility.yul\":2861:2881   */\n      calldataload\n        /* \"#utility.yul\":2899:2978   */\n      tag_124\n        /* \"#utility.yul\":2974:2977   */\n      dup5\n        /* \"#utility.yul\":2966:2972   */\n      dup3\n        /* \"#utility.yul\":2959:2963   */\n      0x20\n        /* \"#utility.yul\":2951:2957   */\n      dup7\n        /* \"#utility.yul\":2947:2964   */\n      add\n        /* \"#utility.yul\":2899:2978   */\n      tag_62\n      jump\t// in\n    tag_124:\n        /* \"#utility.yul\":2890:2978   */\n      swap2\n      pop\n        /* \"#utility.yul\":2706:2984   */\n      pop\n        /* \"#utility.yul\":2644:2984   */\n      swap3\n      swap2\n      pop\n      pop\n      jump\t// out\n        /* \"#utility.yul\":2990:3499   */\n    tag_14:\n        /* \"#utility.yul\":3059:3065   */\n      0x00\n        /* \"#utility.yul\":3108:3110   */\n      0x20\n        /* \"#utility.yul\":3096:3105   */\n      dup3\n        /* \"#utility.yul\":3087:3094   */\n      dup5\n        /* \"#utility.yul\":3083:3106   */\n      sub\n        /* \"#utility.yul\":3079:3111   */\n      slt\n        /* \"#utility.yul\":3076:3195   */\n      iszero\n      tag_126\n      jumpi\n        /* \"#utility.yul\":3114:3193   */\n      tag_127\n      tag_52\n      jump\t// in\n    tag_127:\n        /* \"#utility.yul\":3076:3195   */\n    tag_126:\n        /* \"#utility.yul\":3262:3263   */\n      0x00\n        /* \"#utility.yul\":3251:3260   */\n      dup3\n        /* \"#utility.yul\":3247:3264   */\n      add\n        /* \"#utility.yul\":3234:3265   */\n      calldataload\n        /* \"#utility.yul\":3292:3310   */\n      0xffffffffffffffff\n        /* \"#utility.yul\":3284:3290   */\n      dup2\n        /* \"#utility.yul\":3281:3311   */\n      gt\n        /* \"#utility.yul\":3278:3395   */\n      iszero\n      tag_128\n      jumpi\n        /* \"#utility.yul\":3314:3393   */\n      tag_129\n      tag_53\n      jump\t// in\n    tag_129:\n        /* \"#utility.yul\":3278:3395   */\n    tag_128:\n        /* \"#utility.yul\":3419:3482   */\n      tag_130\n        /* \"#utility.yul\":3474:3481   */\n      dup5\n        /* \"#utility.yul\":3465:3471   */\n      dup3\n        /* \"#utility.yul\":3454:3463   */\n      dup6\n        /* \"#utility.yul\":3450:3472   */\n      add\n        /* \"#utility.yul\":3419:3482   */\n      tag_63\n      jump\t// in\n    tag_130:\n        /* \"#utility.yul\":3409:3482   */\n      swap2\n      pop\n        /* \"#utility.yul\":3205:3492   */\n      pop\n        /* \"#utility.yul\":2990:3499   */\n      swap3\n      swap2\n      pop\n      pop\n      jump\t// out\n        /* \"#utility.yul\":3505:3595   */\n    tag_64:\n        /* \"#utility.yul\":3539:3546   */\n      0x00\n        /* \"#utility.yul\":3582:3587   */\n      dup2\n        /* \"#utility.yul\":3575:3588   */\n      iszero\n        /* \"#utility.yul\":3568:3589   */\n      iszero\n        /* \"#utility.yul\":3557:3589   */\n      swap1\n      pop\n        /* \"#utility.yul\":3505:3595   */\n      swap2\n      swap1\n      pop\n      jump\t// out\n        /* \"#utility.yul\":3601:3710   */\n    tag_65:\n        /* \"#utility.yul\":3682:3703   */\n      tag_133\n        /* \"#utility.yul\":3697:3702   */\n      dup2\n        /* \"#utility.yul\":3682:3703   */\n      tag_64\n      jump\t// in\n    tag_133:\n        /* \"#utility.yul\":3677:3680   */\n      dup3\n        /* \"#utility.yul\":3670:3704   */\n      mstore\n        /* \"#utility.yul\":3601:3710   */\n      pop\n      pop\n      jump\t// out\n        /* \"#utility.yul\":3716:3926   */\n    tag_17:\n        /* \"#utility.yul\":3803:3807   */\n      0x00\n        /* \"#utility.yul\":3841:3843   */\n      0x20\n        /* \"#utility.yul\":3830:3839   */\n      dup3\n        /* \"#utility.yul\":3826:3844   */\n      add\n        /* \"#utility.yul\":3818:3844   */\n      swap1\n      pop\n        /* \"#utility.yul\":3854:3919   */\n      tag_135\n        /* \"#utility.yul\":3916:3917   */\n      0x00\n        /* \"#utility.yul\":3905:3914   */\n      dup4\n        /* \"#utility.yul\":3901:3918   */\n      add\n        /* \"#utility.yul\":3892:3898   */\n      dup5\n        /* \"#utility.yul\":3854:3919   */\n      tag_65\n      jump\t// in\n    tag_135:\n        /* \"#utility.yul\":3716:3926   */\n      swap3\n      swap2\n      pop\n      pop\n      jump\t// out\n        /* \"#utility.yul\":3932:4031   */\n    tag_66:\n        /* \"#utility.yul\":3984:3990   */\n      0x00\n        /* \"#utility.yul\":4018:4023   */\n      dup2\n        /* \"#utility.yul\":4012:4024   */\n      mload\n        /* \"#utility.yul\":4002:4024   */\n      swap1\n      pop\n        /* \"#utility.yul\":3932:4031   */\n      swap2\n      swap1\n      pop\n      jump\t// out\n        /* \"#utility.yul\":4037:4206   */\n    tag_67:\n        /* \"#utility.yul\":4121:4132   */\n      0x00\n        /* \"#utility.yul\":4155:4161   */\n      dup3\n        /* \"#utility.yul\":4150:4153   */\n      dup3\n        /* \"#utility.yul\":4143:4162   */\n      mstore\n        /* \"#utility.yul\":4195:4199   */\n      0x20\n        /* \"#utility.yul\":4190:4193   */\n      dup3\n        /* \"#utility.yul\":4186:4200   */\n      add\n        /* \"#utility.yul\":4171:4200   */\n      swap1\n      pop\n        /* \"#utility.yul\":4037:4206   */\n      swap3\n      swap2\n      pop\n      pop\n      jump\t// out\n        /* \"#utility.yul\":4212:4351   */\n    tag_68:\n        /* \"#utility.yul\":4301:4307   */\n      dup3\n        /* \"#utility.yul\":4296:4299   */\n      dup2\n        /* \"#utility.yul\":4291:4294   */\n      dup4\n        /* \"#utility.yul\":4285:4308   */\n      mcopy\n        /* \"#utility.yul\":4342:4343   */\n      0x00\n        /* \"#utility.yul\":4333:4339   */\n      dup4\n        /* \"#utility.yul\":4328:4331   */\n      dup4\n        /* \"#utility.yul\":4324:4340   */\n      add\n        /* \"#utility.yul\":4317:4344   */\n      mstore\n        /* \"#utility.yul\":4212:4351   */\n      pop\n      pop\n      pop\n      jump\t// out\n        /* \"#utility.yul\":4357:4734   */\n    tag_69:\n        /* \"#utility.yul\":4445:4448   */\n      0x00\n        /* \"#utility.yul\":4473:4512   */\n      tag_140\n        /* \"#utility.yul\":4506:4511   */\n      dup3\n        /* \"#utility.yul\":4473:4512   */\n      tag_66\n      jump\t// in\n    tag_140:\n        /* \"#utility.yul\":4528:4599   */\n      tag_141\n        /* \"#utility.yul\":4592:4598   */\n      dup2\n        /* \"#utility.yul\":4587:4590   */\n      dup6\n        /* \"#utility.yul\":4528:4599   */\n      tag_67\n      jump\t// in\n    tag_141:\n        /* \"#utility.yul\":4521:4599   */\n      swap4\n      pop\n        /* \"#utility.yul\":4608:4673   */\n      tag_142\n        /* \"#utility.yul\":4666:4672   */\n      dup2\n        /* \"#utility.yul\":4661:4664   */\n      dup6\n        /* \"#utility.yul\":4654:4658   */\n      0x20\n        /* \"#utility.yul\":4647:4652   */\n      dup7\n        /* \"#utility.yul\":4643:4659   */\n      add\n        /* \"#utility.yul\":4608:4673   */\n      tag_68\n      jump\t// in\n    tag_142:\n        /* \"#utility.yul\":4698:4727   */\n      tag_143\n        /* \"#utility.yul\":4720:4726   */\n      dup2\n        /* \"#utility.yul\":4698:4727   */\n      tag_56\n      jump\t// in\n    tag_143:\n        /* \"#utility.yul\":4693:4696   */\n      dup5\n        /* \"#utility.yul\":4689:4728   */\n      add\n        /* \"#utility.yul\":4682:4728   */\n      swap2\n      pop\n        /* \"#utility.yul\":4449:4734   */\n      pop\n        /* \"#utility.yul\":4357:4734   */\n      swap3\n      swap2\n      pop\n      pop\n      jump\t// out\n        /* \"#utility.yul\":4740:5053   */\n    tag_21:\n        /* \"#utility.yul\":4853:4857   */\n      0x00\n        /* \"#utility.yul\":4891:4893   */\n      0x20\n        /* \"#utility.yul\":4880:4889   */\n      dup3\n        /* \"#utility.yul\":4876:4894   */\n      add\n        /* \"#utility.yul\":4868:4894   */\n      swap1\n      pop\n        /* \"#utility.yul\":4940:4949   */\n      dup2\n        /* \"#utility.yul\":4934:4938   */\n      dup2\n        /* \"#utility.yul\":4930:4950   */\n      sub\n        /* \"#utility.yul\":4926:4927   */\n      0x00\n        /* \"#utility.yul\":4915:4924   */\n      dup4\n        /* \"#utility.yul\":4911:4928   */\n      add\n        /* \"#utility.yul\":4904:4951   */\n      mstore\n        /* \"#utility.yul\":4968:5046   */\n      tag_145\n        /* \"#utility.yul\":5041:5045   */\n      dup2\n        /* \"#utility.yul\":5032:5038   */\n      dup5\n        /* \"#utility.yul\":4968:5046   */\n      tag_69\n      jump\t// in\n    tag_145:\n        /* \"#utility.yul\":4960:5046   */\n      swap1\n      pop\n        /* \"#utility.yul\":4740:5053   */\n      swap3\n      swap2\n      pop\n      pop\n      jump\t// out\n        /* \"#utility.yul\":5059:5157   */\n    tag_70:\n        /* \"#utility.yul\":5110:5116   */\n      0x00\n        /* \"#utility.yul\":5144:5149   */\n      dup2\n        /* \"#utility.yul\":5138:5150   */\n      mload\n        /* \"#utility.yul\":5128:5150   */\n      swap1\n      pop\n        /* \"#utility.yul\":5059:5157   */\n      swap2\n      swap1\n      pop\n      jump\t// out\n        /* \"#utility.yul\":5163:5331   */\n    tag_71:\n        /* \"#utility.yul\":5246:5257   */\n      0x00\n        /* \"#utility.yul\":5280:5286   */\n      dup3\n        /* \"#utility.yul\":5275:5278   */\n      dup3\n        /* \"#utility.yul\":5268:5287   */\n      mstore\n        /* \"#utility.yul\":5320:5324   */\n      0x20\n        /* \"#utility.yul\":5315:5318   */\n      dup3\n        /* \"#utility.yul\":5311:5325   */\n      add\n        /* \"#utility.yul\":5296:5325   */\n      swap1\n      pop\n        /* \"#utility.yul\":5163:5331   */\n      swap3\n      swap2\n      pop\n      pop\n      jump\t// out\n        /* \"#utility.yul\":5337:5710   */\n    tag_72:\n        /* \"#utility.yul\":5423:5426   */\n      0x00\n        /* \"#utility.yul\":5451:5489   */\n      tag_149\n        /* \"#utility.yul\":5483:5488   */\n      dup3\n        /* \"#utility.yul\":5451:5489   */\n      tag_70\n      jump\t// in\n    tag_149:\n        /* \"#utility.yul\":5505:5575   */\n      tag_150\n        /* \"#utility.yul\":5568:5574   */\n      dup2\n        /* \"#utility.yul\":5563:5566   */\n      dup6\n        /* \"#utility.yul\":5505:5575   */\n      tag_71\n      jump\t// in\n    tag_150:\n        /* \"#utility.yul\":5498:5575   */\n      swap4\n      pop\n        /* \"#utility.yul\":5584:5649   */\n      tag_151\n        /* \"#utility.yul\":5642:5648   */\n      dup2\n        /* \"#utility.yul\":5637:5640   */\n      dup6\n        /* \"#utility.yul\":5630:5634   */\n      0x20\n        /* \"#utility.yul\":5623:5628   */\n      dup7\n        /* \"#utility.yul\":5619:5635   */\n      add\n        /* \"#utility.yul\":5584:5649   */\n      tag_68\n      jump\t// in\n    tag_151:\n        /* \"#utility.yul\":5674:5703   */\n      tag_152\n        /* \"#utility.yul\":5696:5702   */\n      dup2\n        /* \"#utility.yul\":5674:5703   */\n      tag_56\n      jump\t// in\n    tag_152:\n        /* \"#utility.yul\":5669:5672   */\n      dup5\n        /* \"#utility.yul\":5665:5704   */\n      add\n        /* \"#utility.yul\":5658:5704   */\n      swap2\n      pop\n        /* \"#utility.yul\":5427:5710   */\n      pop\n        /* \"#utility.yul\":5337:5710   */\n      swap3\n      swap2\n      pop\n      pop\n      jump\t// out\n        /* \"#utility.yul\":5716:6025   */\n    tag_25:\n        /* \"#utility.yul\":5827:5831   */\n      0x00\n        /* \"#utility.yul\":5865:5867   */\n      0x20\n        /* \"#utility.yul\":5854:5863   */\n      dup3\n        /* \"#utility.yul\":5850:5868   */\n      add\n        /* \"#utility.yul\":5842:5868   */\n      swap1\n      pop\n        /* \"#utility.yul\":5914:5923   */\n      dup2\n        /* \"#utility.yul\":5908:5912   */\n      dup2\n        /* \"#utility.yul\":5904:5924   */\n      sub\n        /* \"#utility.yul\":5900:5901   */\n      0x00\n        /* \"#utility.yul\":5889:5898   */\n      dup4\n        /* \"#utility.yul\":5885:5902   */\n      add\n        /* \"#utility.yul\":5878:5925   */\n      mstore\n        /* \"#utility.yul\":5942:6018   */\n      tag_154\n        /* \"#utility.yul\":6013:6017   */\n      dup2\n        /* \"#utility.yul\":6004:6010   */\n      dup5\n        /* \"#utility.yul\":5942:6018   */\n      tag_72\n      jump\t// in\n    tag_154:\n        /* \"#utility.yul\":5934:6018   */\n      swap1\n      pop\n        /* \"#utility.yul\":5716:6025   */\n      swap3\n      swap2\n      pop\n      pop\n      jump\t// out\n        /* \"#utility.yul\":6031:6211   */\n    tag_73:\n        /* \"#utility.yul\":6079:6156   */\n      0x4e487b7100000000000000000000000000000000000000000000000000000000\n        /* \"#utility.yul\":6076:6077   */\n      0x00\n        /* \"#utility.yul\":6069:6157   */\n      mstore\n        /* \"#utility.yul\":6176:6180   */\n      0x22\n        /* \"#utility.yul\":6173:6174   */\n      0x04\n        /* \"#utility.yul\":6166:6181   */\n      mstore\n        /* \"#utility.yul\":6200:6204   */\n      0x24\n        /* \"#utility.yul\":6197:6198   */\n      0x00\n        /* \"#utility.yul\":6190:6205   */\n      revert\n        /* \"#utility.yul\":6217:6537   */\n    tag_31:\n        /* \"#utility.yul\":6261:6267   */\n      0x00\n        /* \"#utility.yul\":6298:6299   */\n      0x02\n        /* \"#utility.yul\":6292:6296   */\n      dup3\n        /* \"#utility.yul\":6288:6300   */\n      div\n        /* \"#utility.yul\":6278:6300   */\n      swap1\n      pop\n        /* \"#utility.yul\":6345:6346   */\n      0x01\n        /* \"#utility.yul\":6339:6343   */\n      dup3\n        /* \"#utility.yul\":6335:6347   */\n      and\n        /* \"#utility.yul\":6366:6384   */\n      dup1\n        /* \"#utility.yul\":6356:6437   */\n      tag_157\n      jumpi\n        /* \"#utility.yul\":6422:6426   */\n      0x7f\n        /* \"#utility.yul\":6414:6420   */\n      dup3\n        /* \"#utility.yul\":6410:6427   */\n      and\n        /* \"#utility.yul\":6400:6427   */\n      swap2\n      pop\n        /* \"#utility.yul\":6356:6437   */\n    tag_157:\n        /* \"#utility.yul\":6484:6486   */\n      0x20\n        /* \"#utility.yul\":6476:6482   */\n      dup3\n        /* \"#utility.yul\":6473:6487   */\n      lt\n        /* \"#utility.yul\":6453:6471   */\n      dup2\n        /* \"#utility.yul\":6450:6488   */\n      sub\n        /* \"#utility.yul\":6447:6531   */\n      tag_158\n      jumpi\n        /* \"#utility.yul\":6503:6521   */\n      tag_159\n      tag_73\n      jump\t// in\n    tag_159:\n        /* \"#utility.yul\":6447:6531   */\n    tag_158:\n        /* \"#utility.yul\":6268:6537   */\n      pop\n        /* \"#utility.yul\":6217:6537   */\n      swap2\n      swap1\n      pop\n      jump\t// out\n        /* \"#utility.yul\":6543:6684   */\n    tag_74:\n        /* \"#utility.yul\":6592:6596   */\n      0x00\n        /* \"#utility.yul\":6615:6618   */\n      dup2\n        /* \"#utility.yul\":6607:6618   */\n      swap1\n      pop\n        /* \"#utility.yul\":6638:6641   */\n      dup2\n        /* \"#utility.yul\":6635:6636   */\n      0x00\n        /* \"#utility.yul\":6628:6642   */\n      mstore\n        /* \"#utility.yul\":6672:6676   */\n      0x20\n        /* \"#utility.yul\":6669:6670   */\n      0x00\n        /* \"#utility.yul\":6659:6677   */\n      keccak256\n        /* \"#utility.yul\":6651:6677   */\n      swap1\n      pop\n        /* \"#utility.yul\":6543:6684   */\n      swap2\n      swap1\n      pop\n      jump\t// out\n        /* \"#utility.yul\":6714:7545   */\n    tag_75:\n        /* \"#utility.yul\":6799:6802   */\n      0x00\n        /* \"#utility.yul\":6836:6841   */\n      dup2\n        /* \"#utility.yul\":6830:6842   */\n      sload\n        /* \"#utility.yul\":6865:6901   */\n      tag_162\n        /* \"#utility.yul\":6891:6900   */\n      dup2\n        /* \"#utility.yul\":6865:6901   */\n      tag_31\n      jump\t// in\n    tag_162:\n        /* \"#utility.yul\":6917:6988   */\n      tag_163\n        /* \"#utility.yul\":6981:6987   */\n      dup2\n        /* \"#utility.yul\":6976:6979   */\n      dup7\n        /* \"#utility.yul\":6917:6988   */\n      tag_67\n      jump\t// in\n    tag_163:\n        /* \"#utility.yul\":6910:6988   */\n      swap5\n      pop\n        /* \"#utility.yul\":7019:7020   */\n      0x01\n        /* \"#utility.yul\":7008:7017   */\n      dup3\n        /* \"#utility.yul\":7004:7021   */\n      and\n        /* \"#utility.yul\":7035:7036   */\n      0x00\n        /* \"#utility.yul\":7030:7194   */\n      dup2\n      eq\n      tag_165\n      jumpi\n        /* \"#utility.yul\":7208:7209   */\n      0x01\n        /* \"#utility.yul\":7203:7539   */\n      dup2\n      eq\n      tag_166\n      jumpi\n        /* \"#utility.yul\":6997:7539   */\n      jump(tag_164)\n        /* \"#utility.yul\":7030:7194   */\n    tag_165:\n        /* \"#utility.yul\":7114:7118   */\n      0xff\n        /* \"#utility.yul\":7110:7119   */\n      not\n        /* \"#utility.yul\":7099:7108   */\n      dup4\n        /* \"#utility.yul\":7095:7120   */\n      and\n        /* \"#utility.yul\":7090:7093   */\n      dup7\n        /* \"#utility.yul\":7083:7121   */\n      mstore\n        /* \"#utility.yul\":7174:7180   */\n      dup2\n        /* \"#utility.yul\":7167:7181   */\n      iszero\n        /* \"#utility.yul\":7160:7182   */\n      iszero\n        /* \"#utility.yul\":7154:7158   */\n      0x20\n        /* \"#utility.yul\":7150:7183   */\n      mul\n        /* \"#utility.yul\":7145:7148   */\n      dup7\n        /* \"#utility.yul\":7141:7184   */\n      add\n        /* \"#utility.yul\":7134:7184   */\n      swap4\n      pop\n        /* \"#utility.yul\":7030:7194   */\n      jump(tag_164)\n        /* \"#utility.yul\":7203:7539   */\n    tag_166:\n        /* \"#utility.yul\":7270:7308   */\n      tag_167\n        /* \"#utility.yul\":7302:7307   */\n      dup6\n        /* \"#utility.yul\":7270:7308   */\n      tag_74\n      jump\t// in\n    tag_167:\n        /* \"#utility.yul\":7330:7331   */\n      0x00\n        /* \"#utility.yul\":7344:7498   */\n    tag_168:\n        /* \"#utility.yul\":7358:7364   */\n      dup4\n        /* \"#utility.yul\":7355:7356   */\n      dup2\n        /* \"#utility.yul\":7352:7365   */\n      lt\n        /* \"#utility.yul\":7344:7498   */\n      iszero\n      tag_170\n      jumpi\n        /* \"#utility.yul\":7432:7439   */\n      dup2\n        /* \"#utility.yul\":7426:7440   */\n      sload\n        /* \"#utility.yul\":7422:7423   */\n      dup2\n        /* \"#utility.yul\":7417:7420   */\n      dup10\n        /* \"#utility.yul\":7413:7424   */\n      add\n        /* \"#utility.yul\":7406:7441   */\n      mstore\n        /* \"#utility.yul\":7482:7483   */\n      0x01\n        /* \"#utility.yul\":7473:7480   */\n      dup3\n        /* \"#utility.yul\":7469:7484   */\n      add\n        /* \"#utility.yul\":7458:7484   */\n      swap2\n      pop\n        /* \"#utility.yul\":7380:7384   */\n      0x20\n        /* \"#utility.yul\":7377:7378   */\n      dup2\n        /* \"#utility.yul\":7373:7385   */\n      add\n        /* \"#utility.yul\":7368:7385   */\n      swap1\n      pop\n        /* \"#utility.yul\":7344:7498   */\n      jump(tag_168)\n    tag_170:\n        /* \"#utility.yul\":7527:7528   */\n      dup1\n        /* \"#utility.yul\":7522:7525   */\n      dup9\n        /* \"#utility.yul\":7518:7529   */\n      add\n        /* \"#utility.yul\":7511:7529   */\n      swap6\n      pop\n        /* \"#utility.yul\":7210:7539   */\n      pop\n      pop\n        /* \"#utility.yul\":6997:7539   */\n    tag_164:\n      pop\n        /* \"#utility.yul\":6803:7545   */\n      pop\n      pop\n        /* \"#utility.yul\":6714:7545   */\n      swap3\n      swap2\n      pop\n      pop\n      jump\t// out\n        /* \"#utility.yul\":7551:7858   */\n    tag_35:\n        /* \"#utility.yul\":7661:7665   */\n      0x00\n        /* \"#utility.yul\":7699:7701   */\n      0x20\n        /* \"#utility.yul\":7688:7697   */\n      dup3\n        /* \"#utility.yul\":7684:7702   */\n      add\n        /* \"#utility.yul\":7676:7702   */\n      swap1\n      pop\n        /* \"#utility.yul\":7748:7757   */\n      dup2\n        /* \"#utility.yul\":7742:7746   */\n      dup2\n        /* \"#utility.yul\":7738:7758   */\n      sub\n        /* \"#utility.yul\":7734:7735   */\n      0x00\n        /* \"#utility.yul\":7723:7732   */\n      dup4\n        /* \"#utility.yul\":7719:7736   */\n      add\n        /* \"#utility.yul\":7712:7759   */\n      mstore\n        /* \"#utility.yul\":7776:7851   */\n      tag_172\n        /* \"#utility.yul\":7846:7850   */\n      dup2\n        /* \"#utility.yul\":7837:7843   */\n      dup5\n        /* \"#utility.yul\":7776:7851   */\n      tag_75\n      jump\t// in\n    tag_172:\n        /* \"#utility.yul\":7768:7851   */\n      swap1\n      pop\n        /* \"#utility.yul\":7551:7858   */\n      swap3\n      swap2\n      pop\n      pop\n      jump\t// out\n        /* \"#utility.yul\":7864:7957   */\n    tag_76:\n        /* \"#utility.yul\":7901:7907   */\n      0x00\n        /* \"#utility.yul\":7948:7950   */\n      0x20\n        /* \"#utility.yul\":7943:7945   */\n      0x1f\n        /* \"#utility.yul\":7936:7941   */\n      dup4\n        /* \"#utility.yul\":7932:7946   */\n      add\n        /* \"#utility.yul\":7928:7951   */\n      div\n        /* \"#utility.yul\":7918:7951   */\n      swap1\n      pop\n        /* \"#utility.yul\":7864:7957   */\n      swap2\n      swap1\n      pop\n      jump\t// out\n        /* \"#utility.yul\":7963:8070   */\n    tag_77:\n        /* \"#utility.yul\":8007:8015   */\n      0x00\n        /* \"#utility.yul\":8057:8062   */\n      dup3\n        /* \"#utility.yul\":8051:8055   */\n      dup3\n        /* \"#utility.yul\":8047:8063   */\n      shl\n        /* \"#utility.yul\":8026:8063   */\n      swap1\n      pop\n        /* \"#utility.yul\":7963:8070   */\n      swap3\n      swap2\n      pop\n      pop\n      jump\t// out\n        /* \"#utility.yul\":8076:8469   */\n    tag_78:\n        /* \"#utility.yul\":8145:8151   */\n      0x00\n        /* \"#utility.yul\":8195:8196   */\n      0x08\n        /* \"#utility.yul\":8183:8193   */\n      dup4\n        /* \"#utility.yul\":8179:8197   */\n      mul\n        /* \"#utility.yul\":8218:8315   */\n      tag_176\n        /* \"#utility.yul\":8248:8314   */\n      0xffffffffffffffffffffffffffffffffffffffffffffffffffffffffffffffff\n        /* \"#utility.yul\":8237:8246   */\n      dup3\n        /* \"#utility.yul\":8218:8315   */\n      tag_77\n      jump\t// in\n    tag_176:\n        /* \"#utility.yul\":8336:8375   */\n      tag_177\n        /* \"#utility.yul\":8366:8374   */\n      dup7\n        /* \"#utility.yul\":8355:8364   */\n      dup4\n        /* \"#utility.yul\":8336:8375   */\n      tag_77\n      jump\t// in\n    tag_177:\n        /* \"#utility.yul\":8324:8375   */\n      swap6\n      pop\n        /* \"#utility.yul\":8408:8412   */\n      dup1\n        /* \"#utility.yul\":8404:8413   */\n      not\n        /* \"#utility.yul\":8397:8402   */\n      dup5\n        /* \"#utility.yul\":8393:8414   */\n      and\n        /* \"#utility.yul\":8384:8414   */\n      swap4\n      pop\n        /* \"#utility.yul\":8457:8461   */\n      dup1\n        /* \"#utility.yul\":8447:8455   */\n      dup7\n        /* \"#utility.yul\":8443:8462   */\n      and\n        /* \"#utility.yul\":8436:8441   */\n      dup5\n        /* \"#utility.yul\":8433:8463   */\n      or\n        /* \"#utility.yul\":8423:8463   */\n      swap3\n      pop\n        /* \"#utility.yul\":8152:8469   */\n      pop\n      pop\n        /* \"#utility.yul\":8076:8469   */\n      swap4\n      swap3\n      pop\n      pop\n      pop\n      jump\t// out\n        /* \"#utility.yul\":8475:8535   */\n    tag_79:\n        /* \"#utility.yul\":8503:8506   */\n      0x00\n        /* \"#utility.yul\":8524:8529   */\n      dup2\n        /* \"#utility.yul\":8517:8529   */\n      swap1\n      pop\n        /* \"#utility.yul\":8475:8535   */\n      swap2\n      swap1\n      pop\n      jump\t// out\n        /* \"#utility.yul\":8541:8683   */\n    tag_80:\n        /* \"#utility.yul\":8591:8600   */\n      0x00\n        /* \"#utility.yul\":8624:8677   */\n      tag_180\n        /* \"#utility.yul\":8642:8676   */\n      tag_181\n        /* \"#utility.yul\":8651:8675   */\n      tag_182\n        /* \"#utility.yul\":8669:8674   */\n      dup5\n        /* \"#utility.yul\":8651:8675   */\n      tag_49\n      jump\t// in\n    tag_182:\n        /* \"#utility.yul\":8642:8676   */\n      tag_79\n      jump\t// in\n    tag_181:\n        /* \"#utility.yul\":8624:8677   */\n      tag_49\n      jump\t// in\n    tag_180:\n        /* \"#utility.yul\":8611:8677   */\n      swap1\n      pop\n        /* \"#utility.yul\":8541:8683   */\n      swap2\n      swap1\n      pop\n      jump\t// out\n        /* \"#utility.yul\":8689:8764   */\n    tag_81:\n        /* \"#utility.yul\":8732:8735   */\n      0x00\n        /* \"#utility.yul\":8753:8758   */\n      dup2\n        /* \"#utility.yul\":8746:8758   */\n      swap1\n      pop\n        /* \"#utility.yul\":8689:8764   */\n      swap2\n      swap1\n      pop\n      jump\t// out\n        /* \"#utility.yul\":8770:9039   */\n    tag_82:\n        /* \"#utility.yul\":8880:8919   */\n      tag_185\n        /* \"#utility.yul\":8911:8918   */\n      dup4\n        /* \"#utility.yul\":8880:8919   */\n      tag_80\n      jump\t// in\n    tag_185:\n        /* \"#utility.yul\":8941:9032   */\n      tag_186\n        /* \"#utility.yul\":8990:9031   */\n      tag_187\n        /* \"#utility.yul\":9014:9030   */\n      dup3\n        /* \"#utility.yul\":8990:9031   */\n      tag_81\n      jump\t// in\n    tag_187:\n        /* \"#utility.yul\":8982:8988   */\n      dup5\n        /* \"#utility.yul\":8975:8979   */\n      dup5\n        /* \"#utility.yul\":8969:8980   */\n      sload\n        /* \"#utility.yul\":8941:9032   */\n      tag_78\n      jump\t// in\n    tag_186:\n        /* \"#utility.yul\":8935:8939   */\n      dup3\n        /* \"#utility.yul\":8928:9033   */\n      sstore\n        /* \"#utility.yul\":8846:9039   */\n      pop\n        /* \"#utility.yul\":8770:9039   */\n      pop\n      pop\n      pop\n      jump\t// out\n        /* \"#utility.yul\":9045:9118   */\n    tag_83:\n        /* \"#utility.yul\":9090:9093   */\n      0x00\n        /* \"#utility.yul\":9045:9118   */\n      swap1\n      jump\t// out\n        /* \"#utility.yul\":9124:9313   */\n    tag_84:\n        /* \"#utility.yul\":9201:9233   */\n      tag_190\n      tag_83\n      jump\t// in\n    tag_190:\n        /* \"#utility.yul\":9242:9307   */\n      tag_191\n        /* \"#utility.yul\":9300:9306   */\n      dup2\n        /* \"#utility.yul\":9292:9298   */\n      dup5\n        /* \"#utility.yul\":9286:9290   */\n      dup5\n        /* \"#utility.yul\":9242:9307   */\n      tag_82\n      jump\t// in\n    tag_191:\n        /* \"#utility.yul\":9177:9313   */\n      pop\n        /* \"#utility.yul\":9124:9313   */\n      pop\n      pop\n      jump\t// out\n        /* \"#utility.yul\":9319:9505   */\n    tag_85:\n        /* \"#utility.yul\":9379:9499   */\n    tag_193:\n        /* \"#utility.yul\":9396:9399   */\n      dup2\n        /* \"#utility.yul\":9389:9394   */\n      dup2\n        /* \"#utility.yul\":9386:9400   */\n      lt\n        /* \"#utility.yul\":9379:9499   */\n      iszero\n      tag_195\n      jumpi\n        /* \"#utility.yul\":9450:9489   */\n      tag_196\n        /* \"#utility.yul\":9487:9488   */\n      0x00\n        /* \"#utility.yul\":9480:9485   */\n      dup3\n        /* \"#utility.yul\":9450:9489   */\n      tag_84\n      jump\t// in\n    tag_196:\n        /* \"#utility.yul\":9423:9424   */\n      0x01\n        /* \"#utility.yul\":9416:9421   */\n      dup2\n        /* \"#utility.yul\":9412:9425   */\n      add\n        /* \"#utility.yul\":9403:9425   */\n      swap1\n      pop\n        /* \"#utility.yul\":9379:9499   */\n      jump(tag_193)\n    tag_195:\n        /* \"#utility.yul\":9319:9505   */\n      pop\n      pop\n      jump\t// out\n        /* \"#utility.yul\":9511:10054   */\n    tag_86:\n        /* \"#utility.yul\":9612:9614   */\n      0x1f\n        /* \"#utility.yul\":9607:9610   */\n      dup3\n        /* \"#utility.yul\":9604:9615   */\n      gt\n        /* \"#utility.yul\":9601:10047   */\n      iszero\n      tag_198\n      jumpi\n        /* \"#utility.yul\":9646:9684   */\n      tag_199\n        /* \"#utility.yul\":9678:9683   */\n      dup2\n        /* \"#utility.yul\":9646:9684   */\n      tag_74\n      jump\t// in\n    tag_199:\n        /* \"#utility.yul\":9730:9759   */\n      tag_200\n        /* \"#utility.yul\":9748:9758   */\n      dup5\n        /* \"#utility.yul\":9730:9759   */\n      tag_76\n      jump\t// in\n    tag_200:\n        /* \"#utility.yul\":9720:9728   */\n      dup2\n        /* \"#utility.yul\":9716:9760   */\n      add\n        /* \"#utility.yul\":9913:9915   */\n      0x20\n        /* \"#utility.yul\":9901:9911   */\n      dup6\n        /* \"#utility.yul\":9898:9916   */\n      lt\n        /* \"#utility.yul\":9895:9944   */\n      iszero\n      tag_201\n      jumpi\n        /* \"#utility.yul\":9934:9942   */\n      dup2\n        /* \"#utility.yul\":9919:9942   */\n      swap1\n      pop\n        /* \"#utility.yul\":9895:9944   */\n    tag_201:\n        /* \"#utility.yul\":9957:10037   */\n      tag_202\n        /* \"#utility.yul\":10013:10035   */\n      tag_203\n        /* \"#utility.yul\":10031:10034   */\n      dup6\n        /* \"#utility.yul\":10013:10035   */\n      tag_76\n      jump\t// in\n    tag_203:\n        /* \"#utility.yul\":10003:10011   */\n      dup4\n        /* \"#utility.yul\":9999:10036   */\n      add\n        /* \"#utility.yul\":9986:9997   */\n      dup3\n        /* \"#utility.yul\":9957:10037   */\n      tag_85\n      jump\t// in\n    tag_202:\n        /* \"#utility.yul\":9616:10047   */\n      pop\n      pop\n        /* \"#utility.yul\":9601:10047   */\n    tag_198:\n        /* \"#utility.yul\":9511:10054   */\n      pop\n      pop\n      pop\n      jump\t// out\n        /* \"#utility.yul\":10060:10177   */\n    tag_87:\n        /* \"#utility.yul\":10114:10122   */\n      0x00\n        /* \"#utility.yul\":10164:10169   */\n      dup3\n        /* \"#utility.yul\":10158:10162   */\n      dup3\n        /* \"#utility.yul\":10154:10170   */\n      shr\n        /* \"#utility.yul\":10133:10170   */\n      swap1\n      pop\n        /* \"#utility.yul\":10060:10177   */\n      swap3\n      swap2\n      pop\n      pop\n      jump\t// out\n        /* \"#utility.yul\":10183:10352   */\n    tag_88:\n        /* \"#utility.yul\":10227:10233   */\n      0x00\n        /* \"#utility.yul\":10260:10311   */\n      tag_206\n        /* \"#utility.yul\":10308:10309   */\n      0x00\n        /* \"#utility.yul\":10304:10310   */\n      not\n        /* \"#utility.yul\":10296:10301   */\n      dup5\n        /* \"#utility.yul\":10293:10294   */\n      0x08\n        /* \"#utility.yul\":10289:10302   */\n      mul\n        /* \"#utility.yul\":10260:10311   */\n      tag_87\n      jump\t// in\n    tag_206:\n        /* \"#utility.yul\":10256:10312   */\n      not\n        /* \"#utility.yul\":10341:10345   */\n      dup1\n        /* \"#utility.yul\":10335:10339   */\n      dup4\n        /* \"#utility.yul\":10331:10346   */\n      and\n        /* \"#utility.yul\":10321:10346   */\n      swap2\n      pop\n        /* \"#utility.yul\":10234:10352   */\n      pop\n        /* \"#utility.yul\":10183:10352   */\n      swap3\n      swap2\n      pop\n      pop\n      jump\t// out\n        /* \"#utility.yul\":10357:10652   */\n    tag_89:\n        /* \"#utility.yul\":10433:10437   */\n      0x00\n        /* \"#utility.yul\":10579:10608   */\n      tag_208\n        /* \"#utility.yul\":10604:10607   */\n      dup4\n        /* \"#utility.yul\":10598:10602   */\n      dup4\n        /* \"#utility.yul\":10579:10608   */\n      tag_88\n      jump\t// in\n    tag_208:\n        /* \"#utility.yul\":10571:10608   */\n      swap2\n      pop\n        /* \"#utility.yul\":10641:10644   */\n      dup3\n        /* \"#utility.yul\":10638:10639   */\n      0x02\n        /* \"#utility.yul\":10634:10645   */\n      mul\n        /* \"#utility.yul\":10628:10632   */\n      dup3\n        /* \"#utility.yul\":10625:10646   */\n      or\n        /* \"#utility.yul\":10617:10646   */\n      swap1\n      pop\n        /* \"#utility.yul\":10357:10652   */\n      swap3\n      swap2\n      pop\n      pop\n      jump\t// out\n        /* \"#utility.yul\":10657:12052   */\n    tag_48:\n        /* \"#utility.yul\":10774:10811   */\n      tag_210\n        /* \"#utility.yul\":10807:10810   */\n      dup3\n        /* \"#utility.yul\":10774:10811   */\n      tag_66\n      jump\t// in\n    tag_210:\n        /* \"#utility.yul\":10876:10894   */\n      0xffffffffffffffff\n        /* \"#utility.yul\":10868:10874   */\n      dup2\n        /* \"#utility.yul\":10865:10895   */\n      gt\n        /* \"#utility.yul\":10862:10918   */\n      iszero\n      tag_211\n      jumpi\n        /* \"#utility.yul\":10898:10916   */\n      tag_212\n      tag_57\n      jump\t// in\n    tag_212:\n        /* \"#utility.yul\":10862:10918   */\n    tag_211:\n        /* \"#utility.yul\":10942:10980   */\n      tag_213\n        /* \"#utility.yul\":10974:10978   */\n      dup3\n        /* \"#utility.yul\":10968:10979   */\n      sload\n        /* \"#utility.yul\":10942:10980   */\n      tag_31\n      jump\t// in\n    tag_213:\n        /* \"#utility.yul\":11027:11094   */\n      tag_214\n        /* \"#utility.yul\":11087:11093   */\n      dup3\n        /* \"#utility.yul\":11079:11085   */\n      dup3\n        /* \"#utility.yul\":11073:11077   */\n      dup6\n        /* \"#utility.yul\":11027:11094   */\n      tag_86\n      jump\t// in\n    tag_214:\n        /* \"#utility.yul\":11121:11122   */\n      0x00\n        /* \"#utility.yul\":11145:11149   */\n      0x20\n        /* \"#utility.yul\":11132:11149   */\n      swap1\n      pop\n        /* \"#utility.yul\":11177:11179   */\n      0x1f\n        /* \"#utility.yul\":11169:11175   */\n      dup4\n        /* \"#utility.yul\":11166:11180   */\n      gt\n        /* \"#utility.yul\":11194:11195   */\n      0x01\n        /* \"#utility.yul\":11189:11807   */\n      dup2\n      eq\n      tag_216\n      jumpi\n        /* \"#utility.yul\":11851:11852   */\n      0x00\n        /* \"#utility.yul\":11868:11874   */\n      dup5\n        /* \"#utility.yul\":11865:11942   */\n      iszero\n      tag_217\n      jumpi\n        /* \"#utility.yul\":11917:11926   */\n      dup3\n        /* \"#utility.yul\":11912:11915   */\n      dup8\n        /* \"#utility.yul\":11908:11927   */\n      add\n        /* \"#utility.yul\":11902:11928   */\n      mload\n        /* \"#utility.yul\":11893:11928   */\n      swap1\n      pop\n        /* \"#utility.yul\":11865:11942   */\n    tag_217:\n        /* \"#utility.yul\":11968:12035   */\n      tag_218\n        /* \"#utility.yul\":12028:12034   */\n      dup6\n        /* \"#utility.yul\":12021:12026   */\n      dup3\n        /* \"#utility.yul\":11968:12035   */\n      tag_89\n      jump\t// in\n    tag_218:\n        /* \"#utility.yul\":11962:11966   */\n      dup7\n        /* \"#utility.yul\":11955:12036   */\n      sstore\n        /* \"#utility.yul\":11824:12046   */\n      pop\n        /* \"#utility.yul\":11159:12046   */\n      jump(tag_215)\n        /* \"#utility.yul\":11189:11807   */\n    tag_216:\n        /* \"#utility.yul\":11241:11245   */\n      0x1f\n        /* \"#utility.yul\":11237:11246   */\n      not\n        /* \"#utility.yul\":11229:11235   */\n      dup5\n        /* \"#utility.yul\":11225:11247   */\n      and\n        /* \"#utility.yul\":11275:11312   */\n      tag_219\n        /* \"#utility.yul\":11307:11311   */\n      dup7\n        /* \"#utility.yul\":11275:11312   */\n      tag_74\n      jump\t// in\n    tag_219:\n        /* \"#utility.yul\":11334:11335   */\n      0x00\n        /* \"#utility.yul\":11348:11556   */\n    tag_220:\n        /* \"#utility.yul\":11362:11369   */\n      dup3\n        /* \"#utility.yul\":11359:11360   */\n      dup2\n        /* \"#utility.yul\":11356:11370   */\n      lt\n        /* \"#utility.yul\":11348:11556   */\n      iszero\n      tag_222\n      jumpi\n        /* \"#utility.yul\":11441:11450   */\n      dup5\n        /* \"#utility.yul\":11436:11439   */\n      dup10\n        /* \"#utility.yul\":11432:11451   */\n      add\n        /* \"#utility.yul\":11426:11452   */\n      mload\n        /* \"#utility.yul\":11418:11424   */\n      dup3\n        /* \"#utility.yul\":11411:11453   */\n      sstore\n        /* \"#utility.yul\":11492:11493   */\n      0x01\n        /* \"#utility.yul\":11484:11490   */\n      dup3\n        /* \"#utility.yul\":11480:11494   */\n      add\n        /* \"#utility.yul\":11470:11494   */\n      swap2\n      pop\n        /* \"#utility.yul\":11539:11541   */\n      0x20\n        /* \"#utility.yul\":11528:11537   */\n      dup6\n        /* \"#utility.yul\":11524:11542   */\n      add\n        /* \"#utility.yul\":11511:11542   */\n      swap5\n      pop\n        /* \"#utility.yul\":11385:11389   */\n      0x20\n        /* \"#utility.yul\":11382:11383   */\n      dup2\n        /* \"#utility.yul\":11378:11390   */\n      add\n        /* \"#utility.yul\":11373:11390   */\n      swap1\n      pop\n        /* \"#utility.yul\":11348:11556   */\n      jump(tag_220)\n    tag_222:\n        /* \"#utility.yul\":11584:11590   */\n      dup7\n        /* \"#utility.yul\":11575:11582   */\n      dup4\n        /* \"#utility.yul\":11572:11591   */\n      lt\n        /* \"#utility.yul\":11569:11748   */\n      iszero\n      tag_223\n      jumpi\n        /* \"#utility.yul\":11642:11651   */\n      dup5\n        /* \"#utility.yul\":11637:11640   */\n      dup10\n        /* \"#utility.yul\":11633:11652   */\n      add\n        /* \"#utility.yul\":11627:11653   */\n      mload\n        /* \"#utility.yul\":11685:11733   */\n      tag_224\n        /* \"#utility.yul\":11727:11731   */\n      0x1f\n        /* \"#utility.yul\":11719:11725   */\n      dup10\n        /* \"#utility.yul\":11715:11732   */\n      and\n        /* \"#utility.yul\":11704:11713   */\n      dup3\n        /* \"#utility.yul\":11685:11733   */\n      tag_88\n      jump\t// in\n    tag_224:\n        /* \"#utility.yul\":11677:11683   */\n      dup4\n        /* \"#utility.yul\":11670:11734   */\n      sstore\n        /* \"#utility.yul\":11592:11748   */\n      pop\n        /* \"#utility.yul\":11569:11748   */\n    tag_223:\n        /* \"#utility.yul\":11794:11795   */\n      0x01\n        /* \"#utility.yul\":11790:11791   */\n      0x02\n        /* \"#utility.yul\":11782:11788   */\n      dup9\n        /* \"#utility.yul\":11778:11792   */\n      mul\n        /* \"#utility.yul\":11774:11796   */\n      add\n        /* \"#utility.yul\":11768:11772   */\n      dup9\n        /* \"#utility.yul\":11761:11797   */\n      sstore\n        /* \"#utility.yul\":11196:11807   */\n      pop\n      pop\n      pop\n        /* \"#utility.yul\":11159:12046   */\n    tag_215:\n      pop\n        /* \"#utility.yul\":10749:12052   */\n      pop\n      pop\n      pop\n        /* \"#utility.yul\":10657:12052   */\n      pop\n      pop\n      jump\t// out\n\n    auxdata: 0xa2646970667358221220ea956b1ad5ffdff916fb67a466a5821d29076f1bb7d446144f0edcbe5c3187b464736f6c634300081a0033\n}\n",
				"bytecode": {
					"linkReferences": {},
					"object": "60806040526040518060400160405280600b81526020017f48656c6c6f20776f726c640000000000000000000000000000000000000000008152505f908161004791906102d8565b506040518060400160405280600a81526020017f48656c6c6f20776f7264000000000000000000000000000000000000000000008152506001908161008c91906103ff565b50348015610098575f80fd5b506104ce565b5f81519050919050565b7f4e487b71000000000000000000000000000000000000000000000000000000005f52604160045260245ffd5b7f4e487b71000000000000000000000000000000000000000000000000000000005f52602260045260245ffd5b5f600282049050600182168061011957607f821691505b60208210810361012c5761012b6100d5565b5b50919050565b5f819050815f5260205f209050919050565b5f6020601f8301049050919050565b5f82821b905092915050565b5f6008830261018e7fffffffffffffffffffffffffffffffffffffffffffffffffffffffffffffffff82610153565b6101988683610153565b95508019841693508086168417925050509392505050565b5f819050919050565b5f819050919050565b5f6101dc6101d76101d2846101b0565b6101b9565b6101b0565b9050919050565b5f819050919050565b6101f5836101c2565b610209610201826101e3565b84845461015f565b825550505050565b5f90565b61021d610211565b6102288184846101ec565b505050565b5b8181101561024b576102405f82610215565b60018101905061022e565b5050565b601f8211156102905761026181610132565b61026a84610144565b81016020851015610279578190505b61028d61028585610144565b83018261022d565b50505b505050565b5f82821c905092915050565b5f6102b05f1984600802610295565b1980831691505092915050565b5f6102c883836102a1565b9150826002028217905092915050565b6102e18261009e565b67ffffffffffffffff8111156102fa576102f96100a8565b5b6103048254610102565b61030f82828561024f565b5f60209050601f831160018114610340575f841561032e578287015190505b61033885826102bd565b86555061039f565b601f19841661034e86610132565b5f5b8281101561037557848901518255600182019150602085019450602081019050610350565b86831015610392578489015161038e601f8916826102a1565b8355505b6001600288020188555050505b505050505050565b5f819050815f5260205f209050919050565b601f8211156103fa576103cb816103a7565b6103d484610144565b810160208510156103e3578190505b6103f76103ef85610144565b83018261022d565b50505b505050565b6104088261009e565b67ffffffffffffffff811115610421576104206100a8565b5b61042b8254610102565b6104368282856103b9565b5f60209050601f831160018114610467575f8415610455578287015190505b61045f85826102bd565b8655506104c6565b601f198416610475866103a7565b5f5b8281101561049c57848901518255600182019150602085019450602081019050610477565b868310156104b957848901516104b5601f8916826102a1565b8355505b6001600288020188555050505b505050505050565b61091e806104db5f395ff3fe608060405234801561000f575f80fd5b5060043610610055575f3560e01c806307da3eae146100595780634824271414610077578063492bfa18146100a7578063712f4602146100c557806382180568146100e3575b5f80fd5b6100616100ff565b60405161006e91906102ac565b60405180910390f35b610091600480360381019061008c9190610412565b610114565b60405161009e9190610473565b60405180910390f35b6100af61016b565b6040516100bc91906104ec565b60405180910390f35b6100cd6101f6565b6040516100da919061055e565b60405180910390f35b6100fd60048036038101906100f89190610412565b610282565b005b5f6001805461010d906105ab565b9050905090565b5f8160405160200161012691906104ec565b604051602081830303815290604052805190602001205f60405160200161014d919061066e565b60405160208183030381529060405280519060200120149050919050565b5f8054610177906105ab565b80601f01602080910402602001604051908101604052809291908181526020018280546101a3906105ab565b80156101ee5780601f106101c5576101008083540402835291602001916101ee565b820191905f5260205f20905b8154815290600101906020018083116101d157829003601f168201915b505050505081565b60018054610203906105ab565b80601f016020809104026020016040519081016040528092919081815260200182805461022f906105ab565b801561027a5780601f106102515761010080835404028352916020019161027a565b820191905f5260205f20905b81548152906001019060200180831161025d57829003601f168201915b505050505081565b805f90816102909190610819565b5050565b5f819050919050565b6102a681610294565b82525050565b5f6020820190506102bf5f83018461029d565b92915050565b5f604051905090565b5f80fd5b5f80fd5b5f80fd5b5f80fd5b5f601f19601f8301169050919050565b7f4e487b71000000000000000000000000000000000000000000000000000000005f52604160045260245ffd5b610324826102de565b810181811067ffffffffffffffff82111715610343576103426102ee565b5b80604052505050565b5f6103556102c5565b9050610361828261031b565b919050565b5f67ffffffffffffffff8211156103805761037f6102ee565b5b610389826102de565b9050602081019050919050565b828183375f83830152505050565b5f6103b66103b184610366565b61034c565b9050828152602081018484840111156103d2576103d16102da565b5b6103dd848285610396565b509392505050565b5f82601f8301126103f9576103f86102d6565b5b81356104098482602086016103a4565b91505092915050565b5f60208284031215610427576104266102ce565b5b5f82013567ffffffffffffffff811115610444576104436102d2565b5b610450848285016103e5565b91505092915050565b5f8115159050919050565b61046d81610459565b82525050565b5f6020820190506104865f830184610464565b92915050565b5f81519050919050565b5f82825260208201905092915050565b8281835e5f83830152505050565b5f6104be8261048c565b6104c88185610496565b93506104d88185602086016104a6565b6104e1816102de565b840191505092915050565b5f6020820190508181035f83015261050481846104b4565b905092915050565b5f81519050919050565b5f82825260208201905092915050565b5f6105308261050c565b61053a8185610516565b935061054a8185602086016104a6565b610553816102de565b840191505092915050565b5f6020820190508181035f8301526105768184610526565b905092915050565b7f4e487b71000000000000000000000000000000000000000000000000000000005f52602260045260245ffd5b5f60028204905060018216806105c257607f821691505b6020821081036105d5576105d461057e565b5b50919050565b5f819050815f5260205f209050919050565b5f81546105f9816105ab565b6106038186610496565b9450600182165f811461061d576001811461063357610665565b60ff198316865281151560200286019350610665565b61063c856105db565b5f5b8381101561065d5781548189015260018201915060208101905061063e565b808801955050505b50505092915050565b5f6020820190508181035f83015261068681846105ed565b905092915050565b5f6020601f8301049050919050565b5f82821b905092915050565b5f600883026106d87fffffffffffffffffffffffffffffffffffffffffffffffffffffffffffffffff8261069d565b6106e2868361069d565b95508019841693508086168417925050509392505050565b5f819050919050565b5f61071d61071861071384610294565b6106fa565b610294565b9050919050565b5f819050919050565b61073683610703565b61074a61074282610724565b8484546106a9565b825550505050565b5f90565b61075e610752565b61076981848461072d565b505050565b5b8181101561078c576107815f82610756565b60018101905061076f565b5050565b601f8211156107d1576107a2816105db565b6107ab8461068e565b810160208510156107ba578190505b6107ce6107c68561068e565b83018261076e565b50505b505050565b5f82821c905092915050565b5f6107f15f19846008026107d6565b1980831691505092915050565b5f61080983836107e2565b9150826002028217905092915050565b6108228261048c565b67ffffffffffffffff81111561083b5761083a6102ee565b5b61084582546105ab565b610850828285610790565b5f60209050601f831160018114610881575f841561086f578287015190505b61087985826107fe565b8655506108e0565b601f19841661088f866105db565b5f5b828110156108b657848901518255600182019150602085019450602081019050610891565b868310156108d357848901516108cf601f8916826107e2565b8355505b6001600288020188555050505b50505050505056fea2646970667358221220ea956b1ad5ffdff916fb67a466a5821d29076f1bb7d446144f0edcbe5c3187b464736f6c634300081a0033",
					"opcodes": "PUSH1 0x80 PUSH1 0x40 MSTORE PUSH1 0x40 MLOAD DUP1 PUSH1 0x40 ADD PUSH1 0x40 MSTORE DUP1 PUSH1 0xB DUP2 MSTORE PUSH1 0x20 ADD PUSH32 0x48656C6C6F20776F726C64000000000000000000000000000000000000000000 DUP2 MSTORE POP PUSH0 SWAP1 DUP2 PUSH2 0x47 SWAP2 SWAP1 PUSH2 0x2D8 JUMP JUMPDEST POP PUSH1 0x40 MLOAD DUP1 PUSH1 0x40 ADD PUSH1 0x40 MSTORE DUP1 PUSH1 0xA DUP2 MSTORE PUSH1 0x20 ADD PUSH32 0x48656C6C6F20776F726400000000000000000000000000000000000000000000 DUP2 MSTORE POP PUSH1 0x1 SWAP1 DUP2 PUSH2 0x8C SWAP2 SWAP1 PUSH2 0x3FF JUMP JUMPDEST POP CALLVALUE DUP1 ISZERO PUSH2 0x98 JUMPI PUSH0 DUP1 REVERT JUMPDEST POP PUSH2 0x4CE JUMP JUMPDEST PUSH0 DUP2 MLOAD SWAP1 POP SWAP2 SWAP1 POP JUMP JUMPDEST PUSH32 0x4E487B7100000000000000000000000000000000000000000000000000000000 PUSH0 MSTORE PUSH1 0x41 PUSH1 0x4 MSTORE PUSH1 0x24 PUSH0 REVERT JUMPDEST PUSH32 0x4E487B7100000000000000000000000000000000000000000000000000000000 PUSH0 MSTORE PUSH1 0x22 PUSH1 0x4 MSTORE PUSH1 0x24 PUSH0 REVERT JUMPDEST PUSH0 PUSH1 0x2 DUP3 DIV SWAP1 POP PUSH1 0x1 DUP3 AND DUP1 PUSH2 0x119 JUMPI PUSH1 0x7F DUP3 AND SWAP2 POP JUMPDEST PUSH1 0x20 DUP3 LT DUP2 SUB PUSH2 0x12C JUMPI PUSH2 0x12B PUSH2 0xD5 JUMP JUMPDEST JUMPDEST POP SWAP2 SWAP1 POP JUMP JUMPDEST PUSH0 DUP2 SWAP1 POP DUP2 PUSH0 MSTORE PUSH1 0x20 PUSH0 KECCAK256 SWAP1 POP SWAP2 SWAP1 POP JUMP JUMPDEST PUSH0 PUSH1 0x20 PUSH1 0x1F DUP4 ADD DIV SWAP1 POP SWAP2 SWAP1 POP JUMP JUMPDEST PUSH0 DUP3 DUP3 SHL SWAP1 POP SWAP3 SWAP2 POP POP JUMP JUMPDEST PUSH0 PUSH1 0x8 DUP4 MUL PUSH2 0x18E PUSH32 0xFFFFFFFFFFFFFFFFFFFFFFFFFFFFFFFFFFFFFFFFFFFFFFFFFFFFFFFFFFFFFFFF DUP3 PUSH2 0x153 JUMP JUMPDEST PUSH2 0x198 DUP7 DUP4 PUSH2 0x153 JUMP JUMPDEST SWAP6 POP DUP1 NOT DUP5 AND SWAP4 POP DUP1 DUP7 AND DUP5 OR SWAP3 POP POP POP SWAP4 SWAP3 POP POP POP JUMP JUMPDEST PUSH0 DUP2 SWAP1 POP SWAP2 SWAP1 POP JUMP JUMPDEST PUSH0 DUP2 SWAP1 POP SWAP2 SWAP1 POP JUMP JUMPDEST PUSH0 PUSH2 0x1DC PUSH2 0x1D7 PUSH2 0x1D2 DUP5 PUSH2 0x1B0 JUMP JUMPDEST PUSH2 0x1B9 JUMP JUMPDEST PUSH2 0x1B0 JUMP JUMPDEST SWAP1 POP SWAP2 SWAP1 POP JUMP JUMPDEST PUSH0 DUP2 SWAP1 POP SWAP2 SWAP1 POP JUMP JUMPDEST PUSH2 0x1F5 DUP4 PUSH2 0x1C2 JUMP JUMPDEST PUSH2 0x209 PUSH2 0x201 DUP3 PUSH2 0x1E3 JUMP JUMPDEST DUP5 DUP5 SLOAD PUSH2 0x15F JUMP JUMPDEST DUP3 SSTORE POP POP POP POP JUMP JUMPDEST PUSH0 SWAP1 JUMP JUMPDEST PUSH2 0x21D PUSH2 0x211 JUMP JUMPDEST PUSH2 0x228 DUP2 DUP5 DUP5 PUSH2 0x1EC JUMP JUMPDEST POP POP POP JUMP JUMPDEST JUMPDEST DUP2 DUP2 LT ISZERO PUSH2 0x24B JUMPI PUSH2 0x240 PUSH0 DUP3 PUSH2 0x215 JUMP JUMPDEST PUSH1 0x1 DUP2 ADD SWAP1 POP PUSH2 0x22E JUMP JUMPDEST POP POP JUMP JUMPDEST PUSH1 0x1F DUP3 GT ISZERO PUSH2 0x290 JUMPI PUSH2 0x261 DUP2 PUSH2 0x132 JUMP JUMPDEST PUSH2 0x26A DUP5 PUSH2 0x144 JUMP JUMPDEST DUP2 ADD PUSH1 0x20 DUP6 LT ISZERO PUSH2 0x279 JUMPI DUP2 SWAP1 POP JUMPDEST PUSH2 0x28D PUSH2 0x285 DUP6 PUSH2 0x144 JUMP JUMPDEST DUP4 ADD DUP3 PUSH2 0x22D JUMP JUMPDEST POP POP JUMPDEST POP POP POP JUMP JUMPDEST PUSH0 DUP3 DUP3 SHR SWAP1 POP SWAP3 SWAP2 POP POP JUMP JUMPDEST PUSH0 PUSH2 0x2B0 PUSH0 NOT DUP5 PUSH1 0x8 MUL PUSH2 0x295 JUMP JUMPDEST NOT DUP1 DUP4 AND SWAP2 POP POP SWAP3 SWAP2 POP POP JUMP JUMPDEST PUSH0 PUSH2 0x2C8 DUP4 DUP4 PUSH2 0x2A1 JUMP JUMPDEST SWAP2 POP DUP3 PUSH1 0x2 MUL DUP3 OR SWAP1 POP SWAP3 SWAP2 POP POP JUMP JUMPDEST PUSH2 0x2E1 DUP3 PUSH2 0x9E JUMP JUMPDEST PUSH8 0xFFFFFFFFFFFFFFFF DUP2 GT ISZERO PUSH2 0x2FA JUMPI PUSH2 0x2F9 PUSH2 0xA8 JUMP JUMPDEST JUMPDEST PUSH2 0x304 DUP3 SLOAD PUSH2 0x102 JUMP JUMPDEST PUSH2 0x30F DUP3 DUP3 DUP6 PUSH2 0x24F JUMP JUMPDEST PUSH0 PUSH1 0x20 SWAP1 POP PUSH1 0x1F DUP4 GT PUSH1 0x1 DUP2 EQ PUSH2 0x340 JUMPI PUSH0 DUP5 ISZERO PUSH2 0x32E JUMPI DUP3 DUP8 ADD MLOAD SWAP1 POP JUMPDEST PUSH2 0x338 DUP6 DUP3 PUSH2 0x2BD JUMP JUMPDEST DUP7 SSTORE POP PUSH2 0x39F JUMP JUMPDEST PUSH1 0x1F NOT DUP5 AND PUSH2 0x34E DUP7 PUSH2 0x132 JUMP JUMPDEST PUSH0 JUMPDEST DUP3 DUP2 LT ISZERO PUSH2 0x375 JUMPI DUP5 DUP10 ADD MLOAD DUP3 SSTORE PUSH1 0x1 DUP3 ADD SWAP2 POP PUSH1 0x20 DUP6 ADD SWAP5 POP PUSH1 0x20 DUP2 ADD SWAP1 POP PUSH2 0x350 JUMP JUMPDEST DUP7 DUP4 LT ISZERO PUSH2 0x392 JUMPI DUP5 DUP10 ADD MLOAD PUSH2 0x38E PUSH1 0x1F DUP10 AND DUP3 PUSH2 0x2A1 JUMP JUMPDEST DUP4 SSTORE POP JUMPDEST PUSH1 0x1 PUSH1 0x2 DUP9 MUL ADD DUP9 SSTORE POP POP POP JUMPDEST POP POP POP POP POP POP JUMP JUMPDEST PUSH0 DUP2 SWAP1 POP DUP2 PUSH0 MSTORE PUSH1 0x20 PUSH0 KECCAK256 SWAP1 POP SWAP2 SWAP1 POP JUMP JUMPDEST PUSH1 0x1F DUP3 GT ISZERO PUSH2 0x3FA JUMPI PUSH2 0x3CB DUP2 PUSH2 0x3A7 JUMP JUMPDEST PUSH2 0x3D4 DUP5 PUSH2 0x144 JUMP JUMPDEST DUP2 ADD PUSH1 0x20 DUP6 LT ISZERO PUSH2 0x3E3 JUMPI DUP2 SWAP1 POP JUMPDEST PUSH2 0x3F7 PUSH2 0x3EF DUP6 PUSH2 0x144 JUMP JUMPDEST DUP4 ADD DUP3 PUSH2 0x22D JUMP JUMPDEST POP POP JUMPDEST POP POP POP JUMP JUMPDEST PUSH2 0x408 DUP3 PUSH2 0x9E JUMP JUMPDEST PUSH8 0xFFFFFFFFFFFFFFFF DUP2 GT ISZERO PUSH2 0x421 JUMPI PUSH2 0x420 PUSH2 0xA8 JUMP JUMPDEST JUMPDEST PUSH2 0x42B DUP3 SLOAD PUSH2 0x102 JUMP JUMPDEST PUSH2 0x436 DUP3 DUP3 DUP6 PUSH2 0x3B9 JUMP JUMPDEST PUSH0 PUSH1 0x20 SWAP1 POP PUSH1 0x1F DUP4 GT PUSH1 0x1 DUP2 EQ PUSH2 0x467 JUMPI PUSH0 DUP5 ISZERO PUSH2 0x455 JUMPI DUP3 DUP8 ADD MLOAD SWAP1 POP JUMPDEST PUSH2 0x45F DUP6 DUP3 PUSH2 0x2BD JUMP JUMPDEST DUP7 SSTORE POP PUSH2 0x4C6 JUMP JUMPDEST PUSH1 0x1F NOT DUP5 AND PUSH2 0x475 DUP7 PUSH2 0x3A7 JUMP JUMPDEST PUSH0 JUMPDEST DUP3 DUP2 LT ISZERO PUSH2 0x49C JUMPI DUP5 DUP10 ADD MLOAD DUP3 SSTORE PUSH1 0x1 DUP3 ADD SWAP2 POP PUSH1 0x20 DUP6 ADD SWAP5 POP PUSH1 0x20 DUP2 ADD SWAP1 POP PUSH2 0x477 JUMP JUMPDEST DUP7 DUP4 LT ISZERO PUSH2 0x4B9 JUMPI DUP5 DUP10 ADD MLOAD PUSH2 0x4B5 PUSH1 0x1F DUP10 AND DUP3 PUSH2 0x2A1 JUMP JUMPDEST DUP4 SSTORE POP JUMPDEST PUSH1 0x1 PUSH1 0x2 DUP9 MUL ADD DUP9 SSTORE POP POP POP JUMPDEST POP POP POP POP POP POP JUMP JUMPDEST PUSH2 0x91E DUP1 PUSH2 0x4DB PUSH0 CODECOPY PUSH0 RETURN INVALID PUSH1 0x80 PUSH1 0x40 MSTORE CALLVALUE DUP1 ISZERO PUSH2 0xF JUMPI PUSH0 DUP1 REVERT JUMPDEST POP PUSH1 0x4 CALLDATASIZE LT PUSH2 0x55 JUMPI PUSH0 CALLDATALOAD PUSH1 0xE0 SHR DUP1 PUSH4 0x7DA3EAE EQ PUSH2 0x59 JUMPI DUP1 PUSH4 0x48242714 EQ PUSH2 0x77 JUMPI DUP1 PUSH4 0x492BFA18 EQ PUSH2 0xA7 JUMPI DUP1 PUSH4 0x712F4602 EQ PUSH2 0xC5 JUMPI DUP1 PUSH4 0x82180568 EQ PUSH2 0xE3 JUMPI JUMPDEST PUSH0 DUP1 REVERT JUMPDEST PUSH2 0x61 PUSH2 0xFF JUMP JUMPDEST PUSH1 0x40 MLOAD PUSH2 0x6E SWAP2 SWAP1 PUSH2 0x2AC JUMP JUMPDEST PUSH1 0x40 MLOAD DUP1 SWAP2 SUB SWAP1 RETURN JUMPDEST PUSH2 0x91 PUSH1 0x4 DUP1 CALLDATASIZE SUB DUP2 ADD SWAP1 PUSH2 0x8C SWAP2 SWAP1 PUSH2 0x412 JUMP JUMPDEST PUSH2 0x114 JUMP JUMPDEST PUSH1 0x40 MLOAD PUSH2 0x9E SWAP2 SWAP1 PUSH2 0x473 JUMP JUMPDEST PUSH1 0x40 MLOAD DUP1 SWAP2 SUB SWAP1 RETURN JUMPDEST PUSH2 0xAF PUSH2 0x16B JUMP JUMPDEST PUSH1 0x40 MLOAD PUSH2 0xBC SWAP2 SWAP1 PUSH2 0x4EC JUMP JUMPDEST PUSH1 0x40 MLOAD DUP1 SWAP2 SUB SWAP1 RETURN JUMPDEST PUSH2 0xCD PUSH2 0x1F6 JUMP JUMPDEST PUSH1 0x40 MLOAD PUSH2 0xDA SWAP2 SWAP1 PUSH2 0x55E JUMP JUMPDEST PUSH1 0x40 MLOAD DUP1 SWAP2 SUB SWAP1 RETURN JUMPDEST PUSH2 0xFD PUSH1 0x4 DUP1 CALLDATASIZE SUB DUP2 ADD SWAP1 PUSH2 0xF8 SWAP2 SWAP1 PUSH2 0x412 JUMP JUMPDEST PUSH2 0x282 JUMP JUMPDEST STOP JUMPDEST PUSH0 PUSH1 0x1 DUP1 SLOAD PUSH2 0x10D SWAP1 PUSH2 0x5AB JUMP JUMPDEST SWAP1 POP SWAP1 POP SWAP1 JUMP JUMPDEST PUSH0 DUP2 PUSH1 0x40 MLOAD PUSH1 0x20 ADD PUSH2 0x126 SWAP2 SWAP1 PUSH2 0x4EC JUMP JUMPDEST PUSH1 0x40 MLOAD PUSH1 0x20 DUP2 DUP4 SUB SUB DUP2 MSTORE SWAP1 PUSH1 0x40 MSTORE DUP1 MLOAD SWAP1 PUSH1 0x20 ADD KECCAK256 PUSH0 PUSH1 0x40 MLOAD PUSH1 0x20 ADD PUSH2 0x14D SWAP2 SWAP1 PUSH2 0x66E JUMP JUMPDEST PUSH1 0x40 MLOAD PUSH1 0x20 DUP2 DUP4 SUB SUB DUP2 MSTORE SWAP1 PUSH1 0x40 MSTORE DUP1 MLOAD SWAP1 PUSH1 0x20 ADD KECCAK256 EQ SWAP1 POP SWAP2 SWAP1 POP JUMP JUMPDEST PUSH0 DUP1 SLOAD PUSH2 0x177 SWAP1 PUSH2 0x5AB JUMP JUMPDEST DUP1 PUSH1 0x1F ADD PUSH1 0x20 DUP1 SWAP2 DIV MUL PUSH1 0x20 ADD PUSH1 0x40 MLOAD SWAP1 DUP2 ADD PUSH1 0x40 MSTORE DUP1 SWAP3 SWAP2 SWAP1 DUP2 DUP2 MSTORE PUSH1 0x20 ADD DUP3 DUP1 SLOAD PUSH2 0x1A3 SWAP1 PUSH2 0x5AB JUMP JUMPDEST DUP1 ISZERO PUSH2 0x1EE JUMPI DUP1 PUSH1 0x1F LT PUSH2 0x1C5 JUMPI PUSH2 0x100 DUP1 DUP4 SLOAD DIV MUL DUP4 MSTORE SWAP2 PUSH1 0x20 ADD SWAP2 PUSH2 0x1EE JUMP JUMPDEST DUP3 ADD SWAP2 SWAP1 PUSH0 MSTORE PUSH1 0x20 PUSH0 KECCAK256 SWAP1 JUMPDEST DUP2 SLOAD DUP2 MSTORE SWAP1 PUSH1 0x1 ADD SWAP1 PUSH1 0x20 ADD DUP1 DUP4 GT PUSH2 0x1D1 JUMPI DUP3 SWAP1 SUB PUSH1 0x1F AND DUP3 ADD SWAP2 JUMPDEST POP POP POP POP POP DUP2 JUMP JUMPDEST PUSH1 0x1 DUP1 SLOAD PUSH2 0x203 SWAP1 PUSH2 0x5AB JUMP JUMPDEST DUP1 PUSH1 0x1F ADD PUSH1 0x20 DUP1 SWAP2 DIV MUL PUSH1 0x20 ADD PUSH1 0x40 MLOAD SWAP1 DUP2 ADD PUSH1 0x40 MSTORE DUP1 SWAP3 SWAP2 SWAP1 DUP2 DUP2 MSTORE PUSH1 0x20 ADD DUP3 DUP1 SLOAD PUSH2 0x22F SWAP1 PUSH2 0x5AB JUMP JUMPDEST DUP1 ISZERO PUSH2 0x27A JUMPI DUP1 PUSH1 0x1F LT PUSH2 0x251 JUMPI PUSH2 0x100 DUP1 DUP4 SLOAD DIV MUL DUP4 MSTORE SWAP2 PUSH1 0x20 ADD SWAP2 PUSH2 0x27A JUMP JUMPDEST DUP3 ADD SWAP2 SWAP1 PUSH0 MSTORE PUSH1 0x20 PUSH0 KECCAK256 SWAP1 JUMPDEST DUP2 SLOAD DUP2 MSTORE SWAP1 PUSH1 0x1 ADD SWAP1 PUSH1 0x20 ADD DUP1 DUP4 GT PUSH2 0x25D JUMPI DUP3 SWAP1 SUB PUSH1 0x1F AND DUP3 ADD SWAP2 JUMPDEST POP POP POP POP POP DUP2 JUMP JUMPDEST DUP1 PUSH0 SWAP1 DUP2 PUSH2 0x290 SWAP2 SWAP1 PUSH2 0x819 JUMP JUMPDEST POP POP JUMP JUMPDEST PUSH0 DUP2 SWAP1 POP SWAP2 SWAP1 POP JUMP JUMPDEST PUSH2 0x2A6 DUP2 PUSH2 0x294 JUMP JUMPDEST DUP3 MSTORE POP POP JUMP JUMPDEST PUSH0 PUSH1 0x20 DUP3 ADD SWAP1 POP PUSH2 0x2BF PUSH0 DUP4 ADD DUP5 PUSH2 0x29D JUMP JUMPDEST SWAP3 SWAP2 POP POP JUMP JUMPDEST PUSH0 PUSH1 0x40 MLOAD SWAP1 POP SWAP1 JUMP JUMPDEST PUSH0 DUP1 REVERT JUMPDEST PUSH0 DUP1 REVERT JUMPDEST PUSH0 DUP1 REVERT JUMPDEST PUSH0 DUP1 REVERT JUMPDEST PUSH0 PUSH1 0x1F NOT PUSH1 0x1F DUP4 ADD AND SWAP1 POP SWAP2 SWAP1 POP JUMP JUMPDEST PUSH32 0x4E487B7100000000000000000000000000000000000000000000000000000000 PUSH0 MSTORE PUSH1 0x41 PUSH1 0x4 MSTORE PUSH1 0x24 PUSH0 REVERT JUMPDEST PUSH2 0x324 DUP3 PUSH2 0x2DE JUMP JUMPDEST DUP2 ADD DUP2 DUP2 LT PUSH8 0xFFFFFFFFFFFFFFFF DUP3 GT OR ISZERO PUSH2 0x343 JUMPI PUSH2 0x342 PUSH2 0x2EE JUMP JUMPDEST JUMPDEST DUP1 PUSH1 0x40 MSTORE POP POP POP JUMP JUMPDEST PUSH0 PUSH2 0x355 PUSH2 0x2C5 JUMP JUMPDEST SWAP1 POP PUSH2 0x361 DUP3 DUP3 PUSH2 0x31B JUMP JUMPDEST SWAP2 SWAP1 POP JUMP JUMPDEST PUSH0 PUSH8 0xFFFFFFFFFFFFFFFF DUP3 GT ISZERO PUSH2 0x380 JUMPI PUSH2 0x37F PUSH2 0x2EE JUMP JUMPDEST JUMPDEST PUSH2 0x389 DUP3 PUSH2 0x2DE JUMP JUMPDEST SWAP1 POP PUSH1 0x20 DUP2 ADD SWAP1 POP SWAP2 SWAP1 POP JUMP JUMPDEST DUP3 DUP2 DUP4 CALLDATACOPY PUSH0 DUP4 DUP4 ADD MSTORE POP POP POP JUMP JUMPDEST PUSH0 PUSH2 0x3B6 PUSH2 0x3B1 DUP5 PUSH2 0x366 JUMP JUMPDEST PUSH2 0x34C JUMP JUMPDEST SWAP1 POP DUP3 DUP2 MSTORE PUSH1 0x20 DUP2 ADD DUP5 DUP5 DUP5 ADD GT ISZERO PUSH2 0x3D2 JUMPI PUSH2 0x3D1 PUSH2 0x2DA JUMP JUMPDEST JUMPDEST PUSH2 0x3DD DUP5 DUP3 DUP6 PUSH2 0x396 JUMP JUMPDEST POP SWAP4 SWAP3 POP POP POP JUMP JUMPDEST PUSH0 DUP3 PUSH1 0x1F DUP4 ADD SLT PUSH2 0x3F9 JUMPI PUSH2 0x3F8 PUSH2 0x2D6 JUMP JUMPDEST JUMPDEST DUP2 CALLDATALOAD PUSH2 0x409 DUP5 DUP3 PUSH1 0x20 DUP7 ADD PUSH2 0x3A4 JUMP JUMPDEST SWAP2 POP POP SWAP3 SWAP2 POP POP JUMP JUMPDEST PUSH0 PUSH1 0x20 DUP3 DUP5 SUB SLT ISZERO PUSH2 0x427 JUMPI PUSH2 0x426 PUSH2 0x2CE JUMP JUMPDEST JUMPDEST PUSH0 DUP3 ADD CALLDATALOAD PUSH8 0xFFFFFFFFFFFFFFFF DUP2 GT ISZERO PUSH2 0x444 JUMPI PUSH2 0x443 PUSH2 0x2D2 JUMP JUMPDEST JUMPDEST PUSH2 0x450 DUP5 DUP3 DUP6 ADD PUSH2 0x3E5 JUMP JUMPDEST SWAP2 POP POP SWAP3 SWAP2 POP POP JUMP JUMPDEST PUSH0 DUP2 ISZERO ISZERO SWAP1 POP SWAP2 SWAP1 POP JUMP JUMPDEST PUSH2 0x46D DUP2 PUSH2 0x459 JUMP JUMPDEST DUP3 MSTORE POP POP JUMP JUMPDEST PUSH0 PUSH1 0x20 DUP3 ADD SWAP1 POP PUSH2 0x486 PUSH0 DUP4 ADD DUP5 PUSH2 0x464 JUMP JUMPDEST SWAP3 SWAP2 POP POP JUMP JUMPDEST PUSH0 DUP2 MLOAD SWAP1 POP SWAP2 SWAP1 POP JUMP JUMPDEST PUSH0 DUP3 DUP3 MSTORE PUSH1 0x20 DUP3 ADD SWAP1 POP SWAP3 SWAP2 POP POP JUMP JUMPDEST DUP3 DUP2 DUP4 MCOPY PUSH0 DUP4 DUP4 ADD MSTORE POP POP POP JUMP JUMPDEST PUSH0 PUSH2 0x4BE DUP3 PUSH2 0x48C JUMP JUMPDEST PUSH2 0x4C8 DUP2 DUP6 PUSH2 0x496 JUMP JUMPDEST SWAP4 POP PUSH2 0x4D8 DUP2 DUP6 PUSH1 0x20 DUP7 ADD PUSH2 0x4A6 JUMP JUMPDEST PUSH2 0x4E1 DUP2 PUSH2 0x2DE JUMP JUMPDEST DUP5 ADD SWAP2 POP POP SWAP3 SWAP2 POP POP JUMP JUMPDEST PUSH0 PUSH1 0x20 DUP3 ADD SWAP1 POP DUP2 DUP2 SUB PUSH0 DUP4 ADD MSTORE PUSH2 0x504 DUP2 DUP5 PUSH2 0x4B4 JUMP JUMPDEST SWAP1 POP SWAP3 SWAP2 POP POP JUMP JUMPDEST PUSH0 DUP2 MLOAD SWAP1 POP SWAP2 SWAP1 POP JUMP JUMPDEST PUSH0 DUP3 DUP3 MSTORE PUSH1 0x20 DUP3 ADD SWAP1 POP SWAP3 SWAP2 POP POP JUMP JUMPDEST PUSH0 PUSH2 0x530 DUP3 PUSH2 0x50C JUMP JUMPDEST PUSH2 0x53A DUP2 DUP6 PUSH2 0x516 JUMP JUMPDEST SWAP4 POP PUSH2 0x54A DUP2 DUP6 PUSH1 0x20 DUP7 ADD PUSH2 0x4A6 JUMP JUMPDEST PUSH2 0x553 DUP2 PUSH2 0x2DE JUMP JUMPDEST DUP5 ADD SWAP2 POP POP SWAP3 SWAP2 POP POP JUMP JUMPDEST PUSH0 PUSH1 0x20 DUP3 ADD SWAP1 POP DUP2 DUP2 SUB PUSH0 DUP4 ADD MSTORE PUSH2 0x576 DUP2 DUP5 PUSH2 0x526 JUMP JUMPDEST SWAP1 POP SWAP3 SWAP2 POP POP JUMP JUMPDEST PUSH32 0x4E487B7100000000000000000000000000000000000000000000000000000000 PUSH0 MSTORE PUSH1 0x22 PUSH1 0x4 MSTORE PUSH1 0x24 PUSH0 REVERT JUMPDEST PUSH0 PUSH1 0x2 DUP3 DIV SWAP1 POP PUSH1 0x1 DUP3 AND DUP1 PUSH2 0x5C2 JUMPI PUSH1 0x7F DUP3 AND SWAP2 POP JUMPDEST PUSH1 0x20 DUP3 LT DUP2 SUB PUSH2 0x5D5 JUMPI PUSH2 0x5D4 PUSH2 0x57E JUMP JUMPDEST JUMPDEST POP SWAP2 SWAP1 POP JUMP JUMPDEST PUSH0 DUP2 SWAP1 POP DUP2 PUSH0 MSTORE PUSH1 0x20 PUSH0 KECCAK256 SWAP1 POP SWAP2 SWAP1 POP JUMP JUMPDEST PUSH0 DUP2 SLOAD PUSH2 0x5F9 DUP2 PUSH2 0x5AB JUMP JUMPDEST PUSH2 0x603 DUP2 DUP7 PUSH2 0x496 JUMP JUMPDEST SWAP5 POP PUSH1 0x1 DUP3 AND PUSH0 DUP2 EQ PUSH2 0x61D JUMPI PUSH1 0x1 DUP2 EQ PUSH2 0x633 JUMPI PUSH2 0x665 JUMP JUMPDEST PUSH1 0xFF NOT DUP4 AND DUP7 MSTORE DUP2 ISZERO ISZERO PUSH1 0x20 MUL DUP7 ADD SWAP4 POP PUSH2 0x665 JUMP JUMPDEST PUSH2 0x63C DUP6 PUSH2 0x5DB JUMP JUMPDEST PUSH0 JUMPDEST DUP4 DUP2 LT ISZERO PUSH2 0x65D JUMPI DUP2 SLOAD DUP2 DUP10 ADD MSTORE PUSH1 0x1 DUP3 ADD SWAP2 POP PUSH1 0x20 DUP2 ADD SWAP1 POP PUSH2 0x63E JUMP JUMPDEST DUP1 DUP9 ADD SWAP6 POP POP POP JUMPDEST POP POP POP SWAP3 SWAP2 POP POP JUMP JUMPDEST PUSH0 PUSH1 0x20 DUP3 ADD SWAP1 POP DUP2 DUP2 SUB PUSH0 DUP4 ADD MSTORE PUSH2 0x686 DUP2 DUP5 PUSH2 0x5ED JUMP JUMPDEST SWAP1 POP SWAP3 SWAP2 POP POP JUMP JUMPDEST PUSH0 PUSH1 0x20 PUSH1 0x1F DUP4 ADD DIV SWAP1 POP SWAP2 SWAP1 POP JUMP JUMPDEST PUSH0 DUP3 DUP3 SHL SWAP1 POP SWAP3 SWAP2 POP POP JUMP JUMPDEST PUSH0 PUSH1 0x8 DUP4 MUL PUSH2 0x6D8 PUSH32 0xFFFFFFFFFFFFFFFFFFFFFFFFFFFFFFFFFFFFFFFFFFFFFFFFFFFFFFFFFFFFFFFF DUP3 PUSH2 0x69D JUMP JUMPDEST PUSH2 0x6E2 DUP7 DUP4 PUSH2 0x69D JUMP JUMPDEST SWAP6 POP DUP1 NOT DUP5 AND SWAP4 POP DUP1 DUP7 AND DUP5 OR SWAP3 POP POP POP SWAP4 SWAP3 POP POP POP JUMP JUMPDEST PUSH0 DUP2 SWAP1 POP SWAP2 SWAP1 POP JUMP JUMPDEST PUSH0 PUSH2 0x71D PUSH2 0x718 PUSH2 0x713 DUP5 PUSH2 0x294 JUMP JUMPDEST PUSH2 0x6FA JUMP JUMPDEST PUSH2 0x294 JUMP JUMPDEST SWAP1 POP SWAP2 SWAP1 POP JUMP JUMPDEST PUSH0 DUP2 SWAP1 POP SWAP2 SWAP1 POP JUMP JUMPDEST PUSH2 0x736 DUP4 PUSH2 0x703 JUMP JUMPDEST PUSH2 0x74A PUSH2 0x742 DUP3 PUSH2 0x724 JUMP JUMPDEST DUP5 DUP5 SLOAD PUSH2 0x6A9 JUMP JUMPDEST DUP3 SSTORE POP POP POP POP JUMP JUMPDEST PUSH0 SWAP1 JUMP JUMPDEST PUSH2 0x75E PUSH2 0x752 JUMP JUMPDEST PUSH2 0x769 DUP2 DUP5 DUP5 PUSH2 0x72D JUMP JUMPDEST POP POP POP JUMP JUMPDEST JUMPDEST DUP2 DUP2 LT ISZERO PUSH2 0x78C JUMPI PUSH2 0x781 PUSH0 DUP3 PUSH2 0x756 JUMP JUMPDEST PUSH1 0x1 DUP2 ADD SWAP1 POP PUSH2 0x76F JUMP JUMPDEST POP POP JUMP JUMPDEST PUSH1 0x1F DUP3 GT ISZERO PUSH2 0x7D1 JUMPI PUSH2 0x7A2 DUP2 PUSH2 0x5DB JUMP JUMPDEST PUSH2 0x7AB DUP5 PUSH2 0x68E JUMP JUMPDEST DUP2 ADD PUSH1 0x20 DUP6 LT ISZERO PUSH2 0x7BA JUMPI DUP2 SWAP1 POP JUMPDEST PUSH2 0x7CE PUSH2 0x7C6 DUP6 PUSH2 0x68E JUMP JUMPDEST DUP4 ADD DUP3 PUSH2 0x76E JUMP JUMPDEST POP POP JUMPDEST POP POP POP JUMP JUMPDEST PUSH0 DUP3 DUP3 SHR SWAP1 POP SWAP3 SWAP2 POP POP JUMP JUMPDEST PUSH0 PUSH2 0x7F1 PUSH0 NOT DUP5 PUSH1 0x8 MUL PUSH2 0x7D6 JUMP JUMPDEST NOT DUP1 DUP4 AND SWAP2 POP POP SWAP3 SWAP2 POP POP JUMP JUMPDEST PUSH0 PUSH2 0x809 DUP4 DUP4 PUSH2 0x7E2 JUMP JUMPDEST SWAP2 POP DUP3 PUSH1 0x2 MUL DUP3 OR SWAP1 POP SWAP3 SWAP2 POP POP JUMP JUMPDEST PUSH2 0x822 DUP3 PUSH2 0x48C JUMP JUMPDEST PUSH8 0xFFFFFFFFFFFFFFFF DUP2 GT ISZERO PUSH2 0x83B JUMPI PUSH2 0x83A PUSH2 0x2EE JUMP JUMPDEST JUMPDEST PUSH2 0x845 DUP3 SLOAD PUSH2 0x5AB JUMP JUMPDEST PUSH2 0x850 DUP3 DUP3 DUP6 PUSH2 0x790 JUMP JUMPDEST PUSH0 PUSH1 0x20 SWAP1 POP PUSH1 0x1F DUP4 GT PUSH1 0x1 DUP2 EQ PUSH2 0x881 JUMPI PUSH0 DUP5 ISZERO PUSH2 0x86F JUMPI DUP3 DUP8 ADD MLOAD SWAP1 POP JUMPDEST PUSH2 0x879 DUP6 DUP3 PUSH2 0x7FE JUMP JUMPDEST DUP7 SSTORE POP PUSH2 0x8E0 JUMP JUMPDEST PUSH1 0x1F NOT DUP5 AND PUSH2 0x88F DUP7 PUSH2 0x5DB JUMP JUMPDEST PUSH0 JUMPDEST DUP3 DUP2 LT ISZERO PUSH2 0x8B6 JUMPI DUP5 DUP10 ADD MLOAD DUP3 SSTORE PUSH1 0x1 DUP3 ADD SWAP2 POP PUSH1 0x20 DUP6 ADD SWAP5 POP PUSH1 0x20 DUP2 ADD SWAP1 POP PUSH2 0x891 JUMP JUMPDEST DUP7 DUP4 LT ISZERO PUSH2 0x8D3 JUMPI DUP5 DUP10 ADD MLOAD PUSH2 0x8CF PUSH1 0x1F DUP10 AND DUP3 PUSH2 0x7E2 JUMP JUMPDEST DUP4 SSTORE POP JUMPDEST PUSH1 0x1 PUSH1 0x2 DUP9 MUL ADD DUP9 SSTORE POP POP POP JUMPDEST POP POP POP POP POP POP JUMP INVALID LOG2 PUSH5 0x6970667358 0x22 SLT KECCAK256 0xEA SWAP6 PUSH12 0x1AD5FFDFF916FB67A466A582 SAR 0x29 SMOD PUSH16 0x1BB7D446144F0EDCBE5C3187B464736F PUSH13 0x634300081A0033000000000000 "
				},
				"gasEstimates": {
					"creation": {
						"codeDepositCost": "466800",
						"executionCost": "infinite",
						"totalCost": "infinite"
					},
					"external": {
						"compareTwostring(string)": "infinite",
						"getBytesLength()": "2542",
						"myBytes()": "infinite",
						"myString()": "infinite",
						"setMyString(string)": "infinite"
					}
				},
				"methodIdentifiers": {
					"compareTwostring(string)": "48242714",
					"getBytesLength()": "07da3eae",
					"myBytes()": "712f4602",
					"myString()": "492bfa18",
					"setMyString(string)": "82180568"
				}
			},
			"storageLayout": {
				"storage": [
					{
						"astId": 4,
						"contract": "contracts/ExampleString.sol:ExampleStrings",
						"label": "myString",
						"offset": 0,
						"slot": "0",
						"type": "t_string_storage"
					},
					{
						"astId": 7,
						"contract": "contracts/ExampleString.sol:ExampleStrings",
						"label": "myBytes",
						"offset": 0,
						"slot": "1",
						"type": "t_bytes_storage"
					}
				],
				"types": {
					"t_bytes_storage": {
						"encoding": "bytes",
						"label": "bytes",
						"numberOfBytes": "32"
					},
					"t_string_storage": {
						"encoding": "bytes",
						"label": "string",
						"numberOfBytes": "32"
					}
				}
			},
			"userdoc": {
				"kind": "user",
				"methods": {},
				"version": 1
			}
		}
	}
}