{
	"contracts/Token.sol": {
		"Token": {
			"abi": [
				{
					"inputs": [],
					"stateMutability": "nonpayable",
					"type": "constructor"
				},
				{
					"inputs": [],
					"name": "burnToken",
					"outputs": [],
					"stateMutability": "nonpayable",
					"type": "function"
				},
				{
					"inputs": [],
					"name": "createNewToken",
					"outputs": [],
					"stateMutability": "nonpayable",
					"type": "function"
				},
				{
					"inputs": [],
					"name": "purchaseToken",
					"outputs": [],
					"stateMutability": "payable",
					"type": "function"
				},
				{
					"inputs": [
						{
							"internalType": "address",
							"name": "_to",
							"type": "address"
						},
						{
							"internalType": "uint256",
							"name": "_amount",
							"type": "uint256"
						}
					],
					"name": "sendToken",
					"outputs": [],
					"stateMutability": "nonpayable",
					"type": "function"
				},
				{
					"inputs": [
						{
							"internalType": "address",
							"name": "",
							"type": "address"
						}
					],
					"name": "tokenBalance",
					"outputs": [
						{
							"internalType": "uint256",
							"name": "",
							"type": "uint256"
						}
					],
					"stateMutability": "view",
					"type": "function"
				}
			],
			"devdoc": {
				"kind": "dev",
				"methods": {},
				"version": 1
			},
			"evm": {
				"assembly": "    /* \"contracts/Token.sol\":87:1089  contract Token is Owned {... */\n  mstore(0x40, 0x80)\n    /* \"contracts/Token.sol\":191:198  1 ether */\n  0x0de0b6b3a7640000\n    /* \"contracts/Token.sol\":173:198  uint tokenPrice = 1 ether */\n  0x02\n  sstore\n    /* \"contracts/Token.sol\":207:265  constructor() {... */\n  callvalue\n  dup1\n  iszero\n  tag_1\n  jumpi\n  0x00\n  dup1\n  revert\ntag_1:\n  pop\n    /* \"contracts/Ownable.sol\":137:147  msg.sender */\n  caller\n    /* \"contracts/Ownable.sol\":129:134  owner */\n  0x00\n  dup1\n    /* \"contracts/Ownable.sol\":129:147  owner = msg.sender */\n  0x0100\n  exp\n  dup2\n  sload\n  dup2\n  0xffffffffffffffffffffffffffffffffffffffff\n  mul\n  not\n  and\n  swap1\n  dup4\n  0xffffffffffffffffffffffffffffffffffffffff\n  and\n  mul\n  or\n  swap1\n  sstore\n  pop\n    /* \"contracts/Token.sol\":254:257  100 */\n  0x64\n    /* \"contracts/Token.sol\":232:244  tokenBalance */\n  0x01\n    /* \"contracts/Token.sol\":232:251  tokenBalance[owner] */\n  0x00\n    /* \"contracts/Token.sol\":245:250  owner */\n  dup1\n  0x00\n  swap1\n  sload\n  swap1\n  0x0100\n  exp\n  swap1\n  div\n  0xffffffffffffffffffffffffffffffffffffffff\n  and\n    /* \"contracts/Token.sol\":232:251  tokenBalance[owner] */\n  0xffffffffffffffffffffffffffffffffffffffff\n  and\n  0xffffffffffffffffffffffffffffffffffffffff\n  and\n  dup2\n  mstore\n  0x20\n  add\n  swap1\n  dup2\n  mstore\n  0x20\n  add\n  0x00\n  keccak256\n    /* \"contracts/Token.sol\":232:257  tokenBalance[owner] = 100 */\n  dup2\n  swap1\n  sstore\n  pop\n    /* \"contracts/Token.sol\":87:1089  contract Token is Owned {... */\n  dataSize(sub_0)\n  dup1\n  dataOffset(sub_0)\n  0x00\n  codecopy\n  0x00\n  return\nstop\n\nsub_0: assembly {\n        /* \"contracts/Token.sol\":87:1089  contract Token is Owned {... */\n      mstore(0x40, 0x80)\n      jumpi(tag_1, lt(calldatasize, 0x04))\n      shr(0xe0, calldataload(0x00))\n      dup1\n      0x412664ae\n      eq\n      tag_2\n      jumpi\n      dup1\n      0x754fc38c\n      eq\n      tag_3\n      jumpi\n      dup1\n      0xa95c4d62\n      eq\n      tag_4\n      jumpi\n      dup1\n      0xeedc966a\n      eq\n      tag_5\n      jumpi\n      dup1\n      0xfaa0a264\n      eq\n      tag_6\n      jumpi\n    tag_1:\n      0x00\n      dup1\n      revert\n        /* \"contracts/Token.sol\":714:1084  function sendToken(address _to, uint _amount) public {... */\n    tag_2:\n      callvalue\n      dup1\n      iszero\n      tag_7\n      jumpi\n      0x00\n      dup1\n      revert\n    tag_7:\n      pop\n      tag_8\n      0x04\n      dup1\n      calldatasize\n      sub\n      dup2\n      add\n      swap1\n      tag_9\n      swap2\n      swap1\n      tag_10\n      jump\t// in\n    tag_9:\n      tag_11\n      jump\t// in\n    tag_8:\n      stop\n        /* \"contracts/Token.sol\":273:356  function createNewToken() public onlyOwner {... */\n    tag_3:\n      callvalue\n      dup1\n      iszero\n      tag_12\n      jumpi\n      0x00\n      dup1\n      revert\n    tag_12:\n      pop\n      tag_13\n      tag_14\n      jump\t// in\n    tag_13:\n      stop\n        /* \"contracts/Token.sol\":450:706  function purchaseToken() public payable {... */\n    tag_4:\n      tag_15\n      tag_16\n      jump\t// in\n    tag_15:\n      stop\n        /* \"contracts/Token.sol\":120:164  mapping(address => uint) public tokenBalance */\n    tag_5:\n      callvalue\n      dup1\n      iszero\n      tag_17\n      jumpi\n      0x00\n      dup1\n      revert\n    tag_17:\n      pop\n      tag_18\n      0x04\n      dup1\n      calldatasize\n      sub\n      dup2\n      add\n      swap1\n      tag_19\n      swap2\n      swap1\n      tag_20\n      jump\t// in\n    tag_19:\n      tag_21\n      jump\t// in\n    tag_18:\n      mload(0x40)\n      tag_22\n      swap2\n      swap1\n      tag_23\n      jump\t// in\n    tag_22:\n      mload(0x40)\n      dup1\n      swap2\n      sub\n      swap1\n      return\n        /* \"contracts/Token.sol\":364:442  function burnToken() public onlyOwner {... */\n    tag_6:\n      callvalue\n      dup1\n      iszero\n      tag_24\n      jumpi\n      0x00\n      dup1\n      revert\n    tag_24:\n      pop\n      tag_25\n      tag_26\n      jump\t// in\n    tag_25:\n      stop\n        /* \"contracts/Token.sol\":714:1084  function sendToken(address _to, uint _amount) public {... */\n    tag_11:\n        /* \"contracts/Token.sol\":814:821  _amount */\n      dup1\n        /* \"contracts/Token.sol\":786:798  tokenBalance */\n      0x01\n        /* \"contracts/Token.sol\":786:810  tokenBalance[msg.sender] */\n      0x00\n        /* \"contracts/Token.sol\":799:809  msg.sender */\n      caller\n        /* \"contracts/Token.sol\":786:810  tokenBalance[msg.sender] */\n      0xffffffffffffffffffffffffffffffffffffffff\n      and\n      0xffffffffffffffffffffffffffffffffffffffff\n      and\n      dup2\n      mstore\n      0x20\n      add\n      swap1\n      dup2\n      mstore\n      0x20\n      add\n      0x00\n      keccak256\n      sload\n        /* \"contracts/Token.sol\":786:821  tokenBalance[msg.sender] >= _amount */\n      lt\n      iszero\n        /* \"contracts/Token.sol\":778:843  require(tokenBalance[msg.sender] >= _amount, \"Not enough tokens\") */\n      tag_28\n      jumpi\n      mload(0x40)\n      0x08c379a000000000000000000000000000000000000000000000000000000000\n      dup2\n      mstore\n      0x04\n      add\n      tag_29\n      swap1\n      tag_30\n      jump\t// in\n    tag_29:\n      mload(0x40)\n      dup1\n      swap2\n      sub\n      swap1\n      revert\n    tag_28:\n        /* \"contracts/Token.sol\":892:904  tokenBalance */\n      0x01\n        /* \"contracts/Token.sol\":892:909  tokenBalance[_to] */\n      0x00\n        /* \"contracts/Token.sol\":905:908  _to */\n      dup4\n        /* \"contracts/Token.sol\":892:909  tokenBalance[_to] */\n      0xffffffffffffffffffffffffffffffffffffffff\n      and\n      0xffffffffffffffffffffffffffffffffffffffff\n      and\n      dup2\n      mstore\n      0x20\n      add\n      swap1\n      dup2\n      mstore\n      0x20\n      add\n      0x00\n      keccak256\n      sload\n        /* \"contracts/Token.sol\":881:888  _amount */\n      dup2\n        /* \"contracts/Token.sol\":861:873  tokenBalance */\n      0x01\n        /* \"contracts/Token.sol\":861:878  tokenBalance[_to] */\n      0x00\n        /* \"contracts/Token.sol\":874:877  _to */\n      dup6\n        /* \"contracts/Token.sol\":861:878  tokenBalance[_to] */\n      0xffffffffffffffffffffffffffffffffffffffff\n      and\n      0xffffffffffffffffffffffffffffffffffffffff\n      and\n      dup2\n      mstore\n      0x20\n      add\n      swap1\n      dup2\n      mstore\n      0x20\n      add\n      0x00\n      keccak256\n      sload\n        /* \"contracts/Token.sol\":861:888  tokenBalance[_to] + _amount */\n      tag_31\n      swap2\n      swap1\n      tag_32\n      jump\t// in\n    tag_31:\n        /* \"contracts/Token.sol\":861:909  tokenBalance[_to] + _amount >= tokenBalance[_to] */\n      lt\n      iszero\n        /* \"contracts/Token.sol\":854:910  assert(tokenBalance[_to] + _amount >= tokenBalance[_to]) */\n      tag_33\n      jumpi\n      tag_34\n      tag_35\n      jump\t// in\n    tag_34:\n    tag_33:\n        /* \"contracts/Token.sol\":966:978  tokenBalance */\n      0x01\n        /* \"contracts/Token.sol\":966:990  tokenBalance[msg.sender] */\n      0x00\n        /* \"contracts/Token.sol\":979:989  msg.sender */\n      caller\n        /* \"contracts/Token.sol\":966:990  tokenBalance[msg.sender] */\n      0xffffffffffffffffffffffffffffffffffffffff\n      and\n      0xffffffffffffffffffffffffffffffffffffffff\n      and\n      dup2\n      mstore\n      0x20\n      add\n      swap1\n      dup2\n      mstore\n      0x20\n      add\n      0x00\n      keccak256\n      sload\n        /* \"contracts/Token.sol\":955:962  _amount */\n      dup2\n        /* \"contracts/Token.sol\":928:940  tokenBalance */\n      0x01\n        /* \"contracts/Token.sol\":928:952  tokenBalance[msg.sender] */\n      0x00\n        /* \"contracts/Token.sol\":941:951  msg.sender */\n      caller\n        /* \"contracts/Token.sol\":928:952  tokenBalance[msg.sender] */\n      0xffffffffffffffffffffffffffffffffffffffff\n      and\n      0xffffffffffffffffffffffffffffffffffffffff\n      and\n      dup2\n      mstore\n      0x20\n      add\n      swap1\n      dup2\n      mstore\n      0x20\n      add\n      0x00\n      keccak256\n      sload\n        /* \"contracts/Token.sol\":928:962  tokenBalance[msg.sender] - _amount */\n      tag_36\n      swap2\n      swap1\n      tag_37\n      jump\t// in\n    tag_36:\n        /* \"contracts/Token.sol\":928:990  tokenBalance[msg.sender] - _amount <= tokenBalance[msg.sender] */\n      gt\n      iszero\n        /* \"contracts/Token.sol\":921:991  assert(tokenBalance[msg.sender] - _amount <= tokenBalance[msg.sender]) */\n      tag_38\n      jumpi\n      tag_39\n      tag_35\n      jump\t// in\n    tag_39:\n    tag_38:\n        /* \"contracts/Token.sol\":1030:1037  _amount */\n      dup1\n        /* \"contracts/Token.sol\":1002:1014  tokenBalance */\n      0x01\n        /* \"contracts/Token.sol\":1002:1026  tokenBalance[msg.sender] */\n      0x00\n        /* \"contracts/Token.sol\":1015:1025  msg.sender */\n      caller\n        /* \"contracts/Token.sol\":1002:1026  tokenBalance[msg.sender] */\n      0xffffffffffffffffffffffffffffffffffffffff\n      and\n      0xffffffffffffffffffffffffffffffffffffffff\n      and\n      dup2\n      mstore\n      0x20\n      add\n      swap1\n      dup2\n      mstore\n      0x20\n      add\n      0x00\n      keccak256\n      0x00\n        /* \"contracts/Token.sol\":1002:1037  tokenBalance[msg.sender] -= _amount */\n      dup3\n      dup3\n      sload\n      tag_40\n      swap2\n      swap1\n      tag_37\n      jump\t// in\n    tag_40:\n      swap3\n      pop\n      pop\n      dup2\n      swap1\n      sstore\n      pop\n        /* \"contracts/Token.sol\":1069:1076  _amount */\n      dup1\n        /* \"contracts/Token.sol\":1048:1060  tokenBalance */\n      0x01\n        /* \"contracts/Token.sol\":1048:1065  tokenBalance[_to] */\n      0x00\n        /* \"contracts/Token.sol\":1061:1064  _to */\n      dup5\n        /* \"contracts/Token.sol\":1048:1065  tokenBalance[_to] */\n      0xffffffffffffffffffffffffffffffffffffffff\n      and\n      0xffffffffffffffffffffffffffffffffffffffff\n      and\n      dup2\n      mstore\n      0x20\n      add\n      swap1\n      dup2\n      mstore\n      0x20\n      add\n      0x00\n      keccak256\n      0x00\n        /* \"contracts/Token.sol\":1048:1076  tokenBalance[_to] += _amount */\n      dup3\n      dup3\n      sload\n      tag_41\n      swap2\n      swap1\n      tag_32\n      jump\t// in\n    tag_41:\n      swap3\n      pop\n      pop\n      dup2\n      swap1\n      sstore\n      pop\n        /* \"contracts/Token.sol\":714:1084  function sendToken(address _to, uint _amount) public {... */\n      pop\n      pop\n      jump\t// out\n        /* \"contracts/Token.sol\":273:356  function createNewToken() public onlyOwner {... */\n    tag_14:\n        /* \"contracts/Ownable.sol\":217:222  owner */\n      0x00\n      dup1\n      sload\n      swap1\n      0x0100\n      exp\n      swap1\n      div\n      0xffffffffffffffffffffffffffffffffffffffff\n      and\n        /* \"contracts/Ownable.sol\":203:222  msg.sender == owner */\n      0xffffffffffffffffffffffffffffffffffffffff\n      and\n        /* \"contracts/Ownable.sol\":203:213  msg.sender */\n      caller\n        /* \"contracts/Ownable.sol\":203:222  msg.sender == owner */\n      0xffffffffffffffffffffffffffffffffffffffff\n      and\n      eq\n        /* \"contracts/Ownable.sol\":195:246  require(msg.sender == owner, \"You are not allowed\") */\n      tag_43\n      jumpi\n      mload(0x40)\n      0x08c379a000000000000000000000000000000000000000000000000000000000\n      dup2\n      mstore\n      0x04\n      add\n      tag_44\n      swap1\n      tag_45\n      jump\t// in\n    tag_44:\n      mload(0x40)\n      dup1\n      swap2\n      sub\n      swap1\n      revert\n    tag_43:\n        /* \"contracts/Token.sol\":327:339  tokenBalance */\n      0x01\n        /* \"contracts/Token.sol\":327:346  tokenBalance[owner] */\n      0x00\n        /* \"contracts/Token.sol\":340:345  owner */\n      dup1\n      0x00\n      swap1\n      sload\n      swap1\n      0x0100\n      exp\n      swap1\n      div\n      0xffffffffffffffffffffffffffffffffffffffff\n      and\n        /* \"contracts/Token.sol\":327:346  tokenBalance[owner] */\n      0xffffffffffffffffffffffffffffffffffffffff\n      and\n      0xffffffffffffffffffffffffffffffffffffffff\n      and\n      dup2\n      mstore\n      0x20\n      add\n      swap1\n      dup2\n      mstore\n      0x20\n      add\n      0x00\n      keccak256\n      0x00\n        /* \"contracts/Token.sol\":327:348  tokenBalance[owner]++ */\n      dup2\n      sload\n      dup1\n      swap3\n      swap2\n      swap1\n      tag_47\n      swap1\n      tag_48\n      jump\t// in\n    tag_47:\n      swap2\n      swap1\n      pop\n      sstore\n      pop\n        /* \"contracts/Token.sol\":273:356  function createNewToken() public onlyOwner {... */\n      jump\t// out\n        /* \"contracts/Token.sol\":450:706  function purchaseToken() public payable {... */\n    tag_16:\n        /* \"contracts/Token.sol\":558:559  0 */\n      0x00\n        /* \"contracts/Token.sol\":546:555  msg.value */\n      callvalue\n        /* \"contracts/Token.sol\":532:542  tokenPrice */\n      sload(0x02)\n        /* \"contracts/Token.sol\":510:522  tokenBalance */\n      0x01\n        /* \"contracts/Token.sol\":510:529  tokenBalance[owner] */\n      0x00\n        /* \"contracts/Token.sol\":523:528  owner */\n      dup1\n      0x00\n      swap1\n      sload\n      swap1\n      0x0100\n      exp\n      swap1\n      div\n      0xffffffffffffffffffffffffffffffffffffffff\n      and\n        /* \"contracts/Token.sol\":510:529  tokenBalance[owner] */\n      0xffffffffffffffffffffffffffffffffffffffff\n      and\n      0xffffffffffffffffffffffffffffffffffffffff\n      and\n      dup2\n      mstore\n      0x20\n      add\n      swap1\n      dup2\n      mstore\n      0x20\n      add\n      0x00\n      keccak256\n      sload\n        /* \"contracts/Token.sol\":510:542  tokenBalance[owner] * tokenPrice */\n      tag_50\n      swap2\n      swap1\n      tag_51\n      jump\t// in\n    tag_50:\n        /* \"contracts/Token.sol\":509:555  (tokenBalance[owner] * tokenPrice) / msg.value */\n      tag_52\n      swap2\n      swap1\n      tag_53\n      jump\t// in\n    tag_52:\n        /* \"contracts/Token.sol\":509:559  (tokenBalance[owner] * tokenPrice) / msg.value > 0 */\n      gt\n        /* \"contracts/Token.sol\":501:581  require((tokenBalance[owner] * tokenPrice) / msg.value > 0, \"not enough tokens\") */\n      tag_54\n      jumpi\n      mload(0x40)\n      0x08c379a000000000000000000000000000000000000000000000000000000000\n      dup2\n      mstore\n      0x04\n      add\n      tag_55\n      swap1\n      tag_56\n      jump\t// in\n    tag_55:\n      mload(0x40)\n      dup1\n      swap2\n      sub\n      swap1\n      revert\n    tag_54:\n        /* \"contracts/Token.sol\":627:637  tokenPrice */\n      sload(0x02)\n        /* \"contracts/Token.sol\":615:624  msg.value */\n      callvalue\n        /* \"contracts/Token.sol\":615:637  msg.value / tokenPrice */\n      tag_57\n      swap2\n      swap1\n      tag_53\n      jump\t// in\n    tag_57:\n        /* \"contracts/Token.sol\":592:604  tokenBalance */\n      0x01\n        /* \"contracts/Token.sol\":592:611  tokenBalance[owner] */\n      0x00\n        /* \"contracts/Token.sol\":605:610  owner */\n      dup1\n      0x00\n      swap1\n      sload\n      swap1\n      0x0100\n      exp\n      swap1\n      div\n      0xffffffffffffffffffffffffffffffffffffffff\n      and\n        /* \"contracts/Token.sol\":592:611  tokenBalance[owner] */\n      0xffffffffffffffffffffffffffffffffffffffff\n      and\n      0xffffffffffffffffffffffffffffffffffffffff\n      and\n      dup2\n      mstore\n      0x20\n      add\n      swap1\n      dup2\n      mstore\n      0x20\n      add\n      0x00\n      keccak256\n      0x00\n        /* \"contracts/Token.sol\":592:637  tokenBalance[owner] -= msg.value / tokenPrice */\n      dup3\n      dup3\n      sload\n      tag_58\n      swap2\n      swap1\n      tag_37\n      jump\t// in\n    tag_58:\n      swap3\n      pop\n      pop\n      dup2\n      swap1\n      sstore\n      pop\n        /* \"contracts/Token.sol\":688:698  tokenPrice */\n      sload(0x02)\n        /* \"contracts/Token.sol\":676:685  msg.value */\n      callvalue\n        /* \"contracts/Token.sol\":676:698  msg.value / tokenPrice */\n      tag_59\n      swap2\n      swap1\n      tag_53\n      jump\t// in\n    tag_59:\n        /* \"contracts/Token.sol\":648:660  tokenBalance */\n      0x01\n        /* \"contracts/Token.sol\":648:672  tokenBalance[msg.sender] */\n      0x00\n        /* \"contracts/Token.sol\":661:671  msg.sender */\n      caller\n        /* \"contracts/Token.sol\":648:672  tokenBalance[msg.sender] */\n      0xffffffffffffffffffffffffffffffffffffffff\n      and\n      0xffffffffffffffffffffffffffffffffffffffff\n      and\n      dup2\n      mstore\n      0x20\n      add\n      swap1\n      dup2\n      mstore\n      0x20\n      add\n      0x00\n      keccak256\n      0x00\n        /* \"contracts/Token.sol\":648:698  tokenBalance[msg.sender] += msg.value / tokenPrice */\n      dup3\n      dup3\n      sload\n      tag_60\n      swap2\n      swap1\n      tag_32\n      jump\t// in\n    tag_60:\n      swap3\n      pop\n      pop\n      dup2\n      swap1\n      sstore\n      pop\n        /* \"contracts/Token.sol\":450:706  function purchaseToken() public payable {... */\n      jump\t// out\n        /* \"contracts/Token.sol\":120:164  mapping(address => uint) public tokenBalance */\n    tag_21:\n      mstore(0x20, 0x01)\n      dup1\n      0x00\n      mstore\n      keccak256(0x00, 0x40)\n      0x00\n      swap2\n      pop\n      swap1\n      pop\n      sload\n      dup2\n      jump\t// out\n        /* \"contracts/Token.sol\":364:442  function burnToken() public onlyOwner {... */\n    tag_26:\n        /* \"contracts/Ownable.sol\":217:222  owner */\n      0x00\n      dup1\n      sload\n      swap1\n      0x0100\n      exp\n      swap1\n      div\n      0xffffffffffffffffffffffffffffffffffffffff\n      and\n        /* \"contracts/Ownable.sol\":203:222  msg.sender == owner */\n      0xffffffffffffffffffffffffffffffffffffffff\n      and\n        /* \"contracts/Ownable.sol\":203:213  msg.sender */\n      caller\n        /* \"contracts/Ownable.sol\":203:222  msg.sender == owner */\n      0xffffffffffffffffffffffffffffffffffffffff\n      and\n      eq\n        /* \"contracts/Ownable.sol\":195:246  require(msg.sender == owner, \"You are not allowed\") */\n      tag_62\n      jumpi\n      mload(0x40)\n      0x08c379a000000000000000000000000000000000000000000000000000000000\n      dup2\n      mstore\n      0x04\n      add\n      tag_63\n      swap1\n      tag_45\n      jump\t// in\n    tag_63:\n      mload(0x40)\n      dup1\n      swap2\n      sub\n      swap1\n      revert\n    tag_62:\n        /* \"contracts/Token.sol\":413:425  tokenBalance */\n      0x01\n        /* \"contracts/Token.sol\":413:432  tokenBalance[owner] */\n      0x00\n        /* \"contracts/Token.sol\":426:431  owner */\n      dup1\n      0x00\n      swap1\n      sload\n      swap1\n      0x0100\n      exp\n      swap1\n      div\n      0xffffffffffffffffffffffffffffffffffffffff\n      and\n        /* \"contracts/Token.sol\":413:432  tokenBalance[owner] */\n      0xffffffffffffffffffffffffffffffffffffffff\n      and\n      0xffffffffffffffffffffffffffffffffffffffff\n      and\n      dup2\n      mstore\n      0x20\n      add\n      swap1\n      dup2\n      mstore\n      0x20\n      add\n      0x00\n      keccak256\n      0x00\n        /* \"contracts/Token.sol\":413:434  tokenBalance[owner]-- */\n      dup2\n      sload\n      dup1\n      swap3\n      swap2\n      swap1\n      tag_65\n      swap1\n      tag_66\n      jump\t// in\n    tag_65:\n      swap2\n      swap1\n      pop\n      sstore\n      pop\n        /* \"contracts/Token.sol\":364:442  function burnToken() public onlyOwner {... */\n      jump\t// out\n        /* \"#utility.yul\":88:205   */\n    tag_68:\n        /* \"#utility.yul\":197:198   */\n      0x00\n        /* \"#utility.yul\":194:195   */\n      dup1\n        /* \"#utility.yul\":187:199   */\n      revert\n        /* \"#utility.yul\":334:460   */\n    tag_70:\n        /* \"#utility.yul\":371:378   */\n      0x00\n        /* \"#utility.yul\":411:453   */\n      0xffffffffffffffffffffffffffffffffffffffff\n        /* \"#utility.yul\":404:409   */\n      dup3\n        /* \"#utility.yul\":400:454   */\n      and\n        /* \"#utility.yul\":389:454   */\n      swap1\n      pop\n        /* \"#utility.yul\":334:460   */\n      swap2\n      swap1\n      pop\n      jump\t// out\n        /* \"#utility.yul\":466:562   */\n    tag_71:\n        /* \"#utility.yul\":503:510   */\n      0x00\n        /* \"#utility.yul\":532:556   */\n      tag_93\n        /* \"#utility.yul\":550:555   */\n      dup3\n        /* \"#utility.yul\":532:556   */\n      tag_70\n      jump\t// in\n    tag_93:\n        /* \"#utility.yul\":521:556   */\n      swap1\n      pop\n        /* \"#utility.yul\":466:562   */\n      swap2\n      swap1\n      pop\n      jump\t// out\n        /* \"#utility.yul\":568:690   */\n    tag_72:\n        /* \"#utility.yul\":641:665   */\n      tag_95\n        /* \"#utility.yul\":659:664   */\n      dup2\n        /* \"#utility.yul\":641:665   */\n      tag_71\n      jump\t// in\n    tag_95:\n        /* \"#utility.yul\":634:639   */\n      dup2\n        /* \"#utility.yul\":631:666   */\n      eq\n        /* \"#utility.yul\":621:684   */\n      tag_96\n      jumpi\n        /* \"#utility.yul\":680:681   */\n      0x00\n        /* \"#utility.yul\":677:678   */\n      dup1\n        /* \"#utility.yul\":670:682   */\n      revert\n        /* \"#utility.yul\":621:684   */\n    tag_96:\n        /* \"#utility.yul\":568:690   */\n      pop\n      jump\t// out\n        /* \"#utility.yul\":696:835   */\n    tag_73:\n        /* \"#utility.yul\":742:747   */\n      0x00\n        /* \"#utility.yul\":780:786   */\n      dup2\n        /* \"#utility.yul\":767:787   */\n      calldataload\n        /* \"#utility.yul\":758:787   */\n      swap1\n      pop\n        /* \"#utility.yul\":796:829   */\n      tag_98\n        /* \"#utility.yul\":823:828   */\n      dup2\n        /* \"#utility.yul\":796:829   */\n      tag_72\n      jump\t// in\n    tag_98:\n        /* \"#utility.yul\":696:835   */\n      swap3\n      swap2\n      pop\n      pop\n      jump\t// out\n        /* \"#utility.yul\":841:918   */\n    tag_74:\n        /* \"#utility.yul\":878:885   */\n      0x00\n        /* \"#utility.yul\":907:912   */\n      dup2\n        /* \"#utility.yul\":896:912   */\n      swap1\n      pop\n        /* \"#utility.yul\":841:918   */\n      swap2\n      swap1\n      pop\n      jump\t// out\n        /* \"#utility.yul\":924:1046   */\n    tag_75:\n        /* \"#utility.yul\":997:1021   */\n      tag_101\n        /* \"#utility.yul\":1015:1020   */\n      dup2\n        /* \"#utility.yul\":997:1021   */\n      tag_74\n      jump\t// in\n    tag_101:\n        /* \"#utility.yul\":990:995   */\n      dup2\n        /* \"#utility.yul\":987:1022   */\n      eq\n        /* \"#utility.yul\":977:1040   */\n      tag_102\n      jumpi\n        /* \"#utility.yul\":1036:1037   */\n      0x00\n        /* \"#utility.yul\":1033:1034   */\n      dup1\n        /* \"#utility.yul\":1026:1038   */\n      revert\n        /* \"#utility.yul\":977:1040   */\n    tag_102:\n        /* \"#utility.yul\":924:1046   */\n      pop\n      jump\t// out\n        /* \"#utility.yul\":1052:1191   */\n    tag_76:\n        /* \"#utility.yul\":1098:1103   */\n      0x00\n        /* \"#utility.yul\":1136:1142   */\n      dup2\n        /* \"#utility.yul\":1123:1143   */\n      calldataload\n        /* \"#utility.yul\":1114:1143   */\n      swap1\n      pop\n        /* \"#utility.yul\":1152:1185   */\n      tag_104\n        /* \"#utility.yul\":1179:1184   */\n      dup2\n        /* \"#utility.yul\":1152:1185   */\n      tag_75\n      jump\t// in\n    tag_104:\n        /* \"#utility.yul\":1052:1191   */\n      swap3\n      swap2\n      pop\n      pop\n      jump\t// out\n        /* \"#utility.yul\":1197:1671   */\n    tag_10:\n        /* \"#utility.yul\":1265:1271   */\n      0x00\n        /* \"#utility.yul\":1273:1279   */\n      dup1\n        /* \"#utility.yul\":1322:1324   */\n      0x40\n        /* \"#utility.yul\":1310:1319   */\n      dup4\n        /* \"#utility.yul\":1301:1308   */\n      dup6\n        /* \"#utility.yul\":1297:1320   */\n      sub\n        /* \"#utility.yul\":1293:1325   */\n      slt\n        /* \"#utility.yul\":1290:1409   */\n      iszero\n      tag_106\n      jumpi\n        /* \"#utility.yul\":1328:1407   */\n      tag_107\n      tag_68\n      jump\t// in\n    tag_107:\n        /* \"#utility.yul\":1290:1409   */\n    tag_106:\n        /* \"#utility.yul\":1448:1449   */\n      0x00\n        /* \"#utility.yul\":1473:1526   */\n      tag_108\n        /* \"#utility.yul\":1518:1525   */\n      dup6\n        /* \"#utility.yul\":1509:1515   */\n      dup3\n        /* \"#utility.yul\":1498:1507   */\n      dup7\n        /* \"#utility.yul\":1494:1516   */\n      add\n        /* \"#utility.yul\":1473:1526   */\n      tag_73\n      jump\t// in\n    tag_108:\n        /* \"#utility.yul\":1463:1526   */\n      swap3\n      pop\n        /* \"#utility.yul\":1419:1536   */\n      pop\n        /* \"#utility.yul\":1575:1577   */\n      0x20\n        /* \"#utility.yul\":1601:1654   */\n      tag_109\n        /* \"#utility.yul\":1646:1653   */\n      dup6\n        /* \"#utility.yul\":1637:1643   */\n      dup3\n        /* \"#utility.yul\":1626:1635   */\n      dup7\n        /* \"#utility.yul\":1622:1644   */\n      add\n        /* \"#utility.yul\":1601:1654   */\n      tag_76\n      jump\t// in\n    tag_109:\n        /* \"#utility.yul\":1591:1654   */\n      swap2\n      pop\n        /* \"#utility.yul\":1546:1664   */\n      pop\n        /* \"#utility.yul\":1197:1671   */\n      swap3\n      pop\n      swap3\n      swap1\n      pop\n      jump\t// out\n        /* \"#utility.yul\":1677:2006   */\n    tag_20:\n        /* \"#utility.yul\":1736:1742   */\n      0x00\n        /* \"#utility.yul\":1785:1787   */\n      0x20\n        /* \"#utility.yul\":1773:1782   */\n      dup3\n        /* \"#utility.yul\":1764:1771   */\n      dup5\n        /* \"#utility.yul\":1760:1783   */\n      sub\n        /* \"#utility.yul\":1756:1788   */\n      slt\n        /* \"#utility.yul\":1753:1872   */\n      iszero\n      tag_111\n      jumpi\n        /* \"#utility.yul\":1791:1870   */\n      tag_112\n      tag_68\n      jump\t// in\n    tag_112:\n        /* \"#utility.yul\":1753:1872   */\n    tag_111:\n        /* \"#utility.yul\":1911:1912   */\n      0x00\n        /* \"#utility.yul\":1936:1989   */\n      tag_113\n        /* \"#utility.yul\":1981:1988   */\n      dup5\n        /* \"#utility.yul\":1972:1978   */\n      dup3\n        /* \"#utility.yul\":1961:1970   */\n      dup6\n        /* \"#utility.yul\":1957:1979   */\n      add\n        /* \"#utility.yul\":1936:1989   */\n      tag_73\n      jump\t// in\n    tag_113:\n        /* \"#utility.yul\":1926:1989   */\n      swap2\n      pop\n        /* \"#utility.yul\":1882:1999   */\n      pop\n        /* \"#utility.yul\":1677:2006   */\n      swap3\n      swap2\n      pop\n      pop\n      jump\t// out\n        /* \"#utility.yul\":2012:2130   */\n    tag_77:\n        /* \"#utility.yul\":2099:2123   */\n      tag_115\n        /* \"#utility.yul\":2117:2122   */\n      dup2\n        /* \"#utility.yul\":2099:2123   */\n      tag_74\n      jump\t// in\n    tag_115:\n        /* \"#utility.yul\":2094:2097   */\n      dup3\n        /* \"#utility.yul\":2087:2124   */\n      mstore\n        /* \"#utility.yul\":2012:2130   */\n      pop\n      pop\n      jump\t// out\n        /* \"#utility.yul\":2136:2358   */\n    tag_23:\n        /* \"#utility.yul\":2229:2233   */\n      0x00\n        /* \"#utility.yul\":2267:2269   */\n      0x20\n        /* \"#utility.yul\":2256:2265   */\n      dup3\n        /* \"#utility.yul\":2252:2270   */\n      add\n        /* \"#utility.yul\":2244:2270   */\n      swap1\n      pop\n        /* \"#utility.yul\":2280:2351   */\n      tag_117\n        /* \"#utility.yul\":2348:2349   */\n      0x00\n        /* \"#utility.yul\":2337:2346   */\n      dup4\n        /* \"#utility.yul\":2333:2350   */\n      add\n        /* \"#utility.yul\":2324:2330   */\n      dup5\n        /* \"#utility.yul\":2280:2351   */\n      tag_77\n      jump\t// in\n    tag_117:\n        /* \"#utility.yul\":2136:2358   */\n      swap3\n      swap2\n      pop\n      pop\n      jump\t// out\n        /* \"#utility.yul\":2364:2533   */\n    tag_78:\n        /* \"#utility.yul\":2448:2459   */\n      0x00\n        /* \"#utility.yul\":2482:2488   */\n      dup3\n        /* \"#utility.yul\":2477:2480   */\n      dup3\n        /* \"#utility.yul\":2470:2489   */\n      mstore\n        /* \"#utility.yul\":2522:2526   */\n      0x20\n        /* \"#utility.yul\":2517:2520   */\n      dup3\n        /* \"#utility.yul\":2513:2527   */\n      add\n        /* \"#utility.yul\":2498:2527   */\n      swap1\n      pop\n        /* \"#utility.yul\":2364:2533   */\n      swap3\n      swap2\n      pop\n      pop\n      jump\t// out\n        /* \"#utility.yul\":2539:2706   */\n    tag_79:\n        /* \"#utility.yul\":2679:2698   */\n      0x4e6f7420656e6f75676820746f6b656e73000000000000000000000000000000\n        /* \"#utility.yul\":2675:2676   */\n      0x00\n        /* \"#utility.yul\":2667:2673   */\n      dup3\n        /* \"#utility.yul\":2663:2677   */\n      add\n        /* \"#utility.yul\":2656:2699   */\n      mstore\n        /* \"#utility.yul\":2539:2706   */\n      pop\n      jump\t// out\n        /* \"#utility.yul\":2712:3078   */\n    tag_80:\n        /* \"#utility.yul\":2854:2857   */\n      0x00\n        /* \"#utility.yul\":2875:2942   */\n      tag_121\n        /* \"#utility.yul\":2939:2941   */\n      0x11\n        /* \"#utility.yul\":2934:2937   */\n      dup4\n        /* \"#utility.yul\":2875:2942   */\n      tag_78\n      jump\t// in\n    tag_121:\n        /* \"#utility.yul\":2868:2942   */\n      swap2\n      pop\n        /* \"#utility.yul\":2951:3044   */\n      tag_122\n        /* \"#utility.yul\":3040:3043   */\n      dup3\n        /* \"#utility.yul\":2951:3044   */\n      tag_79\n      jump\t// in\n    tag_122:\n        /* \"#utility.yul\":3069:3071   */\n      0x20\n        /* \"#utility.yul\":3064:3067   */\n      dup3\n        /* \"#utility.yul\":3060:3072   */\n      add\n        /* \"#utility.yul\":3053:3072   */\n      swap1\n      pop\n        /* \"#utility.yul\":2712:3078   */\n      swap2\n      swap1\n      pop\n      jump\t// out\n        /* \"#utility.yul\":3084:3503   */\n    tag_30:\n        /* \"#utility.yul\":3250:3254   */\n      0x00\n        /* \"#utility.yul\":3288:3290   */\n      0x20\n        /* \"#utility.yul\":3277:3286   */\n      dup3\n        /* \"#utility.yul\":3273:3291   */\n      add\n        /* \"#utility.yul\":3265:3291   */\n      swap1\n      pop\n        /* \"#utility.yul\":3337:3346   */\n      dup2\n        /* \"#utility.yul\":3331:3335   */\n      dup2\n        /* \"#utility.yul\":3327:3347   */\n      sub\n        /* \"#utility.yul\":3323:3324   */\n      0x00\n        /* \"#utility.yul\":3312:3321   */\n      dup4\n        /* \"#utility.yul\":3308:3325   */\n      add\n        /* \"#utility.yul\":3301:3348   */\n      mstore\n        /* \"#utility.yul\":3365:3496   */\n      tag_124\n        /* \"#utility.yul\":3491:3495   */\n      dup2\n        /* \"#utility.yul\":3365:3496   */\n      tag_80\n      jump\t// in\n    tag_124:\n        /* \"#utility.yul\":3357:3496   */\n      swap1\n      pop\n        /* \"#utility.yul\":3084:3503   */\n      swap2\n      swap1\n      pop\n      jump\t// out\n        /* \"#utility.yul\":3509:3689   */\n    tag_81:\n        /* \"#utility.yul\":3557:3634   */\n      0x4e487b7100000000000000000000000000000000000000000000000000000000\n        /* \"#utility.yul\":3554:3555   */\n      0x00\n        /* \"#utility.yul\":3547:3635   */\n      mstore\n        /* \"#utility.yul\":3654:3658   */\n      0x11\n        /* \"#utility.yul\":3651:3652   */\n      0x04\n        /* \"#utility.yul\":3644:3659   */\n      mstore\n        /* \"#utility.yul\":3678:3682   */\n      0x24\n        /* \"#utility.yul\":3675:3676   */\n      0x00\n        /* \"#utility.yul\":3668:3683   */\n      revert\n        /* \"#utility.yul\":3695:3886   */\n    tag_32:\n        /* \"#utility.yul\":3735:3738   */\n      0x00\n        /* \"#utility.yul\":3754:3774   */\n      tag_127\n        /* \"#utility.yul\":3772:3773   */\n      dup3\n        /* \"#utility.yul\":3754:3774   */\n      tag_74\n      jump\t// in\n    tag_127:\n        /* \"#utility.yul\":3749:3774   */\n      swap2\n      pop\n        /* \"#utility.yul\":3788:3808   */\n      tag_128\n        /* \"#utility.yul\":3806:3807   */\n      dup4\n        /* \"#utility.yul\":3788:3808   */\n      tag_74\n      jump\t// in\n    tag_128:\n        /* \"#utility.yul\":3783:3808   */\n      swap3\n      pop\n        /* \"#utility.yul\":3831:3832   */\n      dup3\n        /* \"#utility.yul\":3828:3829   */\n      dup3\n        /* \"#utility.yul\":3824:3833   */\n      add\n        /* \"#utility.yul\":3817:3833   */\n      swap1\n      pop\n        /* \"#utility.yul\":3852:3855   */\n      dup1\n        /* \"#utility.yul\":3849:3850   */\n      dup3\n        /* \"#utility.yul\":3846:3856   */\n      gt\n        /* \"#utility.yul\":3843:3879   */\n      iszero\n      tag_129\n      jumpi\n        /* \"#utility.yul\":3859:3877   */\n      tag_130\n      tag_81\n      jump\t// in\n    tag_130:\n        /* \"#utility.yul\":3843:3879   */\n    tag_129:\n        /* \"#utility.yul\":3695:3886   */\n      swap3\n      swap2\n      pop\n      pop\n      jump\t// out\n        /* \"#utility.yul\":3892:4072   */\n    tag_35:\n        /* \"#utility.yul\":3940:4017   */\n      0x4e487b7100000000000000000000000000000000000000000000000000000000\n        /* \"#utility.yul\":3937:3938   */\n      0x00\n        /* \"#utility.yul\":3930:4018   */\n      mstore\n        /* \"#utility.yul\":4037:4041   */\n      0x01\n        /* \"#utility.yul\":4034:4035   */\n      0x04\n        /* \"#utility.yul\":4027:4042   */\n      mstore\n        /* \"#utility.yul\":4061:4065   */\n      0x24\n        /* \"#utility.yul\":4058:4059   */\n      0x00\n        /* \"#utility.yul\":4051:4066   */\n      revert\n        /* \"#utility.yul\":4078:4272   */\n    tag_37:\n        /* \"#utility.yul\":4118:4122   */\n      0x00\n        /* \"#utility.yul\":4138:4158   */\n      tag_133\n        /* \"#utility.yul\":4156:4157   */\n      dup3\n        /* \"#utility.yul\":4138:4158   */\n      tag_74\n      jump\t// in\n    tag_133:\n        /* \"#utility.yul\":4133:4158   */\n      swap2\n      pop\n        /* \"#utility.yul\":4172:4192   */\n      tag_134\n        /* \"#utility.yul\":4190:4191   */\n      dup4\n        /* \"#utility.yul\":4172:4192   */\n      tag_74\n      jump\t// in\n    tag_134:\n        /* \"#utility.yul\":4167:4192   */\n      swap3\n      pop\n        /* \"#utility.yul\":4216:4217   */\n      dup3\n        /* \"#utility.yul\":4213:4214   */\n      dup3\n        /* \"#utility.yul\":4209:4218   */\n      sub\n        /* \"#utility.yul\":4201:4218   */\n      swap1\n      pop\n        /* \"#utility.yul\":4240:4241   */\n      dup2\n        /* \"#utility.yul\":4234:4238   */\n      dup2\n        /* \"#utility.yul\":4231:4242   */\n      gt\n        /* \"#utility.yul\":4228:4265   */\n      iszero\n      tag_135\n      jumpi\n        /* \"#utility.yul\":4245:4263   */\n      tag_136\n      tag_81\n      jump\t// in\n    tag_136:\n        /* \"#utility.yul\":4228:4265   */\n    tag_135:\n        /* \"#utility.yul\":4078:4272   */\n      swap3\n      swap2\n      pop\n      pop\n      jump\t// out\n        /* \"#utility.yul\":4278:4447   */\n    tag_82:\n        /* \"#utility.yul\":4418:4439   */\n      0x596f7520617265206e6f7420616c6c6f77656400000000000000000000000000\n        /* \"#utility.yul\":4414:4415   */\n      0x00\n        /* \"#utility.yul\":4406:4412   */\n      dup3\n        /* \"#utility.yul\":4402:4416   */\n      add\n        /* \"#utility.yul\":4395:4440   */\n      mstore\n        /* \"#utility.yul\":4278:4447   */\n      pop\n      jump\t// out\n        /* \"#utility.yul\":4453:4819   */\n    tag_83:\n        /* \"#utility.yul\":4595:4598   */\n      0x00\n        /* \"#utility.yul\":4616:4683   */\n      tag_139\n        /* \"#utility.yul\":4680:4682   */\n      0x13\n        /* \"#utility.yul\":4675:4678   */\n      dup4\n        /* \"#utility.yul\":4616:4683   */\n      tag_78\n      jump\t// in\n    tag_139:\n        /* \"#utility.yul\":4609:4683   */\n      swap2\n      pop\n        /* \"#utility.yul\":4692:4785   */\n      tag_140\n        /* \"#utility.yul\":4781:4784   */\n      dup3\n        /* \"#utility.yul\":4692:4785   */\n      tag_82\n      jump\t// in\n    tag_140:\n        /* \"#utility.yul\":4810:4812   */\n      0x20\n        /* \"#utility.yul\":4805:4808   */\n      dup3\n        /* \"#utility.yul\":4801:4813   */\n      add\n        /* \"#utility.yul\":4794:4813   */\n      swap1\n      pop\n        /* \"#utility.yul\":4453:4819   */\n      swap2\n      swap1\n      pop\n      jump\t// out\n        /* \"#utility.yul\":4825:5244   */\n    tag_45:\n        /* \"#utility.yul\":4991:4995   */\n      0x00\n        /* \"#utility.yul\":5029:5031   */\n      0x20\n        /* \"#utility.yul\":5018:5027   */\n      dup3\n        /* \"#utility.yul\":5014:5032   */\n      add\n        /* \"#utility.yul\":5006:5032   */\n      swap1\n      pop\n        /* \"#utility.yul\":5078:5087   */\n      dup2\n        /* \"#utility.yul\":5072:5076   */\n      dup2\n        /* \"#utility.yul\":5068:5088   */\n      sub\n        /* \"#utility.yul\":5064:5065   */\n      0x00\n        /* \"#utility.yul\":5053:5062   */\n      dup4\n        /* \"#utility.yul\":5049:5066   */\n      add\n        /* \"#utility.yul\":5042:5089   */\n      mstore\n        /* \"#utility.yul\":5106:5237   */\n      tag_142\n        /* \"#utility.yul\":5232:5236   */\n      dup2\n        /* \"#utility.yul\":5106:5237   */\n      tag_83\n      jump\t// in\n    tag_142:\n        /* \"#utility.yul\":5098:5237   */\n      swap1\n      pop\n        /* \"#utility.yul\":4825:5244   */\n      swap2\n      swap1\n      pop\n      jump\t// out\n        /* \"#utility.yul\":5250:5483   */\n    tag_48:\n        /* \"#utility.yul\":5289:5292   */\n      0x00\n        /* \"#utility.yul\":5312:5336   */\n      tag_144\n        /* \"#utility.yul\":5330:5335   */\n      dup3\n        /* \"#utility.yul\":5312:5336   */\n      tag_74\n      jump\t// in\n    tag_144:\n        /* \"#utility.yul\":5303:5336   */\n      swap2\n      pop\n        /* \"#utility.yul\":5358:5424   */\n      0xffffffffffffffffffffffffffffffffffffffffffffffffffffffffffffffff\n        /* \"#utility.yul\":5351:5356   */\n      dup3\n        /* \"#utility.yul\":5348:5425   */\n      sub\n        /* \"#utility.yul\":5345:5448   */\n      tag_145\n      jumpi\n        /* \"#utility.yul\":5428:5446   */\n      tag_146\n      tag_81\n      jump\t// in\n    tag_146:\n        /* \"#utility.yul\":5345:5448   */\n    tag_145:\n        /* \"#utility.yul\":5475:5476   */\n      0x01\n        /* \"#utility.yul\":5468:5473   */\n      dup3\n        /* \"#utility.yul\":5464:5477   */\n      add\n        /* \"#utility.yul\":5457:5477   */\n      swap1\n      pop\n        /* \"#utility.yul\":5250:5483   */\n      swap2\n      swap1\n      pop\n      jump\t// out\n        /* \"#utility.yul\":5489:5899   */\n    tag_51:\n        /* \"#utility.yul\":5529:5536   */\n      0x00\n        /* \"#utility.yul\":5552:5572   */\n      tag_148\n        /* \"#utility.yul\":5570:5571   */\n      dup3\n        /* \"#utility.yul\":5552:5572   */\n      tag_74\n      jump\t// in\n    tag_148:\n        /* \"#utility.yul\":5547:5572   */\n      swap2\n      pop\n        /* \"#utility.yul\":5586:5606   */\n      tag_149\n        /* \"#utility.yul\":5604:5605   */\n      dup4\n        /* \"#utility.yul\":5586:5606   */\n      tag_74\n      jump\t// in\n    tag_149:\n        /* \"#utility.yul\":5581:5606   */\n      swap3\n      pop\n        /* \"#utility.yul\":5641:5642   */\n      dup3\n        /* \"#utility.yul\":5638:5639   */\n      dup3\n        /* \"#utility.yul\":5634:5643   */\n      mul\n        /* \"#utility.yul\":5663:5693   */\n      tag_150\n        /* \"#utility.yul\":5681:5692   */\n      dup2\n        /* \"#utility.yul\":5663:5693   */\n      tag_74\n      jump\t// in\n    tag_150:\n        /* \"#utility.yul\":5652:5693   */\n      swap2\n      pop\n        /* \"#utility.yul\":5842:5843   */\n      dup3\n        /* \"#utility.yul\":5833:5840   */\n      dup3\n        /* \"#utility.yul\":5829:5844   */\n      div\n        /* \"#utility.yul\":5826:5827   */\n      dup5\n        /* \"#utility.yul\":5823:5845   */\n      eq\n        /* \"#utility.yul\":5803:5804   */\n      dup4\n        /* \"#utility.yul\":5796:5805   */\n      iszero\n        /* \"#utility.yul\":5776:5859   */\n      or\n        /* \"#utility.yul\":5753:5892   */\n      tag_151\n      jumpi\n        /* \"#utility.yul\":5872:5890   */\n      tag_152\n      tag_81\n      jump\t// in\n    tag_152:\n        /* \"#utility.yul\":5753:5892   */\n    tag_151:\n        /* \"#utility.yul\":5537:5899   */\n      pop\n        /* \"#utility.yul\":5489:5899   */\n      swap3\n      swap2\n      pop\n      pop\n      jump\t// out\n        /* \"#utility.yul\":5905:6085   */\n    tag_84:\n        /* \"#utility.yul\":5953:6030   */\n      0x4e487b7100000000000000000000000000000000000000000000000000000000\n        /* \"#utility.yul\":5950:5951   */\n      0x00\n        /* \"#utility.yul\":5943:6031   */\n      mstore\n        /* \"#utility.yul\":6050:6054   */\n      0x12\n        /* \"#utility.yul\":6047:6048   */\n      0x04\n        /* \"#utility.yul\":6040:6055   */\n      mstore\n        /* \"#utility.yul\":6074:6078   */\n      0x24\n        /* \"#utility.yul\":6071:6072   */\n      0x00\n        /* \"#utility.yul\":6064:6079   */\n      revert\n        /* \"#utility.yul\":6091:6276   */\n    tag_53:\n        /* \"#utility.yul\":6131:6132   */\n      0x00\n        /* \"#utility.yul\":6148:6168   */\n      tag_155\n        /* \"#utility.yul\":6166:6167   */\n      dup3\n        /* \"#utility.yul\":6148:6168   */\n      tag_74\n      jump\t// in\n    tag_155:\n        /* \"#utility.yul\":6143:6168   */\n      swap2\n      pop\n        /* \"#utility.yul\":6182:6202   */\n      tag_156\n        /* \"#utility.yul\":6200:6201   */\n      dup4\n        /* \"#utility.yul\":6182:6202   */\n      tag_74\n      jump\t// in\n    tag_156:\n        /* \"#utility.yul\":6177:6202   */\n      swap3\n      pop\n        /* \"#utility.yul\":6221:6222   */\n      dup3\n        /* \"#utility.yul\":6211:6246   */\n      tag_157\n      jumpi\n        /* \"#utility.yul\":6226:6244   */\n      tag_158\n      tag_84\n      jump\t// in\n    tag_158:\n        /* \"#utility.yul\":6211:6246   */\n    tag_157:\n        /* \"#utility.yul\":6268:6269   */\n      dup3\n        /* \"#utility.yul\":6265:6266   */\n      dup3\n        /* \"#utility.yul\":6261:6270   */\n      div\n        /* \"#utility.yul\":6256:6270   */\n      swap1\n      pop\n        /* \"#utility.yul\":6091:6276   */\n      swap3\n      swap2\n      pop\n      pop\n      jump\t// out\n        /* \"#utility.yul\":6282:6449   */\n    tag_85:\n        /* \"#utility.yul\":6422:6441   */\n      0x6e6f7420656e6f75676820746f6b656e73000000000000000000000000000000\n        /* \"#utility.yul\":6418:6419   */\n      0x00\n        /* \"#utility.yul\":6410:6416   */\n      dup3\n        /* \"#utility.yul\":6406:6420   */\n      add\n        /* \"#utility.yul\":6399:6442   */\n      mstore\n        /* \"#utility.yul\":6282:6449   */\n      pop\n      jump\t// out\n        /* \"#utility.yul\":6455:6821   */\n    tag_86:\n        /* \"#utility.yul\":6597:6600   */\n      0x00\n        /* \"#utility.yul\":6618:6685   */\n      tag_161\n        /* \"#utility.yul\":6682:6684   */\n      0x11\n        /* \"#utility.yul\":6677:6680   */\n      dup4\n        /* \"#utility.yul\":6618:6685   */\n      tag_78\n      jump\t// in\n    tag_161:\n        /* \"#utility.yul\":6611:6685   */\n      swap2\n      pop\n        /* \"#utility.yul\":6694:6787   */\n      tag_162\n        /* \"#utility.yul\":6783:6786   */\n      dup3\n        /* \"#utility.yul\":6694:6787   */\n      tag_85\n      jump\t// in\n    tag_162:\n        /* \"#utility.yul\":6812:6814   */\n      0x20\n        /* \"#utility.yul\":6807:6810   */\n      dup3\n        /* \"#utility.yul\":6803:6815   */\n      add\n        /* \"#utility.yul\":6796:6815   */\n      swap1\n      pop\n        /* \"#utility.yul\":6455:6821   */\n      swap2\n      swap1\n      pop\n      jump\t// out\n        /* \"#utility.yul\":6827:7246   */\n    tag_56:\n        /* \"#utility.yul\":6993:6997   */\n      0x00\n        /* \"#utility.yul\":7031:7033   */\n      0x20\n        /* \"#utility.yul\":7020:7029   */\n      dup3\n        /* \"#utility.yul\":7016:7034   */\n      add\n        /* \"#utility.yul\":7008:7034   */\n      swap1\n      pop\n        /* \"#utility.yul\":7080:7089   */\n      dup2\n        /* \"#utility.yul\":7074:7078   */\n      dup2\n        /* \"#utility.yul\":7070:7090   */\n      sub\n        /* \"#utility.yul\":7066:7067   */\n      0x00\n        /* \"#utility.yul\":7055:7064   */\n      dup4\n        /* \"#utility.yul\":7051:7068   */\n      add\n        /* \"#utility.yul\":7044:7091   */\n      mstore\n        /* \"#utility.yul\":7108:7239   */\n      tag_164\n        /* \"#utility.yul\":7234:7238   */\n      dup2\n        /* \"#utility.yul\":7108:7239   */\n      tag_86\n      jump\t// in\n    tag_164:\n        /* \"#utility.yul\":7100:7239   */\n      swap1\n      pop\n        /* \"#utility.yul\":6827:7246   */\n      swap2\n      swap1\n      pop\n      jump\t// out\n        /* \"#utility.yul\":7252:7423   */\n    tag_66:\n        /* \"#utility.yul\":7291:7294   */\n      0x00\n        /* \"#utility.yul\":7314:7338   */\n      tag_166\n        /* \"#utility.yul\":7332:7337   */\n      dup3\n        /* \"#utility.yul\":7314:7338   */\n      tag_74\n      jump\t// in\n    tag_166:\n        /* \"#utility.yul\":7305:7338   */\n      swap2\n      pop\n        /* \"#utility.yul\":7360:7364   */\n      0x00\n        /* \"#utility.yul\":7353:7358   */\n      dup3\n        /* \"#utility.yul\":7350:7365   */\n      sub\n        /* \"#utility.yul\":7347:7388   */\n      tag_167\n      jumpi\n        /* \"#utility.yul\":7368:7386   */\n      tag_168\n      tag_81\n      jump\t// in\n    tag_168:\n        /* \"#utility.yul\":7347:7388   */\n    tag_167:\n        /* \"#utility.yul\":7415:7416   */\n      0x01\n        /* \"#utility.yul\":7408:7413   */\n      dup3\n        /* \"#utility.yul\":7404:7417   */\n      sub\n        /* \"#utility.yul\":7397:7417   */\n      swap1\n      pop\n        /* \"#utility.yul\":7252:7423   */\n      swap2\n      swap1\n      pop\n      jump\t// out\n\n    auxdata: 0xa26469706673582212207ea19f69db9a160700642d6d065a3558422e0a825ea83b16b77c07c5e629976f64736f6c634300081a0033\n}\n",
				"bytecode": {
					"linkReferences": {},
					"object": "6080604052670de0b6b3a7640000600255348015601a575f80fd5b50335f806101000a81548173ffffffffffffffffffffffffffffffffffffffff021916908373ffffffffffffffffffffffffffffffffffffffff160217905550606460015f805f9054906101000a900473ffffffffffffffffffffffffffffffffffffffff1673ffffffffffffffffffffffffffffffffffffffff1673ffffffffffffffffffffffffffffffffffffffff1681526020019081526020015f2081905550610b59806100ca5f395ff3fe608060405260043610610049575f3560e01c8063412664ae1461004d578063754fc38c14610075578063a95c4d621461008b578063eedc966a14610095578063faa0a264146100d1575b5f80fd5b348015610058575f80fd5b50610073600480360381019061006e919061077e565b6100e7565b005b348015610080575f80fd5b5061008961033d565b005b61009361043e565b005b3480156100a0575f80fd5b506100bb60048036038101906100b691906107bc565b6105d7565b6040516100c891906107f6565b60405180910390f35b3480156100dc575f80fd5b506100e56105ec565b005b8060015f3373ffffffffffffffffffffffffffffffffffffffff1673ffffffffffffffffffffffffffffffffffffffff1681526020019081526020015f20541015610167576040517f08c379a000000000000000000000000000000000000000000000000000000000815260040161015e90610869565b60405180910390fd5b60015f8373ffffffffffffffffffffffffffffffffffffffff1673ffffffffffffffffffffffffffffffffffffffff1681526020019081526020015f20548160015f8573ffffffffffffffffffffffffffffffffffffffff1673ffffffffffffffffffffffffffffffffffffffff1681526020019081526020015f20546101ee91906108b4565b10156101fd576101fc6108e7565b5b60015f3373ffffffffffffffffffffffffffffffffffffffff1673ffffffffffffffffffffffffffffffffffffffff1681526020019081526020015f20548160015f3373ffffffffffffffffffffffffffffffffffffffff1673ffffffffffffffffffffffffffffffffffffffff1681526020019081526020015f20546102849190610914565b1115610293576102926108e7565b5b8060015f3373ffffffffffffffffffffffffffffffffffffffff1673ffffffffffffffffffffffffffffffffffffffff1681526020019081526020015f205f8282546102df9190610914565b925050819055508060015f8473ffffffffffffffffffffffffffffffffffffffff1673ffffffffffffffffffffffffffffffffffffffff1681526020019081526020015f205f82825461033291906108b4565b925050819055505050565b5f8054906101000a900473ffffffffffffffffffffffffffffffffffffffff1673ffffffffffffffffffffffffffffffffffffffff163373ffffffffffffffffffffffffffffffffffffffff16146103ca576040517f08c379a00000000000000000000000000000000000000000000000000000000081526004016103c190610991565b60405180910390fd5b60015f805f9054906101000a900473ffffffffffffffffffffffffffffffffffffffff1673ffffffffffffffffffffffffffffffffffffffff1673ffffffffffffffffffffffffffffffffffffffff1681526020019081526020015f205f815480929190610437906109af565b9190505550565b5f3460025460015f805f9054906101000a900473ffffffffffffffffffffffffffffffffffffffff1673ffffffffffffffffffffffffffffffffffffffff1673ffffffffffffffffffffffffffffffffffffffff1681526020019081526020015f20546104ab91906109f6565b6104b59190610a64565b116104f5576040517f08c379a00000000000000000000000000000000000000000000000000000000081526004016104ec90610ade565b60405180910390fd5b600254346105039190610a64565b60015f805f9054906101000a900473ffffffffffffffffffffffffffffffffffffffff1673ffffffffffffffffffffffffffffffffffffffff1673ffffffffffffffffffffffffffffffffffffffff1681526020019081526020015f205f82825461056e9190610914565b92505081905550600254346105839190610a64565b60015f3373ffffffffffffffffffffffffffffffffffffffff1673ffffffffffffffffffffffffffffffffffffffff1681526020019081526020015f205f8282546105ce91906108b4565b92505081905550565b6001602052805f5260405f205f915090505481565b5f8054906101000a900473ffffffffffffffffffffffffffffffffffffffff1673ffffffffffffffffffffffffffffffffffffffff163373ffffffffffffffffffffffffffffffffffffffff1614610679576040517f08c379a000000000000000000000000000000000000000000000000000000000815260040161067090610991565b60405180910390fd5b60015f805f9054906101000a900473ffffffffffffffffffffffffffffffffffffffff1673ffffffffffffffffffffffffffffffffffffffff1673ffffffffffffffffffffffffffffffffffffffff1681526020019081526020015f205f8154809291906106e690610afc565b9190505550565b5f80fd5b5f73ffffffffffffffffffffffffffffffffffffffff82169050919050565b5f61071a826106f1565b9050919050565b61072a81610710565b8114610734575f80fd5b50565b5f8135905061074581610721565b92915050565b5f819050919050565b61075d8161074b565b8114610767575f80fd5b50565b5f8135905061077881610754565b92915050565b5f8060408385031215610794576107936106ed565b5b5f6107a185828601610737565b92505060206107b28582860161076a565b9150509250929050565b5f602082840312156107d1576107d06106ed565b5b5f6107de84828501610737565b91505092915050565b6107f08161074b565b82525050565b5f6020820190506108095f8301846107e7565b92915050565b5f82825260208201905092915050565b7f4e6f7420656e6f75676820746f6b656e730000000000000000000000000000005f82015250565b5f61085360118361080f565b915061085e8261081f565b602082019050919050565b5f6020820190508181035f83015261088081610847565b9050919050565b7f4e487b71000000000000000000000000000000000000000000000000000000005f52601160045260245ffd5b5f6108be8261074b565b91506108c98361074b565b92508282019050808211156108e1576108e0610887565b5b92915050565b7f4e487b71000000000000000000000000000000000000000000000000000000005f52600160045260245ffd5b5f61091e8261074b565b91506109298361074b565b925082820390508181111561094157610940610887565b5b92915050565b7f596f7520617265206e6f7420616c6c6f776564000000000000000000000000005f82015250565b5f61097b60138361080f565b915061098682610947565b602082019050919050565b5f6020820190508181035f8301526109a88161096f565b9050919050565b5f6109b98261074b565b91507fffffffffffffffffffffffffffffffffffffffffffffffffffffffffffffffff82036109eb576109ea610887565b5b600182019050919050565b5f610a008261074b565b9150610a0b8361074b565b9250828202610a198161074b565b91508282048414831517610a3057610a2f610887565b5b5092915050565b7f4e487b71000000000000000000000000000000000000000000000000000000005f52601260045260245ffd5b5f610a6e8261074b565b9150610a798361074b565b925082610a8957610a88610a37565b5b828204905092915050565b7f6e6f7420656e6f75676820746f6b656e730000000000000000000000000000005f82015250565b5f610ac860118361080f565b9150610ad382610a94565b602082019050919050565b5f6020820190508181035f830152610af581610abc565b9050919050565b5f610b068261074b565b91505f8203610b1857610b17610887565b5b60018203905091905056fea26469706673582212207ea19f69db9a160700642d6d065a3558422e0a825ea83b16b77c07c5e629976f64736f6c634300081a0033",
					"opcodes": "PUSH1 0x80 PUSH1 0x40 MSTORE PUSH8 0xDE0B6B3A7640000 PUSH1 0x2 SSTORE CALLVALUE DUP1 ISZERO PUSH1 0x1A JUMPI PUSH0 DUP1 REVERT JUMPDEST POP CALLER PUSH0 DUP1 PUSH2 0x100 EXP DUP2 SLOAD DUP2 PUSH20 0xFFFFFFFFFFFFFFFFFFFFFFFFFFFFFFFFFFFFFFFF MUL NOT AND SWAP1 DUP4 PUSH20 0xFFFFFFFFFFFFFFFFFFFFFFFFFFFFFFFFFFFFFFFF AND MUL OR SWAP1 SSTORE POP PUSH1 0x64 PUSH1 0x1 PUSH0 DUP1 PUSH0 SWAP1 SLOAD SWAP1 PUSH2 0x100 EXP SWAP1 DIV PUSH20 0xFFFFFFFFFFFFFFFFFFFFFFFFFFFFFFFFFFFFFFFF AND PUSH20 0xFFFFFFFFFFFFFFFFFFFFFFFFFFFFFFFFFFFFFFFF AND PUSH20 0xFFFFFFFFFFFFFFFFFFFFFFFFFFFFFFFFFFFFFFFF AND DUP2 MSTORE PUSH1 0x20 ADD SWAP1 DUP2 MSTORE PUSH1 0x20 ADD PUSH0 KECCAK256 DUP2 SWAP1 SSTORE POP PUSH2 0xB59 DUP1 PUSH2 0xCA PUSH0 CODECOPY PUSH0 RETURN INVALID PUSH1 0x80 PUSH1 0x40 MSTORE PUSH1 0x4 CALLDATASIZE LT PUSH2 0x49 JUMPI PUSH0 CALLDATALOAD PUSH1 0xE0 SHR DUP1 PUSH4 0x412664AE EQ PUSH2 0x4D JUMPI DUP1 PUSH4 0x754FC38C EQ PUSH2 0x75 JUMPI DUP1 PUSH4 0xA95C4D62 EQ PUSH2 0x8B JUMPI DUP1 PUSH4 0xEEDC966A EQ PUSH2 0x95 JUMPI DUP1 PUSH4 0xFAA0A264 EQ PUSH2 0xD1 JUMPI JUMPDEST PUSH0 DUP1 REVERT JUMPDEST CALLVALUE DUP1 ISZERO PUSH2 0x58 JUMPI PUSH0 DUP1 REVERT JUMPDEST POP PUSH2 0x73 PUSH1 0x4 DUP1 CALLDATASIZE SUB DUP2 ADD SWAP1 PUSH2 0x6E SWAP2 SWAP1 PUSH2 0x77E JUMP JUMPDEST PUSH2 0xE7 JUMP JUMPDEST STOP JUMPDEST CALLVALUE DUP1 ISZERO PUSH2 0x80 JUMPI PUSH0 DUP1 REVERT JUMPDEST POP PUSH2 0x89 PUSH2 0x33D JUMP JUMPDEST STOP JUMPDEST PUSH2 0x93 PUSH2 0x43E JUMP JUMPDEST STOP JUMPDEST CALLVALUE DUP1 ISZERO PUSH2 0xA0 JUMPI PUSH0 DUP1 REVERT JUMPDEST POP PUSH2 0xBB PUSH1 0x4 DUP1 CALLDATASIZE SUB DUP2 ADD SWAP1 PUSH2 0xB6 SWAP2 SWAP1 PUSH2 0x7BC JUMP JUMPDEST PUSH2 0x5D7 JUMP JUMPDEST PUSH1 0x40 MLOAD PUSH2 0xC8 SWAP2 SWAP1 PUSH2 0x7F6 JUMP JUMPDEST PUSH1 0x40 MLOAD DUP1 SWAP2 SUB SWAP1 RETURN JUMPDEST CALLVALUE DUP1 ISZERO PUSH2 0xDC JUMPI PUSH0 DUP1 REVERT JUMPDEST POP PUSH2 0xE5 PUSH2 0x5EC JUMP JUMPDEST STOP JUMPDEST DUP1 PUSH1 0x1 PUSH0 CALLER PUSH20 0xFFFFFFFFFFFFFFFFFFFFFFFFFFFFFFFFFFFFFFFF AND PUSH20 0xFFFFFFFFFFFFFFFFFFFFFFFFFFFFFFFFFFFFFFFF AND DUP2 MSTORE PUSH1 0x20 ADD SWAP1 DUP2 MSTORE PUSH1 0x20 ADD PUSH0 KECCAK256 SLOAD LT ISZERO PUSH2 0x167 JUMPI PUSH1 0x40 MLOAD PUSH32 0x8C379A000000000000000000000000000000000000000000000000000000000 DUP2 MSTORE PUSH1 0x4 ADD PUSH2 0x15E SWAP1 PUSH2 0x869 JUMP JUMPDEST PUSH1 0x40 MLOAD DUP1 SWAP2 SUB SWAP1 REVERT JUMPDEST PUSH1 0x1 PUSH0 DUP4 PUSH20 0xFFFFFFFFFFFFFFFFFFFFFFFFFFFFFFFFFFFFFFFF AND PUSH20 0xFFFFFFFFFFFFFFFFFFFFFFFFFFFFFFFFFFFFFFFF AND DUP2 MSTORE PUSH1 0x20 ADD SWAP1 DUP2 MSTORE PUSH1 0x20 ADD PUSH0 KECCAK256 SLOAD DUP2 PUSH1 0x1 PUSH0 DUP6 PUSH20 0xFFFFFFFFFFFFFFFFFFFFFFFFFFFFFFFFFFFFFFFF AND PUSH20 0xFFFFFFFFFFFFFFFFFFFFFFFFFFFFFFFFFFFFFFFF AND DUP2 MSTORE PUSH1 0x20 ADD SWAP1 DUP2 MSTORE PUSH1 0x20 ADD PUSH0 KECCAK256 SLOAD PUSH2 0x1EE SWAP2 SWAP1 PUSH2 0x8B4 JUMP JUMPDEST LT ISZERO PUSH2 0x1FD JUMPI PUSH2 0x1FC PUSH2 0x8E7 JUMP JUMPDEST JUMPDEST PUSH1 0x1 PUSH0 CALLER PUSH20 0xFFFFFFFFFFFFFFFFFFFFFFFFFFFFFFFFFFFFFFFF AND PUSH20 0xFFFFFFFFFFFFFFFFFFFFFFFFFFFFFFFFFFFFFFFF AND DUP2 MSTORE PUSH1 0x20 ADD SWAP1 DUP2 MSTORE PUSH1 0x20 ADD PUSH0 KECCAK256 SLOAD DUP2 PUSH1 0x1 PUSH0 CALLER PUSH20 0xFFFFFFFFFFFFFFFFFFFFFFFFFFFFFFFFFFFFFFFF AND PUSH20 0xFFFFFFFFFFFFFFFFFFFFFFFFFFFFFFFFFFFFFFFF AND DUP2 MSTORE PUSH1 0x20 ADD SWAP1 DUP2 MSTORE PUSH1 0x20 ADD PUSH0 KECCAK256 SLOAD PUSH2 0x284 SWAP2 SWAP1 PUSH2 0x914 JUMP JUMPDEST GT ISZERO PUSH2 0x293 JUMPI PUSH2 0x292 PUSH2 0x8E7 JUMP JUMPDEST JUMPDEST DUP1 PUSH1 0x1 PUSH0 CALLER PUSH20 0xFFFFFFFFFFFFFFFFFFFFFFFFFFFFFFFFFFFFFFFF AND PUSH20 0xFFFFFFFFFFFFFFFFFFFFFFFFFFFFFFFFFFFFFFFF AND DUP2 MSTORE PUSH1 0x20 ADD SWAP1 DUP2 MSTORE PUSH1 0x20 ADD PUSH0 KECCAK256 PUSH0 DUP3 DUP3 SLOAD PUSH2 0x2DF SWAP2 SWAP1 PUSH2 0x914 JUMP JUMPDEST SWAP3 POP POP DUP2 SWAP1 SSTORE POP DUP1 PUSH1 0x1 PUSH0 DUP5 PUSH20 0xFFFFFFFFFFFFFFFFFFFFFFFFFFFFFFFFFFFFFFFF AND PUSH20 0xFFFFFFFFFFFFFFFFFFFFFFFFFFFFFFFFFFFFFFFF AND DUP2 MSTORE PUSH1 0x20 ADD SWAP1 DUP2 MSTORE PUSH1 0x20 ADD PUSH0 KECCAK256 PUSH0 DUP3 DUP3 SLOAD PUSH2 0x332 SWAP2 SWAP1 PUSH2 0x8B4 JUMP JUMPDEST SWAP3 POP POP DUP2 SWAP1 SSTORE POP POP POP JUMP JUMPDEST PUSH0 DUP1 SLOAD SWAP1 PUSH2 0x100 EXP SWAP1 DIV PUSH20 0xFFFFFFFFFFFFFFFFFFFFFFFFFFFFFFFFFFFFFFFF AND PUSH20 0xFFFFFFFFFFFFFFFFFFFFFFFFFFFFFFFFFFFFFFFF AND CALLER PUSH20 0xFFFFFFFFFFFFFFFFFFFFFFFFFFFFFFFFFFFFFFFF AND EQ PUSH2 0x3CA JUMPI PUSH1 0x40 MLOAD PUSH32 0x8C379A000000000000000000000000000000000000000000000000000000000 DUP2 MSTORE PUSH1 0x4 ADD PUSH2 0x3C1 SWAP1 PUSH2 0x991 JUMP JUMPDEST PUSH1 0x40 MLOAD DUP1 SWAP2 SUB SWAP1 REVERT JUMPDEST PUSH1 0x1 PUSH0 DUP1 PUSH0 SWAP1 SLOAD SWAP1 PUSH2 0x100 EXP SWAP1 DIV PUSH20 0xFFFFFFFFFFFFFFFFFFFFFFFFFFFFFFFFFFFFFFFF AND PUSH20 0xFFFFFFFFFFFFFFFFFFFFFFFFFFFFFFFFFFFFFFFF AND PUSH20 0xFFFFFFFFFFFFFFFFFFFFFFFFFFFFFFFFFFFFFFFF AND DUP2 MSTORE PUSH1 0x20 ADD SWAP1 DUP2 MSTORE PUSH1 0x20 ADD PUSH0 KECCAK256 PUSH0 DUP2 SLOAD DUP1 SWAP3 SWAP2 SWAP1 PUSH2 0x437 SWAP1 PUSH2 0x9AF JUMP JUMPDEST SWAP2 SWAP1 POP SSTORE POP JUMP JUMPDEST PUSH0 CALLVALUE PUSH1 0x2 SLOAD PUSH1 0x1 PUSH0 DUP1 PUSH0 SWAP1 SLOAD SWAP1 PUSH2 0x100 EXP SWAP1 DIV PUSH20 0xFFFFFFFFFFFFFFFFFFFFFFFFFFFFFFFFFFFFFFFF AND PUSH20 0xFFFFFFFFFFFFFFFFFFFFFFFFFFFFFFFFFFFFFFFF AND PUSH20 0xFFFFFFFFFFFFFFFFFFFFFFFFFFFFFFFFFFFFFFFF AND DUP2 MSTORE PUSH1 0x20 ADD SWAP1 DUP2 MSTORE PUSH1 0x20 ADD PUSH0 KECCAK256 SLOAD PUSH2 0x4AB SWAP2 SWAP1 PUSH2 0x9F6 JUMP JUMPDEST PUSH2 0x4B5 SWAP2 SWAP1 PUSH2 0xA64 JUMP JUMPDEST GT PUSH2 0x4F5 JUMPI PUSH1 0x40 MLOAD PUSH32 0x8C379A000000000000000000000000000000000000000000000000000000000 DUP2 MSTORE PUSH1 0x4 ADD PUSH2 0x4EC SWAP1 PUSH2 0xADE JUMP JUMPDEST PUSH1 0x40 MLOAD DUP1 SWAP2 SUB SWAP1 REVERT JUMPDEST PUSH1 0x2 SLOAD CALLVALUE PUSH2 0x503 SWAP2 SWAP1 PUSH2 0xA64 JUMP JUMPDEST PUSH1 0x1 PUSH0 DUP1 PUSH0 SWAP1 SLOAD SWAP1 PUSH2 0x100 EXP SWAP1 DIV PUSH20 0xFFFFFFFFFFFFFFFFFFFFFFFFFFFFFFFFFFFFFFFF AND PUSH20 0xFFFFFFFFFFFFFFFFFFFFFFFFFFFFFFFFFFFFFFFF AND PUSH20 0xFFFFFFFFFFFFFFFFFFFFFFFFFFFFFFFFFFFFFFFF AND DUP2 MSTORE PUSH1 0x20 ADD SWAP1 DUP2 MSTORE PUSH1 0x20 ADD PUSH0 KECCAK256 PUSH0 DUP3 DUP3 SLOAD PUSH2 0x56E SWAP2 SWAP1 PUSH2 0x914 JUMP JUMPDEST SWAP3 POP POP DUP2 SWAP1 SSTORE POP PUSH1 0x2 SLOAD CALLVALUE PUSH2 0x583 SWAP2 SWAP1 PUSH2 0xA64 JUMP JUMPDEST PUSH1 0x1 PUSH0 CALLER PUSH20 0xFFFFFFFFFFFFFFFFFFFFFFFFFFFFFFFFFFFFFFFF AND PUSH20 0xFFFFFFFFFFFFFFFFFFFFFFFFFFFFFFFFFFFFFFFF AND DUP2 MSTORE PUSH1 0x20 ADD SWAP1 DUP2 MSTORE PUSH1 0x20 ADD PUSH0 KECCAK256 PUSH0 DUP3 DUP3 SLOAD PUSH2 0x5CE SWAP2 SWAP1 PUSH2 0x8B4 JUMP JUMPDEST SWAP3 POP POP DUP2 SWAP1 SSTORE POP JUMP JUMPDEST PUSH1 0x1 PUSH1 0x20 MSTORE DUP1 PUSH0 MSTORE PUSH1 0x40 PUSH0 KECCAK256 PUSH0 SWAP2 POP SWAP1 POP SLOAD DUP2 JUMP JUMPDEST PUSH0 DUP1 SLOAD SWAP1 PUSH2 0x100 EXP SWAP1 DIV PUSH20 0xFFFFFFFFFFFFFFFFFFFFFFFFFFFFFFFFFFFFFFFF AND PUSH20 0xFFFFFFFFFFFFFFFFFFFFFFFFFFFFFFFFFFFFFFFF AND CALLER PUSH20 0xFFFFFFFFFFFFFFFFFFFFFFFFFFFFFFFFFFFFFFFF AND EQ PUSH2 0x679 JUMPI PUSH1 0x40 MLOAD PUSH32 0x8C379A000000000000000000000000000000000000000000000000000000000 DUP2 MSTORE PUSH1 0x4 ADD PUSH2 0x670 SWAP1 PUSH2 0x991 JUMP JUMPDEST PUSH1 0x40 MLOAD DUP1 SWAP2 SUB SWAP1 REVERT JUMPDEST PUSH1 0x1 PUSH0 DUP1 PUSH0 SWAP1 SLOAD SWAP1 PUSH2 0x100 EXP SWAP1 DIV PUSH20 0xFFFFFFFFFFFFFFFFFFFFFFFFFFFFFFFFFFFFFFFF AND PUSH20 0xFFFFFFFFFFFFFFFFFFFFFFFFFFFFFFFFFFFFFFFF AND PUSH20 0xFFFFFFFFFFFFFFFFFFFFFFFFFFFFFFFFFFFFFFFF AND DUP2 MSTORE PUSH1 0x20 ADD SWAP1 DUP2 MSTORE PUSH1 0x20 ADD PUSH0 KECCAK256 PUSH0 DUP2 SLOAD DUP1 SWAP3 SWAP2 SWAP1 PUSH2 0x6E6 SWAP1 PUSH2 0xAFC JUMP JUMPDEST SWAP2 SWAP1 POP SSTORE POP JUMP JUMPDEST PUSH0 DUP1 REVERT JUMPDEST PUSH0 PUSH20 0xFFFFFFFFFFFFFFFFFFFFFFFFFFFFFFFFFFFFFFFF DUP3 AND SWAP1 POP SWAP2 SWAP1 POP JUMP JUMPDEST PUSH0 PUSH2 0x71A DUP3 PUSH2 0x6F1 JUMP JUMPDEST SWAP1 POP SWAP2 SWAP1 POP JUMP JUMPDEST PUSH2 0x72A DUP2 PUSH2 0x710 JUMP JUMPDEST DUP2 EQ PUSH2 0x734 JUMPI PUSH0 DUP1 REVERT JUMPDEST POP JUMP JUMPDEST PUSH0 DUP2 CALLDATALOAD SWAP1 POP PUSH2 0x745 DUP2 PUSH2 0x721 JUMP JUMPDEST SWAP3 SWAP2 POP POP JUMP JUMPDEST PUSH0 DUP2 SWAP1 POP SWAP2 SWAP1 POP JUMP JUMPDEST PUSH2 0x75D DUP2 PUSH2 0x74B JUMP JUMPDEST DUP2 EQ PUSH2 0x767 JUMPI PUSH0 DUP1 REVERT JUMPDEST POP JUMP JUMPDEST PUSH0 DUP2 CALLDATALOAD SWAP1 POP PUSH2 0x778 DUP2 PUSH2 0x754 JUMP JUMPDEST SWAP3 SWAP2 POP POP JUMP JUMPDEST PUSH0 DUP1 PUSH1 0x40 DUP4 DUP6 SUB SLT ISZERO PUSH2 0x794 JUMPI PUSH2 0x793 PUSH2 0x6ED JUMP JUMPDEST JUMPDEST PUSH0 PUSH2 0x7A1 DUP6 DUP3 DUP7 ADD PUSH2 0x737 JUMP JUMPDEST SWAP3 POP POP PUSH1 0x20 PUSH2 0x7B2 DUP6 DUP3 DUP7 ADD PUSH2 0x76A JUMP JUMPDEST SWAP2 POP POP SWAP3 POP SWAP3 SWAP1 POP JUMP JUMPDEST PUSH0 PUSH1 0x20 DUP3 DUP5 SUB SLT ISZERO PUSH2 0x7D1 JUMPI PUSH2 0x7D0 PUSH2 0x6ED JUMP JUMPDEST JUMPDEST PUSH0 PUSH2 0x7DE DUP5 DUP3 DUP6 ADD PUSH2 0x737 JUMP JUMPDEST SWAP2 POP POP SWAP3 SWAP2 POP POP JUMP JUMPDEST PUSH2 0x7F0 DUP2 PUSH2 0x74B JUMP JUMPDEST DUP3 MSTORE POP POP JUMP JUMPDEST PUSH0 PUSH1 0x20 DUP3 ADD SWAP1 POP PUSH2 0x809 PUSH0 DUP4 ADD DUP5 PUSH2 0x7E7 JUMP JUMPDEST SWAP3 SWAP2 POP POP JUMP JUMPDEST PUSH0 DUP3 DUP3 MSTORE PUSH1 0x20 DUP3 ADD SWAP1 POP SWAP3 SWAP2 POP POP JUMP JUMPDEST PUSH32 0x4E6F7420656E6F75676820746F6B656E73000000000000000000000000000000 PUSH0 DUP3 ADD MSTORE POP JUMP JUMPDEST PUSH0 PUSH2 0x853 PUSH1 0x11 DUP4 PUSH2 0x80F JUMP JUMPDEST SWAP2 POP PUSH2 0x85E DUP3 PUSH2 0x81F JUMP JUMPDEST PUSH1 0x20 DUP3 ADD SWAP1 POP SWAP2 SWAP1 POP JUMP JUMPDEST PUSH0 PUSH1 0x20 DUP3 ADD SWAP1 POP DUP2 DUP2 SUB PUSH0 DUP4 ADD MSTORE PUSH2 0x880 DUP2 PUSH2 0x847 JUMP JUMPDEST SWAP1 POP SWAP2 SWAP1 POP JUMP JUMPDEST PUSH32 0x4E487B7100000000000000000000000000000000000000000000000000000000 PUSH0 MSTORE PUSH1 0x11 PUSH1 0x4 MSTORE PUSH1 0x24 PUSH0 REVERT JUMPDEST PUSH0 PUSH2 0x8BE DUP3 PUSH2 0x74B JUMP JUMPDEST SWAP2 POP PUSH2 0x8C9 DUP4 PUSH2 0x74B JUMP JUMPDEST SWAP3 POP DUP3 DUP3 ADD SWAP1 POP DUP1 DUP3 GT ISZERO PUSH2 0x8E1 JUMPI PUSH2 0x8E0 PUSH2 0x887 JUMP JUMPDEST JUMPDEST SWAP3 SWAP2 POP POP JUMP JUMPDEST PUSH32 0x4E487B7100000000000000000000000000000000000000000000000000000000 PUSH0 MSTORE PUSH1 0x1 PUSH1 0x4 MSTORE PUSH1 0x24 PUSH0 REVERT JUMPDEST PUSH0 PUSH2 0x91E DUP3 PUSH2 0x74B JUMP JUMPDEST SWAP2 POP PUSH2 0x929 DUP4 PUSH2 0x74B JUMP JUMPDEST SWAP3 POP DUP3 DUP3 SUB SWAP1 POP DUP2 DUP2 GT ISZERO PUSH2 0x941 JUMPI PUSH2 0x940 PUSH2 0x887 JUMP JUMPDEST JUMPDEST SWAP3 SWAP2 POP POP JUMP JUMPDEST PUSH32 0x596F7520617265206E6F7420616C6C6F77656400000000000000000000000000 PUSH0 DUP3 ADD MSTORE POP JUMP JUMPDEST PUSH0 PUSH2 0x97B PUSH1 0x13 DUP4 PUSH2 0x80F JUMP JUMPDEST SWAP2 POP PUSH2 0x986 DUP3 PUSH2 0x947 JUMP JUMPDEST PUSH1 0x20 DUP3 ADD SWAP1 POP SWAP2 SWAP1 POP JUMP JUMPDEST PUSH0 PUSH1 0x20 DUP3 ADD SWAP1 POP DUP2 DUP2 SUB PUSH0 DUP4 ADD MSTORE PUSH2 0x9A8 DUP2 PUSH2 0x96F JUMP JUMPDEST SWAP1 POP SWAP2 SWAP1 POP JUMP JUMPDEST PUSH0 PUSH2 0x9B9 DUP3 PUSH2 0x74B JUMP JUMPDEST SWAP2 POP PUSH32 0xFFFFFFFFFFFFFFFFFFFFFFFFFFFFFFFFFFFFFFFFFFFFFFFFFFFFFFFFFFFFFFFF DUP3 SUB PUSH2 0x9EB JUMPI PUSH2 0x9EA PUSH2 0x887 JUMP JUMPDEST JUMPDEST PUSH1 0x1 DUP3 ADD SWAP1 POP SWAP2 SWAP1 POP JUMP JUMPDEST PUSH0 PUSH2 0xA00 DUP3 PUSH2 0x74B JUMP JUMPDEST SWAP2 POP PUSH2 0xA0B DUP4 PUSH2 0x74B JUMP JUMPDEST SWAP3 POP DUP3 DUP3 MUL PUSH2 0xA19 DUP2 PUSH2 0x74B JUMP JUMPDEST SWAP2 POP DUP3 DUP3 DIV DUP5 EQ DUP4 ISZERO OR PUSH2 0xA30 JUMPI PUSH2 0xA2F PUSH2 0x887 JUMP JUMPDEST JUMPDEST POP SWAP3 SWAP2 POP POP JUMP JUMPDEST PUSH32 0x4E487B7100000000000000000000000000000000000000000000000000000000 PUSH0 MSTORE PUSH1 0x12 PUSH1 0x4 MSTORE PUSH1 0x24 PUSH0 REVERT JUMPDEST PUSH0 PUSH2 0xA6E DUP3 PUSH2 0x74B JUMP JUMPDEST SWAP2 POP PUSH2 0xA79 DUP4 PUSH2 0x74B JUMP JUMPDEST SWAP3 POP DUP3 PUSH2 0xA89 JUMPI PUSH2 0xA88 PUSH2 0xA37 JUMP JUMPDEST JUMPDEST DUP3 DUP3 DIV SWAP1 POP SWAP3 SWAP2 POP POP JUMP JUMPDEST PUSH32 0x6E6F7420656E6F75676820746F6B656E73000000000000000000000000000000 PUSH0 DUP3 ADD MSTORE POP JUMP JUMPDEST PUSH0 PUSH2 0xAC8 PUSH1 0x11 DUP4 PUSH2 0x80F JUMP JUMPDEST SWAP2 POP PUSH2 0xAD3 DUP3 PUSH2 0xA94 JUMP JUMPDEST PUSH1 0x20 DUP3 ADD SWAP1 POP SWAP2 SWAP1 POP JUMP JUMPDEST PUSH0 PUSH1 0x20 DUP3 ADD SWAP1 POP DUP2 DUP2 SUB PUSH0 DUP4 ADD MSTORE PUSH2 0xAF5 DUP2 PUSH2 0xABC JUMP JUMPDEST SWAP1 POP SWAP2 SWAP1 POP JUMP JUMPDEST PUSH0 PUSH2 0xB06 DUP3 PUSH2 0x74B JUMP JUMPDEST SWAP2 POP PUSH0 DUP3 SUB PUSH2 0xB18 JUMPI PUSH2 0xB17 PUSH2 0x887 JUMP JUMPDEST JUMPDEST PUSH1 0x1 DUP3 SUB SWAP1 POP SWAP2 SWAP1 POP JUMP INVALID LOG2 PUSH5 0x6970667358 0x22 SLT KECCAK256 PUSH31 0xA19F69DB9A160700642D6D065A3558422E0A825EA83B16B77C07C5E629976F PUSH5 0x736F6C6343 STOP ADDMOD BYTE STOP CALLER "
				},
				"gasEstimates": {
					"creation": {
						"codeDepositCost": "581000",
						"executionCost": "71319",
						"totalCost": "652319"
					},
					"external": {
						"burnToken()": "28951",
						"createNewToken()": "28886",
						"purchaseToken()": "infinite",
						"sendToken(address,uint256)": "infinite",
						"tokenBalance(address)": "2846"
					}
				},
				"methodIdentifiers": {
					"burnToken()": "faa0a264",
					"createNewToken()": "754fc38c",
					"purchaseToken()": "a95c4d62",
					"sendToken(address,uint256)": "412664ae",
					"tokenBalance(address)": "eedc966a"
				}
			},
			"storageLayout": {
				"storage": [
					{
						"astId": 3,
						"contract": "contracts/Token.sol:Token",
						"label": "owner",
						"offset": 0,
						"slot": "0",
						"type": "t_address"
					},
					{
						"astId": 34,
						"contract": "contracts/Token.sol:Token",
						"label": "tokenBalance",
						"offset": 0,
						"slot": "1",
						"type": "t_mapping(t_address,t_uint256)"
					},
					{
						"astId": 37,
						"contract": "contracts/Token.sol:Token",
						"label": "tokenPrice",
						"offset": 0,
						"slot": "2",
						"type": "t_uint256"
					}
				],
				"types": {
					"t_address": {
						"encoding": "inplace",
						"label": "address",
						"numberOfBytes": "20"
					},
					"t_mapping(t_address,t_uint256)": {
						"encoding": "mapping",
						"key": "t_address",
						"label": "mapping(address => uint256)",
						"numberOfBytes": "32",
						"value": "t_uint256"
					},
					"t_uint256": {
						"encoding": "inplace",
						"label": "uint256",
						"numberOfBytes": "32"
					}
				}
			},
			"userdoc": {
				"kind": "user",
				"methods": {},
				"version": 1
			}
		}
	}
}