{
	"contracts/ExampleLowLevel.sol": {
		"ReceiverAction": {
			"abi": [
				{
					"inputs": [],
					"name": "balance",
					"outputs": [
						{
							"internalType": "uint256",
							"name": "",
							"type": "uint256"
						}
					],
					"stateMutability": "view",
					"type": "function"
				},
				{
					"inputs": [],
					"name": "balanceReceived",
					"outputs": [
						{
							"internalType": "uint256",
							"name": "",
							"type": "uint256"
						}
					],
					"stateMutability": "view",
					"type": "function"
				},
				{
					"stateMutability": "payable",
					"type": "receive"
				}
			],
			"devdoc": {
				"kind": "dev",
				"methods": {},
				"version": 1
			},
			"evm": {
				"assembly": "    /* \"contracts/ExampleLowLevel.sol\":1346:1784  contract ReceiverAction {... */\n  mstore(0x40, 0x80)\n  callvalue\n  dup1\n  iszero\n  tag_1\n  jumpi\n  0x00\n  dup1\n  revert\ntag_1:\n  pop\n  dataSize(sub_0)\n  dup1\n  dataOffset(sub_0)\n  0x00\n  codecopy\n  0x00\n  return\nstop\n\nsub_0: assembly {\n        /* \"contracts/ExampleLowLevel.sol\":1346:1784  contract ReceiverAction {... */\n      mstore(0x40, 0x80)\n      jumpi(tag_1, lt(calldatasize, 0x04))\n      shr(0xe0, calldataload(0x00))\n      dup1\n      0x52a90c42\n      eq\n      tag_3\n      jumpi\n      dup1\n      0xb69ef8a8\n      eq\n      tag_4\n      jumpi\n      jump(tag_2)\n    tag_1:\n      jumpi(tag_2, calldatasize)\n        /* \"contracts/ExampleLowLevel.sol\":1764:1773  msg.value */\n      callvalue\n        /* \"contracts/ExampleLowLevel.sol\":1745:1760  balanceReceived */\n      0x00\n      dup1\n        /* \"contracts/ExampleLowLevel.sol\":1745:1773  balanceReceived += msg.value */\n      dup3\n      dup3\n      sload\n      tag_7\n      swap2\n      swap1\n      tag_8\n      jump\t// in\n    tag_7:\n      swap3\n      pop\n      pop\n      dup2\n      swap1\n      sstore\n      stop\n        /* \"contracts/ExampleLowLevel.sol\":1346:1784  contract ReceiverAction {... */\n    tag_2:\n      0x00\n      dup1\n      revert\n        /* \"contracts/ExampleLowLevel.sol\":1377:1404  uint public balanceReceived */\n    tag_3:\n      callvalue\n      dup1\n      iszero\n      tag_9\n      jumpi\n      0x00\n      dup1\n      revert\n    tag_9:\n      pop\n      tag_10\n      tag_11\n      jump\t// in\n    tag_10:\n      mload(0x40)\n      tag_12\n      swap2\n      swap1\n      tag_13\n      jump\t// in\n    tag_12:\n      mload(0x40)\n      dup1\n      swap2\n      sub\n      swap1\n      return\n        /* \"contracts/ExampleLowLevel.sol\":1523:1615  function balance() public view returns(uint) {... */\n    tag_4:\n      callvalue\n      dup1\n      iszero\n      tag_14\n      jumpi\n      0x00\n      dup1\n      revert\n    tag_14:\n      pop\n      tag_15\n      tag_16\n      jump\t// in\n    tag_15:\n      mload(0x40)\n      tag_17\n      swap2\n      swap1\n      tag_13\n      jump\t// in\n    tag_17:\n      mload(0x40)\n      dup1\n      swap2\n      sub\n      swap1\n      return\n        /* \"contracts/ExampleLowLevel.sol\":1377:1404  uint public balanceReceived */\n    tag_11:\n      sload(0x00)\n      dup2\n      jump\t// out\n        /* \"contracts/ExampleLowLevel.sol\":1523:1615  function balance() public view returns(uint) {... */\n    tag_16:\n        /* \"contracts/ExampleLowLevel.sol\":1562:1566  uint */\n      0x00\n        /* \"contracts/ExampleLowLevel.sol\":1586:1607  address(this).balance */\n      selfbalance\n        /* \"contracts/ExampleLowLevel.sol\":1579:1607  return address(this).balance */\n      swap1\n      pop\n        /* \"contracts/ExampleLowLevel.sol\":1523:1615  function balance() public view returns(uint) {... */\n      swap1\n      jump\t// out\n        /* \"#utility.yul\":7:84   */\n    tag_19:\n        /* \"#utility.yul\":44:51   */\n      0x00\n        /* \"#utility.yul\":73:78   */\n      dup2\n        /* \"#utility.yul\":62:78   */\n      swap1\n      pop\n        /* \"#utility.yul\":7:84   */\n      swap2\n      swap1\n      pop\n      jump\t// out\n        /* \"#utility.yul\":90:270   */\n    tag_20:\n        /* \"#utility.yul\":138:215   */\n      0x4e487b7100000000000000000000000000000000000000000000000000000000\n        /* \"#utility.yul\":135:136   */\n      0x00\n        /* \"#utility.yul\":128:216   */\n      mstore\n        /* \"#utility.yul\":235:239   */\n      0x11\n        /* \"#utility.yul\":232:233   */\n      0x04\n        /* \"#utility.yul\":225:240   */\n      mstore\n        /* \"#utility.yul\":259:263   */\n      0x24\n        /* \"#utility.yul\":256:257   */\n      0x00\n        /* \"#utility.yul\":249:264   */\n      revert\n        /* \"#utility.yul\":276:467   */\n    tag_8:\n        /* \"#utility.yul\":316:319   */\n      0x00\n        /* \"#utility.yul\":335:355   */\n      tag_26\n        /* \"#utility.yul\":353:354   */\n      dup3\n        /* \"#utility.yul\":335:355   */\n      tag_19\n      jump\t// in\n    tag_26:\n        /* \"#utility.yul\":330:355   */\n      swap2\n      pop\n        /* \"#utility.yul\":369:389   */\n      tag_27\n        /* \"#utility.yul\":387:388   */\n      dup4\n        /* \"#utility.yul\":369:389   */\n      tag_19\n      jump\t// in\n    tag_27:\n        /* \"#utility.yul\":364:389   */\n      swap3\n      pop\n        /* \"#utility.yul\":412:413   */\n      dup3\n        /* \"#utility.yul\":409:410   */\n      dup3\n        /* \"#utility.yul\":405:414   */\n      add\n        /* \"#utility.yul\":398:414   */\n      swap1\n      pop\n        /* \"#utility.yul\":433:436   */\n      dup1\n        /* \"#utility.yul\":430:431   */\n      dup3\n        /* \"#utility.yul\":427:437   */\n      gt\n        /* \"#utility.yul\":424:460   */\n      iszero\n      tag_28\n      jumpi\n        /* \"#utility.yul\":440:458   */\n      tag_29\n      tag_20\n      jump\t// in\n    tag_29:\n        /* \"#utility.yul\":424:460   */\n    tag_28:\n        /* \"#utility.yul\":276:467   */\n      swap3\n      swap2\n      pop\n      pop\n      jump\t// out\n        /* \"#utility.yul\":473:591   */\n    tag_21:\n        /* \"#utility.yul\":560:584   */\n      tag_31\n        /* \"#utility.yul\":578:583   */\n      dup2\n        /* \"#utility.yul\":560:584   */\n      tag_19\n      jump\t// in\n    tag_31:\n        /* \"#utility.yul\":555:558   */\n      dup3\n        /* \"#utility.yul\":548:585   */\n      mstore\n        /* \"#utility.yul\":473:591   */\n      pop\n      pop\n      jump\t// out\n        /* \"#utility.yul\":597:819   */\n    tag_13:\n        /* \"#utility.yul\":690:694   */\n      0x00\n        /* \"#utility.yul\":728:730   */\n      0x20\n        /* \"#utility.yul\":717:726   */\n      dup3\n        /* \"#utility.yul\":713:731   */\n      add\n        /* \"#utility.yul\":705:731   */\n      swap1\n      pop\n        /* \"#utility.yul\":741:812   */\n      tag_33\n        /* \"#utility.yul\":809:810   */\n      0x00\n        /* \"#utility.yul\":798:807   */\n      dup4\n        /* \"#utility.yul\":794:811   */\n      add\n        /* \"#utility.yul\":785:791   */\n      dup5\n        /* \"#utility.yul\":741:812   */\n      tag_21\n      jump\t// in\n    tag_33:\n        /* \"#utility.yul\":597:819   */\n      swap3\n      swap2\n      pop\n      pop\n      jump\t// out\n\n    auxdata: 0xa2646970667358221220e27727bc33c8139bfea8cc97c15268b970774c7392bbc1140a4c0a1a54f084b764736f6c634300081a0033\n}\n",
				"bytecode": {
					"linkReferences": {},
					"object": "6080604052348015600e575f80fd5b506101748061001c5f395ff3fe60806040526004361061002c575f3560e01c806352a90c421461004d578063b69ef8a81461007757610049565b3661004957345f8082825461004191906100e3565b925050819055005b5f80fd5b348015610058575f80fd5b506100616100a1565b60405161006e9190610125565b60405180910390f35b348015610082575f80fd5b5061008b6100a6565b6040516100989190610125565b60405180910390f35b5f5481565b5f47905090565b5f819050919050565b7f4e487b71000000000000000000000000000000000000000000000000000000005f52601160045260245ffd5b5f6100ed826100ad565b91506100f8836100ad565b92508282019050808211156101105761010f6100b6565b5b92915050565b61011f816100ad565b82525050565b5f6020820190506101385f830184610116565b9291505056fea2646970667358221220e27727bc33c8139bfea8cc97c15268b970774c7392bbc1140a4c0a1a54f084b764736f6c634300081a0033",
					"opcodes": "PUSH1 0x80 PUSH1 0x40 MSTORE CALLVALUE DUP1 ISZERO PUSH1 0xE JUMPI PUSH0 DUP1 REVERT JUMPDEST POP PUSH2 0x174 DUP1 PUSH2 0x1C PUSH0 CODECOPY PUSH0 RETURN INVALID PUSH1 0x80 PUSH1 0x40 MSTORE PUSH1 0x4 CALLDATASIZE LT PUSH2 0x2C JUMPI PUSH0 CALLDATALOAD PUSH1 0xE0 SHR DUP1 PUSH4 0x52A90C42 EQ PUSH2 0x4D JUMPI DUP1 PUSH4 0xB69EF8A8 EQ PUSH2 0x77 JUMPI PUSH2 0x49 JUMP JUMPDEST CALLDATASIZE PUSH2 0x49 JUMPI CALLVALUE PUSH0 DUP1 DUP3 DUP3 SLOAD PUSH2 0x41 SWAP2 SWAP1 PUSH2 0xE3 JUMP JUMPDEST SWAP3 POP POP DUP2 SWAP1 SSTORE STOP JUMPDEST PUSH0 DUP1 REVERT JUMPDEST CALLVALUE DUP1 ISZERO PUSH2 0x58 JUMPI PUSH0 DUP1 REVERT JUMPDEST POP PUSH2 0x61 PUSH2 0xA1 JUMP JUMPDEST PUSH1 0x40 MLOAD PUSH2 0x6E SWAP2 SWAP1 PUSH2 0x125 JUMP JUMPDEST PUSH1 0x40 MLOAD DUP1 SWAP2 SUB SWAP1 RETURN JUMPDEST CALLVALUE DUP1 ISZERO PUSH2 0x82 JUMPI PUSH0 DUP1 REVERT JUMPDEST POP PUSH2 0x8B PUSH2 0xA6 JUMP JUMPDEST PUSH1 0x40 MLOAD PUSH2 0x98 SWAP2 SWAP1 PUSH2 0x125 JUMP JUMPDEST PUSH1 0x40 MLOAD DUP1 SWAP2 SUB SWAP1 RETURN JUMPDEST PUSH0 SLOAD DUP2 JUMP JUMPDEST PUSH0 SELFBALANCE SWAP1 POP SWAP1 JUMP JUMPDEST PUSH0 DUP2 SWAP1 POP SWAP2 SWAP1 POP JUMP JUMPDEST PUSH32 0x4E487B7100000000000000000000000000000000000000000000000000000000 PUSH0 MSTORE PUSH1 0x11 PUSH1 0x4 MSTORE PUSH1 0x24 PUSH0 REVERT JUMPDEST PUSH0 PUSH2 0xED DUP3 PUSH2 0xAD JUMP JUMPDEST SWAP2 POP PUSH2 0xF8 DUP4 PUSH2 0xAD JUMP JUMPDEST SWAP3 POP DUP3 DUP3 ADD SWAP1 POP DUP1 DUP3 GT ISZERO PUSH2 0x110 JUMPI PUSH2 0x10F PUSH2 0xB6 JUMP JUMPDEST JUMPDEST SWAP3 SWAP2 POP POP JUMP JUMPDEST PUSH2 0x11F DUP2 PUSH2 0xAD JUMP JUMPDEST DUP3 MSTORE POP POP JUMP JUMPDEST PUSH0 PUSH1 0x20 DUP3 ADD SWAP1 POP PUSH2 0x138 PUSH0 DUP4 ADD DUP5 PUSH2 0x116 JUMP JUMPDEST SWAP3 SWAP2 POP POP JUMP INVALID LOG2 PUSH5 0x6970667358 0x22 SLT KECCAK256 0xE2 PUSH24 0x27BC33C8139BFEA8CC97C15268B970774C7392BBC1140A4C EXP BYTE SLOAD CREATE DUP5 0xB7 PUSH5 0x736F6C6343 STOP ADDMOD BYTE STOP CALLER "
				},
				"gasEstimates": {
					"creation": {
						"codeDepositCost": "74400",
						"executionCost": "121",
						"totalCost": "74521"
					},
					"external": {
						"balance()": "334",
						"balanceReceived()": "2402"
					}
				},
				"methodIdentifiers": {
					"balance()": "b69ef8a8",
					"balanceReceived()": "52a90c42"
				}
			},
			"storageLayout": {
				"storage": [
					{
						"astId": 50,
						"contract": "contracts/ExampleLowLevel.sol:ReceiverAction",
						"label": "balanceReceived",
						"offset": 0,
						"slot": "0",
						"type": "t_uint256"
					}
				],
				"types": {
					"t_uint256": {
						"encoding": "inplace",
						"label": "uint256",
						"numberOfBytes": "32"
					}
				}
			},
			"userdoc": {
				"kind": "user",
				"methods": {},
				"version": 1
			}
		}
	}
}