{
	"data": {
		"bytecode": {
			"linkReferences": {},
			"object": "608060405260fa5f806101000a81548160ff021916908360ff1602179055503480156028575f80fd5b506101db806100365f395ff3fe608060405234801561000f575f80fd5b506004361061003f575f3560e01c80632baeceb714610043578063d09de08a1461004d578063e2a4b2af14610057575b5f80fd5b61004b610075565b005b6100556100ad565b005b61005f6100e5565b60405161006c9190610110565b60405180910390f35b5f8081819054906101000a900460ff168092919061009290610156565b91906101000a81548160ff021916908360ff16021790555050565b5f8081819054906101000a900460ff16809291906100ca9061017d565b91906101000a81548160ff021916908360ff16021790555050565b5f8054906101000a900460ff1681565b5f60ff82169050919050565b61010a816100f5565b82525050565b5f6020820190506101235f830184610101565b92915050565b7f4e487b71000000000000000000000000000000000000000000000000000000005f52601160045260245ffd5b5f610160826100f5565b91505f820361017257610171610129565b5b600182039050919050565b5f610187826100f5565b915060ff820361019a57610199610129565b5b60018201905091905056fea26469706673582212203a4521a866c08ce238ce4975f858f03516ee51f720e551f8a5c6a64aaea1bf7d64736f6c634300081a0033",
			"opcodes": "PUSH1 0x80 PUSH1 0x40 MSTORE PUSH1 0xFA PUSH0 DUP1 PUSH2 0x100 EXP DUP2 SLOAD DUP2 PUSH1 0xFF MUL NOT AND SWAP1 DUP4 PUSH1 0xFF AND MUL OR SWAP1 SSTORE POP CALLVALUE DUP1 ISZERO PUSH1 0x28 JUMPI PUSH0 DUP1 REVERT JUMPDEST POP PUSH2 0x1DB DUP1 PUSH2 0x36 PUSH0 CODECOPY PUSH0 RETURN INVALID PUSH1 0x80 PUSH1 0x40 MSTORE CALLVALUE DUP1 ISZERO PUSH2 0xF JUMPI PUSH0 DUP1 REVERT JUMPDEST POP PUSH1 0x4 CALLDATASIZE LT PUSH2 0x3F JUMPI PUSH0 CALLDATALOAD PUSH1 0xE0 SHR DUP1 PUSH4 0x2BAECEB7 EQ PUSH2 0x43 JUMPI DUP1 PUSH4 0xD09DE08A EQ PUSH2 0x4D JUMPI DUP1 PUSH4 0xE2A4B2AF EQ PUSH2 0x57 JUMPI JUMPDEST PUSH0 DUP1 REVERT JUMPDEST PUSH2 0x4B PUSH2 0x75 JUMP JUMPDEST STOP JUMPDEST PUSH2 0x55 PUSH2 0xAD JUMP JUMPDEST STOP JUMPDEST PUSH2 0x5F PUSH2 0xE5 JUMP JUMPDEST PUSH1 0x40 MLOAD PUSH2 0x6C SWAP2 SWAP1 PUSH2 0x110 JUMP JUMPDEST PUSH1 0x40 MLOAD DUP1 SWAP2 SUB SWAP1 RETURN JUMPDEST PUSH0 DUP1 DUP2 DUP2 SWAP1 SLOAD SWAP1 PUSH2 0x100 EXP SWAP1 DIV PUSH1 0xFF AND DUP1 SWAP3 SWAP2 SWAP1 PUSH2 0x92 SWAP1 PUSH2 0x156 JUMP JUMPDEST SWAP2 SWAP1 PUSH2 0x100 EXP DUP2 SLOAD DUP2 PUSH1 0xFF MUL NOT AND SWAP1 DUP4 PUSH1 0xFF AND MUL OR SWAP1 SSTORE POP POP JUMP JUMPDEST PUSH0 DUP1 DUP2 DUP2 SWAP1 SLOAD SWAP1 PUSH2 0x100 EXP SWAP1 DIV PUSH1 0xFF AND DUP1 SWAP3 SWAP2 SWAP1 PUSH2 0xCA SWAP1 PUSH2 0x17D JUMP JUMPDEST SWAP2 SWAP1 PUSH2 0x100 EXP DUP2 SLOAD DUP2 PUSH1 0xFF MUL NOT AND SWAP1 DUP4 PUSH1 0xFF AND MUL OR SWAP1 SSTORE POP POP JUMP JUMPDEST PUSH0 DUP1 SLOAD SWAP1 PUSH2 0x100 EXP SWAP1 DIV PUSH1 0xFF AND DUP2 JUMP JUMPDEST PUSH0 PUSH1 0xFF DUP3 AND SWAP1 POP SWAP2 SWAP1 POP JUMP JUMPDEST PUSH2 0x10A DUP2 PUSH2 0xF5 JUMP JUMPDEST DUP3 MSTORE POP POP JUMP JUMPDEST PUSH0 PUSH1 0x20 DUP3 ADD SWAP1 POP PUSH2 0x123 PUSH0 DUP4 ADD DUP5 PUSH2 0x101 JUMP JUMPDEST SWAP3 SWAP2 POP POP JUMP JUMPDEST PUSH32 0x4E487B7100000000000000000000000000000000000000000000000000000000 PUSH0 MSTORE PUSH1 0x11 PUSH1 0x4 MSTORE PUSH1 0x24 PUSH0 REVERT JUMPDEST PUSH0 PUSH2 0x160 DUP3 PUSH2 0xF5 JUMP JUMPDEST SWAP2 POP PUSH0 DUP3 SUB PUSH2 0x172 JUMPI PUSH2 0x171 PUSH2 0x129 JUMP JUMPDEST JUMPDEST PUSH1 0x1 DUP3 SUB SWAP1 POP SWAP2 SWAP1 POP JUMP JUMPDEST PUSH0 PUSH2 0x187 DUP3 PUSH2 0xF5 JUMP JUMPDEST SWAP2 POP PUSH1 0xFF DUP3 SUB PUSH2 0x19A JUMPI PUSH2 0x199 PUSH2 0x129 JUMP JUMPDEST JUMPDEST PUSH1 0x1 DUP3 ADD SWAP1 POP SWAP2 SWAP1 POP JUMP INVALID LOG2 PUSH5 0x6970667358 0x22 SLT KECCAK256 GASPRICE GASLIMIT 0x21 0xA8 PUSH7 0xC08CE238CE4975 0xF8 PC CREATE CALLDATALOAD AND 0xEE MLOAD 0xF7 KECCAK256 0xE5 MLOAD 0xF8 0xA5 0xC6 0xA6 BLOBBASEFEE 0xAE LOG1 0xBF PUSH30 0x64736F6C634300081A003300000000000000000000000000000000000000 "
		},
		"gasEstimates": {
			"creation": {
				"codeDepositCost": "95000",
				"executionCost": "24405",
				"totalCost": "119405"
			},
			"external": {
				"decrement()": "26672",
				"increment()": "26695",
				"myUint8()": "2485"
			}
		},
		"methodIdentifiers": {
			"decrement()": "2baeceb7",
			"increment()": "d09de08a",
			"myUint8()": "e2a4b2af"
		}
	},
	"abi": [
		{
			"inputs": [],
			"name": "decrement",
			"outputs": [],
			"stateMutability": "nonpayable",
			"type": "function"
		},
		{
			"inputs": [],
			"name": "increment",
			"outputs": [],
			"stateMutability": "nonpayable",
			"type": "function"
		},
		{
			"inputs": [],
			"name": "myUint8",
			"outputs": [
				{
					"internalType": "uint8",
					"name": "",
					"type": "uint8"
				}
			],
			"stateMutability": "view",
			"type": "function"
		}
	]
}