{
	"data": {
		"bytecode": {
			"linkReferences": {},
			"object": "6080604052348015600e575f80fd5b5061046a8061001c5f395ff3fe608060405234801561000f575f80fd5b5060043610610060575f3560e01c80635524107714610064578063634899ce1461008057806363717d301461008a5780637c668844146100ba578063b92ba3b8146100ea578063bc65030e1461011a575b5f80fd5b61007e60048036038101906100799190610299565b610136565b005b610088610161565b005b6100a4600480360381019061009f91906102c4565b6101b8565b6040516100b1919061031c565b60405180910390f35b6100d460048036038101906100cf9190610299565b6101ed565b6040516100e1919061031c565b60405180910390f35b61010460048036038101906100ff919061038f565b61020a565b604051610111919061031c565b60405180910390f35b610134600480360381019061012f91906103e4565b610227565b005b6001805f8381526020019081526020015f205f6101000a81548160ff02191690831515021790555050565b600160025f3373ffffffffffffffffffffffffffffffffffffffff1673ffffffffffffffffffffffffffffffffffffffff1681526020019081526020015f205f6101000a81548160ff021916908315150217905550565b5f805f8481526020019081526020015f205f8381526020019081526020015f205f9054906101000a900460ff16905092915050565b6001602052805f5260405f205f915054906101000a900460ff1681565b6002602052805f5260405f205f915054906101000a900460ff1681565b805f808581526020019081526020015f205f8481526020019081526020015f205f6101000a81548160ff021916908315150217905550505050565b5f80fd5b5f819050919050565b61027881610266565b8114610282575f80fd5b50565b5f813590506102938161026f565b92915050565b5f602082840312156102ae576102ad610262565b5b5f6102bb84828501610285565b91505092915050565b5f80604083850312156102da576102d9610262565b5b5f6102e785828601610285565b92505060206102f885828601610285565b9150509250929050565b5f8115159050919050565b61031681610302565b82525050565b5f60208201905061032f5f83018461030d565b92915050565b5f73ffffffffffffffffffffffffffffffffffffffff82169050919050565b5f61035e82610335565b9050919050565b61036e81610354565b8114610378575f80fd5b50565b5f8135905061038981610365565b92915050565b5f602082840312156103a4576103a3610262565b5b5f6103b18482850161037b565b91505092915050565b6103c381610302565b81146103cd575f80fd5b50565b5f813590506103de816103ba565b92915050565b5f805f606084860312156103fb576103fa610262565b5b5f61040886828701610285565b935050602061041986828701610285565b925050604061042a868287016103d0565b915050925092509256fea26469706673582212209995f892c4edb6f10b2e80b475b1a8bac376b8b34f23add1a8240f7e1c9929b564736f6c634300081a0033",
			"opcodes": "PUSH1 0x80 PUSH1 0x40 MSTORE CALLVALUE DUP1 ISZERO PUSH1 0xE JUMPI PUSH0 DUP1 REVERT JUMPDEST POP PUSH2 0x46A DUP1 PUSH2 0x1C PUSH0 CODECOPY PUSH0 RETURN INVALID PUSH1 0x80 PUSH1 0x40 MSTORE CALLVALUE DUP1 ISZERO PUSH2 0xF JUMPI PUSH0 DUP1 REVERT JUMPDEST POP PUSH1 0x4 CALLDATASIZE LT PUSH2 0x60 JUMPI PUSH0 CALLDATALOAD PUSH1 0xE0 SHR DUP1 PUSH4 0x55241077 EQ PUSH2 0x64 JUMPI DUP1 PUSH4 0x634899CE EQ PUSH2 0x80 JUMPI DUP1 PUSH4 0x63717D30 EQ PUSH2 0x8A JUMPI DUP1 PUSH4 0x7C668844 EQ PUSH2 0xBA JUMPI DUP1 PUSH4 0xB92BA3B8 EQ PUSH2 0xEA JUMPI DUP1 PUSH4 0xBC65030E EQ PUSH2 0x11A JUMPI JUMPDEST PUSH0 DUP1 REVERT JUMPDEST PUSH2 0x7E PUSH1 0x4 DUP1 CALLDATASIZE SUB DUP2 ADD SWAP1 PUSH2 0x79 SWAP2 SWAP1 PUSH2 0x299 JUMP JUMPDEST PUSH2 0x136 JUMP JUMPDEST STOP JUMPDEST PUSH2 0x88 PUSH2 0x161 JUMP JUMPDEST STOP JUMPDEST PUSH2 0xA4 PUSH1 0x4 DUP1 CALLDATASIZE SUB DUP2 ADD SWAP1 PUSH2 0x9F SWAP2 SWAP1 PUSH2 0x2C4 JUMP JUMPDEST PUSH2 0x1B8 JUMP JUMPDEST PUSH1 0x40 MLOAD PUSH2 0xB1 SWAP2 SWAP1 PUSH2 0x31C JUMP JUMPDEST PUSH1 0x40 MLOAD DUP1 SWAP2 SUB SWAP1 RETURN JUMPDEST PUSH2 0xD4 PUSH1 0x4 DUP1 CALLDATASIZE SUB DUP2 ADD SWAP1 PUSH2 0xCF SWAP2 SWAP1 PUSH2 0x299 JUMP JUMPDEST PUSH2 0x1ED JUMP JUMPDEST PUSH1 0x40 MLOAD PUSH2 0xE1 SWAP2 SWAP1 PUSH2 0x31C JUMP JUMPDEST PUSH1 0x40 MLOAD DUP1 SWAP2 SUB SWAP1 RETURN JUMPDEST PUSH2 0x104 PUSH1 0x4 DUP1 CALLDATASIZE SUB DUP2 ADD SWAP1 PUSH2 0xFF SWAP2 SWAP1 PUSH2 0x38F JUMP JUMPDEST PUSH2 0x20A JUMP JUMPDEST PUSH1 0x40 MLOAD PUSH2 0x111 SWAP2 SWAP1 PUSH2 0x31C JUMP JUMPDEST PUSH1 0x40 MLOAD DUP1 SWAP2 SUB SWAP1 RETURN JUMPDEST PUSH2 0x134 PUSH1 0x4 DUP1 CALLDATASIZE SUB DUP2 ADD SWAP1 PUSH2 0x12F SWAP2 SWAP1 PUSH2 0x3E4 JUMP JUMPDEST PUSH2 0x227 JUMP JUMPDEST STOP JUMPDEST PUSH1 0x1 DUP1 PUSH0 DUP4 DUP2 MSTORE PUSH1 0x20 ADD SWAP1 DUP2 MSTORE PUSH1 0x20 ADD PUSH0 KECCAK256 PUSH0 PUSH2 0x100 EXP DUP2 SLOAD DUP2 PUSH1 0xFF MUL NOT AND SWAP1 DUP4 ISZERO ISZERO MUL OR SWAP1 SSTORE POP POP JUMP JUMPDEST PUSH1 0x1 PUSH1 0x2 PUSH0 CALLER PUSH20 0xFFFFFFFFFFFFFFFFFFFFFFFFFFFFFFFFFFFFFFFF AND PUSH20 0xFFFFFFFFFFFFFFFFFFFFFFFFFFFFFFFFFFFFFFFF AND DUP2 MSTORE PUSH1 0x20 ADD SWAP1 DUP2 MSTORE PUSH1 0x20 ADD PUSH0 KECCAK256 PUSH0 PUSH2 0x100 EXP DUP2 SLOAD DUP2 PUSH1 0xFF MUL NOT AND SWAP1 DUP4 ISZERO ISZERO MUL OR SWAP1 SSTORE POP JUMP JUMPDEST PUSH0 DUP1 PUSH0 DUP5 DUP2 MSTORE PUSH1 0x20 ADD SWAP1 DUP2 MSTORE PUSH1 0x20 ADD PUSH0 KECCAK256 PUSH0 DUP4 DUP2 MSTORE PUSH1 0x20 ADD SWAP1 DUP2 MSTORE PUSH1 0x20 ADD PUSH0 KECCAK256 PUSH0 SWAP1 SLOAD SWAP1 PUSH2 0x100 EXP SWAP1 DIV PUSH1 0xFF AND SWAP1 POP SWAP3 SWAP2 POP POP JUMP JUMPDEST PUSH1 0x1 PUSH1 0x20 MSTORE DUP1 PUSH0 MSTORE PUSH1 0x40 PUSH0 KECCAK256 PUSH0 SWAP2 POP SLOAD SWAP1 PUSH2 0x100 EXP SWAP1 DIV PUSH1 0xFF AND DUP2 JUMP JUMPDEST PUSH1 0x2 PUSH1 0x20 MSTORE DUP1 PUSH0 MSTORE PUSH1 0x40 PUSH0 KECCAK256 PUSH0 SWAP2 POP SLOAD SWAP1 PUSH2 0x100 EXP SWAP1 DIV PUSH1 0xFF AND DUP2 JUMP JUMPDEST DUP1 PUSH0 DUP1 DUP6 DUP2 MSTORE PUSH1 0x20 ADD SWAP1 DUP2 MSTORE PUSH1 0x20 ADD PUSH0 KECCAK256 PUSH0 DUP5 DUP2 MSTORE PUSH1 0x20 ADD SWAP1 DUP2 MSTORE PUSH1 0x20 ADD PUSH0 KECCAK256 PUSH0 PUSH2 0x100 EXP DUP2 SLOAD DUP2 PUSH1 0xFF MUL NOT AND SWAP1 DUP4 ISZERO ISZERO MUL OR SWAP1 SSTORE POP POP POP POP JUMP JUMPDEST PUSH0 DUP1 REVERT JUMPDEST PUSH0 DUP2 SWAP1 POP SWAP2 SWAP1 POP JUMP JUMPDEST PUSH2 0x278 DUP2 PUSH2 0x266 JUMP JUMPDEST DUP2 EQ PUSH2 0x282 JUMPI PUSH0 DUP1 REVERT JUMPDEST POP JUMP JUMPDEST PUSH0 DUP2 CALLDATALOAD SWAP1 POP PUSH2 0x293 DUP2 PUSH2 0x26F JUMP JUMPDEST SWAP3 SWAP2 POP POP JUMP JUMPDEST PUSH0 PUSH1 0x20 DUP3 DUP5 SUB SLT ISZERO PUSH2 0x2AE JUMPI PUSH2 0x2AD PUSH2 0x262 JUMP JUMPDEST JUMPDEST PUSH0 PUSH2 0x2BB DUP5 DUP3 DUP6 ADD PUSH2 0x285 JUMP JUMPDEST SWAP2 POP POP SWAP3 SWAP2 POP POP JUMP JUMPDEST PUSH0 DUP1 PUSH1 0x40 DUP4 DUP6 SUB SLT ISZERO PUSH2 0x2DA JUMPI PUSH2 0x2D9 PUSH2 0x262 JUMP JUMPDEST JUMPDEST PUSH0 PUSH2 0x2E7 DUP6 DUP3 DUP7 ADD PUSH2 0x285 JUMP JUMPDEST SWAP3 POP POP PUSH1 0x20 PUSH2 0x2F8 DUP6 DUP3 DUP7 ADD PUSH2 0x285 JUMP JUMPDEST SWAP2 POP POP SWAP3 POP SWAP3 SWAP1 POP JUMP JUMPDEST PUSH0 DUP2 ISZERO ISZERO SWAP1 POP SWAP2 SWAP1 POP JUMP JUMPDEST PUSH2 0x316 DUP2 PUSH2 0x302 JUMP JUMPDEST DUP3 MSTORE POP POP JUMP JUMPDEST PUSH0 PUSH1 0x20 DUP3 ADD SWAP1 POP PUSH2 0x32F PUSH0 DUP4 ADD DUP5 PUSH2 0x30D JUMP JUMPDEST SWAP3 SWAP2 POP POP JUMP JUMPDEST PUSH0 PUSH20 0xFFFFFFFFFFFFFFFFFFFFFFFFFFFFFFFFFFFFFFFF DUP3 AND SWAP1 POP SWAP2 SWAP1 POP JUMP JUMPDEST PUSH0 PUSH2 0x35E DUP3 PUSH2 0x335 JUMP JUMPDEST SWAP1 POP SWAP2 SWAP1 POP JUMP JUMPDEST PUSH2 0x36E DUP2 PUSH2 0x354 JUMP JUMPDEST DUP2 EQ PUSH2 0x378 JUMPI PUSH0 DUP1 REVERT JUMPDEST POP JUMP JUMPDEST PUSH0 DUP2 CALLDATALOAD SWAP1 POP PUSH2 0x389 DUP2 PUSH2 0x365 JUMP JUMPDEST SWAP3 SWAP2 POP POP JUMP JUMPDEST PUSH0 PUSH1 0x20 DUP3 DUP5 SUB SLT ISZERO PUSH2 0x3A4 JUMPI PUSH2 0x3A3 PUSH2 0x262 JUMP JUMPDEST JUMPDEST PUSH0 PUSH2 0x3B1 DUP5 DUP3 DUP6 ADD PUSH2 0x37B JUMP JUMPDEST SWAP2 POP POP SWAP3 SWAP2 POP POP JUMP JUMPDEST PUSH2 0x3C3 DUP2 PUSH2 0x302 JUMP JUMPDEST DUP2 EQ PUSH2 0x3CD JUMPI PUSH0 DUP1 REVERT JUMPDEST POP JUMP JUMPDEST PUSH0 DUP2 CALLDATALOAD SWAP1 POP PUSH2 0x3DE DUP2 PUSH2 0x3BA JUMP JUMPDEST SWAP3 SWAP2 POP POP JUMP JUMPDEST PUSH0 DUP1 PUSH0 PUSH1 0x60 DUP5 DUP7 SUB SLT ISZERO PUSH2 0x3FB JUMPI PUSH2 0x3FA PUSH2 0x262 JUMP JUMPDEST JUMPDEST PUSH0 PUSH2 0x408 DUP7 DUP3 DUP8 ADD PUSH2 0x285 JUMP JUMPDEST SWAP4 POP POP PUSH1 0x20 PUSH2 0x419 DUP7 DUP3 DUP8 ADD PUSH2 0x285 JUMP JUMPDEST SWAP3 POP POP PUSH1 0x40 PUSH2 0x42A DUP7 DUP3 DUP8 ADD PUSH2 0x3D0 JUMP JUMPDEST SWAP2 POP POP SWAP3 POP SWAP3 POP SWAP3 JUMP INVALID LOG2 PUSH5 0x6970667358 0x22 SLT KECCAK256 SWAP10 SWAP6 0xF8 SWAP3 0xC4 0xED 0xB6 CALL SIGNEXTEND 0x2E DUP1 0xB4 PUSH22 0xB1A8BAC376B8B34F23ADD1A8240F7E1C9929B564736F PUSH13 0x634300081A0033000000000000 "
		},
		"gasEstimates": {
			"creation": {
				"codeDepositCost": "226000",
				"executionCost": "267",
				"totalCost": "226267"
			},
			"external": {
				"getUintUintBoolMapping(uint256,uint256)": "infinite",
				"myAddressMapping(address)": "2899",
				"myMapping(uint256)": "2829",
				"setMyAddressToTrue()": "24496",
				"setUintUintBoolMapping(uint256,uint256,bool)": "infinite",
				"setValue(uint256)": "24721"
			}
		},
		"methodIdentifiers": {
			"getUintUintBoolMapping(uint256,uint256)": "63717d30",
			"myAddressMapping(address)": "b92ba3b8",
			"myMapping(uint256)": "7c668844",
			"setMyAddressToTrue()": "634899ce",
			"setUintUintBoolMapping(uint256,uint256,bool)": "bc65030e",
			"setValue(uint256)": "55241077"
		}
	},
	"abi": [
		{
			"inputs": [
				{
					"internalType": "uint256",
					"name": "_index1",
					"type": "uint256"
				},
				{
					"internalType": "uint256",
					"name": "_index2",
					"type": "uint256"
				}
			],
			"name": "getUintUintBoolMapping",
			"outputs": [
				{
					"internalType": "bool",
					"name": "",
					"type": "bool"
				}
			],
			"stateMutability": "view",
			"type": "function"
		},
		{
			"inputs": [
				{
					"internalType": "address",
					"name": "",
					"type": "address"
				}
			],
			"name": "myAddressMapping",
			"outputs": [
				{
					"internalType": "bool",
					"name": "",
					"type": "bool"
				}
			],
			"stateMutability": "view",
			"type": "function"
		},
		{
			"inputs": [
				{
					"internalType": "uint256",
					"name": "",
					"type": "uint256"
				}
			],
			"name": "myMapping",
			"outputs": [
				{
					"internalType": "bool",
					"name": "",
					"type": "bool"
				}
			],
			"stateMutability": "view",
			"type": "function"
		},
		{
			"inputs": [],
			"name": "setMyAddressToTrue",
			"outputs": [],
			"stateMutability": "nonpayable",
			"type": "function"
		},
		{
			"inputs": [
				{
					"internalType": "uint256",
					"name": "_index1",
					"type": "uint256"
				},
				{
					"internalType": "uint256",
					"name": "_index2",
					"type": "uint256"
				},
				{
					"internalType": "bool",
					"name": "_value",
					"type": "bool"
				}
			],
			"name": "setUintUintBoolMapping",
			"outputs": [],
			"stateMutability": "nonpayable",
			"type": "function"
		},
		{
			"inputs": [
				{
					"internalType": "uint256",
					"name": "_index",
					"type": "uint256"
				}
			],
			"name": "setValue",
			"outputs": [],
			"stateMutability": "nonpayable",
			"type": "function"
		}
	]
}