{
	"data": {
		"bytecode": {
			"linkReferences": {},
			"object": "6080604052348015600e575f80fd5b506102178061001c5f395ff3fe608060405234801561000f575f80fd5b5060043610610029575f3560e01c80639b4bbfd61461002d575b5f80fd5b61004760048036038101906100429190610147565b610049565b005b8273ffffffffffffffffffffffffffffffffffffffff168473ffffffffffffffffffffffffffffffffffffffff167f2e99fd66dad9611ac11d08dcbfdb417ac840074a8659831e928c70a92a6215e784846040516100a89291906101ba565b60405180910390a350505050565b5f80fd5b5f73ffffffffffffffffffffffffffffffffffffffff82169050919050565b5f6100e3826100ba565b9050919050565b6100f3816100d9565b81146100fd575f80fd5b50565b5f8135905061010e816100ea565b92915050565b5f819050919050565b61012681610114565b8114610130575f80fd5b50565b5f813590506101418161011d565b92915050565b5f805f806080858703121561015f5761015e6100b6565b5b5f61016c87828801610100565b945050602061017d87828801610100565b935050604061018e87828801610133565b925050606061019f87828801610133565b91505092959194509250565b6101b481610114565b82525050565b5f6040820190506101cd5f8301856101ab565b6101da60208301846101ab565b939250505056fea2646970667358221220a839e14fc8f38679bac8892de1bdf97f2f712c5a8faafabe63808891a615793d64736f6c634300081a0033",
			"opcodes": "PUSH1 0x80 PUSH1 0x40 MSTORE CALLVALUE DUP1 ISZERO PUSH1 0xE JUMPI PUSH0 DUP1 REVERT JUMPDEST POP PUSH2 0x217 DUP1 PUSH2 0x1C PUSH0 CODECOPY PUSH0 RETURN INVALID PUSH1 0x80 PUSH1 0x40 MSTORE CALLVALUE DUP1 ISZERO PUSH2 0xF JUMPI PUSH0 DUP1 REVERT JUMPDEST POP PUSH1 0x4 CALLDATASIZE LT PUSH2 0x29 JUMPI PUSH0 CALLDATALOAD PUSH1 0xE0 SHR DUP1 PUSH4 0x9B4BBFD6 EQ PUSH2 0x2D JUMPI JUMPDEST PUSH0 DUP1 REVERT JUMPDEST PUSH2 0x47 PUSH1 0x4 DUP1 CALLDATASIZE SUB DUP2 ADD SWAP1 PUSH2 0x42 SWAP2 SWAP1 PUSH2 0x147 JUMP JUMPDEST PUSH2 0x49 JUMP JUMPDEST STOP JUMPDEST DUP3 PUSH20 0xFFFFFFFFFFFFFFFFFFFFFFFFFFFFFFFFFFFFFFFF AND DUP5 PUSH20 0xFFFFFFFFFFFFFFFFFFFFFFFFFFFFFFFFFFFFFFFF AND PUSH32 0x2E99FD66DAD9611AC11D08DCBFDB417AC840074A8659831E928C70A92A6215E7 DUP5 DUP5 PUSH1 0x40 MLOAD PUSH2 0xA8 SWAP3 SWAP2 SWAP1 PUSH2 0x1BA JUMP JUMPDEST PUSH1 0x40 MLOAD DUP1 SWAP2 SUB SWAP1 LOG3 POP POP POP POP JUMP JUMPDEST PUSH0 DUP1 REVERT JUMPDEST PUSH0 PUSH20 0xFFFFFFFFFFFFFFFFFFFFFFFFFFFFFFFFFFFFFFFF DUP3 AND SWAP1 POP SWAP2 SWAP1 POP JUMP JUMPDEST PUSH0 PUSH2 0xE3 DUP3 PUSH2 0xBA JUMP JUMPDEST SWAP1 POP SWAP2 SWAP1 POP JUMP JUMPDEST PUSH2 0xF3 DUP2 PUSH2 0xD9 JUMP JUMPDEST DUP2 EQ PUSH2 0xFD JUMPI PUSH0 DUP1 REVERT JUMPDEST POP JUMP JUMPDEST PUSH0 DUP2 CALLDATALOAD SWAP1 POP PUSH2 0x10E DUP2 PUSH2 0xEA JUMP JUMPDEST SWAP3 SWAP2 POP POP JUMP JUMPDEST PUSH0 DUP2 SWAP1 POP SWAP2 SWAP1 POP JUMP JUMPDEST PUSH2 0x126 DUP2 PUSH2 0x114 JUMP JUMPDEST DUP2 EQ PUSH2 0x130 JUMPI PUSH0 DUP1 REVERT JUMPDEST POP JUMP JUMPDEST PUSH0 DUP2 CALLDATALOAD SWAP1 POP PUSH2 0x141 DUP2 PUSH2 0x11D JUMP JUMPDEST SWAP3 SWAP2 POP POP JUMP JUMPDEST PUSH0 DUP1 PUSH0 DUP1 PUSH1 0x80 DUP6 DUP8 SUB SLT ISZERO PUSH2 0x15F JUMPI PUSH2 0x15E PUSH2 0xB6 JUMP JUMPDEST JUMPDEST PUSH0 PUSH2 0x16C DUP8 DUP3 DUP9 ADD PUSH2 0x100 JUMP JUMPDEST SWAP5 POP POP PUSH1 0x20 PUSH2 0x17D DUP8 DUP3 DUP9 ADD PUSH2 0x100 JUMP JUMPDEST SWAP4 POP POP PUSH1 0x40 PUSH2 0x18E DUP8 DUP3 DUP9 ADD PUSH2 0x133 JUMP JUMPDEST SWAP3 POP POP PUSH1 0x60 PUSH2 0x19F DUP8 DUP3 DUP9 ADD PUSH2 0x133 JUMP JUMPDEST SWAP2 POP POP SWAP3 SWAP6 SWAP2 SWAP5 POP SWAP3 POP JUMP JUMPDEST PUSH2 0x1B4 DUP2 PUSH2 0x114 JUMP JUMPDEST DUP3 MSTORE POP POP JUMP JUMPDEST PUSH0 PUSH1 0x40 DUP3 ADD SWAP1 POP PUSH2 0x1CD PUSH0 DUP4 ADD DUP6 PUSH2 0x1AB JUMP JUMPDEST PUSH2 0x1DA PUSH1 0x20 DUP4 ADD DUP5 PUSH2 0x1AB JUMP JUMPDEST SWAP4 SWAP3 POP POP POP JUMP INVALID LOG2 PUSH5 0x6970667358 0x22 SLT KECCAK256 0xA8 CODECOPY 0xE1 0x4F 0xC8 RETURN DUP7 PUSH26 0xBAC8892DE1BDF97F2F712C5A8FAAFABE63808891A615793D6473 PUSH16 0x6C634300081A00330000000000000000 "
		},
		"gasEstimates": {
			"creation": {
				"codeDepositCost": "107000",
				"executionCost": "151",
				"totalCost": "107151"
			},
			"external": {
				"emitRegister(address,address,uint256,uint256)": "infinite"
			}
		},
		"methodIdentifiers": {
			"emitRegister(address,address,uint256,uint256)": "9b4bbfd6"
		}
	},
	"abi": [
		{
			"anonymous": false,
			"inputs": [
				{
					"indexed": true,
					"internalType": "address",
					"name": "_to",
					"type": "address"
				},
				{
					"indexed": true,
					"internalType": "address",
					"name": "_from",
					"type": "address"
				},
				{
					"indexed": false,
					"internalType": "uint256",
					"name": "val1",
					"type": "uint256"
				},
				{
					"indexed": false,
					"internalType": "uint256",
					"name": "val2",
					"type": "uint256"
				}
			],
			"name": "Register",
			"type": "event"
		},
		{
			"inputs": [
				{
					"internalType": "address",
					"name": "_to",
					"type": "address"
				},
				{
					"internalType": "address",
					"name": "_from",
					"type": "address"
				},
				{
					"internalType": "uint256",
					"name": "val1",
					"type": "uint256"
				},
				{
					"internalType": "uint256",
					"name": "val2",
					"type": "uint256"
				}
			],
			"name": "emitRegister",
			"outputs": [],
			"stateMutability": "nonpayable",
			"type": "function"
		}
	]
}