{
	"data": {
		"bytecode": {
			"linkReferences": {},
			"object": "6080604052348015600e575f80fd5b5061017d8061001c5f395ff3fe608060405234801561000f575f80fd5b5060043610610029575f3560e01c806339c117a41461002d575b5f80fd5b610035610037565b005b6040517fc6ac2a9b00000000000000000000000000000000000000000000000000000000815260040161006990610116565b60405180910390fd5b5f82825260208201905092915050565b7f54657874203100000000000000000000000000000000000000000000000000005f82015250565b5f6100b6600683610072565b91506100c182610082565b602082019050919050565b7f74657874206d65737361676520320000000000000000000000000000000000005f82015250565b5f610100600e83610072565b915061010b826100cc565b602082019050919050565b5f6040820190508181035f83015261012d816100aa565b90508181036020830152610140816100f4565b905091905056fea2646970667358221220b9d65c9a893fe34c9df482519cff24bd11874bc7612db32bf9657e4cde6975fe64736f6c634300081a0033",
			"opcodes": "PUSH1 0x80 PUSH1 0x40 MSTORE CALLVALUE DUP1 ISZERO PUSH1 0xE JUMPI PUSH0 DUP1 REVERT JUMPDEST POP PUSH2 0x17D DUP1 PUSH2 0x1C PUSH0 CODECOPY PUSH0 RETURN INVALID PUSH1 0x80 PUSH1 0x40 MSTORE CALLVALUE DUP1 ISZERO PUSH2 0xF JUMPI PUSH0 DUP1 REVERT JUMPDEST POP PUSH1 0x4 CALLDATASIZE LT PUSH2 0x29 JUMPI PUSH0 CALLDATALOAD PUSH1 0xE0 SHR DUP1 PUSH4 0x39C117A4 EQ PUSH2 0x2D JUMPI JUMPDEST PUSH0 DUP1 REVERT JUMPDEST PUSH2 0x35 PUSH2 0x37 JUMP JUMPDEST STOP JUMPDEST PUSH1 0x40 MLOAD PUSH32 0xC6AC2A9B00000000000000000000000000000000000000000000000000000000 DUP2 MSTORE PUSH1 0x4 ADD PUSH2 0x69 SWAP1 PUSH2 0x116 JUMP JUMPDEST PUSH1 0x40 MLOAD DUP1 SWAP2 SUB SWAP1 REVERT JUMPDEST PUSH0 DUP3 DUP3 MSTORE PUSH1 0x20 DUP3 ADD SWAP1 POP SWAP3 SWAP2 POP POP JUMP JUMPDEST PUSH32 0x5465787420310000000000000000000000000000000000000000000000000000 PUSH0 DUP3 ADD MSTORE POP JUMP JUMPDEST PUSH0 PUSH2 0xB6 PUSH1 0x6 DUP4 PUSH2 0x72 JUMP JUMPDEST SWAP2 POP PUSH2 0xC1 DUP3 PUSH2 0x82 JUMP JUMPDEST PUSH1 0x20 DUP3 ADD SWAP1 POP SWAP2 SWAP1 POP JUMP JUMPDEST PUSH32 0x74657874206D6573736167652032000000000000000000000000000000000000 PUSH0 DUP3 ADD MSTORE POP JUMP JUMPDEST PUSH0 PUSH2 0x100 PUSH1 0xE DUP4 PUSH2 0x72 JUMP JUMPDEST SWAP2 POP PUSH2 0x10B DUP3 PUSH2 0xCC JUMP JUMPDEST PUSH1 0x20 DUP3 ADD SWAP1 POP SWAP2 SWAP1 POP JUMP JUMPDEST PUSH0 PUSH1 0x40 DUP3 ADD SWAP1 POP DUP2 DUP2 SUB PUSH0 DUP4 ADD MSTORE PUSH2 0x12D DUP2 PUSH2 0xAA JUMP JUMPDEST SWAP1 POP DUP2 DUP2 SUB PUSH1 0x20 DUP4 ADD MSTORE PUSH2 0x140 DUP2 PUSH2 0xF4 JUMP JUMPDEST SWAP1 POP SWAP2 SWAP1 POP JUMP INVALID LOG2 PUSH5 0x6970667358 0x22 SLT KECCAK256 0xB9 0xD6 TLOAD SWAP11 DUP10 EXTCODEHASH 0xE3 0x4C SWAP14 DELEGATECALL DUP3 MLOAD SWAP13 SELFDESTRUCT 0x24 0xBD GT DUP8 0x4B 0xC7 PUSH2 0x2DB3 0x2B 0xF9 PUSH6 0x7E4CDE6975FE PUSH5 0x736F6C6343 STOP ADDMOD BYTE STOP CALLER "
		},
		"gasEstimates": {
			"creation": {
				"codeDepositCost": "76200",
				"executionCost": "121",
				"totalCost": "76321"
			},
			"external": {
				"aFunction()": "infinite"
			}
		},
		"methodIdentifiers": {
			"aFunction()": "39c117a4"
		}
	},
	"abi": [
		{
			"inputs": [
				{
					"internalType": "string",
					"name": "",
					"type": "string"
				},
				{
					"internalType": "string",
					"name": "",
					"type": "string"
				}
			],
			"name": "ThisIsACustomError",
			"type": "error"
		},
		{
			"inputs": [],
			"name": "aFunction",
			"outputs": [],
			"stateMutability": "pure",
			"type": "function"
		}
	]
}